{"contracts/OptimusPrime.sol":{"OptimusPrime":{"abi":[{"inputs":[{"internalType":"address","name":"_pancakeswapRouterV3","type":"address"}],"stateMutability":"nonpayable","type":"constructor"},{"inputs":[{"internalType":"uint256","name":"finalBalance","type":"uint256"}],"name":"NoProfit","type":"error"},{"inputs":[{"internalType":"address","name":"sender","type":"address"}],"name":"NotTheOwner","type":"error"},{"inputs":[{"internalType":"address","name":"sender","type":"address"}],"name":"NotTheTradeExecutor","type":"error"},{"inputs":[{"internalType":"address","name":"token","type":"address"}],"name":"TokenNotAccepted","type":"error"},{"anonymous":false,"inputs":[{"indexed":false,"internalType":"uint256","name":"_finalBalance","type":"uint256"}],"name":"Profit","type":"event"},{"inputs":[{"internalType":"address","name":"tokenToApprove","type":"address"},{"internalType":"address","name":"spender","type":"address"},{"internalType":"uint256","name":"amount","type":"uint256"}],"name":"approveToken","outputs":[],"stateMutability":"nonpayable","type":"function"},{"inputs":[{"internalType":"address","name":"token","type":"address"},{"internalType":"uint256","name":"amount","type":"uint256"}],"name":"depositToken","outputs":[],"stateMutability":"nonpayable","type":"function"},{"inputs":[],"name":"isLocked","outputs":[{"internalType":"bool","name":"","type":"bool"}],"stateMutability":"view","type":"function"},{"inputs":[],"name":"lock","outputs":[],"stateMutability":"nonpayable","type":"function"},{"inputs":[],"name":"pancakeRouterV3","outputs":[{"internalType":"contract IV3PancakeSwapRouter","name":"","type":"address"}],"stateMutability":"view","type":"function"},{"inputs":[],"name":"returnBlockTimestamp","outputs":[{"internalType":"uint256","name":"","type":"uint256"}],"stateMutability":"view","type":"function"},{"inputs":[{"internalType":"address","name":"tokenA","type":"address"},{"internalType":"uint24","name":"poolFee","type":"uint24"},{"internalType":"address","name":"tokenB","type":"address"}],"name":"returnPathData","outputs":[{"internalType":"bytes","name":"","type":"bytes"}],"stateMutability":"pure","type":"function"},{"inputs":[{"internalType":"address","name":"token","type":"address"}],"name":"returnTokenBalance","outputs":[{"internalType":"uint256","name":"","type":"uint256"}],"stateMutability":"view","type":"function"},{"inputs":[{"internalType":"address","name":"_tradeExecutor","type":"address"}],"name":"setTradeExecutor","outputs":[],"stateMutability":"nonpayable","type":"function"},{"inputs":[],"name":"swapUSDCforUSDTnoSlippage","outputs":[],"stateMutability":"nonpayable","type":"function"},{"inputs":[],"name":"swapUSDTforUSDCnoSlippage","outputs":[],"stateMutability":"nonpayable","type":"function"},{"inputs":[{"components":[{"internalType":"bytes","name":"path","type":"bytes"},{"internalType":"address","name":"recipient","type":"address"},{"internalType":"uint256","name":"deadline","type":"uint256"},{"internalType":"uint256","name":"amountIn","type":"uint256"},{"internalType":"uint256","name":"amountOutMinimum","type":"uint256"}],"internalType":"struct IV3PancakeSwapRouter.ExactInputParams","name":"params","type":"tuple"},{"internalType":"uint256","name":"initialAmountIn","type":"uint256"}],"name":"trade1","outputs":[],"stateMutability":"nonpayable","type":"function"},{"inputs":[{"components":[{"internalType":"bytes","name":"path","type":"bytes"},{"internalType":"address","name":"recipient","type":"address"},{"internalType":"uint256","name":"deadline","type":"uint256"},{"internalType":"uint256","name":"amountIn","type":"uint256"},{"internalType":"uint256","name":"amountOutMinimum","type":"uint256"}],"internalType":"struct IV3PancakeSwapRouter.ExactInputParams","name":"params","type":"tuple"},{"internalType":"uint256","name":"initialAmountIn","type":"uint256"}],"name":"trade2","outputs":[],"stateMutability":"nonpayable","type":"function"},{"inputs":[],"name":"tradeExecutor","outputs":[{"internalType":"address","name":"","type":"address"}],"stateMutability":"view","type":"function"},{"inputs":[],"name":"unlock","outputs":[],"stateMutability":"nonpayable","type":"function"},{"inputs":[],"name":"usdc","outputs":[{"internalType":"contract IERC20","name":"","type":"address"}],"stateMutability":"view","type":"function"},{"inputs":[],"name":"usdt","outputs":[{"internalType":"contract IERC20","name":"","type":"address"}],"stateMutability":"view","type":"function"},{"inputs":[],"name":"weth","outputs":[{"internalType":"contract IERC20","name":"","type":"address"}],"stateMutability":"view","type":"function"},{"inputs":[{"internalType":"address","name":"token","type":"address"},{"internalType":"uint256","name":"amount","type":"uint256"}],"name":"withdrawToken","outputs":[],"stateMutability":"nonpayable","type":"function"}],"evm":{"bytecode":{"linkReferences":{},"object":"60c06040523480156200001157600080fd5b50604051620025af380380620025af833981810160405281019062000037919062000110565b8073ffffffffffffffffffffffffffffffffffffffff1660a08173ffffffffffffffffffffffffffffffffffffffff16815250503373ffffffffffffffffffffffffffffffffffffffff1660808173ffffffffffffffffffffffffffffffffffffffff16815250505062000142565b600080fd5b600073ffffffffffffffffffffffffffffffffffffffff82169050919050565b6000620000d882620000ab565b9050919050565b620000ea81620000cb565b8114620000f657600080fd5b50565b6000815190506200010a81620000df565b92915050565b600060208284031215620001295762000128620000a6565b5b60006200013984828501620000f9565b91505092915050565b60805160a0516123fa620001b56000396000818161044c015281816107d80152818161099c0152818161114a015261168b01526000818161062301528181610b8b01528181610de501528181610f95015281816111ec015281816114510152818161157701526116e601526123fa6000f3fe608060405234801561001057600080fd5b50600436106101215760003560e01c80639e281a98116100ad578063da3e339711610071578063da3e339714610296578063e47aaf6d146102b2578063f1584673146102d0578063f556d1d414610300578063f83d08ba1461031e57610121565b80639e281a9814610204578063a119b86e14610220578063a4e2d63414610250578063a69df4b51461026e578063a7f070111461027857610121565b8063338b5dea116100f4578063338b5dea146101865780633e413bee146101a25780633fc8cef3146101c05780635767c659146101de5780637201c6be146101fa57610121565b806305ddad1f146101265780630ebaf45814610142578063272a6dd91461014c5780632f48ab7d14610168575b600080fd5b610140600480360381019061013b9190611a87565b610328565b005b61014a610621565b005b61016660048036038101906101619190611a87565b610878565b005b610170610b71565b60405161017d9190611b42565b60405180910390f35b6101a0600480360381019061019b9190611b5d565b610b89565b005b6101aa610db3565b6040516101b79190611b42565b60405180910390f35b6101c8610dcb565b6040516101d59190611b42565b60405180910390f35b6101f860048036038101906101f39190611b9d565b610de3565b005b610202610f93565b005b61021e60048036038101906102199190611b5d565b6111ea565b005b61023a60048036038101906102359190611b9d565b6113b9565b6040516102479190611bd9565b60405180910390f35b61025861143c565b6040516102659190611c0f565b60405180910390f35b61027661144f565b005b610280611551565b60405161028d9190611c39565b60405180910390f35b6102b060048036038101906102ab9190611c54565b611575565b005b6102ba611689565b6040516102c79190611cc8565b60405180910390f35b6102ea60048036038101906102e59190611d1e565b6116ad565b6040516102f79190611df0565b60405180910390f35b6103086116dc565b6040516103159190611bd9565b60405180910390f35b6103266116e4565b005b60008054906101000a900473ffffffffffffffffffffffffffffffffffffffff1673ffffffffffffffffffffffffffffffffffffffff163373ffffffffffffffffffffffffffffffffffffffff16146103b857336040517f4104d7d70000000000000000000000000000000000000000000000000000000081526004016103af9190611c39565b60405180910390fd5b600073fd086bc7cd5c481dcc9c85ebe478a1c0b69fcbb973ffffffffffffffffffffffffffffffffffffffff166370a08231306040518263ffffffff1660e01b81526004016104079190611c39565b602060405180830381865afa158015610424573d6000803e3d6000fd5b505050506040513d601f19601f820116820180604052508101906104489190611e27565b90507f000000000000000000000000000000000000000000000000000000000000000073ffffffffffffffffffffffffffffffffffffffff1663c04b8d59846040518263ffffffff1660e01b81526004016104a39190611f32565b6020604051808303816000875af11580156104c2573d6000803e3d6000fd5b505050506040513d601f19601f820116820180604052508101906104e69190611e27565b50600073fd086bc7cd5c481dcc9c85ebe478a1c0b69fcbb973ffffffffffffffffffffffffffffffffffffffff166370a08231306040518263ffffffff1660e01b81526004016105369190611c39565b602060405180830381865afa158015610553573d6000803e3d6000fd5b505050506040513d601f19601f820116820180604052508101906105779190611e27565b90508282826105869190611f83565b11156105d3577f357d905f1831209797df4d55d79c5c5bf1d9f7311c976afd05e13d881eab9bc882826105b99190611f83565b6040516105c69190611bd9565b60405180910390a161061b565b81816105df9190611f83565b6040517fd4989a940000000000000000000000000000000000000000000000000000000081526004016106129190611bd9565b60405180910390fd5b50505050565b7f000000000000000000000000000000000000000000000000000000000000000073ffffffffffffffffffffffffffffffffffffffff163373ffffffffffffffffffffffffffffffffffffffff16146106b157336040517ff9ebb4c70000000000000000000000000000000000000000000000000000000081526004016106a89190611c39565b60405180910390fd5b600060649050600073af88d065e77c8cc2239327c5edb3a432268e583173ffffffffffffffffffffffffffffffffffffffff166370a08231306040518263ffffffff1660e01b81526004016107069190611c39565b602060405180830381865afa158015610723573d6000803e3d6000fd5b505050506040513d601f19601f820116820180604052508101906107479190611e27565b905060006040518060a0016040528073af88d065e77c8cc2239327c5edb3a432268e58318573fd086bc7cd5c481dcc9c85ebe478a1c0b69fcbb960405160200161079393929190612035565b60405160208183030381529060405281526020013073ffffffffffffffffffffffffffffffffffffffff168152602001428152602001838152602001600081525090507f000000000000000000000000000000000000000000000000000000000000000073ffffffffffffffffffffffffffffffffffffffff1663c04b8d59826040518263ffffffff1660e01b815260040161082f9190611f32565b6020604051808303816000875af115801561084e573d6000803e3d6000fd5b505050506040513d601f19601f820116820180604052508101906108729190611e27565b50505050565b60008054906101000a900473ffffffffffffffffffffffffffffffffffffffff1673ffffffffffffffffffffffffffffffffffffffff163373ffffffffffffffffffffffffffffffffffffffff161461090857336040517f4104d7d70000000000000000000000000000000000000000000000000000000081526004016108ff9190611c39565b60405180910390fd5b600073af88d065e77c8cc2239327c5edb3a432268e583173ffffffffffffffffffffffffffffffffffffffff166370a08231306040518263ffffffff1660e01b81526004016109579190611c39565b602060405180830381865afa158015610974573d6000803e3d6000fd5b505050506040513d601f19601f820116820180604052508101906109989190611e27565b90507f000000000000000000000000000000000000000000000000000000000000000073ffffffffffffffffffffffffffffffffffffffff1663c04b8d59846040518263ffffffff1660e01b81526004016109f39190611f32565b6020604051808303816000875af1158015610a12573d6000803e3d6000fd5b505050506040513d601f19601f82011682018060405250810190610a369190611e27565b50600073af88d065e77c8cc2239327c5edb3a432268e583173ffffffffffffffffffffffffffffffffffffffff166370a08231306040518263ffffffff1660e01b8152600401610a869190611c39565b602060405180830381865afa158015610aa3573d6000803e3d6000fd5b505050506040513d601f19601f82011682018060405250810190610ac79190611e27565b9050828282610ad69190611f83565b1115610b23577f357d905f1831209797df4d55d79c5c5bf1d9f7311c976afd05e13d881eab9bc88282610b099190611f83565b604051610b169190611bd9565b60405180910390a1610b6b565b8181610b2f9190611f83565b6040517fd4989a94000000000000000000000000000000000000000000000000000000008152600401610b629190611bd9565b60405180910390fd5b50505050565b73fd086bc7cd5c481dcc9c85ebe478a1c0b69fcbb981565b7f000000000000000000000000000000000000000000000000000000000000000073ffffffffffffffffffffffffffffffffffffffff163373ffffffffffffffffffffffffffffffffffffffff1614610c1957336040517ff9ebb4c7000000000000000000000000000000000000000000000000000000008152600401610c109190611c39565b60405180910390fd5b73fd086bc7cd5c481dcc9c85ebe478a1c0b69fcbb973ffffffffffffffffffffffffffffffffffffffff168273ffffffffffffffffffffffffffffffffffffffff1614158015610ca9575073af88d065e77c8cc2239327c5edb3a432268e583173ffffffffffffffffffffffffffffffffffffffff168273ffffffffffffffffffffffffffffffffffffffff1614155b15610ceb57816040517ff01157c3000000000000000000000000000000000000000000000000000000008152600401610ce29190611c39565b60405180910390fd5b60008111610d2e576040517f08c379a0000000000000000000000000000000000000000000000000000000008152600401610d25906120cf565b60405180910390fd5b8173ffffffffffffffffffffffffffffffffffffffff166323b872dd3330846040518463ffffffff1660e01b8152600401610d6b939291906120ef565b6020604051808303816000875af1158015610d8a573d6000803e3d6000fd5b505050506040513d601f19601f82011682018060405250810190610dae9190612152565b505050565b73af88d065e77c8cc2239327c5edb3a432268e583181565b7382af49447d8a07e3bd95bd0d56f35241523fbab181565b7f000000000000000000000000000000000000000000000000000000000000000073ffffffffffffffffffffffffffffffffffffffff163373ffffffffffffffffffffffffffffffffffffffff1614610e7357336040517ff9ebb4c7000000000000000000000000000000000000000000000000000000008152600401610e6a9190611c39565b60405180910390fd5b600073ffffffffffffffffffffffffffffffffffffffff168173ffffffffffffffffffffffffffffffffffffffff1603610ee2576040517f08c379a0000000000000000000000000000000000000000000000000000000008152600401610ed9906121cb565b60405180910390fd5b3073ffffffffffffffffffffffffffffffffffffffff168173ffffffffffffffffffffffffffffffffffffffff1603610f50576040517f08c379a0000000000000000000000000000000000000000000000000000000008152600401610f4790612237565b60405180910390fd5b806000806101000a81548173ffffffffffffffffffffffffffffffffffffffff021916908373ffffffffffffffffffffffffffffffffffffffff16021790555050565b7f000000000000000000000000000000000000000000000000000000000000000073ffffffffffffffffffffffffffffffffffffffff163373ffffffffffffffffffffffffffffffffffffffff161461102357336040517ff9ebb4c700000000000000000000000000000000000000000000000000000000815260040161101a9190611c39565b60405180910390fd5b600060649050600073fd086bc7cd5c481dcc9c85ebe478a1c0b69fcbb973ffffffffffffffffffffffffffffffffffffffff166370a08231306040518263ffffffff1660e01b81526004016110789190611c39565b602060405180830381865afa158015611095573d6000803e3d6000fd5b505050506040513d601f19601f820116820180604052508101906110b99190611e27565b905060006040518060a0016040528073fd086bc7cd5c481dcc9c85ebe478a1c0b69fcbb98573af88d065e77c8cc2239327c5edb3a432268e583160405160200161110593929190612035565b60405160208183030381529060405281526020013073ffffffffffffffffffffffffffffffffffffffff168152602001428152602001838152602001600081525090507f000000000000000000000000000000000000000000000000000000000000000073ffffffffffffffffffffffffffffffffffffffff1663c04b8d59826040518263ffffffff1660e01b81526004016111a19190611f32565b6020604051808303816000875af11580156111c0573d6000803e3d6000fd5b505050506040513d601f19601f820116820180604052508101906111e49190611e27565b50505050565b7f000000000000000000000000000000000000000000000000000000000000000073ffffffffffffffffffffffffffffffffffffffff163373ffffffffffffffffffffffffffffffffffffffff161461127a57336040517ff9ebb4c70000000000000000000000000000000000000000000000000000000081526004016112719190611c39565b60405180910390fd5b8173ffffffffffffffffffffffffffffffffffffffff166370a08231306040518263ffffffff1660e01b81526004016112b39190611c39565b602060405180830381865afa1580156112d0573d6000803e3d6000fd5b505050506040513d601f19601f820116820180604052508101906112f49190611e27565b811115611336576040517f08c379a000000000000000000000000000000000000000000000000000000000815260040161132d906122a3565b60405180910390fd5b8173ffffffffffffffffffffffffffffffffffffffff1663a9059cbb33836040518363ffffffff1660e01b81526004016113719291906122c3565b6020604051808303816000875af1158015611390573d6000803e3d6000fd5b505050506040513d601f19601f820116820180604052508101906113b49190612152565b505050565b60008173ffffffffffffffffffffffffffffffffffffffff166370a08231306040518263ffffffff1660e01b81526004016113f49190611c39565b602060405180830381865afa158015611411573d6000803e3d6000fd5b505050506040513d601f19601f820116820180604052508101906114359190611e27565b9050919050565b600060149054906101000a900460ff1681565b7f000000000000000000000000000000000000000000000000000000000000000073ffffffffffffffffffffffffffffffffffffffff163373ffffffffffffffffffffffffffffffffffffffff16146114df57336040517ff9ebb4c70000000000000000000000000000000000000000000000000000000081526004016114d69190611c39565b60405180910390fd5b60011515600060149054906101000a900460ff16151514611535576040517f08c379a000000000000000000000000000000000000000000000000000000000815260040161152c90612338565b60405180910390fd5b60008060146101000a81548160ff021916908315150217905550565b60008054906101000a900473ffffffffffffffffffffffffffffffffffffffff1681565b7f000000000000000000000000000000000000000000000000000000000000000073ffffffffffffffffffffffffffffffffffffffff163373ffffffffffffffffffffffffffffffffffffffff161461160557336040517ff9ebb4c70000000000000000000000000000000000000000000000000000000081526004016115fc9190611c39565b60405180910390fd5b8273ffffffffffffffffffffffffffffffffffffffff1663095ea7b383836040518363ffffffff1660e01b81526004016116409291906122c3565b6020604051808303816000875af115801561165f573d6000803e3d6000fd5b505050506040513d601f19601f820116820180604052508101906116839190612152565b50505050565b7f000000000000000000000000000000000000000000000000000000000000000081565b60608383836040516020016116c493929190612035565b60405160208183030381529060405290509392505050565b600042905090565b7f000000000000000000000000000000000000000000000000000000000000000073ffffffffffffffffffffffffffffffffffffffff163373ffffffffffffffffffffffffffffffffffffffff161461177457336040517ff9ebb4c700000000000000000000000000000000000000000000000000000000815260040161176b9190611c39565b60405180910390fd5b60001515600060149054906101000a900460ff161515146117ca576040517f08c379a00000000000000000000000000000000000000000000000000000000081526004016117c1906123a4565b60405180910390fd5b6001600060146101000a81548160ff021916908315150217905550565b6000604051905090565b600080fd5b600080fd5b600080fd5b6000601f19601f8301169050919050565b7f4e487b7100000000000000000000000000000000000000000000000000000000600052604160045260246000fd5b61184982611800565b810181811067ffffffffffffffff8211171561186857611867611811565b5b80604052505050565b600061187b6117e7565b90506118878282611840565b919050565b600080fd5b600080fd5b600080fd5b600067ffffffffffffffff8211156118b6576118b5611811565b5b6118bf82611800565b9050602081019050919050565b82818337600083830152505050565b60006118ee6118e98461189b565b611871565b90508281526020810184848401111561190a57611909611896565b5b6119158482856118cc565b509392505050565b600082601f83011261193257611931611891565b5b81356119428482602086016118db565b91505092915050565b600073ffffffffffffffffffffffffffffffffffffffff82169050919050565b60006119768261194b565b9050919050565b6119868161196b565b811461199157600080fd5b50565b6000813590506119a38161197d565b92915050565b6000819050919050565b6119bc816119a9565b81146119c757600080fd5b50565b6000813590506119d9816119b3565b92915050565b600060a082840312156119f5576119f46117fb565b5b6119ff60a0611871565b9050600082013567ffffffffffffffff811115611a1f57611a1e61188c565b5b611a2b8482850161191d565b6000830152506020611a3f84828501611994565b6020830152506040611a53848285016119ca565b6040830152506060611a67848285016119ca565b6060830152506080611a7b848285016119ca565b60808301525092915050565b60008060408385031215611a9e57611a9d6117f1565b5b600083013567ffffffffffffffff811115611abc57611abb6117f6565b5b611ac8858286016119df565b9250506020611ad9858286016119ca565b9150509250929050565b6000819050919050565b6000611b08611b03611afe8461194b565b611ae3565b61194b565b9050919050565b6000611b1a82611aed565b9050919050565b6000611b2c82611b0f565b9050919050565b611b3c81611b21565b82525050565b6000602082019050611b576000830184611b33565b92915050565b60008060408385031215611b7457611b736117f1565b5b6000611b8285828601611994565b9250506020611b93858286016119ca565b9150509250929050565b600060208284031215611bb357611bb26117f1565b5b6000611bc184828501611994565b91505092915050565b611bd3816119a9565b82525050565b6000602082019050611bee6000830184611bca565b92915050565b60008115159050919050565b611c0981611bf4565b82525050565b6000602082019050611c246000830184611c00565b92915050565b611c338161196b565b82525050565b6000602082019050611c4e6000830184611c2a565b92915050565b600080600060608486031215611c6d57611c6c6117f1565b5b6000611c7b86828701611994565b9350506020611c8c86828701611994565b9250506040611c9d868287016119ca565b9150509250925092565b6000611cb282611b0f565b9050919050565b611cc281611ca7565b82525050565b6000602082019050611cdd6000830184611cb9565b92915050565b600062ffffff82169050919050565b611cfb81611ce3565b8114611d0657600080fd5b50565b600081359050611d1881611cf2565b92915050565b600080600060608486031215611d3757611d366117f1565b5b6000611d4586828701611994565b9350506020611d5686828701611d09565b9250506040611d6786828701611994565b9150509250925092565b600081519050919050565b600082825260208201905092915050565b60005b83811015611dab578082015181840152602081019050611d90565b60008484015250505050565b6000611dc282611d71565b611dcc8185611d7c565b9350611ddc818560208601611d8d565b611de581611800565b840191505092915050565b60006020820190508181036000830152611e0a8184611db7565b905092915050565b600081519050611e21816119b3565b92915050565b600060208284031215611e3d57611e3c6117f1565b5b6000611e4b84828501611e12565b91505092915050565b600082825260208201905092915050565b6000611e7082611d71565b611e7a8185611e54565b9350611e8a818560208601611d8d565b611e9381611800565b840191505092915050565b611ea78161196b565b82525050565b611eb6816119a9565b82525050565b600060a0830160008301518482036000860152611ed98282611e65565b9150506020830151611eee6020860182611e9e565b506040830151611f016040860182611ead565b506060830151611f146060860182611ead565b506080830151611f276080860182611ead565b508091505092915050565b60006020820190508181036000830152611f4c8184611ebc565b905092915050565b7f4e487b7100000000000000000000000000000000000000000000000000000000600052601160045260246000fd5b6000611f8e826119a9565b9150611f99836119a9565b9250828203905081811115611fb157611fb0611f54565b5b92915050565b60008160601b9050919050565b6000611fcf82611fb7565b9050919050565b6000611fe182611fc4565b9050919050565b611ff9611ff48261196b565b611fd6565b82525050565b60008160e81b9050919050565b600061201782611fff565b9050919050565b61202f61202a82611ce3565b61200c565b82525050565b60006120418286611fe8565b601482019150612051828561201e565b6003820191506120618284611fe8565b601482019150819050949350505050565b600082825260208201905092915050565b7f416d6f756e742063616e27742062652030000000000000000000000000000000600082015250565b60006120b9601183612072565b91506120c482612083565b602082019050919050565b600060208201905081810360008301526120e8816120ac565b9050919050565b60006060820190506121046000830186611c2a565b6121116020830185611c2a565b61211e6040830184611bca565b949350505050565b61212f81611bf4565b811461213a57600080fd5b50565b60008151905061214c81612126565b92915050565b600060208284031215612168576121676117f1565b5b60006121768482850161213d565b91505092915050565b7f43616e2774206265206120302061646472657373000000000000000000000000600082015250565b60006121b5601483612072565b91506121c08261217f565b602082019050919050565b600060208201905081810360008301526121e4816121a8565b9050919050565b7f43616e2774206265207468697320616464726573730000000000000000000000600082015250565b6000612221601583612072565b915061222c826121eb565b602082019050919050565b6000602082019050818103600083015261225081612214565b9050919050565b7f416d6f756e7420697320686967686572207468616e2062616c616e6365000000600082015250565b600061228d601d83612072565b915061229882612257565b602082019050919050565b600060208201905081810360008301526122bc81612280565b9050919050565b60006040820190506122d86000830185611c2a565b6122e56020830184611bca565b9392505050565b7f4e6f74206c6f636b656400000000000000000000000000000000000000000000600082015250565b6000612322600a83612072565b915061232d826122ec565b602082019050919050565b6000602082019050818103600083015261235181612315565b9050919050565b7f416c7265616479206c6f636b6564000000000000000000000000000000000000600082015250565b600061238e600e83612072565b915061239982612358565b602082019050919050565b600060208201905081810360008301526123bd81612381565b905091905056fea264697066735822122083bac52bf2bcf3769e2038f9701702190eaf55d5bdf1e0fe30cc55293cd391fb64736f6c63430008140033","opcodes":"PUSH1 0xC0 PUSH1 0x40 MSTORE CALLVALUE DUP1 ISZERO PUSH3 0x11 JUMPI PUSH1 0x0 DUP1 REVERT JUMPDEST POP PUSH1 0x40 MLOAD PUSH3 0x25AF CODESIZE SUB DUP1 PUSH3 0x25AF DUP4 CODECOPY DUP2 DUP2 ADD PUSH1 0x40 MSTORE DUP2 ADD SWAP1 PUSH3 0x37 SWAP2 SWAP1 PUSH3 0x110 JUMP JUMPDEST DUP1 PUSH20 0xFFFFFFFFFFFFFFFFFFFFFFFFFFFFFFFFFFFFFFFF AND PUSH1 0xA0 DUP2 PUSH20 0xFFFFFFFFFFFFFFFFFFFFFFFFFFFFFFFFFFFFFFFF AND DUP2 MSTORE POP POP CALLER PUSH20 0xFFFFFFFFFFFFFFFFFFFFFFFFFFFFFFFFFFFFFFFF AND PUSH1 0x80 DUP2 PUSH20 0xFFFFFFFFFFFFFFFFFFFFFFFFFFFFFFFFFFFFFFFF AND DUP2 MSTORE POP POP POP PUSH3 0x142 JUMP JUMPDEST PUSH1 0x0 DUP1 REVERT JUMPDEST PUSH1 0x0 PUSH20 0xFFFFFFFFFFFFFFFFFFFFFFFFFFFFFFFFFFFFFFFF DUP3 AND SWAP1 POP SWAP2 SWAP1 POP JUMP JUMPDEST PUSH1 0x0 PUSH3 0xD8 DUP3 PUSH3 0xAB JUMP JUMPDEST SWAP1 POP SWAP2 SWAP1 POP JUMP JUMPDEST PUSH3 0xEA DUP2 PUSH3 0xCB JUMP JUMPDEST DUP2 EQ PUSH3 0xF6 JUMPI PUSH1 0x0 DUP1 REVERT JUMPDEST POP JUMP JUMPDEST PUSH1 0x0 DUP2 MLOAD SWAP1 POP PUSH3 0x10A DUP2 PUSH3 0xDF JUMP JUMPDEST SWAP3 SWAP2 POP POP JUMP JUMPDEST PUSH1 0x0 PUSH1 0x20 DUP3 DUP5 SUB SLT ISZERO PUSH3 0x129 JUMPI PUSH3 0x128 PUSH3 0xA6 JUMP JUMPDEST JUMPDEST PUSH1 0x0 PUSH3 0x139 DUP5 DUP3 DUP6 ADD PUSH3 0xF9 JUMP JUMPDEST SWAP2 POP POP SWAP3 SWAP2 POP POP JUMP JUMPDEST PUSH1 0x80 MLOAD PUSH1 0xA0 MLOAD PUSH2 0x23FA PUSH3 0x1B5 PUSH1 0x0 CODECOPY PUSH1 0x0 DUP2 DUP2 PUSH2 0x44C ADD MSTORE DUP2 DUP2 PUSH2 0x7D8 ADD MSTORE DUP2 DUP2 PUSH2 0x99C ADD MSTORE DUP2 DUP2 PUSH2 0x114A ADD MSTORE PUSH2 0x168B ADD MSTORE PUSH1 0x0 DUP2 DUP2 PUSH2 0x623 ADD MSTORE DUP2 DUP2 PUSH2 0xB8B ADD MSTORE DUP2 DUP2 PUSH2 0xDE5 ADD MSTORE DUP2 DUP2 PUSH2 0xF95 ADD MSTORE DUP2 DUP2 PUSH2 0x11EC ADD MSTORE DUP2 DUP2 PUSH2 0x1451 ADD MSTORE DUP2 DUP2 PUSH2 0x1577 ADD MSTORE PUSH2 0x16E6 ADD MSTORE PUSH2 0x23FA PUSH1 0x0 RETURN INVALID PUSH1 0x80 PUSH1 0x40 MSTORE CALLVALUE DUP1 ISZERO PUSH2 0x10 JUMPI PUSH1 0x0 DUP1 REVERT JUMPDEST POP PUSH1 0x4 CALLDATASIZE LT PUSH2 0x121 JUMPI PUSH1 0x0 CALLDATALOAD PUSH1 0xE0 SHR DUP1 PUSH4 0x9E281A98 GT PUSH2 0xAD JUMPI DUP1 PUSH4 0xDA3E3397 GT PUSH2 0x71 JUMPI DUP1 PUSH4 0xDA3E3397 EQ PUSH2 0x296 JUMPI DUP1 PUSH4 0xE47AAF6D EQ PUSH2 0x2B2 JUMPI DUP1 PUSH4 0xF1584673 EQ PUSH2 0x2D0 JUMPI DUP1 PUSH4 0xF556D1D4 EQ PUSH2 0x300 JUMPI DUP1 PUSH4 0xF83D08BA EQ PUSH2 0x31E JUMPI PUSH2 0x121 JUMP JUMPDEST DUP1 PUSH4 0x9E281A98 EQ PUSH2 0x204 JUMPI DUP1 PUSH4 0xA119B86E EQ PUSH2 0x220 JUMPI DUP1 PUSH4 0xA4E2D634 EQ PUSH2 0x250 JUMPI DUP1 PUSH4 0xA69DF4B5 EQ PUSH2 0x26E JUMPI DUP1 PUSH4 0xA7F07011 EQ PUSH2 0x278 JUMPI PUSH2 0x121 JUMP JUMPDEST DUP1 PUSH4 0x338B5DEA GT PUSH2 0xF4 JUMPI DUP1 PUSH4 0x338B5DEA EQ PUSH2 0x186 JUMPI DUP1 PUSH4 0x3E413BEE EQ PUSH2 0x1A2 JUMPI DUP1 PUSH4 0x3FC8CEF3 EQ PUSH2 0x1C0 JUMPI DUP1 PUSH4 0x5767C659 EQ PUSH2 0x1DE JUMPI DUP1 PUSH4 0x7201C6BE EQ PUSH2 0x1FA JUMPI PUSH2 0x121 JUMP JUMPDEST DUP1 PUSH4 0x5DDAD1F EQ PUSH2 0x126 JUMPI DUP1 PUSH4 0xEBAF458 EQ PUSH2 0x142 JUMPI DUP1 PUSH4 0x272A6DD9 EQ PUSH2 0x14C JUMPI DUP1 PUSH4 0x2F48AB7D EQ PUSH2 0x168 JUMPI JUMPDEST PUSH1 0x0 DUP1 REVERT JUMPDEST PUSH2 0x140 PUSH1 0x4 DUP1 CALLDATASIZE SUB DUP2 ADD SWAP1 PUSH2 0x13B SWAP2 SWAP1 PUSH2 0x1A87 JUMP JUMPDEST PUSH2 0x328 JUMP JUMPDEST STOP JUMPDEST PUSH2 0x14A PUSH2 0x621 JUMP JUMPDEST STOP JUMPDEST PUSH2 0x166 PUSH1 0x4 DUP1 CALLDATASIZE SUB DUP2 ADD SWAP1 PUSH2 0x161 SWAP2 SWAP1 PUSH2 0x1A87 JUMP JUMPDEST PUSH2 0x878 JUMP JUMPDEST STOP JUMPDEST PUSH2 0x170 PUSH2 0xB71 JUMP JUMPDEST PUSH1 0x40 MLOAD PUSH2 0x17D SWAP2 SWAP1 PUSH2 0x1B42 JUMP JUMPDEST PUSH1 0x40 MLOAD DUP1 SWAP2 SUB SWAP1 RETURN JUMPDEST PUSH2 0x1A0 PUSH1 0x4 DUP1 CALLDATASIZE SUB DUP2 ADD SWAP1 PUSH2 0x19B SWAP2 SWAP1 PUSH2 0x1B5D JUMP JUMPDEST PUSH2 0xB89 JUMP JUMPDEST STOP JUMPDEST PUSH2 0x1AA PUSH2 0xDB3 JUMP JUMPDEST PUSH1 0x40 MLOAD PUSH2 0x1B7 SWAP2 SWAP1 PUSH2 0x1B42 JUMP JUMPDEST PUSH1 0x40 MLOAD DUP1 SWAP2 SUB SWAP1 RETURN JUMPDEST PUSH2 0x1C8 PUSH2 0xDCB JUMP JUMPDEST PUSH1 0x40 MLOAD PUSH2 0x1D5 SWAP2 SWAP1 PUSH2 0x1B42 JUMP JUMPDEST PUSH1 0x40 MLOAD DUP1 SWAP2 SUB SWAP1 RETURN JUMPDEST PUSH2 0x1F8 PUSH1 0x4 DUP1 CALLDATASIZE SUB DUP2 ADD SWAP1 PUSH2 0x1F3 SWAP2 SWAP1 PUSH2 0x1B9D JUMP JUMPDEST PUSH2 0xDE3 JUMP JUMPDEST STOP JUMPDEST PUSH2 0x202 PUSH2 0xF93 JUMP JUMPDEST STOP JUMPDEST PUSH2 0x21E PUSH1 0x4 DUP1 CALLDATASIZE SUB DUP2 ADD SWAP1 PUSH2 0x219 SWAP2 SWAP1 PUSH2 0x1B5D JUMP JUMPDEST PUSH2 0x11EA JUMP JUMPDEST STOP JUMPDEST PUSH2 0x23A PUSH1 0x4 DUP1 CALLDATASIZE SUB DUP2 ADD SWAP1 PUSH2 0x235 SWAP2 SWAP1 PUSH2 0x1B9D JUMP JUMPDEST PUSH2 0x13B9 JUMP JUMPDEST PUSH1 0x40 MLOAD PUSH2 0x247 SWAP2 SWAP1 PUSH2 0x1BD9 JUMP JUMPDEST PUSH1 0x40 MLOAD DUP1 SWAP2 SUB SWAP1 RETURN JUMPDEST PUSH2 0x258 PUSH2 0x143C JUMP JUMPDEST PUSH1 0x40 MLOAD PUSH2 0x265 SWAP2 SWAP1 PUSH2 0x1C0F JUMP JUMPDEST PUSH1 0x40 MLOAD DUP1 SWAP2 SUB SWAP1 RETURN JUMPDEST PUSH2 0x276 PUSH2 0x144F JUMP JUMPDEST STOP JUMPDEST PUSH2 0x280 PUSH2 0x1551 JUMP JUMPDEST PUSH1 0x40 MLOAD PUSH2 0x28D SWAP2 SWAP1 PUSH2 0x1C39 JUMP JUMPDEST PUSH1 0x40 MLOAD DUP1 SWAP2 SUB SWAP1 RETURN JUMPDEST PUSH2 0x2B0 PUSH1 0x4 DUP1 CALLDATASIZE SUB DUP2 ADD SWAP1 PUSH2 0x2AB SWAP2 SWAP1 PUSH2 0x1C54 JUMP JUMPDEST PUSH2 0x1575 JUMP JUMPDEST STOP JUMPDEST PUSH2 0x2BA PUSH2 0x1689 JUMP JUMPDEST PUSH1 0x40 MLOAD PUSH2 0x2C7 SWAP2 SWAP1 PUSH2 0x1CC8 JUMP JUMPDEST PUSH1 0x40 MLOAD DUP1 SWAP2 SUB SWAP1 RETURN JUMPDEST PUSH2 0x2EA PUSH1 0x4 DUP1 CALLDATASIZE SUB DUP2 ADD SWAP1 PUSH2 0x2E5 SWAP2 SWAP1 PUSH2 0x1D1E JUMP JUMPDEST PUSH2 0x16AD JUMP JUMPDEST PUSH1 0x40 MLOAD PUSH2 0x2F7 SWAP2 SWAP1 PUSH2 0x1DF0 JUMP JUMPDEST PUSH1 0x40 MLOAD DUP1 SWAP2 SUB SWAP1 RETURN JUMPDEST PUSH2 0x308 PUSH2 0x16DC JUMP JUMPDEST PUSH1 0x40 MLOAD PUSH2 0x315 SWAP2 SWAP1 PUSH2 0x1BD9 JUMP JUMPDEST PUSH1 0x40 MLOAD DUP1 SWAP2 SUB SWAP1 RETURN JUMPDEST PUSH2 0x326 PUSH2 0x16E4 JUMP JUMPDEST STOP JUMPDEST PUSH1 0x0 DUP1 SLOAD SWAP1 PUSH2 0x100 EXP SWAP1 DIV PUSH20 0xFFFFFFFFFFFFFFFFFFFFFFFFFFFFFFFFFFFFFFFF AND PUSH20 0xFFFFFFFFFFFFFFFFFFFFFFFFFFFFFFFFFFFFFFFF AND CALLER PUSH20 0xFFFFFFFFFFFFFFFFFFFFFFFFFFFFFFFFFFFFFFFF AND EQ PUSH2 0x3B8 JUMPI CALLER PUSH1 0x40 MLOAD PUSH32 0x4104D7D700000000000000000000000000000000000000000000000000000000 DUP2 MSTORE PUSH1 0x4 ADD PUSH2 0x3AF SWAP2 SWAP1 PUSH2 0x1C39 JUMP JUMPDEST PUSH1 0x40 MLOAD DUP1 SWAP2 SUB SWAP1 REVERT JUMPDEST PUSH1 0x0 PUSH20 0xFD086BC7CD5C481DCC9C85EBE478A1C0B69FCBB9 PUSH20 0xFFFFFFFFFFFFFFFFFFFFFFFFFFFFFFFFFFFFFFFF AND PUSH4 0x70A08231 ADDRESS PUSH1 0x40 MLOAD DUP3 PUSH4 0xFFFFFFFF AND PUSH1 0xE0 SHL DUP2 MSTORE PUSH1 0x4 ADD PUSH2 0x407 SWAP2 SWAP1 PUSH2 0x1C39 JUMP JUMPDEST PUSH1 0x20 PUSH1 0x40 MLOAD DUP1 DUP4 SUB DUP2 DUP7 GAS STATICCALL ISZERO DUP1 ISZERO PUSH2 0x424 JUMPI RETURNDATASIZE PUSH1 0x0 DUP1 RETURNDATACOPY RETURNDATASIZE PUSH1 0x0 REVERT JUMPDEST POP POP POP POP PUSH1 0x40 MLOAD RETURNDATASIZE PUSH1 0x1F NOT PUSH1 0x1F DUP3 ADD AND DUP3 ADD DUP1 PUSH1 0x40 MSTORE POP DUP2 ADD SWAP1 PUSH2 0x448 SWAP2 SWAP1 PUSH2 0x1E27 JUMP JUMPDEST SWAP1 POP PUSH32 0x0 PUSH20 0xFFFFFFFFFFFFFFFFFFFFFFFFFFFFFFFFFFFFFFFF AND PUSH4 0xC04B8D59 DUP5 PUSH1 0x40 MLOAD DUP3 PUSH4 0xFFFFFFFF AND PUSH1 0xE0 SHL DUP2 MSTORE PUSH1 0x4 ADD PUSH2 0x4A3 SWAP2 SWAP1 PUSH2 0x1F32 JUMP JUMPDEST PUSH1 0x20 PUSH1 0x40 MLOAD DUP1 DUP4 SUB DUP2 PUSH1 0x0 DUP8 GAS CALL ISZERO DUP1 ISZERO PUSH2 0x4C2 JUMPI RETURNDATASIZE PUSH1 0x0 DUP1 RETURNDATACOPY RETURNDATASIZE PUSH1 0x0 REVERT JUMPDEST POP POP POP POP PUSH1 0x40 MLOAD RETURNDATASIZE PUSH1 0x1F NOT PUSH1 0x1F DUP3 ADD AND DUP3 ADD DUP1 PUSH1 0x40 MSTORE POP DUP2 ADD SWAP1 PUSH2 0x4E6 SWAP2 SWAP1 PUSH2 0x1E27 JUMP JUMPDEST POP PUSH1 0x0 PUSH20 0xFD086BC7CD5C481DCC9C85EBE478A1C0B69FCBB9 PUSH20 0xFFFFFFFFFFFFFFFFFFFFFFFFFFFFFFFFFFFFFFFF AND PUSH4 0x70A08231 ADDRESS PUSH1 0x40 MLOAD DUP3 PUSH4 0xFFFFFFFF AND PUSH1 0xE0 SHL DUP2 MSTORE PUSH1 0x4 ADD PUSH2 0x536 SWAP2 SWAP1 PUSH2 0x1C39 JUMP JUMPDEST PUSH1 0x20 PUSH1 0x40 MLOAD DUP1 DUP4 SUB DUP2 DUP7 GAS STATICCALL ISZERO DUP1 ISZERO PUSH2 0x553 JUMPI RETURNDATASIZE PUSH1 0x0 DUP1 RETURNDATACOPY RETURNDATASIZE PUSH1 0x0 REVERT JUMPDEST POP POP POP POP PUSH1 0x40 MLOAD RETURNDATASIZE PUSH1 0x1F NOT PUSH1 0x1F DUP3 ADD AND DUP3 ADD DUP1 PUSH1 0x40 MSTORE POP DUP2 ADD SWAP1 PUSH2 0x577 SWAP2 SWAP1 PUSH2 0x1E27 JUMP JUMPDEST SWAP1 POP DUP3 DUP3 DUP3 PUSH2 0x586 SWAP2 SWAP1 PUSH2 0x1F83 JUMP JUMPDEST GT ISZERO PUSH2 0x5D3 JUMPI PUSH32 0x357D905F1831209797DF4D55D79C5C5BF1D9F7311C976AFD05E13D881EAB9BC8 DUP3 DUP3 PUSH2 0x5B9 SWAP2 SWAP1 PUSH2 0x1F83 JUMP JUMPDEST PUSH1 0x40 MLOAD PUSH2 0x5C6 SWAP2 SWAP1 PUSH2 0x1BD9 JUMP JUMPDEST PUSH1 0x40 MLOAD DUP1 SWAP2 SUB SWAP1 LOG1 PUSH2 0x61B JUMP JUMPDEST DUP2 DUP2 PUSH2 0x5DF SWAP2 SWAP1 PUSH2 0x1F83 JUMP JUMPDEST PUSH1 0x40 MLOAD PUSH32 0xD4989A9400000000000000000000000000000000000000000000000000000000 DUP2 MSTORE PUSH1 0x4 ADD PUSH2 0x612 SWAP2 SWAP1 PUSH2 0x1BD9 JUMP JUMPDEST PUSH1 0x40 MLOAD DUP1 SWAP2 SUB SWAP1 REVERT JUMPDEST POP POP POP POP JUMP JUMPDEST PUSH32 0x0 PUSH20 0xFFFFFFFFFFFFFFFFFFFFFFFFFFFFFFFFFFFFFFFF AND CALLER PUSH20 0xFFFFFFFFFFFFFFFFFFFFFFFFFFFFFFFFFFFFFFFF AND EQ PUSH2 0x6B1 JUMPI CALLER PUSH1 0x40 MLOAD PUSH32 0xF9EBB4C700000000000000000000000000000000000000000000000000000000 DUP2 MSTORE PUSH1 0x4 ADD PUSH2 0x6A8 SWAP2 SWAP1 PUSH2 0x1C39 JUMP JUMPDEST PUSH1 0x40 MLOAD DUP1 SWAP2 SUB SWAP1 REVERT JUMPDEST PUSH1 0x0 PUSH1 0x64 SWAP1 POP PUSH1 0x0 PUSH20 0xAF88D065E77C8CC2239327C5EDB3A432268E5831 PUSH20 0xFFFFFFFFFFFFFFFFFFFFFFFFFFFFFFFFFFFFFFFF AND PUSH4 0x70A08231 ADDRESS PUSH1 0x40 MLOAD DUP3 PUSH4 0xFFFFFFFF AND PUSH1 0xE0 SHL DUP2 MSTORE PUSH1 0x4 ADD PUSH2 0x706 SWAP2 SWAP1 PUSH2 0x1C39 JUMP JUMPDEST PUSH1 0x20 PUSH1 0x40 MLOAD DUP1 DUP4 SUB DUP2 DUP7 GAS STATICCALL ISZERO DUP1 ISZERO PUSH2 0x723 JUMPI RETURNDATASIZE PUSH1 0x0 DUP1 RETURNDATACOPY RETURNDATASIZE PUSH1 0x0 REVERT JUMPDEST POP POP POP POP PUSH1 0x40 MLOAD RETURNDATASIZE PUSH1 0x1F NOT PUSH1 0x1F DUP3 ADD AND DUP3 ADD DUP1 PUSH1 0x40 MSTORE POP DUP2 ADD SWAP1 PUSH2 0x747 SWAP2 SWAP1 PUSH2 0x1E27 JUMP JUMPDEST SWAP1 POP PUSH1 0x0 PUSH1 0x40 MLOAD DUP1 PUSH1 0xA0 ADD PUSH1 0x40 MSTORE DUP1 PUSH20 0xAF88D065E77C8CC2239327C5EDB3A432268E5831 DUP6 PUSH20 0xFD086BC7CD5C481DCC9C85EBE478A1C0B69FCBB9 PUSH1 0x40 MLOAD PUSH1 0x20 ADD PUSH2 0x793 SWAP4 SWAP3 SWAP2 SWAP1 PUSH2 0x2035 JUMP JUMPDEST PUSH1 0x40 MLOAD PUSH1 0x20 DUP2 DUP4 SUB SUB DUP2 MSTORE SWAP1 PUSH1 0x40 MSTORE DUP2 MSTORE PUSH1 0x20 ADD ADDRESS PUSH20 0xFFFFFFFFFFFFFFFFFFFFFFFFFFFFFFFFFFFFFFFF AND DUP2 MSTORE PUSH1 0x20 ADD TIMESTAMP DUP2 MSTORE PUSH1 0x20 ADD DUP4 DUP2 MSTORE PUSH1 0x20 ADD PUSH1 0x0 DUP2 MSTORE POP SWAP1 POP PUSH32 0x0 PUSH20 0xFFFFFFFFFFFFFFFFFFFFFFFFFFFFFFFFFFFFFFFF AND PUSH4 0xC04B8D59 DUP3 PUSH1 0x40 MLOAD DUP3 PUSH4 0xFFFFFFFF AND PUSH1 0xE0 SHL DUP2 MSTORE PUSH1 0x4 ADD PUSH2 0x82F SWAP2 SWAP1 PUSH2 0x1F32 JUMP JUMPDEST PUSH1 0x20 PUSH1 0x40 MLOAD DUP1 DUP4 SUB DUP2 PUSH1 0x0 DUP8 GAS CALL ISZERO DUP1 ISZERO PUSH2 0x84E JUMPI RETURNDATASIZE PUSH1 0x0 DUP1 RETURNDATACOPY RETURNDATASIZE PUSH1 0x0 REVERT JUMPDEST POP POP POP POP PUSH1 0x40 MLOAD RETURNDATASIZE PUSH1 0x1F NOT PUSH1 0x1F DUP3 ADD AND DUP3 ADD DUP1 PUSH1 0x40 MSTORE POP DUP2 ADD SWAP1 PUSH2 0x872 SWAP2 SWAP1 PUSH2 0x1E27 JUMP JUMPDEST POP POP POP POP JUMP JUMPDEST PUSH1 0x0 DUP1 SLOAD SWAP1 PUSH2 0x100 EXP SWAP1 DIV PUSH20 0xFFFFFFFFFFFFFFFFFFFFFFFFFFFFFFFFFFFFFFFF AND PUSH20 0xFFFFFFFFFFFFFFFFFFFFFFFFFFFFFFFFFFFFFFFF AND CALLER PUSH20 0xFFFFFFFFFFFFFFFFFFFFFFFFFFFFFFFFFFFFFFFF AND EQ PUSH2 0x908 JUMPI CALLER PUSH1 0x40 MLOAD PUSH32 0x4104D7D700000000000000000000000000000000000000000000000000000000 DUP2 MSTORE PUSH1 0x4 ADD PUSH2 0x8FF SWAP2 SWAP1 PUSH2 0x1C39 JUMP JUMPDEST PUSH1 0x40 MLOAD DUP1 SWAP2 SUB SWAP1 REVERT JUMPDEST PUSH1 0x0 PUSH20 0xAF88D065E77C8CC2239327C5EDB3A432268E5831 PUSH20 0xFFFFFFFFFFFFFFFFFFFFFFFFFFFFFFFFFFFFFFFF AND PUSH4 0x70A08231 ADDRESS PUSH1 0x40 MLOAD DUP3 PUSH4 0xFFFFFFFF AND PUSH1 0xE0 SHL DUP2 MSTORE PUSH1 0x4 ADD PUSH2 0x957 SWAP2 SWAP1 PUSH2 0x1C39 JUMP JUMPDEST PUSH1 0x20 PUSH1 0x40 MLOAD DUP1 DUP4 SUB DUP2 DUP7 GAS STATICCALL ISZERO DUP1 ISZERO PUSH2 0x974 JUMPI RETURNDATASIZE PUSH1 0x0 DUP1 RETURNDATACOPY RETURNDATASIZE PUSH1 0x0 REVERT JUMPDEST POP POP POP POP PUSH1 0x40 MLOAD RETURNDATASIZE PUSH1 0x1F NOT PUSH1 0x1F DUP3 ADD AND DUP3 ADD DUP1 PUSH1 0x40 MSTORE POP DUP2 ADD SWAP1 PUSH2 0x998 SWAP2 SWAP1 PUSH2 0x1E27 JUMP JUMPDEST SWAP1 POP PUSH32 0x0 PUSH20 0xFFFFFFFFFFFFFFFFFFFFFFFFFFFFFFFFFFFFFFFF AND PUSH4 0xC04B8D59 DUP5 PUSH1 0x40 MLOAD DUP3 PUSH4 0xFFFFFFFF AND PUSH1 0xE0 SHL DUP2 MSTORE PUSH1 0x4 ADD PUSH2 0x9F3 SWAP2 SWAP1 PUSH2 0x1F32 JUMP JUMPDEST PUSH1 0x20 PUSH1 0x40 MLOAD DUP1 DUP4 SUB DUP2 PUSH1 0x0 DUP8 GAS CALL ISZERO DUP1 ISZERO PUSH2 0xA12 JUMPI RETURNDATASIZE PUSH1 0x0 DUP1 RETURNDATACOPY RETURNDATASIZE PUSH1 0x0 REVERT JUMPDEST POP POP POP POP PUSH1 0x40 MLOAD RETURNDATASIZE PUSH1 0x1F NOT PUSH1 0x1F DUP3 ADD AND DUP3 ADD DUP1 PUSH1 0x40 MSTORE POP DUP2 ADD SWAP1 PUSH2 0xA36 SWAP2 SWAP1 PUSH2 0x1E27 JUMP JUMPDEST POP PUSH1 0x0 PUSH20 0xAF88D065E77C8CC2239327C5EDB3A432268E5831 PUSH20 0xFFFFFFFFFFFFFFFFFFFFFFFFFFFFFFFFFFFFFFFF AND PUSH4 0x70A08231 ADDRESS PUSH1 0x40 MLOAD DUP3 PUSH4 0xFFFFFFFF AND PUSH1 0xE0 SHL DUP2 MSTORE PUSH1 0x4 ADD PUSH2 0xA86 SWAP2 SWAP1 PUSH2 0x1C39 JUMP JUMPDEST PUSH1 0x20 PUSH1 0x40 MLOAD DUP1 DUP4 SUB DUP2 DUP7 GAS STATICCALL ISZERO DUP1 ISZERO PUSH2 0xAA3 JUMPI RETURNDATASIZE PUSH1 0x0 DUP1 RETURNDATACOPY RETURNDATASIZE PUSH1 0x0 REVERT JUMPDEST POP POP POP POP PUSH1 0x40 MLOAD RETURNDATASIZE PUSH1 0x1F NOT PUSH1 0x1F DUP3 ADD AND DUP3 ADD DUP1 PUSH1 0x40 MSTORE POP DUP2 ADD SWAP1 PUSH2 0xAC7 SWAP2 SWAP1 PUSH2 0x1E27 JUMP JUMPDEST SWAP1 POP DUP3 DUP3 DUP3 PUSH2 0xAD6 SWAP2 SWAP1 PUSH2 0x1F83 JUMP JUMPDEST GT ISZERO PUSH2 0xB23 JUMPI PUSH32 0x357D905F1831209797DF4D55D79C5C5BF1D9F7311C976AFD05E13D881EAB9BC8 DUP3 DUP3 PUSH2 0xB09 SWAP2 SWAP1 PUSH2 0x1F83 JUMP JUMPDEST PUSH1 0x40 MLOAD PUSH2 0xB16 SWAP2 SWAP1 PUSH2 0x1BD9 JUMP JUMPDEST PUSH1 0x40 MLOAD DUP1 SWAP2 SUB SWAP1 LOG1 PUSH2 0xB6B JUMP JUMPDEST DUP2 DUP2 PUSH2 0xB2F SWAP2 SWAP1 PUSH2 0x1F83 JUMP JUMPDEST PUSH1 0x40 MLOAD PUSH32 0xD4989A9400000000000000000000000000000000000000000000000000000000 DUP2 MSTORE PUSH1 0x4 ADD PUSH2 0xB62 SWAP2 SWAP1 PUSH2 0x1BD9 JUMP JUMPDEST PUSH1 0x40 MLOAD DUP1 SWAP2 SUB SWAP1 REVERT JUMPDEST POP POP POP POP JUMP JUMPDEST PUSH20 0xFD086BC7CD5C481DCC9C85EBE478A1C0B69FCBB9 DUP2 JUMP JUMPDEST PUSH32 0x0 PUSH20 0xFFFFFFFFFFFFFFFFFFFFFFFFFFFFFFFFFFFFFFFF AND CALLER PUSH20 0xFFFFFFFFFFFFFFFFFFFFFFFFFFFFFFFFFFFFFFFF AND EQ PUSH2 0xC19 JUMPI CALLER PUSH1 0x40 MLOAD PUSH32 0xF9EBB4C700000000000000000000000000000000000000000000000000000000 DUP2 MSTORE PUSH1 0x4 ADD PUSH2 0xC10 SWAP2 SWAP1 PUSH2 0x1C39 JUMP JUMPDEST PUSH1 0x40 MLOAD DUP1 SWAP2 SUB SWAP1 REVERT JUMPDEST PUSH20 0xFD086BC7CD5C481DCC9C85EBE478A1C0B69FCBB9 PUSH20 0xFFFFFFFFFFFFFFFFFFFFFFFFFFFFFFFFFFFFFFFF AND DUP3 PUSH20 0xFFFFFFFFFFFFFFFFFFFFFFFFFFFFFFFFFFFFFFFF AND EQ ISZERO DUP1 ISZERO PUSH2 0xCA9 JUMPI POP PUSH20 0xAF88D065E77C8CC2239327C5EDB3A432268E5831 PUSH20 0xFFFFFFFFFFFFFFFFFFFFFFFFFFFFFFFFFFFFFFFF AND DUP3 PUSH20 0xFFFFFFFFFFFFFFFFFFFFFFFFFFFFFFFFFFFFFFFF AND EQ ISZERO JUMPDEST ISZERO PUSH2 0xCEB JUMPI DUP2 PUSH1 0x40 MLOAD PUSH32 0xF01157C300000000000000000000000000000000000000000000000000000000 DUP2 MSTORE PUSH1 0x4 ADD PUSH2 0xCE2 SWAP2 SWAP1 PUSH2 0x1C39 JUMP JUMPDEST PUSH1 0x40 MLOAD DUP1 SWAP2 SUB SWAP1 REVERT JUMPDEST PUSH1 0x0 DUP2 GT PUSH2 0xD2E JUMPI PUSH1 0x40 MLOAD PUSH32 0x8C379A000000000000000000000000000000000000000000000000000000000 DUP2 MSTORE PUSH1 0x4 ADD PUSH2 0xD25 SWAP1 PUSH2 0x20CF JUMP JUMPDEST PUSH1 0x40 MLOAD DUP1 SWAP2 SUB SWAP1 REVERT JUMPDEST DUP2 PUSH20 0xFFFFFFFFFFFFFFFFFFFFFFFFFFFFFFFFFFFFFFFF AND PUSH4 0x23B872DD CALLER ADDRESS DUP5 PUSH1 0x40 MLOAD DUP5 PUSH4 0xFFFFFFFF AND PUSH1 0xE0 SHL DUP2 MSTORE PUSH1 0x4 ADD PUSH2 0xD6B SWAP4 SWAP3 SWAP2 SWAP1 PUSH2 0x20EF JUMP JUMPDEST PUSH1 0x20 PUSH1 0x40 MLOAD DUP1 DUP4 SUB DUP2 PUSH1 0x0 DUP8 GAS CALL ISZERO DUP1 ISZERO PUSH2 0xD8A JUMPI RETURNDATASIZE PUSH1 0x0 DUP1 RETURNDATACOPY RETURNDATASIZE PUSH1 0x0 REVERT JUMPDEST POP POP POP POP PUSH1 0x40 MLOAD RETURNDATASIZE PUSH1 0x1F NOT PUSH1 0x1F DUP3 ADD AND DUP3 ADD DUP1 PUSH1 0x40 MSTORE POP DUP2 ADD SWAP1 PUSH2 0xDAE SWAP2 SWAP1 PUSH2 0x2152 JUMP JUMPDEST POP POP POP JUMP JUMPDEST PUSH20 0xAF88D065E77C8CC2239327C5EDB3A432268E5831 DUP2 JUMP JUMPDEST PUSH20 0x82AF49447D8A07E3BD95BD0D56F35241523FBAB1 DUP2 JUMP JUMPDEST PUSH32 0x0 PUSH20 0xFFFFFFFFFFFFFFFFFFFFFFFFFFFFFFFFFFFFFFFF AND CALLER PUSH20 0xFFFFFFFFFFFFFFFFFFFFFFFFFFFFFFFFFFFFFFFF AND EQ PUSH2 0xE73 JUMPI CALLER PUSH1 0x40 MLOAD PUSH32 0xF9EBB4C700000000000000000000000000000000000000000000000000000000 DUP2 MSTORE PUSH1 0x4 ADD PUSH2 0xE6A SWAP2 SWAP1 PUSH2 0x1C39 JUMP JUMPDEST PUSH1 0x40 MLOAD DUP1 SWAP2 SUB SWAP1 REVERT JUMPDEST PUSH1 0x0 PUSH20 0xFFFFFFFFFFFFFFFFFFFFFFFFFFFFFFFFFFFFFFFF AND DUP2 PUSH20 0xFFFFFFFFFFFFFFFFFFFFFFFFFFFFFFFFFFFFFFFF AND SUB PUSH2 0xEE2 JUMPI PUSH1 0x40 MLOAD PUSH32 0x8C379A000000000000000000000000000000000000000000000000000000000 DUP2 MSTORE PUSH1 0x4 ADD PUSH2 0xED9 SWAP1 PUSH2 0x21CB JUMP JUMPDEST PUSH1 0x40 MLOAD DUP1 SWAP2 SUB SWAP1 REVERT JUMPDEST ADDRESS PUSH20 0xFFFFFFFFFFFFFFFFFFFFFFFFFFFFFFFFFFFFFFFF AND DUP2 PUSH20 0xFFFFFFFFFFFFFFFFFFFFFFFFFFFFFFFFFFFFFFFF AND SUB PUSH2 0xF50 JUMPI PUSH1 0x40 MLOAD PUSH32 0x8C379A000000000000000000000000000000000000000000000000000000000 DUP2 MSTORE PUSH1 0x4 ADD PUSH2 0xF47 SWAP1 PUSH2 0x2237 JUMP JUMPDEST PUSH1 0x40 MLOAD DUP1 SWAP2 SUB SWAP1 REVERT JUMPDEST DUP1 PUSH1 0x0 DUP1 PUSH2 0x100 EXP DUP2 SLOAD DUP2 PUSH20 0xFFFFFFFFFFFFFFFFFFFFFFFFFFFFFFFFFFFFFFFF MUL NOT AND SWAP1 DUP4 PUSH20 0xFFFFFFFFFFFFFFFFFFFFFFFFFFFFFFFFFFFFFFFF AND MUL OR SWAP1 SSTORE POP POP JUMP JUMPDEST PUSH32 0x0 PUSH20 0xFFFFFFFFFFFFFFFFFFFFFFFFFFFFFFFFFFFFFFFF AND CALLER PUSH20 0xFFFFFFFFFFFFFFFFFFFFFFFFFFFFFFFFFFFFFFFF AND EQ PUSH2 0x1023 JUMPI CALLER PUSH1 0x40 MLOAD PUSH32 0xF9EBB4C700000000000000000000000000000000000000000000000000000000 DUP2 MSTORE PUSH1 0x4 ADD PUSH2 0x101A SWAP2 SWAP1 PUSH2 0x1C39 JUMP JUMPDEST PUSH1 0x40 MLOAD DUP1 SWAP2 SUB SWAP1 REVERT JUMPDEST PUSH1 0x0 PUSH1 0x64 SWAP1 POP PUSH1 0x0 PUSH20 0xFD086BC7CD5C481DCC9C85EBE478A1C0B69FCBB9 PUSH20 0xFFFFFFFFFFFFFFFFFFFFFFFFFFFFFFFFFFFFFFFF AND PUSH4 0x70A08231 ADDRESS PUSH1 0x40 MLOAD DUP3 PUSH4 0xFFFFFFFF AND PUSH1 0xE0 SHL DUP2 MSTORE PUSH1 0x4 ADD PUSH2 0x1078 SWAP2 SWAP1 PUSH2 0x1C39 JUMP JUMPDEST PUSH1 0x20 PUSH1 0x40 MLOAD DUP1 DUP4 SUB DUP2 DUP7 GAS STATICCALL ISZERO DUP1 ISZERO PUSH2 0x1095 JUMPI RETURNDATASIZE PUSH1 0x0 DUP1 RETURNDATACOPY RETURNDATASIZE PUSH1 0x0 REVERT JUMPDEST POP POP POP POP PUSH1 0x40 MLOAD RETURNDATASIZE PUSH1 0x1F NOT PUSH1 0x1F DUP3 ADD AND DUP3 ADD DUP1 PUSH1 0x40 MSTORE POP DUP2 ADD SWAP1 PUSH2 0x10B9 SWAP2 SWAP1 PUSH2 0x1E27 JUMP JUMPDEST SWAP1 POP PUSH1 0x0 PUSH1 0x40 MLOAD DUP1 PUSH1 0xA0 ADD PUSH1 0x40 MSTORE DUP1 PUSH20 0xFD086BC7CD5C481DCC9C85EBE478A1C0B69FCBB9 DUP6 PUSH20 0xAF88D065E77C8CC2239327C5EDB3A432268E5831 PUSH1 0x40 MLOAD PUSH1 0x20 ADD PUSH2 0x1105 SWAP4 SWAP3 SWAP2 SWAP1 PUSH2 0x2035 JUMP JUMPDEST PUSH1 0x40 MLOAD PUSH1 0x20 DUP2 DUP4 SUB SUB DUP2 MSTORE SWAP1 PUSH1 0x40 MSTORE DUP2 MSTORE PUSH1 0x20 ADD ADDRESS PUSH20 0xFFFFFFFFFFFFFFFFFFFFFFFFFFFFFFFFFFFFFFFF AND DUP2 MSTORE PUSH1 0x20 ADD TIMESTAMP DUP2 MSTORE PUSH1 0x20 ADD DUP4 DUP2 MSTORE PUSH1 0x20 ADD PUSH1 0x0 DUP2 MSTORE POP SWAP1 POP PUSH32 0x0 PUSH20 0xFFFFFFFFFFFFFFFFFFFFFFFFFFFFFFFFFFFFFFFF AND PUSH4 0xC04B8D59 DUP3 PUSH1 0x40 MLOAD DUP3 PUSH4 0xFFFFFFFF AND PUSH1 0xE0 SHL DUP2 MSTORE PUSH1 0x4 ADD PUSH2 0x11A1 SWAP2 SWAP1 PUSH2 0x1F32 JUMP JUMPDEST PUSH1 0x20 PUSH1 0x40 MLOAD DUP1 DUP4 SUB DUP2 PUSH1 0x0 DUP8 GAS CALL ISZERO DUP1 ISZERO PUSH2 0x11C0 JUMPI RETURNDATASIZE PUSH1 0x0 DUP1 RETURNDATACOPY RETURNDATASIZE PUSH1 0x0 REVERT JUMPDEST POP POP POP POP PUSH1 0x40 MLOAD RETURNDATASIZE PUSH1 0x1F NOT PUSH1 0x1F DUP3 ADD AND DUP3 ADD DUP1 PUSH1 0x40 MSTORE POP DUP2 ADD SWAP1 PUSH2 0x11E4 SWAP2 SWAP1 PUSH2 0x1E27 JUMP JUMPDEST POP POP POP POP JUMP JUMPDEST PUSH32 0x0 PUSH20 0xFFFFFFFFFFFFFFFFFFFFFFFFFFFFFFFFFFFFFFFF AND CALLER PUSH20 0xFFFFFFFFFFFFFFFFFFFFFFFFFFFFFFFFFFFFFFFF AND EQ PUSH2 0x127A JUMPI CALLER PUSH1 0x40 MLOAD PUSH32 0xF9EBB4C700000000000000000000000000000000000000000000000000000000 DUP2 MSTORE PUSH1 0x4 ADD PUSH2 0x1271 SWAP2 SWAP1 PUSH2 0x1C39 JUMP JUMPDEST PUSH1 0x40 MLOAD DUP1 SWAP2 SUB SWAP1 REVERT JUMPDEST DUP2 PUSH20 0xFFFFFFFFFFFFFFFFFFFFFFFFFFFFFFFFFFFFFFFF AND PUSH4 0x70A08231 ADDRESS PUSH1 0x40 MLOAD DUP3 PUSH4 0xFFFFFFFF AND PUSH1 0xE0 SHL DUP2 MSTORE PUSH1 0x4 ADD PUSH2 0x12B3 SWAP2 SWAP1 PUSH2 0x1C39 JUMP JUMPDEST PUSH1 0x20 PUSH1 0x40 MLOAD DUP1 DUP4 SUB DUP2 DUP7 GAS STATICCALL ISZERO DUP1 ISZERO PUSH2 0x12D0 JUMPI RETURNDATASIZE PUSH1 0x0 DUP1 RETURNDATACOPY RETURNDATASIZE PUSH1 0x0 REVERT JUMPDEST POP POP POP POP PUSH1 0x40 MLOAD RETURNDATASIZE PUSH1 0x1F NOT PUSH1 0x1F DUP3 ADD AND DUP3 ADD DUP1 PUSH1 0x40 MSTORE POP DUP2 ADD SWAP1 PUSH2 0x12F4 SWAP2 SWAP1 PUSH2 0x1E27 JUMP JUMPDEST DUP2 GT ISZERO PUSH2 0x1336 JUMPI PUSH1 0x40 MLOAD PUSH32 0x8C379A000000000000000000000000000000000000000000000000000000000 DUP2 MSTORE PUSH1 0x4 ADD PUSH2 0x132D SWAP1 PUSH2 0x22A3 JUMP JUMPDEST PUSH1 0x40 MLOAD DUP1 SWAP2 SUB SWAP1 REVERT JUMPDEST DUP2 PUSH20 0xFFFFFFFFFFFFFFFFFFFFFFFFFFFFFFFFFFFFFFFF AND PUSH4 0xA9059CBB CALLER DUP4 PUSH1 0x40 MLOAD DUP4 PUSH4 0xFFFFFFFF AND PUSH1 0xE0 SHL DUP2 MSTORE PUSH1 0x4 ADD PUSH2 0x1371 SWAP3 SWAP2 SWAP1 PUSH2 0x22C3 JUMP JUMPDEST PUSH1 0x20 PUSH1 0x40 MLOAD DUP1 DUP4 SUB DUP2 PUSH1 0x0 DUP8 GAS CALL ISZERO DUP1 ISZERO PUSH2 0x1390 JUMPI RETURNDATASIZE PUSH1 0x0 DUP1 RETURNDATACOPY RETURNDATASIZE PUSH1 0x0 REVERT JUMPDEST POP POP POP POP PUSH1 0x40 MLOAD RETURNDATASIZE PUSH1 0x1F NOT PUSH1 0x1F DUP3 ADD AND DUP3 ADD DUP1 PUSH1 0x40 MSTORE POP DUP2 ADD SWAP1 PUSH2 0x13B4 SWAP2 SWAP1 PUSH2 0x2152 JUMP JUMPDEST POP POP POP JUMP JUMPDEST PUSH1 0x0 DUP2 PUSH20 0xFFFFFFFFFFFFFFFFFFFFFFFFFFFFFFFFFFFFFFFF AND PUSH4 0x70A08231 ADDRESS PUSH1 0x40 MLOAD DUP3 PUSH4 0xFFFFFFFF AND PUSH1 0xE0 SHL DUP2 MSTORE PUSH1 0x4 ADD PUSH2 0x13F4 SWAP2 SWAP1 PUSH2 0x1C39 JUMP JUMPDEST PUSH1 0x20 PUSH1 0x40 MLOAD DUP1 DUP4 SUB DUP2 DUP7 GAS STATICCALL ISZERO DUP1 ISZERO PUSH2 0x1411 JUMPI RETURNDATASIZE PUSH1 0x0 DUP1 RETURNDATACOPY RETURNDATASIZE PUSH1 0x0 REVERT JUMPDEST POP POP POP POP PUSH1 0x40 MLOAD RETURNDATASIZE PUSH1 0x1F NOT PUSH1 0x1F DUP3 ADD AND DUP3 ADD DUP1 PUSH1 0x40 MSTORE POP DUP2 ADD SWAP1 PUSH2 0x1435 SWAP2 SWAP1 PUSH2 0x1E27 JUMP JUMPDEST SWAP1 POP SWAP2 SWAP1 POP JUMP JUMPDEST PUSH1 0x0 PUSH1 0x14 SWAP1 SLOAD SWAP1 PUSH2 0x100 EXP SWAP1 DIV PUSH1 0xFF AND DUP2 JUMP JUMPDEST PUSH32 0x0 PUSH20 0xFFFFFFFFFFFFFFFFFFFFFFFFFFFFFFFFFFFFFFFF AND CALLER PUSH20 0xFFFFFFFFFFFFFFFFFFFFFFFFFFFFFFFFFFFFFFFF AND EQ PUSH2 0x14DF JUMPI CALLER PUSH1 0x40 MLOAD PUSH32 0xF9EBB4C700000000000000000000000000000000000000000000000000000000 DUP2 MSTORE PUSH1 0x4 ADD PUSH2 0x14D6 SWAP2 SWAP1 PUSH2 0x1C39 JUMP JUMPDEST PUSH1 0x40 MLOAD DUP1 SWAP2 SUB SWAP1 REVERT JUMPDEST PUSH1 0x1 ISZERO ISZERO PUSH1 0x0 PUSH1 0x14 SWAP1 SLOAD SWAP1 PUSH2 0x100 EXP SWAP1 DIV PUSH1 0xFF AND ISZERO ISZERO EQ PUSH2 0x1535 JUMPI PUSH1 0x40 MLOAD PUSH32 0x8C379A000000000000000000000000000000000000000000000000000000000 DUP2 MSTORE PUSH1 0x4 ADD PUSH2 0x152C SWAP1 PUSH2 0x2338 JUMP JUMPDEST PUSH1 0x40 MLOAD DUP1 SWAP2 SUB SWAP1 REVERT JUMPDEST PUSH1 0x0 DUP1 PUSH1 0x14 PUSH2 0x100 EXP DUP2 SLOAD DUP2 PUSH1 0xFF MUL NOT AND SWAP1 DUP4 ISZERO ISZERO MUL OR SWAP1 SSTORE POP JUMP JUMPDEST PUSH1 0x0 DUP1 SLOAD SWAP1 PUSH2 0x100 EXP SWAP1 DIV PUSH20 0xFFFFFFFFFFFFFFFFFFFFFFFFFFFFFFFFFFFFFFFF AND DUP2 JUMP JUMPDEST PUSH32 0x0 PUSH20 0xFFFFFFFFFFFFFFFFFFFFFFFFFFFFFFFFFFFFFFFF AND CALLER PUSH20 0xFFFFFFFFFFFFFFFFFFFFFFFFFFFFFFFFFFFFFFFF AND EQ PUSH2 0x1605 JUMPI CALLER PUSH1 0x40 MLOAD PUSH32 0xF9EBB4C700000000000000000000000000000000000000000000000000000000 DUP2 MSTORE PUSH1 0x4 ADD PUSH2 0x15FC SWAP2 SWAP1 PUSH2 0x1C39 JUMP JUMPDEST PUSH1 0x40 MLOAD DUP1 SWAP2 SUB SWAP1 REVERT JUMPDEST DUP3 PUSH20 0xFFFFFFFFFFFFFFFFFFFFFFFFFFFFFFFFFFFFFFFF AND PUSH4 0x95EA7B3 DUP4 DUP4 PUSH1 0x40 MLOAD DUP4 PUSH4 0xFFFFFFFF AND PUSH1 0xE0 SHL DUP2 MSTORE PUSH1 0x4 ADD PUSH2 0x1640 SWAP3 SWAP2 SWAP1 PUSH2 0x22C3 JUMP JUMPDEST PUSH1 0x20 PUSH1 0x40 MLOAD DUP1 DUP4 SUB DUP2 PUSH1 0x0 DUP8 GAS CALL ISZERO DUP1 ISZERO PUSH2 0x165F JUMPI RETURNDATASIZE PUSH1 0x0 DUP1 RETURNDATACOPY RETURNDATASIZE PUSH1 0x0 REVERT JUMPDEST POP POP POP POP PUSH1 0x40 MLOAD RETURNDATASIZE PUSH1 0x1F NOT PUSH1 0x1F DUP3 ADD AND DUP3 ADD DUP1 PUSH1 0x40 MSTORE POP DUP2 ADD SWAP1 PUSH2 0x1683 SWAP2 SWAP1 PUSH2 0x2152 JUMP JUMPDEST POP POP POP POP JUMP JUMPDEST PUSH32 0x0 DUP2 JUMP JUMPDEST PUSH1 0x60 DUP4 DUP4 DUP4 PUSH1 0x40 MLOAD PUSH1 0x20 ADD PUSH2 0x16C4 SWAP4 SWAP3 SWAP2 SWAP1 PUSH2 0x2035 JUMP JUMPDEST PUSH1 0x40 MLOAD PUSH1 0x20 DUP2 DUP4 SUB SUB DUP2 MSTORE SWAP1 PUSH1 0x40 MSTORE SWAP1 POP SWAP4 SWAP3 POP POP POP JUMP JUMPDEST PUSH1 0x0 TIMESTAMP SWAP1 POP SWAP1 JUMP JUMPDEST PUSH32 0x0 PUSH20 0xFFFFFFFFFFFFFFFFFFFFFFFFFFFFFFFFFFFFFFFF AND CALLER PUSH20 0xFFFFFFFFFFFFFFFFFFFFFFFFFFFFFFFFFFFFFFFF AND EQ PUSH2 0x1774 JUMPI CALLER PUSH1 0x40 MLOAD PUSH32 0xF9EBB4C700000000000000000000000000000000000000000000000000000000 DUP2 MSTORE PUSH1 0x4 ADD PUSH2 0x176B SWAP2 SWAP1 PUSH2 0x1C39 JUMP JUMPDEST PUSH1 0x40 MLOAD DUP1 SWAP2 SUB SWAP1 REVERT JUMPDEST PUSH1 0x0 ISZERO ISZERO PUSH1 0x0 PUSH1 0x14 SWAP1 SLOAD SWAP1 PUSH2 0x100 EXP SWAP1 DIV PUSH1 0xFF AND ISZERO ISZERO EQ PUSH2 0x17CA JUMPI PUSH1 0x40 MLOAD PUSH32 0x8C379A000000000000000000000000000000000000000000000000000000000 DUP2 MSTORE PUSH1 0x4 ADD PUSH2 0x17C1 SWAP1 PUSH2 0x23A4 JUMP JUMPDEST PUSH1 0x40 MLOAD DUP1 SWAP2 SUB SWAP1 REVERT JUMPDEST PUSH1 0x1 PUSH1 0x0 PUSH1 0x14 PUSH2 0x100 EXP DUP2 SLOAD DUP2 PUSH1 0xFF MUL NOT AND SWAP1 DUP4 ISZERO ISZERO MUL OR SWAP1 SSTORE POP JUMP JUMPDEST PUSH1 0x0 PUSH1 0x40 MLOAD SWAP1 POP SWAP1 JUMP JUMPDEST PUSH1 0x0 DUP1 REVERT JUMPDEST PUSH1 0x0 DUP1 REVERT JUMPDEST PUSH1 0x0 DUP1 REVERT JUMPDEST PUSH1 0x0 PUSH1 0x1F NOT PUSH1 0x1F DUP4 ADD AND SWAP1 POP SWAP2 SWAP1 POP JUMP JUMPDEST PUSH32 0x4E487B7100000000000000000000000000000000000000000000000000000000 PUSH1 0x0 MSTORE PUSH1 0x41 PUSH1 0x4 MSTORE PUSH1 0x24 PUSH1 0x0 REVERT JUMPDEST PUSH2 0x1849 DUP3 PUSH2 0x1800 JUMP JUMPDEST DUP2 ADD DUP2 DUP2 LT PUSH8 0xFFFFFFFFFFFFFFFF DUP3 GT OR ISZERO PUSH2 0x1868 JUMPI PUSH2 0x1867 PUSH2 0x1811 JUMP JUMPDEST JUMPDEST DUP1 PUSH1 0x40 MSTORE POP POP POP JUMP JUMPDEST PUSH1 0x0 PUSH2 0x187B PUSH2 0x17E7 JUMP JUMPDEST SWAP1 POP PUSH2 0x1887 DUP3 DUP3 PUSH2 0x1840 JUMP JUMPDEST SWAP2 SWAP1 POP JUMP JUMPDEST PUSH1 0x0 DUP1 REVERT JUMPDEST PUSH1 0x0 DUP1 REVERT JUMPDEST PUSH1 0x0 DUP1 REVERT JUMPDEST PUSH1 0x0 PUSH8 0xFFFFFFFFFFFFFFFF DUP3 GT ISZERO PUSH2 0x18B6 JUMPI PUSH2 0x18B5 PUSH2 0x1811 JUMP JUMPDEST JUMPDEST PUSH2 0x18BF DUP3 PUSH2 0x1800 JUMP JUMPDEST SWAP1 POP PUSH1 0x20 DUP2 ADD SWAP1 POP SWAP2 SWAP1 POP JUMP JUMPDEST DUP3 DUP2 DUP4 CALLDATACOPY PUSH1 0x0 DUP4 DUP4 ADD MSTORE POP POP POP JUMP JUMPDEST PUSH1 0x0 PUSH2 0x18EE PUSH2 0x18E9 DUP5 PUSH2 0x189B JUMP JUMPDEST PUSH2 0x1871 JUMP JUMPDEST SWAP1 POP DUP3 DUP2 MSTORE PUSH1 0x20 DUP2 ADD DUP5 DUP5 DUP5 ADD GT ISZERO PUSH2 0x190A JUMPI PUSH2 0x1909 PUSH2 0x1896 JUMP JUMPDEST JUMPDEST PUSH2 0x1915 DUP5 DUP3 DUP6 PUSH2 0x18CC JUMP JUMPDEST POP SWAP4 SWAP3 POP POP POP JUMP JUMPDEST PUSH1 0x0 DUP3 PUSH1 0x1F DUP4 ADD SLT PUSH2 0x1932 JUMPI PUSH2 0x1931 PUSH2 0x1891 JUMP JUMPDEST JUMPDEST DUP2 CALLDATALOAD PUSH2 0x1942 DUP5 DUP3 PUSH1 0x20 DUP7 ADD PUSH2 0x18DB JUMP JUMPDEST SWAP2 POP POP SWAP3 SWAP2 POP POP JUMP JUMPDEST PUSH1 0x0 PUSH20 0xFFFFFFFFFFFFFFFFFFFFFFFFFFFFFFFFFFFFFFFF DUP3 AND SWAP1 POP SWAP2 SWAP1 POP JUMP JUMPDEST PUSH1 0x0 PUSH2 0x1976 DUP3 PUSH2 0x194B JUMP JUMPDEST SWAP1 POP SWAP2 SWAP1 POP JUMP JUMPDEST PUSH2 0x1986 DUP2 PUSH2 0x196B JUMP JUMPDEST DUP2 EQ PUSH2 0x1991 JUMPI PUSH1 0x0 DUP1 REVERT JUMPDEST POP JUMP JUMPDEST PUSH1 0x0 DUP2 CALLDATALOAD SWAP1 POP PUSH2 0x19A3 DUP2 PUSH2 0x197D JUMP JUMPDEST SWAP3 SWAP2 POP POP JUMP JUMPDEST PUSH1 0x0 DUP2 SWAP1 POP SWAP2 SWAP1 POP JUMP JUMPDEST PUSH2 0x19BC DUP2 PUSH2 0x19A9 JUMP JUMPDEST DUP2 EQ PUSH2 0x19C7 JUMPI PUSH1 0x0 DUP1 REVERT JUMPDEST POP JUMP JUMPDEST PUSH1 0x0 DUP2 CALLDATALOAD SWAP1 POP PUSH2 0x19D9 DUP2 PUSH2 0x19B3 JUMP JUMPDEST SWAP3 SWAP2 POP POP JUMP JUMPDEST PUSH1 0x0 PUSH1 0xA0 DUP3 DUP5 SUB SLT ISZERO PUSH2 0x19F5 JUMPI PUSH2 0x19F4 PUSH2 0x17FB JUMP JUMPDEST JUMPDEST PUSH2 0x19FF PUSH1 0xA0 PUSH2 0x1871 JUMP JUMPDEST SWAP1 POP PUSH1 0x0 DUP3 ADD CALLDATALOAD PUSH8 0xFFFFFFFFFFFFFFFF DUP2 GT ISZERO PUSH2 0x1A1F JUMPI PUSH2 0x1A1E PUSH2 0x188C JUMP JUMPDEST JUMPDEST PUSH2 0x1A2B DUP5 DUP3 DUP6 ADD PUSH2 0x191D JUMP JUMPDEST PUSH1 0x0 DUP4 ADD MSTORE POP PUSH1 0x20 PUSH2 0x1A3F DUP5 DUP3 DUP6 ADD PUSH2 0x1994 JUMP JUMPDEST PUSH1 0x20 DUP4 ADD MSTORE POP PUSH1 0x40 PUSH2 0x1A53 DUP5 DUP3 DUP6 ADD PUSH2 0x19CA JUMP JUMPDEST PUSH1 0x40 DUP4 ADD MSTORE POP PUSH1 0x60 PUSH2 0x1A67 DUP5 DUP3 DUP6 ADD PUSH2 0x19CA JUMP JUMPDEST PUSH1 0x60 DUP4 ADD MSTORE POP PUSH1 0x80 PUSH2 0x1A7B DUP5 DUP3 DUP6 ADD PUSH2 0x19CA JUMP JUMPDEST PUSH1 0x80 DUP4 ADD MSTORE POP SWAP3 SWAP2 POP POP JUMP JUMPDEST PUSH1 0x0 DUP1 PUSH1 0x40 DUP4 DUP6 SUB SLT ISZERO PUSH2 0x1A9E JUMPI PUSH2 0x1A9D PUSH2 0x17F1 JUMP JUMPDEST JUMPDEST PUSH1 0x0 DUP4 ADD CALLDATALOAD PUSH8 0xFFFFFFFFFFFFFFFF DUP2 GT ISZERO PUSH2 0x1ABC JUMPI PUSH2 0x1ABB PUSH2 0x17F6 JUMP JUMPDEST JUMPDEST PUSH2 0x1AC8 DUP6 DUP3 DUP7 ADD PUSH2 0x19DF JUMP JUMPDEST SWAP3 POP POP PUSH1 0x20 PUSH2 0x1AD9 DUP6 DUP3 DUP7 ADD PUSH2 0x19CA JUMP JUMPDEST SWAP2 POP POP SWAP3 POP SWAP3 SWAP1 POP JUMP JUMPDEST PUSH1 0x0 DUP2 SWAP1 POP SWAP2 SWAP1 POP JUMP JUMPDEST PUSH1 0x0 PUSH2 0x1B08 PUSH2 0x1B03 PUSH2 0x1AFE DUP5 PUSH2 0x194B JUMP JUMPDEST PUSH2 0x1AE3 JUMP JUMPDEST PUSH2 0x194B JUMP JUMPDEST SWAP1 POP SWAP2 SWAP1 POP JUMP JUMPDEST PUSH1 0x0 PUSH2 0x1B1A DUP3 PUSH2 0x1AED JUMP JUMPDEST SWAP1 POP SWAP2 SWAP1 POP JUMP JUMPDEST PUSH1 0x0 PUSH2 0x1B2C DUP3 PUSH2 0x1B0F JUMP JUMPDEST SWAP1 POP SWAP2 SWAP1 POP JUMP JUMPDEST PUSH2 0x1B3C DUP2 PUSH2 0x1B21 JUMP JUMPDEST DUP3 MSTORE POP POP JUMP JUMPDEST PUSH1 0x0 PUSH1 0x20 DUP3 ADD SWAP1 POP PUSH2 0x1B57 PUSH1 0x0 DUP4 ADD DUP5 PUSH2 0x1B33 JUMP JUMPDEST SWAP3 SWAP2 POP POP JUMP JUMPDEST PUSH1 0x0 DUP1 PUSH1 0x40 DUP4 DUP6 SUB SLT ISZERO PUSH2 0x1B74 JUMPI PUSH2 0x1B73 PUSH2 0x17F1 JUMP JUMPDEST JUMPDEST PUSH1 0x0 PUSH2 0x1B82 DUP6 DUP3 DUP7 ADD PUSH2 0x1994 JUMP JUMPDEST SWAP3 POP POP PUSH1 0x20 PUSH2 0x1B93 DUP6 DUP3 DUP7 ADD PUSH2 0x19CA JUMP JUMPDEST SWAP2 POP POP SWAP3 POP SWAP3 SWAP1 POP JUMP JUMPDEST PUSH1 0x0 PUSH1 0x20 DUP3 DUP5 SUB SLT ISZERO PUSH2 0x1BB3 JUMPI PUSH2 0x1BB2 PUSH2 0x17F1 JUMP JUMPDEST JUMPDEST PUSH1 0x0 PUSH2 0x1BC1 DUP5 DUP3 DUP6 ADD PUSH2 0x1994 JUMP JUMPDEST SWAP2 POP POP SWAP3 SWAP2 POP POP JUMP JUMPDEST PUSH2 0x1BD3 DUP2 PUSH2 0x19A9 JUMP JUMPDEST DUP3 MSTORE POP POP JUMP JUMPDEST PUSH1 0x0 PUSH1 0x20 DUP3 ADD SWAP1 POP PUSH2 0x1BEE PUSH1 0x0 DUP4 ADD DUP5 PUSH2 0x1BCA JUMP JUMPDEST SWAP3 SWAP2 POP POP JUMP JUMPDEST PUSH1 0x0 DUP2 ISZERO ISZERO SWAP1 POP SWAP2 SWAP1 POP JUMP JUMPDEST PUSH2 0x1C09 DUP2 PUSH2 0x1BF4 JUMP JUMPDEST DUP3 MSTORE POP POP JUMP JUMPDEST PUSH1 0x0 PUSH1 0x20 DUP3 ADD SWAP1 POP PUSH2 0x1C24 PUSH1 0x0 DUP4 ADD DUP5 PUSH2 0x1C00 JUMP JUMPDEST SWAP3 SWAP2 POP POP JUMP JUMPDEST PUSH2 0x1C33 DUP2 PUSH2 0x196B JUMP JUMPDEST DUP3 MSTORE POP POP JUMP JUMPDEST PUSH1 0x0 PUSH1 0x20 DUP3 ADD SWAP1 POP PUSH2 0x1C4E PUSH1 0x0 DUP4 ADD DUP5 PUSH2 0x1C2A JUMP JUMPDEST SWAP3 SWAP2 POP POP JUMP JUMPDEST PUSH1 0x0 DUP1 PUSH1 0x0 PUSH1 0x60 DUP5 DUP7 SUB SLT ISZERO PUSH2 0x1C6D JUMPI PUSH2 0x1C6C PUSH2 0x17F1 JUMP JUMPDEST JUMPDEST PUSH1 0x0 PUSH2 0x1C7B DUP7 DUP3 DUP8 ADD PUSH2 0x1994 JUMP JUMPDEST SWAP4 POP POP PUSH1 0x20 PUSH2 0x1C8C DUP7 DUP3 DUP8 ADD PUSH2 0x1994 JUMP JUMPDEST SWAP3 POP POP PUSH1 0x40 PUSH2 0x1C9D DUP7 DUP3 DUP8 ADD PUSH2 0x19CA JUMP JUMPDEST SWAP2 POP POP SWAP3 POP SWAP3 POP SWAP3 JUMP JUMPDEST PUSH1 0x0 PUSH2 0x1CB2 DUP3 PUSH2 0x1B0F JUMP JUMPDEST SWAP1 POP SWAP2 SWAP1 POP JUMP JUMPDEST PUSH2 0x1CC2 DUP2 PUSH2 0x1CA7 JUMP JUMPDEST DUP3 MSTORE POP POP JUMP JUMPDEST PUSH1 0x0 PUSH1 0x20 DUP3 ADD SWAP1 POP PUSH2 0x1CDD PUSH1 0x0 DUP4 ADD DUP5 PUSH2 0x1CB9 JUMP JUMPDEST SWAP3 SWAP2 POP POP JUMP JUMPDEST PUSH1 0x0 PUSH3 0xFFFFFF DUP3 AND SWAP1 POP SWAP2 SWAP1 POP JUMP JUMPDEST PUSH2 0x1CFB DUP2 PUSH2 0x1CE3 JUMP JUMPDEST DUP2 EQ PUSH2 0x1D06 JUMPI PUSH1 0x0 DUP1 REVERT JUMPDEST POP JUMP JUMPDEST PUSH1 0x0 DUP2 CALLDATALOAD SWAP1 POP PUSH2 0x1D18 DUP2 PUSH2 0x1CF2 JUMP JUMPDEST SWAP3 SWAP2 POP POP JUMP JUMPDEST PUSH1 0x0 DUP1 PUSH1 0x0 PUSH1 0x60 DUP5 DUP7 SUB SLT ISZERO PUSH2 0x1D37 JUMPI PUSH2 0x1D36 PUSH2 0x17F1 JUMP JUMPDEST JUMPDEST PUSH1 0x0 PUSH2 0x1D45 DUP7 DUP3 DUP8 ADD PUSH2 0x1994 JUMP JUMPDEST SWAP4 POP POP PUSH1 0x20 PUSH2 0x1D56 DUP7 DUP3 DUP8 ADD PUSH2 0x1D09 JUMP JUMPDEST SWAP3 POP POP PUSH1 0x40 PUSH2 0x1D67 DUP7 DUP3 DUP8 ADD PUSH2 0x1994 JUMP JUMPDEST SWAP2 POP POP SWAP3 POP SWAP3 POP SWAP3 JUMP JUMPDEST PUSH1 0x0 DUP2 MLOAD SWAP1 POP SWAP2 SWAP1 POP JUMP JUMPDEST PUSH1 0x0 DUP3 DUP3 MSTORE PUSH1 0x20 DUP3 ADD SWAP1 POP SWAP3 SWAP2 POP POP JUMP JUMPDEST PUSH1 0x0 JUMPDEST DUP4 DUP2 LT ISZERO PUSH2 0x1DAB JUMPI DUP1 DUP3 ADD MLOAD DUP2 DUP5 ADD MSTORE PUSH1 0x20 DUP2 ADD SWAP1 POP PUSH2 0x1D90 JUMP JUMPDEST PUSH1 0x0 DUP5 DUP5 ADD MSTORE POP POP POP POP JUMP JUMPDEST PUSH1 0x0 PUSH2 0x1DC2 DUP3 PUSH2 0x1D71 JUMP JUMPDEST PUSH2 0x1DCC DUP2 DUP6 PUSH2 0x1D7C JUMP JUMPDEST SWAP4 POP PUSH2 0x1DDC DUP2 DUP6 PUSH1 0x20 DUP7 ADD PUSH2 0x1D8D JUMP JUMPDEST PUSH2 0x1DE5 DUP2 PUSH2 0x1800 JUMP JUMPDEST DUP5 ADD SWAP2 POP POP SWAP3 SWAP2 POP POP JUMP JUMPDEST PUSH1 0x0 PUSH1 0x20 DUP3 ADD SWAP1 POP DUP2 DUP2 SUB PUSH1 0x0 DUP4 ADD MSTORE PUSH2 0x1E0A DUP2 DUP5 PUSH2 0x1DB7 JUMP JUMPDEST SWAP1 POP SWAP3 SWAP2 POP POP JUMP JUMPDEST PUSH1 0x0 DUP2 MLOAD SWAP1 POP PUSH2 0x1E21 DUP2 PUSH2 0x19B3 JUMP JUMPDEST SWAP3 SWAP2 POP POP JUMP JUMPDEST PUSH1 0x0 PUSH1 0x20 DUP3 DUP5 SUB SLT ISZERO PUSH2 0x1E3D JUMPI PUSH2 0x1E3C PUSH2 0x17F1 JUMP JUMPDEST JUMPDEST PUSH1 0x0 PUSH2 0x1E4B DUP5 DUP3 DUP6 ADD PUSH2 0x1E12 JUMP JUMPDEST SWAP2 POP POP SWAP3 SWAP2 POP POP JUMP JUMPDEST PUSH1 0x0 DUP3 DUP3 MSTORE PUSH1 0x20 DUP3 ADD SWAP1 POP SWAP3 SWAP2 POP POP JUMP JUMPDEST PUSH1 0x0 PUSH2 0x1E70 DUP3 PUSH2 0x1D71 JUMP JUMPDEST PUSH2 0x1E7A DUP2 DUP6 PUSH2 0x1E54 JUMP JUMPDEST SWAP4 POP PUSH2 0x1E8A DUP2 DUP6 PUSH1 0x20 DUP7 ADD PUSH2 0x1D8D JUMP JUMPDEST PUSH2 0x1E93 DUP2 PUSH2 0x1800 JUMP JUMPDEST DUP5 ADD SWAP2 POP POP SWAP3 SWAP2 POP POP JUMP JUMPDEST PUSH2 0x1EA7 DUP2 PUSH2 0x196B JUMP JUMPDEST DUP3 MSTORE POP POP JUMP JUMPDEST PUSH2 0x1EB6 DUP2 PUSH2 0x19A9 JUMP JUMPDEST DUP3 MSTORE POP POP JUMP JUMPDEST PUSH1 0x0 PUSH1 0xA0 DUP4 ADD PUSH1 0x0 DUP4 ADD MLOAD DUP5 DUP3 SUB PUSH1 0x0 DUP7 ADD MSTORE PUSH2 0x1ED9 DUP3 DUP3 PUSH2 0x1E65 JUMP JUMPDEST SWAP2 POP POP PUSH1 0x20 DUP4 ADD MLOAD PUSH2 0x1EEE PUSH1 0x20 DUP7 ADD DUP3 PUSH2 0x1E9E JUMP JUMPDEST POP PUSH1 0x40 DUP4 ADD MLOAD PUSH2 0x1F01 PUSH1 0x40 DUP7 ADD DUP3 PUSH2 0x1EAD JUMP JUMPDEST POP PUSH1 0x60 DUP4 ADD MLOAD PUSH2 0x1F14 PUSH1 0x60 DUP7 ADD DUP3 PUSH2 0x1EAD JUMP JUMPDEST POP PUSH1 0x80 DUP4 ADD MLOAD PUSH2 0x1F27 PUSH1 0x80 DUP7 ADD DUP3 PUSH2 0x1EAD JUMP JUMPDEST POP DUP1 SWAP2 POP POP SWAP3 SWAP2 POP POP JUMP JUMPDEST PUSH1 0x0 PUSH1 0x20 DUP3 ADD SWAP1 POP DUP2 DUP2 SUB PUSH1 0x0 DUP4 ADD MSTORE PUSH2 0x1F4C DUP2 DUP5 PUSH2 0x1EBC JUMP JUMPDEST SWAP1 POP SWAP3 SWAP2 POP POP JUMP JUMPDEST PUSH32 0x4E487B7100000000000000000000000000000000000000000000000000000000 PUSH1 0x0 MSTORE PUSH1 0x11 PUSH1 0x4 MSTORE PUSH1 0x24 PUSH1 0x0 REVERT JUMPDEST PUSH1 0x0 PUSH2 0x1F8E DUP3 PUSH2 0x19A9 JUMP JUMPDEST SWAP2 POP PUSH2 0x1F99 DUP4 PUSH2 0x19A9 JUMP JUMPDEST SWAP3 POP DUP3 DUP3 SUB SWAP1 POP DUP2 DUP2 GT ISZERO PUSH2 0x1FB1 JUMPI PUSH2 0x1FB0 PUSH2 0x1F54 JUMP JUMPDEST JUMPDEST SWAP3 SWAP2 POP POP JUMP JUMPDEST PUSH1 0x0 DUP2 PUSH1 0x60 SHL SWAP1 POP SWAP2 SWAP1 POP JUMP JUMPDEST PUSH1 0x0 PUSH2 0x1FCF DUP3 PUSH2 0x1FB7 JUMP JUMPDEST SWAP1 POP SWAP2 SWAP1 POP JUMP JUMPDEST PUSH1 0x0 PUSH2 0x1FE1 DUP3 PUSH2 0x1FC4 JUMP JUMPDEST SWAP1 POP SWAP2 SWAP1 POP JUMP JUMPDEST PUSH2 0x1FF9 PUSH2 0x1FF4 DUP3 PUSH2 0x196B JUMP JUMPDEST PUSH2 0x1FD6 JUMP JUMPDEST DUP3 MSTORE POP POP JUMP JUMPDEST PUSH1 0x0 DUP2 PUSH1 0xE8 SHL SWAP1 POP SWAP2 SWAP1 POP JUMP JUMPDEST PUSH1 0x0 PUSH2 0x2017 DUP3 PUSH2 0x1FFF JUMP JUMPDEST SWAP1 POP SWAP2 SWAP1 POP JUMP JUMPDEST PUSH2 0x202F PUSH2 0x202A DUP3 PUSH2 0x1CE3 JUMP JUMPDEST PUSH2 0x200C JUMP JUMPDEST DUP3 MSTORE POP POP JUMP JUMPDEST PUSH1 0x0 PUSH2 0x2041 DUP3 DUP7 PUSH2 0x1FE8 JUMP JUMPDEST PUSH1 0x14 DUP3 ADD SWAP2 POP PUSH2 0x2051 DUP3 DUP6 PUSH2 0x201E JUMP JUMPDEST PUSH1 0x3 DUP3 ADD SWAP2 POP PUSH2 0x2061 DUP3 DUP5 PUSH2 0x1FE8 JUMP JUMPDEST PUSH1 0x14 DUP3 ADD SWAP2 POP DUP2 SWAP1 POP SWAP5 SWAP4 POP POP POP POP JUMP JUMPDEST PUSH1 0x0 DUP3 DUP3 MSTORE PUSH1 0x20 DUP3 ADD SWAP1 POP SWAP3 SWAP2 POP POP JUMP JUMPDEST PUSH32 0x416D6F756E742063616E27742062652030000000000000000000000000000000 PUSH1 0x0 DUP3 ADD MSTORE POP JUMP JUMPDEST PUSH1 0x0 PUSH2 0x20B9 PUSH1 0x11 DUP4 PUSH2 0x2072 JUMP JUMPDEST SWAP2 POP PUSH2 0x20C4 DUP3 PUSH2 0x2083 JUMP JUMPDEST PUSH1 0x20 DUP3 ADD SWAP1 POP SWAP2 SWAP1 POP JUMP JUMPDEST PUSH1 0x0 PUSH1 0x20 DUP3 ADD SWAP1 POP DUP2 DUP2 SUB PUSH1 0x0 DUP4 ADD MSTORE PUSH2 0x20E8 DUP2 PUSH2 0x20AC JUMP JUMPDEST SWAP1 POP SWAP2 SWAP1 POP JUMP JUMPDEST PUSH1 0x0 PUSH1 0x60 DUP3 ADD SWAP1 POP PUSH2 0x2104 PUSH1 0x0 DUP4 ADD DUP7 PUSH2 0x1C2A JUMP JUMPDEST PUSH2 0x2111 PUSH1 0x20 DUP4 ADD DUP6 PUSH2 0x1C2A JUMP JUMPDEST PUSH2 0x211E PUSH1 0x40 DUP4 ADD DUP5 PUSH2 0x1BCA JUMP JUMPDEST SWAP5 SWAP4 POP POP POP POP JUMP JUMPDEST PUSH2 0x212F DUP2 PUSH2 0x1BF4 JUMP JUMPDEST DUP2 EQ PUSH2 0x213A JUMPI PUSH1 0x0 DUP1 REVERT JUMPDEST POP JUMP JUMPDEST PUSH1 0x0 DUP2 MLOAD SWAP1 POP PUSH2 0x214C DUP2 PUSH2 0x2126 JUMP JUMPDEST SWAP3 SWAP2 POP POP JUMP JUMPDEST PUSH1 0x0 PUSH1 0x20 DUP3 DUP5 SUB SLT ISZERO PUSH2 0x2168 JUMPI PUSH2 0x2167 PUSH2 0x17F1 JUMP JUMPDEST JUMPDEST PUSH1 0x0 PUSH2 0x2176 DUP5 DUP3 DUP6 ADD PUSH2 0x213D JUMP JUMPDEST SWAP2 POP POP SWAP3 SWAP2 POP POP JUMP JUMPDEST PUSH32 0x43616E2774206265206120302061646472657373000000000000000000000000 PUSH1 0x0 DUP3 ADD MSTORE POP JUMP JUMPDEST PUSH1 0x0 PUSH2 0x21B5 PUSH1 0x14 DUP4 PUSH2 0x2072 JUMP JUMPDEST SWAP2 POP PUSH2 0x21C0 DUP3 PUSH2 0x217F JUMP JUMPDEST PUSH1 0x20 DUP3 ADD SWAP1 POP SWAP2 SWAP1 POP JUMP JUMPDEST PUSH1 0x0 PUSH1 0x20 DUP3 ADD SWAP1 POP DUP2 DUP2 SUB PUSH1 0x0 DUP4 ADD MSTORE PUSH2 0x21E4 DUP2 PUSH2 0x21A8 JUMP JUMPDEST SWAP1 POP SWAP2 SWAP1 POP JUMP JUMPDEST PUSH32 0x43616E2774206265207468697320616464726573730000000000000000000000 PUSH1 0x0 DUP3 ADD MSTORE POP JUMP JUMPDEST PUSH1 0x0 PUSH2 0x2221 PUSH1 0x15 DUP4 PUSH2 0x2072 JUMP JUMPDEST SWAP2 POP PUSH2 0x222C DUP3 PUSH2 0x21EB JUMP JUMPDEST PUSH1 0x20 DUP3 ADD SWAP1 POP SWAP2 SWAP1 POP JUMP JUMPDEST PUSH1 0x0 PUSH1 0x20 DUP3 ADD SWAP1 POP DUP2 DUP2 SUB PUSH1 0x0 DUP4 ADD MSTORE PUSH2 0x2250 DUP2 PUSH2 0x2214 JUMP JUMPDEST SWAP1 POP SWAP2 SWAP1 POP JUMP JUMPDEST PUSH32 0x416D6F756E7420697320686967686572207468616E2062616C616E6365000000 PUSH1 0x0 DUP3 ADD MSTORE POP JUMP JUMPDEST PUSH1 0x0 PUSH2 0x228D PUSH1 0x1D DUP4 PUSH2 0x2072 JUMP JUMPDEST SWAP2 POP PUSH2 0x2298 DUP3 PUSH2 0x2257 JUMP JUMPDEST PUSH1 0x20 DUP3 ADD SWAP1 POP SWAP2 SWAP1 POP JUMP JUMPDEST PUSH1 0x0 PUSH1 0x20 DUP3 ADD SWAP1 POP DUP2 DUP2 SUB PUSH1 0x0 DUP4 ADD MSTORE PUSH2 0x22BC DUP2 PUSH2 0x2280 JUMP JUMPDEST SWAP1 POP SWAP2 SWAP1 POP JUMP JUMPDEST PUSH1 0x0 PUSH1 0x40 DUP3 ADD SWAP1 POP PUSH2 0x22D8 PUSH1 0x0 DUP4 ADD DUP6 PUSH2 0x1C2A JUMP JUMPDEST PUSH2 0x22E5 PUSH1 0x20 DUP4 ADD DUP5 PUSH2 0x1BCA JUMP JUMPDEST SWAP4 SWAP3 POP POP POP JUMP JUMPDEST PUSH32 0x4E6F74206C6F636B656400000000000000000000000000000000000000000000 PUSH1 0x0 DUP3 ADD MSTORE POP JUMP JUMPDEST PUSH1 0x0 PUSH2 0x2322 PUSH1 0xA DUP4 PUSH2 0x2072 JUMP JUMPDEST SWAP2 POP PUSH2 0x232D DUP3 PUSH2 0x22EC JUMP JUMPDEST PUSH1 0x20 DUP3 ADD SWAP1 POP SWAP2 SWAP1 POP JUMP JUMPDEST PUSH1 0x0 PUSH1 0x20 DUP3 ADD SWAP1 POP DUP2 DUP2 SUB PUSH1 0x0 DUP4 ADD MSTORE PUSH2 0x2351 DUP2 PUSH2 0x2315 JUMP JUMPDEST SWAP1 POP SWAP2 SWAP1 POP JUMP JUMPDEST PUSH32 0x416C7265616479206C6F636B6564000000000000000000000000000000000000 PUSH1 0x0 DUP3 ADD MSTORE POP JUMP JUMPDEST PUSH1 0x0 PUSH2 0x238E PUSH1 0xE DUP4 PUSH2 0x2072 JUMP JUMPDEST SWAP2 POP PUSH2 0x2399 DUP3 PUSH2 0x2358 JUMP JUMPDEST PUSH1 0x20 DUP3 ADD SWAP1 POP SWAP2 SWAP1 POP JUMP JUMPDEST PUSH1 0x0 PUSH1 0x20 DUP3 ADD SWAP1 POP DUP2 DUP2 SUB PUSH1 0x0 DUP4 ADD MSTORE PUSH2 0x23BD DUP2 PUSH2 0x2381 JUMP JUMPDEST SWAP1 POP SWAP2 SWAP1 POP JUMP INVALID LOG2 PUSH5 0x6970667358 0x22 SLT KECCAK256 DUP4 0xBA 0xC5 0x2B CALLCODE 0xBC RETURN PUSH23 0x9E2038F9701702190EAF55D5BDF1E0FE30CC55293CD391 0xFB PUSH5 0x736F6C6343 STOP ADDMOD EQ STOP CALLER "},"methodIdentifiers":{"approveToken(address,address,uint256)":"da3e3397","depositToken(address,uint256)":"338b5dea","isLocked()":"a4e2d634","lock()":"f83d08ba","pancakeRouterV3()":"e47aaf6d","returnBlockTimestamp()":"f556d1d4","returnPathData(address,uint24,address)":"f1584673","returnTokenBalance(address)":"a119b86e","setTradeExecutor(address)":"5767c659","swapUSDCforUSDTnoSlippage()":"0ebaf458","swapUSDTforUSDCnoSlippage()":"7201c6be","trade1((bytes,address,uint256,uint256,uint256),uint256)":"05ddad1f","trade2((bytes,address,uint256,uint256,uint256),uint256)":"272a6dd9","tradeExecutor()":"a7f07011","unlock()":"a69df4b5","usdc()":"3e413bee","usdt()":"2f48ab7d","weth()":"3fc8cef3","withdrawToken(address,uint256)":"9e281a98"}}}}}