{"contracts/OptimusPrime.sol":{"OptimusPrime":{"abi":[{"inputs":[{"internalType":"address","name":"_pancakeswapRouterV3","type":"address"}],"stateMutability":"nonpayable","type":"constructor"},{"inputs":[{"internalType":"uint256","name":"finalBalance","type":"uint256"}],"name":"NoProfit","type":"error"},{"inputs":[{"internalType":"address","name":"sender","type":"address"}],"name":"NotTheOwner","type":"error"},{"inputs":[{"internalType":"address","name":"sender","type":"address"}],"name":"NotTheTradeExecutor","type":"error"},{"inputs":[{"internalType":"address","name":"token","type":"address"}],"name":"TokenNotAccepted","type":"error"},{"anonymous":false,"inputs":[{"indexed":false,"internalType":"uint256","name":"_finalBalance","type":"uint256"}],"name":"Profit","type":"event"},{"inputs":[{"internalType":"address","name":"tokenToApprove","type":"address"},{"internalType":"address","name":"spender","type":"address"},{"internalType":"uint256","name":"amount","type":"uint256"}],"name":"approveToken","outputs":[],"stateMutability":"nonpayable","type":"function"},{"inputs":[{"internalType":"address","name":"token","type":"address"},{"internalType":"uint256","name":"amount","type":"uint256"}],"name":"depositToken","outputs":[],"stateMutability":"nonpayable","type":"function"},{"inputs":[],"name":"pancakeRouterV3","outputs":[{"internalType":"contract IV3PancakeSwapRouter","name":"","type":"address"}],"stateMutability":"view","type":"function"},{"inputs":[],"name":"returnBlockTimestamp","outputs":[{"internalType":"uint256","name":"","type":"uint256"}],"stateMutability":"view","type":"function"},{"inputs":[],"name":"returnETHPrice","outputs":[{"internalType":"int256","name":"","type":"int256"}],"stateMutability":"view","type":"function"},{"inputs":[],"name":"returnOwner","outputs":[{"internalType":"address","name":"","type":"address"}],"stateMutability":"view","type":"function"},{"inputs":[{"internalType":"address","name":"pool","type":"address"}],"name":"returnPancakePoolV3Price","outputs":[{"internalType":"uint160","name":"","type":"uint160"}],"stateMutability":"view","type":"function"},{"inputs":[{"internalType":"address","name":"tokenA","type":"address"},{"internalType":"uint24","name":"poolFee","type":"uint24"},{"internalType":"address","name":"tokenB","type":"address"}],"name":"returnPathData","outputs":[{"internalType":"bytes","name":"","type":"bytes"}],"stateMutability":"pure","type":"function"},{"inputs":[{"internalType":"address","name":"token","type":"address"},{"internalType":"address","name":"spender","type":"address"}],"name":"returnTokenApproved","outputs":[{"internalType":"uint256","name":"","type":"uint256"}],"stateMutability":"view","type":"function"},{"inputs":[{"internalType":"address","name":"token","type":"address"}],"name":"returnTokenBalance","outputs":[{"internalType":"uint256","name":"","type":"uint256"}],"stateMutability":"view","type":"function"},{"inputs":[{"internalType":"address","name":"_tradeExecutor","type":"address"}],"name":"setTradeExecutor","outputs":[],"stateMutability":"nonpayable","type":"function"},{"inputs":[{"components":[{"internalType":"bytes","name":"path","type":"bytes"},{"internalType":"address","name":"recipient","type":"address"},{"internalType":"uint256","name":"deadline","type":"uint256"},{"internalType":"uint256","name":"amountIn","type":"uint256"},{"internalType":"uint256","name":"amountOutMinimum","type":"uint256"}],"internalType":"struct IV3PancakeSwapRouter.ExactInputParams","name":"params","type":"tuple"},{"internalType":"uint256","name":"initialAmountIn","type":"uint256"}],"name":"trade1","outputs":[],"stateMutability":"nonpayable","type":"function"},{"inputs":[{"components":[{"internalType":"bytes","name":"path","type":"bytes"},{"internalType":"address","name":"recipient","type":"address"},{"internalType":"uint256","name":"deadline","type":"uint256"},{"internalType":"uint256","name":"amountIn","type":"uint256"},{"internalType":"uint256","name":"amountOutMinimum","type":"uint256"}],"internalType":"struct IV3PancakeSwapRouter.ExactInputParams","name":"params","type":"tuple"},{"internalType":"uint256","name":"initialAmountIn","type":"uint256"}],"name":"trade2","outputs":[],"stateMutability":"nonpayable","type":"function"},{"inputs":[{"components":[{"internalType":"bytes","name":"path","type":"bytes"},{"internalType":"address","name":"recipient","type":"address"},{"internalType":"uint256","name":"deadline","type":"uint256"},{"internalType":"uint256","name":"amountIn","type":"uint256"},{"internalType":"uint256","name":"amountOutMinimum","type":"uint256"}],"internalType":"struct IV3PancakeSwapRouter.ExactInputParams","name":"params","type":"tuple"}],"name":"trade3","outputs":[],"stateMutability":"nonpayable","type":"function"},{"inputs":[{"components":[{"internalType":"bytes","name":"path","type":"bytes"},{"internalType":"address","name":"recipient","type":"address"},{"internalType":"uint256","name":"deadline","type":"uint256"},{"internalType":"uint256","name":"amountIn","type":"uint256"},{"internalType":"uint256","name":"amountOutMinimum","type":"uint256"}],"internalType":"struct IV3PancakeSwapRouter.ExactInputParams","name":"params","type":"tuple"}],"name":"trade4","outputs":[],"stateMutability":"nonpayable","type":"function"},{"inputs":[],"name":"tradeExecutor","outputs":[{"internalType":"address","name":"","type":"address"}],"stateMutability":"view","type":"function"},{"inputs":[],"name":"usdc","outputs":[{"internalType":"contract IERC20","name":"","type":"address"}],"stateMutability":"view","type":"function"},{"inputs":[],"name":"usdt","outputs":[{"internalType":"contract IERC20","name":"","type":"address"}],"stateMutability":"view","type":"function"},{"inputs":[],"name":"weth","outputs":[{"internalType":"contract IERC20","name":"","type":"address"}],"stateMutability":"view","type":"function"},{"inputs":[{"internalType":"address","name":"token","type":"address"},{"internalType":"uint256","name":"amount","type":"uint256"}],"name":"withdrawToken","outputs":[],"stateMutability":"nonpayable","type":"function"}],"evm":{"bytecode":{"linkReferences":{},"object":"60c06040523480156200001157600080fd5b506040516200323738038062003237833981810160405281019062000037919062000110565b8073ffffffffffffffffffffffffffffffffffffffff1660a08173ffffffffffffffffffffffffffffffffffffffff16815250503373ffffffffffffffffffffffffffffffffffffffff1660808173ffffffffffffffffffffffffffffffffffffffff16815250505062000142565b600080fd5b600073ffffffffffffffffffffffffffffffffffffffff82169050919050565b6000620000d882620000ab565b9050919050565b620000ea81620000cb565b8114620000f657600080fd5b50565b6000815190506200010a81620000df565b92915050565b600060208284031215620001295762000128620000a6565b5b60006200013984828501620000f9565b91505092915050565b60805160a05161309e6200019960003960008181611f74015281816120620152818161210201526121a2015260008181610afb01528181610d5501528181611011015281816115670152611ddf015261309e6000f3fe608060405234801561001057600080fd5b506004361061012c5760003560e01c806396ef4634116100ad578063da3e339711610071578063da3e33971461031b578063e47aaf6d14610337578063e8b018b414610355578063f158467314610373578063f556d1d4146103a35761012c565b806396ef4634146102795780639e281a9814610295578063a119b86e146102b1578063a7f07011146102e1578063c5c5e278146102ff5761012c565b80633fc8cef3116100f45780633fc8cef3146101c15780635767c659146101df578063786fb10c146101fb5780638c94f5961461022b57806394a927fe1461025b5761012c565b806305ddad1f14610131578063272a6dd91461014d5780632f48ab7d14610169578063338b5dea146101875780633e413bee146101a3575b600080fd5b61014b600480360381019061014691906124e0565b6103c1565b005b610167600480360381019061016291906124e0565b610751565b005b610171610ae1565b60405161017e919061259b565b60405180910390f35b6101a1600480360381019061019c91906125b6565b610af9565b005b6101ab610d23565b6040516101b8919061259b565b60405180910390f35b6101c9610d3b565b6040516101d6919061259b565b60405180910390f35b6101f960048036038101906101f491906125f6565b610d53565b005b61021560048036038101906102109190612623565b610f03565b6040516102229190612672565b60405180910390f35b610245600480360381019061024091906125f6565b610f8a565b604051610252919061269c565b60405180910390f35b61026361100d565b60405161027091906126c6565b60405180910390f35b610293600480360381019061028e91906126e1565b611035565b005b6102af60048036038101906102aa91906125b6565b611565565b005b6102cb60048036038101906102c691906125f6565b611806565b6040516102d89190612672565b60405180910390f35b6102e9611889565b6040516102f691906126c6565b60405180910390f35b610319600480360381019061031491906126e1565b6118ad565b005b6103356004803603810190610330919061272a565b611ddd565b005b61033f611f72565b60405161034c919061279e565b60405180910390f35b61035d611f96565b60405161036a91906127d2565b60405180910390f35b61038d60048036038101906103889190612828565b612029565b60405161039a91906128fa565b60405180910390f35b6103ab612058565b6040516103b89190612672565b60405180910390f35b60008054906101000a900473ffffffffffffffffffffffffffffffffffffffff1673ffffffffffffffffffffffffffffffffffffffff163373ffffffffffffffffffffffffffffffffffffffff161461045157336040517f4104d7d700000000000000000000000000000000000000000000000000000000815260040161044891906126c6565b60405180910390fd5b600073fd086bc7cd5c481dcc9c85ebe478a1c0b69fcbb973ffffffffffffffffffffffffffffffffffffffff166370a08231306040518263ffffffff1660e01b81526004016104a091906126c6565b602060405180830381865afa1580156104bd573d6000803e3d6000fd5b505050506040513d601f19601f820116820180604052508101906104e19190612931565b90506104ec83612060565b60006064905060006040518060a001604052807382af49447d8a07e3bd95bd0d56f35241523fbab18473fd086bc7cd5c481dcc9c85ebe478a1c0b69fcbb960405160200161053c939291906129dc565b60405160208183030381529060405281526020013073ffffffffffffffffffffffffffffffffffffffff1681526020014281526020017382af49447d8a07e3bd95bd0d56f35241523fbab173ffffffffffffffffffffffffffffffffffffffff166370a08231306040518263ffffffff1660e01b81526004016105bf91906126c6565b602060405180830381865afa1580156105dc573d6000803e3d6000fd5b505050506040513d601f19601f820116820180604052508101906106009190612931565b81526020016000815250905061061581612100565b600073fd086bc7cd5c481dcc9c85ebe478a1c0b69fcbb973ffffffffffffffffffffffffffffffffffffffff166370a08231306040518263ffffffff1660e01b815260040161066491906126c6565b602060405180830381865afa158015610681573d6000803e3d6000fd5b505050506040513d601f19601f820116820180604052508101906106a59190612931565b90508484826106b49190612a48565b1115610701577f357d905f1831209797df4d55d79c5c5bf1d9f7311c976afd05e13d881eab9bc884826106e79190612a48565b6040516106f49190612672565b60405180910390a1610749565b838161070d9190612a48565b6040517fd4989a940000000000000000000000000000000000000000000000000000000081526004016107409190612672565b60405180910390fd5b505050505050565b60008054906101000a900473ffffffffffffffffffffffffffffffffffffffff1673ffffffffffffffffffffffffffffffffffffffff163373ffffffffffffffffffffffffffffffffffffffff16146107e157336040517f4104d7d70000000000000000000000000000000000000000000000000000000081526004016107d891906126c6565b60405180910390fd5b600073af88d065e77c8cc2239327c5edb3a432268e583173ffffffffffffffffffffffffffffffffffffffff166370a08231306040518263ffffffff1660e01b815260040161083091906126c6565b602060405180830381865afa15801561084d573d6000803e3d6000fd5b505050506040513d601f19601f820116820180604052508101906108719190612931565b905061087c83612060565b60006064905060006040518060a001604052807382af49447d8a07e3bd95bd0d56f35241523fbab18473af88d065e77c8cc2239327c5edb3a432268e58316040516020016108cc939291906129dc565b60405160208183030381529060405281526020013073ffffffffffffffffffffffffffffffffffffffff1681526020014281526020017382af49447d8a07e3bd95bd0d56f35241523fbab173ffffffffffffffffffffffffffffffffffffffff166370a08231306040518263ffffffff1660e01b815260040161094f91906126c6565b602060405180830381865afa15801561096c573d6000803e3d6000fd5b505050506040513d601f19601f820116820180604052508101906109909190612931565b8152602001600081525090506109a581612100565b600073af88d065e77c8cc2239327c5edb3a432268e583173ffffffffffffffffffffffffffffffffffffffff166370a08231306040518263ffffffff1660e01b81526004016109f491906126c6565b602060405180830381865afa158015610a11573d6000803e3d6000fd5b505050506040513d601f19601f82011682018060405250810190610a359190612931565b9050848482610a449190612a48565b1115610a91577f357d905f1831209797df4d55d79c5c5bf1d9f7311c976afd05e13d881eab9bc88482610a779190612a48565b604051610a849190612672565b60405180910390a1610ad9565b8381610a9d9190612a48565b6040517fd4989a94000000000000000000000000000000000000000000000000000000008152600401610ad09190612672565b60405180910390fd5b505050505050565b73fd086bc7cd5c481dcc9c85ebe478a1c0b69fcbb981565b7f000000000000000000000000000000000000000000000000000000000000000073ffffffffffffffffffffffffffffffffffffffff163373ffffffffffffffffffffffffffffffffffffffff1614610b8957336040517ff9ebb4c7000000000000000000000000000000000000000000000000000000008152600401610b8091906126c6565b60405180910390fd5b73fd086bc7cd5c481dcc9c85ebe478a1c0b69fcbb973ffffffffffffffffffffffffffffffffffffffff168273ffffffffffffffffffffffffffffffffffffffff1614158015610c19575073af88d065e77c8cc2239327c5edb3a432268e583173ffffffffffffffffffffffffffffffffffffffff168273ffffffffffffffffffffffffffffffffffffffff1614155b15610c5b57816040517ff01157c3000000000000000000000000000000000000000000000000000000008152600401610c5291906126c6565b60405180910390fd5b60008111610c9e576040517f08c379a0000000000000000000000000000000000000000000000000000000008152600401610c9590612ad9565b60405180910390fd5b8173ffffffffffffffffffffffffffffffffffffffff166323b872dd3330846040518463ffffffff1660e01b8152600401610cdb93929190612af9565b6020604051808303816000875af1158015610cfa573d6000803e3d6000fd5b505050506040513d601f19601f82011682018060405250810190610d1e9190612b68565b505050565b73af88d065e77c8cc2239327c5edb3a432268e583181565b7382af49447d8a07e3bd95bd0d56f35241523fbab181565b7f000000000000000000000000000000000000000000000000000000000000000073ffffffffffffffffffffffffffffffffffffffff163373ffffffffffffffffffffffffffffffffffffffff1614610de357336040517ff9ebb4c7000000000000000000000000000000000000000000000000000000008152600401610dda91906126c6565b60405180910390fd5b600073ffffffffffffffffffffffffffffffffffffffff168173ffffffffffffffffffffffffffffffffffffffff1603610e52576040517f08c379a0000000000000000000000000000000000000000000000000000000008152600401610e4990612be1565b60405180910390fd5b3073ffffffffffffffffffffffffffffffffffffffff168173ffffffffffffffffffffffffffffffffffffffff1603610ec0576040517f08c379a0000000000000000000000000000000000000000000000000000000008152600401610eb790612c4d565b60405180910390fd5b806000806101000a81548173ffffffffffffffffffffffffffffffffffffffff021916908373ffffffffffffffffffffffffffffffffffffffff16021790555050565b6000600160008473ffffffffffffffffffffffffffffffffffffffff1673ffffffffffffffffffffffffffffffffffffffff16815260200190815260200160002060008373ffffffffffffffffffffffffffffffffffffffff1673ffffffffffffffffffffffffffffffffffffffff16815260200190815260200160002054905092915050565b6000808273ffffffffffffffffffffffffffffffffffffffff16633850c7bd6040518163ffffffff1660e01b815260040160e060405180830381865afa158015610fd8573d6000803e3d6000fd5b505050506040513d601f19601f82011682018060405250810190610ffc9190612d48565b505050505050905080915050919050565b60007f0000000000000000000000000000000000000000000000000000000000000000905090565b60008054906101000a900473ffffffffffffffffffffffffffffffffffffffff1673ffffffffffffffffffffffffffffffffffffffff163373ffffffffffffffffffffffffffffffffffffffff16146110c557336040517f4104d7d70000000000000000000000000000000000000000000000000000000081526004016110bc91906126c6565b60405180910390fd5b600073af88d065e77c8cc2239327c5edb3a432268e583173ffffffffffffffffffffffffffffffffffffffff166370a08231306040518263ffffffff1660e01b815260040161111491906126c6565b602060405180830381865afa158015611131573d6000803e3d6000fd5b505050506040513d601f19601f820116820180604052508101906111559190612931565b9050600073fd086bc7cd5c481dcc9c85ebe478a1c0b69fcbb973ffffffffffffffffffffffffffffffffffffffff166370a08231306040518263ffffffff1660e01b81526004016111a691906126c6565b602060405180830381865afa1580156111c3573d6000803e3d6000fd5b505050506040513d601f19601f820116820180604052508101906111e79190612931565b90506111f283612060565b60006064905060006040518060a001604052807382af49447d8a07e3bd95bd0d56f35241523fbab18473fd086bc7cd5c481dcc9c85ebe478a1c0b69fcbb9604051602001611242939291906129dc565b60405160208183030381529060405281526020013073ffffffffffffffffffffffffffffffffffffffff1681526020014281526020017382af49447d8a07e3bd95bd0d56f35241523fbab173ffffffffffffffffffffffffffffffffffffffff166370a08231306040518263ffffffff1660e01b81526004016112c591906126c6565b602060405180830381865afa1580156112e2573d6000803e3d6000fd5b505050506040513d601f19601f820116820180604052508101906113069190612931565b81526020016000815250905061131b81612100565b60006040518060a0016040528073fd086bc7cd5c481dcc9c85ebe478a1c0b69fcbb98573af88d065e77c8cc2239327c5edb3a432268e5831604051602001611365939291906129dc565b60405160208183030381529060405281526020013073ffffffffffffffffffffffffffffffffffffffff1681526020014281526020018573fd086bc7cd5c481dcc9c85ebe478a1c0b69fcbb973ffffffffffffffffffffffffffffffffffffffff166370a08231306040518263ffffffff1660e01b81526004016113e991906126c6565b602060405180830381865afa158015611406573d6000803e3d6000fd5b505050506040513d601f19601f8201168201806040525081019061142a9190612931565b6114349190612a48565b815260200160008152509050611449816121a0565b600073af88d065e77c8cc2239327c5edb3a432268e583173ffffffffffffffffffffffffffffffffffffffff166370a08231306040518263ffffffff1660e01b815260040161149891906126c6565b602060405180830381865afa1580156114b5573d6000803e3d6000fd5b505050506040513d601f19601f820116820180604052508101906114d99190612931565b90508581111561151f577f357d905f1831209797df4d55d79c5c5bf1d9f7311c976afd05e13d881eab9bc8816040516115129190612672565b60405180910390a161155c565b806040517fd4989a940000000000000000000000000000000000000000000000000000000081526004016115539190612672565b60405180910390fd5b50505050505050565b7f000000000000000000000000000000000000000000000000000000000000000073ffffffffffffffffffffffffffffffffffffffff163373ffffffffffffffffffffffffffffffffffffffff16146115f557336040517ff9ebb4c70000000000000000000000000000000000000000000000000000000081526004016115ec91906126c6565b60405180910390fd5b73fd086bc7cd5c481dcc9c85ebe478a1c0b69fcbb973ffffffffffffffffffffffffffffffffffffffff168273ffffffffffffffffffffffffffffffffffffffff1614158015611685575073af88d065e77c8cc2239327c5edb3a432268e583173ffffffffffffffffffffffffffffffffffffffff168273ffffffffffffffffffffffffffffffffffffffff1614155b156116c757816040517ff01157c30000000000000000000000000000000000000000000000000000000081526004016116be91906126c6565b60405180910390fd5b8173ffffffffffffffffffffffffffffffffffffffff166370a08231306040518263ffffffff1660e01b815260040161170091906126c6565b602060405180830381865afa15801561171d573d6000803e3d6000fd5b505050506040513d601f19601f820116820180604052508101906117419190612931565b811115611783576040517f08c379a000000000000000000000000000000000000000000000000000000000815260040161177a90612e36565b60405180910390fd5b8173ffffffffffffffffffffffffffffffffffffffff1663a9059cbb33836040518363ffffffff1660e01b81526004016117be929190612e56565b6020604051808303816000875af11580156117dd573d6000803e3d6000fd5b505050506040513d601f19601f820116820180604052508101906118019190612b68565b505050565b60008173ffffffffffffffffffffffffffffffffffffffff166370a08231306040518263ffffffff1660e01b815260040161184191906126c6565b602060405180830381865afa15801561185e573d6000803e3d6000fd5b505050506040513d601f19601f820116820180604052508101906118829190612931565b9050919050565b60008054906101000a900473ffffffffffffffffffffffffffffffffffffffff1681565b60008054906101000a900473ffffffffffffffffffffffffffffffffffffffff1673ffffffffffffffffffffffffffffffffffffffff163373ffffffffffffffffffffffffffffffffffffffff161461193d57336040517f4104d7d700000000000000000000000000000000000000000000000000000000815260040161193491906126c6565b60405180910390fd5b600073af88d065e77c8cc2239327c5edb3a432268e583173ffffffffffffffffffffffffffffffffffffffff166370a08231306040518263ffffffff1660e01b815260040161198c91906126c6565b602060405180830381865afa1580156119a9573d6000803e3d6000fd5b505050506040513d601f19601f820116820180604052508101906119cd9190612931565b9050600073fd086bc7cd5c481dcc9c85ebe478a1c0b69fcbb973ffffffffffffffffffffffffffffffffffffffff166370a08231306040518263ffffffff1660e01b8152600401611a1e91906126c6565b602060405180830381865afa158015611a3b573d6000803e3d6000fd5b505050506040513d601f19601f82011682018060405250810190611a5f9190612931565b9050611a6a83612060565b60006064905060006040518060a001604052807382af49447d8a07e3bd95bd0d56f35241523fbab18473af88d065e77c8cc2239327c5edb3a432268e5831604051602001611aba939291906129dc565b60405160208183030381529060405281526020013073ffffffffffffffffffffffffffffffffffffffff1681526020014281526020017382af49447d8a07e3bd95bd0d56f35241523fbab173ffffffffffffffffffffffffffffffffffffffff166370a08231306040518263ffffffff1660e01b8152600401611b3d91906126c6565b602060405180830381865afa158015611b5a573d6000803e3d6000fd5b505050506040513d601f19601f82011682018060405250810190611b7e9190612931565b815260200160008152509050611b9381612100565b60006040518060a0016040528073af88d065e77c8cc2239327c5edb3a432268e58318573fd086bc7cd5c481dcc9c85ebe478a1c0b69fcbb9604051602001611bdd939291906129dc565b60405160208183030381529060405281526020013073ffffffffffffffffffffffffffffffffffffffff1681526020014281526020018673af88d065e77c8cc2239327c5edb3a432268e583173ffffffffffffffffffffffffffffffffffffffff166370a08231306040518263ffffffff1660e01b8152600401611c6191906126c6565b602060405180830381865afa158015611c7e573d6000803e3d6000fd5b505050506040513d601f19601f82011682018060405250810190611ca29190612931565b611cac9190612a48565b815260200160008152509050611cc1816121a0565b600073fd086bc7cd5c481dcc9c85ebe478a1c0b69fcbb973ffffffffffffffffffffffffffffffffffffffff166370a08231306040518263ffffffff1660e01b8152600401611d1091906126c6565b602060405180830381865afa158015611d2d573d6000803e3d6000fd5b505050506040513d601f19601f82011682018060405250810190611d519190612931565b905084811115611d97577f357d905f1831209797df4d55d79c5c5bf1d9f7311c976afd05e13d881eab9bc881604051611d8a9190612672565b60405180910390a1611dd4565b806040517fd4989a94000000000000000000000000000000000000000000000000000000008152600401611dcb9190612672565b60405180910390fd5b50505050505050565b7f000000000000000000000000000000000000000000000000000000000000000073ffffffffffffffffffffffffffffffffffffffff163373ffffffffffffffffffffffffffffffffffffffff1614611e6d57336040517ff9ebb4c7000000000000000000000000000000000000000000000000000000008152600401611e6491906126c6565b60405180910390fd5b80600160008573ffffffffffffffffffffffffffffffffffffffff1673ffffffffffffffffffffffffffffffffffffffff16815260200190815260200160002060008473ffffffffffffffffffffffffffffffffffffffff1673ffffffffffffffffffffffffffffffffffffffff168152602001908152602001600020819055508273ffffffffffffffffffffffffffffffffffffffff1663095ea7b383836040518363ffffffff1660e01b8152600401611f29929190612e56565b6020604051808303816000875af1158015611f48573d6000803e3d6000fd5b505050506040513d601f19601f82011682018060405250810190611f6c9190612b68565b50505050565b7f000000000000000000000000000000000000000000000000000000000000000081565b60008073639fe6ab55c921f74e7fac1ee960c0b6293ba61273ffffffffffffffffffffffffffffffffffffffff1663feaf968c6040518163ffffffff1660e01b815260040160a060405180830381865afa158015611ff8573d6000803e3d6000fd5b505050506040513d601f19601f8201168201806040525081019061201c9190612eed565b5050509150508091505090565b6060838383604051602001612040939291906129dc565b60405160208183030381529060405290509392505050565b600042905090565b7f000000000000000000000000000000000000000000000000000000000000000073ffffffffffffffffffffffffffffffffffffffff1663c04b8d59826040518263ffffffff1660e01b81526004016120b99190613046565b6020604051808303816000875af11580156120d8573d6000803e3d6000fd5b505050506040513d601f19601f820116820180604052508101906120fc9190612931565b5050565b7f000000000000000000000000000000000000000000000000000000000000000073ffffffffffffffffffffffffffffffffffffffff1663c04b8d59826040518263ffffffff1660e01b81526004016121599190613046565b6020604051808303816000875af1158015612178573d6000803e3d6000fd5b505050506040513d601f19601f8201168201806040525081019061219c9190612931565b5050565b7f000000000000000000000000000000000000000000000000000000000000000073ffffffffffffffffffffffffffffffffffffffff1663c04b8d59826040518263ffffffff1660e01b81526004016121f99190613046565b6020604051808303816000875af1158015612218573d6000803e3d6000fd5b505050506040513d601f19601f8201168201806040525081019061223c9190612931565b5050565b6000604051905090565b600080fd5b600080fd5b600080fd5b6000601f19601f8301169050919050565b7f4e487b7100000000000000000000000000000000000000000000000000000000600052604160045260246000fd5b6122a282612259565b810181811067ffffffffffffffff821117156122c1576122c061226a565b5b80604052505050565b60006122d4612240565b90506122e08282612299565b919050565b600080fd5b600080fd5b600080fd5b600067ffffffffffffffff82111561230f5761230e61226a565b5b61231882612259565b9050602081019050919050565b82818337600083830152505050565b6000612347612342846122f4565b6122ca565b905082815260208101848484011115612363576123626122ef565b5b61236e848285612325565b509392505050565b600082601f83011261238b5761238a6122ea565b5b813561239b848260208601612334565b91505092915050565b600073ffffffffffffffffffffffffffffffffffffffff82169050919050565b60006123cf826123a4565b9050919050565b6123df816123c4565b81146123ea57600080fd5b50565b6000813590506123fc816123d6565b92915050565b6000819050919050565b61241581612402565b811461242057600080fd5b50565b6000813590506124328161240c565b92915050565b600060a0828403121561244e5761244d612254565b5b61245860a06122ca565b9050600082013567ffffffffffffffff811115612478576124776122e5565b5b61248484828501612376565b6000830152506020612498848285016123ed565b60208301525060406124ac84828501612423565b60408301525060606124c084828501612423565b60608301525060806124d484828501612423565b60808301525092915050565b600080604083850312156124f7576124f661224a565b5b600083013567ffffffffffffffff8111156125155761251461224f565b5b61252185828601612438565b925050602061253285828601612423565b9150509250929050565b6000819050919050565b600061256161255c612557846123a4565b61253c565b6123a4565b9050919050565b600061257382612546565b9050919050565b600061258582612568565b9050919050565b6125958161257a565b82525050565b60006020820190506125b0600083018461258c565b92915050565b600080604083850312156125cd576125cc61224a565b5b60006125db858286016123ed565b92505060206125ec85828601612423565b9150509250929050565b60006020828403121561260c5761260b61224a565b5b600061261a848285016123ed565b91505092915050565b6000806040838503121561263a5761263961224a565b5b6000612648858286016123ed565b9250506020612659858286016123ed565b9150509250929050565b61266c81612402565b82525050565b60006020820190506126876000830184612663565b92915050565b612696816123a4565b82525050565b60006020820190506126b1600083018461268d565b92915050565b6126c0816123c4565b82525050565b60006020820190506126db60008301846126b7565b92915050565b6000602082840312156126f7576126f661224a565b5b600082013567ffffffffffffffff8111156127155761271461224f565b5b61272184828501612438565b91505092915050565b6000806000606084860312156127435761274261224a565b5b6000612751868287016123ed565b9350506020612762868287016123ed565b925050604061277386828701612423565b9150509250925092565b600061278882612568565b9050919050565b6127988161277d565b82525050565b60006020820190506127b3600083018461278f565b92915050565b6000819050919050565b6127cc816127b9565b82525050565b60006020820190506127e760008301846127c3565b92915050565b600062ffffff82169050919050565b612805816127ed565b811461281057600080fd5b50565b600081359050612822816127fc565b92915050565b6000806000606084860312156128415761284061224a565b5b600061284f868287016123ed565b935050602061286086828701612813565b9250506040612871868287016123ed565b9150509250925092565b600081519050919050565b600082825260208201905092915050565b60005b838110156128b557808201518184015260208101905061289a565b60008484015250505050565b60006128cc8261287b565b6128d68185612886565b93506128e6818560208601612897565b6128ef81612259565b840191505092915050565b6000602082019050818103600083015261291481846128c1565b905092915050565b60008151905061292b8161240c565b92915050565b6000602082840312156129475761294661224a565b5b60006129558482850161291c565b91505092915050565b60008160601b9050919050565b60006129768261295e565b9050919050565b60006129888261296b565b9050919050565b6129a061299b826123c4565b61297d565b82525050565b60008160e81b9050919050565b60006129be826129a6565b9050919050565b6129d66129d1826127ed565b6129b3565b82525050565b60006129e8828661298f565b6014820191506129f882856129c5565b600382019150612a08828461298f565b601482019150819050949350505050565b7f4e487b7100000000000000000000000000000000000000000000000000000000600052601160045260246000fd5b6000612a5382612402565b9150612a5e83612402565b9250828203905081811115612a7657612a75612a19565b5b92915050565b600082825260208201905092915050565b7f416d6f756e742063616e27742062652030000000000000000000000000000000600082015250565b6000612ac3601183612a7c565b9150612ace82612a8d565b602082019050919050565b60006020820190508181036000830152612af281612ab6565b9050919050565b6000606082019050612b0e60008301866126b7565b612b1b60208301856126b7565b612b286040830184612663565b949350505050565b60008115159050919050565b612b4581612b30565b8114612b5057600080fd5b50565b600081519050612b6281612b3c565b92915050565b600060208284031215612b7e57612b7d61224a565b5b6000612b8c84828501612b53565b91505092915050565b7f43616e2774206265206120302061646472657373000000000000000000000000600082015250565b6000612bcb601483612a7c565b9150612bd682612b95565b602082019050919050565b60006020820190508181036000830152612bfa81612bbe565b9050919050565b7f43616e2774206265207468697320616464726573730000000000000000000000600082015250565b6000612c37601583612a7c565b9150612c4282612c01565b602082019050919050565b60006020820190508181036000830152612c6681612c2a565b9050919050565b612c76816123a4565b8114612c8157600080fd5b50565b600081519050612c9381612c6d565b92915050565b60008160020b9050919050565b612caf81612c99565b8114612cba57600080fd5b50565b600081519050612ccc81612ca6565b92915050565b600061ffff82169050919050565b612ce981612cd2565b8114612cf457600080fd5b50565b600081519050612d0681612ce0565b92915050565b600063ffffffff82169050919050565b612d2581612d0c565b8114612d3057600080fd5b50565b600081519050612d4281612d1c565b92915050565b600080600080600080600060e0888a031215612d6757612d6661224a565b5b6000612d758a828b01612c84565b9750506020612d868a828b01612cbd565b9650506040612d978a828b01612cf7565b9550506060612da88a828b01612cf7565b9450506080612db98a828b01612cf7565b93505060a0612dca8a828b01612d33565b92505060c0612ddb8a828b01612b53565b91505092959891949750929550565b7f416d6f756e7420697320686967686572207468616e2062616c616e6365000000600082015250565b6000612e20601d83612a7c565b9150612e2b82612dea565b602082019050919050565b60006020820190508181036000830152612e4f81612e13565b9050919050565b6000604082019050612e6b60008301856126b7565b612e786020830184612663565b9392505050565b600069ffffffffffffffffffff82169050919050565b612e9e81612e7f565b8114612ea957600080fd5b50565b600081519050612ebb81612e95565b92915050565b612eca816127b9565b8114612ed557600080fd5b50565b600081519050612ee781612ec1565b92915050565b600080600080600060a08688031215612f0957612f0861224a565b5b6000612f1788828901612eac565b9550506020612f2888828901612ed8565b9450506040612f398882890161291c565b9350506060612f4a8882890161291c565b9250506080612f5b88828901612eac565b9150509295509295909350565b600082825260208201905092915050565b6000612f848261287b565b612f8e8185612f68565b9350612f9e818560208601612897565b612fa781612259565b840191505092915050565b612fbb816123c4565b82525050565b612fca81612402565b82525050565b600060a0830160008301518482036000860152612fed8282612f79565b91505060208301516130026020860182612fb2565b5060408301516130156040860182612fc1565b5060608301516130286060860182612fc1565b50608083015161303b6080860182612fc1565b508091505092915050565b600060208201905081810360008301526130608184612fd0565b90509291505056fea2646970667358221220b92a01ee220c617617a230a923ca026a290e550df88129030ff7d74540ec34a164736f6c63430008140033","opcodes":"PUSH1 0xC0 PUSH1 0x40 MSTORE CALLVALUE DUP1 ISZERO PUSH3 0x11 JUMPI PUSH1 0x0 DUP1 REVERT JUMPDEST POP PUSH1 0x40 MLOAD PUSH3 0x3237 CODESIZE SUB DUP1 PUSH3 0x3237 DUP4 CODECOPY DUP2 DUP2 ADD PUSH1 0x40 MSTORE DUP2 ADD SWAP1 PUSH3 0x37 SWAP2 SWAP1 PUSH3 0x110 JUMP JUMPDEST DUP1 PUSH20 0xFFFFFFFFFFFFFFFFFFFFFFFFFFFFFFFFFFFFFFFF AND PUSH1 0xA0 DUP2 PUSH20 0xFFFFFFFFFFFFFFFFFFFFFFFFFFFFFFFFFFFFFFFF AND DUP2 MSTORE POP POP CALLER PUSH20 0xFFFFFFFFFFFFFFFFFFFFFFFFFFFFFFFFFFFFFFFF AND PUSH1 0x80 DUP2 PUSH20 0xFFFFFFFFFFFFFFFFFFFFFFFFFFFFFFFFFFFFFFFF AND DUP2 MSTORE POP POP POP PUSH3 0x142 JUMP JUMPDEST PUSH1 0x0 DUP1 REVERT JUMPDEST PUSH1 0x0 PUSH20 0xFFFFFFFFFFFFFFFFFFFFFFFFFFFFFFFFFFFFFFFF DUP3 AND SWAP1 POP SWAP2 SWAP1 POP JUMP JUMPDEST PUSH1 0x0 PUSH3 0xD8 DUP3 PUSH3 0xAB JUMP JUMPDEST SWAP1 POP SWAP2 SWAP1 POP JUMP JUMPDEST PUSH3 0xEA DUP2 PUSH3 0xCB JUMP JUMPDEST DUP2 EQ PUSH3 0xF6 JUMPI PUSH1 0x0 DUP1 REVERT JUMPDEST POP JUMP JUMPDEST PUSH1 0x0 DUP2 MLOAD SWAP1 POP PUSH3 0x10A DUP2 PUSH3 0xDF JUMP JUMPDEST SWAP3 SWAP2 POP POP JUMP JUMPDEST PUSH1 0x0 PUSH1 0x20 DUP3 DUP5 SUB SLT ISZERO PUSH3 0x129 JUMPI PUSH3 0x128 PUSH3 0xA6 JUMP JUMPDEST JUMPDEST PUSH1 0x0 PUSH3 0x139 DUP5 DUP3 DUP6 ADD PUSH3 0xF9 JUMP JUMPDEST SWAP2 POP POP SWAP3 SWAP2 POP POP JUMP JUMPDEST PUSH1 0x80 MLOAD PUSH1 0xA0 MLOAD PUSH2 0x309E PUSH3 0x199 PUSH1 0x0 CODECOPY PUSH1 0x0 DUP2 DUP2 PUSH2 0x1F74 ADD MSTORE DUP2 DUP2 PUSH2 0x2062 ADD MSTORE DUP2 DUP2 PUSH2 0x2102 ADD MSTORE PUSH2 0x21A2 ADD MSTORE PUSH1 0x0 DUP2 DUP2 PUSH2 0xAFB ADD MSTORE DUP2 DUP2 PUSH2 0xD55 ADD MSTORE DUP2 DUP2 PUSH2 0x1011 ADD MSTORE DUP2 DUP2 PUSH2 0x1567 ADD MSTORE PUSH2 0x1DDF ADD MSTORE PUSH2 0x309E PUSH1 0x0 RETURN INVALID PUSH1 0x80 PUSH1 0x40 MSTORE CALLVALUE DUP1 ISZERO PUSH2 0x10 JUMPI PUSH1 0x0 DUP1 REVERT JUMPDEST POP PUSH1 0x4 CALLDATASIZE LT PUSH2 0x12C JUMPI PUSH1 0x0 CALLDATALOAD PUSH1 0xE0 SHR DUP1 PUSH4 0x96EF4634 GT PUSH2 0xAD JUMPI DUP1 PUSH4 0xDA3E3397 GT PUSH2 0x71 JUMPI DUP1 PUSH4 0xDA3E3397 EQ PUSH2 0x31B JUMPI DUP1 PUSH4 0xE47AAF6D EQ PUSH2 0x337 JUMPI DUP1 PUSH4 0xE8B018B4 EQ PUSH2 0x355 JUMPI DUP1 PUSH4 0xF1584673 EQ PUSH2 0x373 JUMPI DUP1 PUSH4 0xF556D1D4 EQ PUSH2 0x3A3 JUMPI PUSH2 0x12C JUMP JUMPDEST DUP1 PUSH4 0x96EF4634 EQ PUSH2 0x279 JUMPI DUP1 PUSH4 0x9E281A98 EQ PUSH2 0x295 JUMPI DUP1 PUSH4 0xA119B86E EQ PUSH2 0x2B1 JUMPI DUP1 PUSH4 0xA7F07011 EQ PUSH2 0x2E1 JUMPI DUP1 PUSH4 0xC5C5E278 EQ PUSH2 0x2FF JUMPI PUSH2 0x12C JUMP JUMPDEST DUP1 PUSH4 0x3FC8CEF3 GT PUSH2 0xF4 JUMPI DUP1 PUSH4 0x3FC8CEF3 EQ PUSH2 0x1C1 JUMPI DUP1 PUSH4 0x5767C659 EQ PUSH2 0x1DF JUMPI DUP1 PUSH4 0x786FB10C EQ PUSH2 0x1FB JUMPI DUP1 PUSH4 0x8C94F596 EQ PUSH2 0x22B JUMPI DUP1 PUSH4 0x94A927FE EQ PUSH2 0x25B JUMPI PUSH2 0x12C JUMP JUMPDEST DUP1 PUSH4 0x5DDAD1F EQ PUSH2 0x131 JUMPI DUP1 PUSH4 0x272A6DD9 EQ PUSH2 0x14D JUMPI DUP1 PUSH4 0x2F48AB7D EQ PUSH2 0x169 JUMPI DUP1 PUSH4 0x338B5DEA EQ PUSH2 0x187 JUMPI DUP1 PUSH4 0x3E413BEE EQ PUSH2 0x1A3 JUMPI JUMPDEST PUSH1 0x0 DUP1 REVERT JUMPDEST PUSH2 0x14B PUSH1 0x4 DUP1 CALLDATASIZE SUB DUP2 ADD SWAP1 PUSH2 0x146 SWAP2 SWAP1 PUSH2 0x24E0 JUMP JUMPDEST PUSH2 0x3C1 JUMP JUMPDEST STOP JUMPDEST PUSH2 0x167 PUSH1 0x4 DUP1 CALLDATASIZE SUB DUP2 ADD SWAP1 PUSH2 0x162 SWAP2 SWAP1 PUSH2 0x24E0 JUMP JUMPDEST PUSH2 0x751 JUMP JUMPDEST STOP JUMPDEST PUSH2 0x171 PUSH2 0xAE1 JUMP JUMPDEST PUSH1 0x40 MLOAD PUSH2 0x17E SWAP2 SWAP1 PUSH2 0x259B JUMP JUMPDEST PUSH1 0x40 MLOAD DUP1 SWAP2 SUB SWAP1 RETURN JUMPDEST PUSH2 0x1A1 PUSH1 0x4 DUP1 CALLDATASIZE SUB DUP2 ADD SWAP1 PUSH2 0x19C SWAP2 SWAP1 PUSH2 0x25B6 JUMP JUMPDEST PUSH2 0xAF9 JUMP JUMPDEST STOP JUMPDEST PUSH2 0x1AB PUSH2 0xD23 JUMP JUMPDEST PUSH1 0x40 MLOAD PUSH2 0x1B8 SWAP2 SWAP1 PUSH2 0x259B JUMP JUMPDEST PUSH1 0x40 MLOAD DUP1 SWAP2 SUB SWAP1 RETURN JUMPDEST PUSH2 0x1C9 PUSH2 0xD3B JUMP JUMPDEST PUSH1 0x40 MLOAD PUSH2 0x1D6 SWAP2 SWAP1 PUSH2 0x259B JUMP JUMPDEST PUSH1 0x40 MLOAD DUP1 SWAP2 SUB SWAP1 RETURN JUMPDEST PUSH2 0x1F9 PUSH1 0x4 DUP1 CALLDATASIZE SUB DUP2 ADD SWAP1 PUSH2 0x1F4 SWAP2 SWAP1 PUSH2 0x25F6 JUMP JUMPDEST PUSH2 0xD53 JUMP JUMPDEST STOP JUMPDEST PUSH2 0x215 PUSH1 0x4 DUP1 CALLDATASIZE SUB DUP2 ADD SWAP1 PUSH2 0x210 SWAP2 SWAP1 PUSH2 0x2623 JUMP JUMPDEST PUSH2 0xF03 JUMP JUMPDEST PUSH1 0x40 MLOAD PUSH2 0x222 SWAP2 SWAP1 PUSH2 0x2672 JUMP JUMPDEST PUSH1 0x40 MLOAD DUP1 SWAP2 SUB SWAP1 RETURN JUMPDEST PUSH2 0x245 PUSH1 0x4 DUP1 CALLDATASIZE SUB DUP2 ADD SWAP1 PUSH2 0x240 SWAP2 SWAP1 PUSH2 0x25F6 JUMP JUMPDEST PUSH2 0xF8A JUMP JUMPDEST PUSH1 0x40 MLOAD PUSH2 0x252 SWAP2 SWAP1 PUSH2 0x269C JUMP JUMPDEST PUSH1 0x40 MLOAD DUP1 SWAP2 SUB SWAP1 RETURN JUMPDEST PUSH2 0x263 PUSH2 0x100D JUMP JUMPDEST PUSH1 0x40 MLOAD PUSH2 0x270 SWAP2 SWAP1 PUSH2 0x26C6 JUMP JUMPDEST PUSH1 0x40 MLOAD DUP1 SWAP2 SUB SWAP1 RETURN JUMPDEST PUSH2 0x293 PUSH1 0x4 DUP1 CALLDATASIZE SUB DUP2 ADD SWAP1 PUSH2 0x28E SWAP2 SWAP1 PUSH2 0x26E1 JUMP JUMPDEST PUSH2 0x1035 JUMP JUMPDEST STOP JUMPDEST PUSH2 0x2AF PUSH1 0x4 DUP1 CALLDATASIZE SUB DUP2 ADD SWAP1 PUSH2 0x2AA SWAP2 SWAP1 PUSH2 0x25B6 JUMP JUMPDEST PUSH2 0x1565 JUMP JUMPDEST STOP JUMPDEST PUSH2 0x2CB PUSH1 0x4 DUP1 CALLDATASIZE SUB DUP2 ADD SWAP1 PUSH2 0x2C6 SWAP2 SWAP1 PUSH2 0x25F6 JUMP JUMPDEST PUSH2 0x1806 JUMP JUMPDEST PUSH1 0x40 MLOAD PUSH2 0x2D8 SWAP2 SWAP1 PUSH2 0x2672 JUMP JUMPDEST PUSH1 0x40 MLOAD DUP1 SWAP2 SUB SWAP1 RETURN JUMPDEST PUSH2 0x2E9 PUSH2 0x1889 JUMP JUMPDEST PUSH1 0x40 MLOAD PUSH2 0x2F6 SWAP2 SWAP1 PUSH2 0x26C6 JUMP JUMPDEST PUSH1 0x40 MLOAD DUP1 SWAP2 SUB SWAP1 RETURN JUMPDEST PUSH2 0x319 PUSH1 0x4 DUP1 CALLDATASIZE SUB DUP2 ADD SWAP1 PUSH2 0x314 SWAP2 SWAP1 PUSH2 0x26E1 JUMP JUMPDEST PUSH2 0x18AD JUMP JUMPDEST STOP JUMPDEST PUSH2 0x335 PUSH1 0x4 DUP1 CALLDATASIZE SUB DUP2 ADD SWAP1 PUSH2 0x330 SWAP2 SWAP1 PUSH2 0x272A JUMP JUMPDEST PUSH2 0x1DDD JUMP JUMPDEST STOP JUMPDEST PUSH2 0x33F PUSH2 0x1F72 JUMP JUMPDEST PUSH1 0x40 MLOAD PUSH2 0x34C SWAP2 SWAP1 PUSH2 0x279E JUMP JUMPDEST PUSH1 0x40 MLOAD DUP1 SWAP2 SUB SWAP1 RETURN JUMPDEST PUSH2 0x35D PUSH2 0x1F96 JUMP JUMPDEST PUSH1 0x40 MLOAD PUSH2 0x36A SWAP2 SWAP1 PUSH2 0x27D2 JUMP JUMPDEST PUSH1 0x40 MLOAD DUP1 SWAP2 SUB SWAP1 RETURN JUMPDEST PUSH2 0x38D PUSH1 0x4 DUP1 CALLDATASIZE SUB DUP2 ADD SWAP1 PUSH2 0x388 SWAP2 SWAP1 PUSH2 0x2828 JUMP JUMPDEST PUSH2 0x2029 JUMP JUMPDEST PUSH1 0x40 MLOAD PUSH2 0x39A SWAP2 SWAP1 PUSH2 0x28FA JUMP JUMPDEST PUSH1 0x40 MLOAD DUP1 SWAP2 SUB SWAP1 RETURN JUMPDEST PUSH2 0x3AB PUSH2 0x2058 JUMP JUMPDEST PUSH1 0x40 MLOAD PUSH2 0x3B8 SWAP2 SWAP1 PUSH2 0x2672 JUMP JUMPDEST PUSH1 0x40 MLOAD DUP1 SWAP2 SUB SWAP1 RETURN JUMPDEST PUSH1 0x0 DUP1 SLOAD SWAP1 PUSH2 0x100 EXP SWAP1 DIV PUSH20 0xFFFFFFFFFFFFFFFFFFFFFFFFFFFFFFFFFFFFFFFF AND PUSH20 0xFFFFFFFFFFFFFFFFFFFFFFFFFFFFFFFFFFFFFFFF AND CALLER PUSH20 0xFFFFFFFFFFFFFFFFFFFFFFFFFFFFFFFFFFFFFFFF AND EQ PUSH2 0x451 JUMPI CALLER PUSH1 0x40 MLOAD PUSH32 0x4104D7D700000000000000000000000000000000000000000000000000000000 DUP2 MSTORE PUSH1 0x4 ADD PUSH2 0x448 SWAP2 SWAP1 PUSH2 0x26C6 JUMP JUMPDEST PUSH1 0x40 MLOAD DUP1 SWAP2 SUB SWAP1 REVERT JUMPDEST PUSH1 0x0 PUSH20 0xFD086BC7CD5C481DCC9C85EBE478A1C0B69FCBB9 PUSH20 0xFFFFFFFFFFFFFFFFFFFFFFFFFFFFFFFFFFFFFFFF AND PUSH4 0x70A08231 ADDRESS PUSH1 0x40 MLOAD DUP3 PUSH4 0xFFFFFFFF AND PUSH1 0xE0 SHL DUP2 MSTORE PUSH1 0x4 ADD PUSH2 0x4A0 SWAP2 SWAP1 PUSH2 0x26C6 JUMP JUMPDEST PUSH1 0x20 PUSH1 0x40 MLOAD DUP1 DUP4 SUB DUP2 DUP7 GAS STATICCALL ISZERO DUP1 ISZERO PUSH2 0x4BD JUMPI RETURNDATASIZE PUSH1 0x0 DUP1 RETURNDATACOPY RETURNDATASIZE PUSH1 0x0 REVERT JUMPDEST POP POP POP POP PUSH1 0x40 MLOAD RETURNDATASIZE PUSH1 0x1F NOT PUSH1 0x1F DUP3 ADD AND DUP3 ADD DUP1 PUSH1 0x40 MSTORE POP DUP2 ADD SWAP1 PUSH2 0x4E1 SWAP2 SWAP1 PUSH2 0x2931 JUMP JUMPDEST SWAP1 POP PUSH2 0x4EC DUP4 PUSH2 0x2060 JUMP JUMPDEST PUSH1 0x0 PUSH1 0x64 SWAP1 POP PUSH1 0x0 PUSH1 0x40 MLOAD DUP1 PUSH1 0xA0 ADD PUSH1 0x40 MSTORE DUP1 PUSH20 0x82AF49447D8A07E3BD95BD0D56F35241523FBAB1 DUP5 PUSH20 0xFD086BC7CD5C481DCC9C85EBE478A1C0B69FCBB9 PUSH1 0x40 MLOAD PUSH1 0x20 ADD PUSH2 0x53C SWAP4 SWAP3 SWAP2 SWAP1 PUSH2 0x29DC JUMP JUMPDEST PUSH1 0x40 MLOAD PUSH1 0x20 DUP2 DUP4 SUB SUB DUP2 MSTORE SWAP1 PUSH1 0x40 MSTORE DUP2 MSTORE PUSH1 0x20 ADD ADDRESS PUSH20 0xFFFFFFFFFFFFFFFFFFFFFFFFFFFFFFFFFFFFFFFF AND DUP2 MSTORE PUSH1 0x20 ADD TIMESTAMP DUP2 MSTORE PUSH1 0x20 ADD PUSH20 0x82AF49447D8A07E3BD95BD0D56F35241523FBAB1 PUSH20 0xFFFFFFFFFFFFFFFFFFFFFFFFFFFFFFFFFFFFFFFF AND PUSH4 0x70A08231 ADDRESS PUSH1 0x40 MLOAD DUP3 PUSH4 0xFFFFFFFF AND PUSH1 0xE0 SHL DUP2 MSTORE PUSH1 0x4 ADD PUSH2 0x5BF SWAP2 SWAP1 PUSH2 0x26C6 JUMP JUMPDEST PUSH1 0x20 PUSH1 0x40 MLOAD DUP1 DUP4 SUB DUP2 DUP7 GAS STATICCALL ISZERO DUP1 ISZERO PUSH2 0x5DC JUMPI RETURNDATASIZE PUSH1 0x0 DUP1 RETURNDATACOPY RETURNDATASIZE PUSH1 0x0 REVERT JUMPDEST POP POP POP POP PUSH1 0x40 MLOAD RETURNDATASIZE PUSH1 0x1F NOT PUSH1 0x1F DUP3 ADD AND DUP3 ADD DUP1 PUSH1 0x40 MSTORE POP DUP2 ADD SWAP1 PUSH2 0x600 SWAP2 SWAP1 PUSH2 0x2931 JUMP JUMPDEST DUP2 MSTORE PUSH1 0x20 ADD PUSH1 0x0 DUP2 MSTORE POP SWAP1 POP PUSH2 0x615 DUP2 PUSH2 0x2100 JUMP JUMPDEST PUSH1 0x0 PUSH20 0xFD086BC7CD5C481DCC9C85EBE478A1C0B69FCBB9 PUSH20 0xFFFFFFFFFFFFFFFFFFFFFFFFFFFFFFFFFFFFFFFF AND PUSH4 0x70A08231 ADDRESS PUSH1 0x40 MLOAD DUP3 PUSH4 0xFFFFFFFF AND PUSH1 0xE0 SHL DUP2 MSTORE PUSH1 0x4 ADD PUSH2 0x664 SWAP2 SWAP1 PUSH2 0x26C6 JUMP JUMPDEST PUSH1 0x20 PUSH1 0x40 MLOAD DUP1 DUP4 SUB DUP2 DUP7 GAS STATICCALL ISZERO DUP1 ISZERO PUSH2 0x681 JUMPI RETURNDATASIZE PUSH1 0x0 DUP1 RETURNDATACOPY RETURNDATASIZE PUSH1 0x0 REVERT JUMPDEST POP POP POP POP PUSH1 0x40 MLOAD RETURNDATASIZE PUSH1 0x1F NOT PUSH1 0x1F DUP3 ADD AND DUP3 ADD DUP1 PUSH1 0x40 MSTORE POP DUP2 ADD SWAP1 PUSH2 0x6A5 SWAP2 SWAP1 PUSH2 0x2931 JUMP JUMPDEST SWAP1 POP DUP5 DUP5 DUP3 PUSH2 0x6B4 SWAP2 SWAP1 PUSH2 0x2A48 JUMP JUMPDEST GT ISZERO PUSH2 0x701 JUMPI PUSH32 0x357D905F1831209797DF4D55D79C5C5BF1D9F7311C976AFD05E13D881EAB9BC8 DUP5 DUP3 PUSH2 0x6E7 SWAP2 SWAP1 PUSH2 0x2A48 JUMP JUMPDEST PUSH1 0x40 MLOAD PUSH2 0x6F4 SWAP2 SWAP1 PUSH2 0x2672 JUMP JUMPDEST PUSH1 0x40 MLOAD DUP1 SWAP2 SUB SWAP1 LOG1 PUSH2 0x749 JUMP JUMPDEST DUP4 DUP2 PUSH2 0x70D SWAP2 SWAP1 PUSH2 0x2A48 JUMP JUMPDEST PUSH1 0x40 MLOAD PUSH32 0xD4989A9400000000000000000000000000000000000000000000000000000000 DUP2 MSTORE PUSH1 0x4 ADD PUSH2 0x740 SWAP2 SWAP1 PUSH2 0x2672 JUMP JUMPDEST PUSH1 0x40 MLOAD DUP1 SWAP2 SUB SWAP1 REVERT JUMPDEST POP POP POP POP POP POP JUMP JUMPDEST PUSH1 0x0 DUP1 SLOAD SWAP1 PUSH2 0x100 EXP SWAP1 DIV PUSH20 0xFFFFFFFFFFFFFFFFFFFFFFFFFFFFFFFFFFFFFFFF AND PUSH20 0xFFFFFFFFFFFFFFFFFFFFFFFFFFFFFFFFFFFFFFFF AND CALLER PUSH20 0xFFFFFFFFFFFFFFFFFFFFFFFFFFFFFFFFFFFFFFFF AND EQ PUSH2 0x7E1 JUMPI CALLER PUSH1 0x40 MLOAD PUSH32 0x4104D7D700000000000000000000000000000000000000000000000000000000 DUP2 MSTORE PUSH1 0x4 ADD PUSH2 0x7D8 SWAP2 SWAP1 PUSH2 0x26C6 JUMP JUMPDEST PUSH1 0x40 MLOAD DUP1 SWAP2 SUB SWAP1 REVERT JUMPDEST PUSH1 0x0 PUSH20 0xAF88D065E77C8CC2239327C5EDB3A432268E5831 PUSH20 0xFFFFFFFFFFFFFFFFFFFFFFFFFFFFFFFFFFFFFFFF AND PUSH4 0x70A08231 ADDRESS PUSH1 0x40 MLOAD DUP3 PUSH4 0xFFFFFFFF AND PUSH1 0xE0 SHL DUP2 MSTORE PUSH1 0x4 ADD PUSH2 0x830 SWAP2 SWAP1 PUSH2 0x26C6 JUMP JUMPDEST PUSH1 0x20 PUSH1 0x40 MLOAD DUP1 DUP4 SUB DUP2 DUP7 GAS STATICCALL ISZERO DUP1 ISZERO PUSH2 0x84D JUMPI RETURNDATASIZE PUSH1 0x0 DUP1 RETURNDATACOPY RETURNDATASIZE PUSH1 0x0 REVERT JUMPDEST POP POP POP POP PUSH1 0x40 MLOAD RETURNDATASIZE PUSH1 0x1F NOT PUSH1 0x1F DUP3 ADD AND DUP3 ADD DUP1 PUSH1 0x40 MSTORE POP DUP2 ADD SWAP1 PUSH2 0x871 SWAP2 SWAP1 PUSH2 0x2931 JUMP JUMPDEST SWAP1 POP PUSH2 0x87C DUP4 PUSH2 0x2060 JUMP JUMPDEST PUSH1 0x0 PUSH1 0x64 SWAP1 POP PUSH1 0x0 PUSH1 0x40 MLOAD DUP1 PUSH1 0xA0 ADD PUSH1 0x40 MSTORE DUP1 PUSH20 0x82AF49447D8A07E3BD95BD0D56F35241523FBAB1 DUP5 PUSH20 0xAF88D065E77C8CC2239327C5EDB3A432268E5831 PUSH1 0x40 MLOAD PUSH1 0x20 ADD PUSH2 0x8CC SWAP4 SWAP3 SWAP2 SWAP1 PUSH2 0x29DC JUMP JUMPDEST PUSH1 0x40 MLOAD PUSH1 0x20 DUP2 DUP4 SUB SUB DUP2 MSTORE SWAP1 PUSH1 0x40 MSTORE DUP2 MSTORE PUSH1 0x20 ADD ADDRESS PUSH20 0xFFFFFFFFFFFFFFFFFFFFFFFFFFFFFFFFFFFFFFFF AND DUP2 MSTORE PUSH1 0x20 ADD TIMESTAMP DUP2 MSTORE PUSH1 0x20 ADD PUSH20 0x82AF49447D8A07E3BD95BD0D56F35241523FBAB1 PUSH20 0xFFFFFFFFFFFFFFFFFFFFFFFFFFFFFFFFFFFFFFFF AND PUSH4 0x70A08231 ADDRESS PUSH1 0x40 MLOAD DUP3 PUSH4 0xFFFFFFFF AND PUSH1 0xE0 SHL DUP2 MSTORE PUSH1 0x4 ADD PUSH2 0x94F SWAP2 SWAP1 PUSH2 0x26C6 JUMP JUMPDEST PUSH1 0x20 PUSH1 0x40 MLOAD DUP1 DUP4 SUB DUP2 DUP7 GAS STATICCALL ISZERO DUP1 ISZERO PUSH2 0x96C JUMPI RETURNDATASIZE PUSH1 0x0 DUP1 RETURNDATACOPY RETURNDATASIZE PUSH1 0x0 REVERT JUMPDEST POP POP POP POP PUSH1 0x40 MLOAD RETURNDATASIZE PUSH1 0x1F NOT PUSH1 0x1F DUP3 ADD AND DUP3 ADD DUP1 PUSH1 0x40 MSTORE POP DUP2 ADD SWAP1 PUSH2 0x990 SWAP2 SWAP1 PUSH2 0x2931 JUMP JUMPDEST DUP2 MSTORE PUSH1 0x20 ADD PUSH1 0x0 DUP2 MSTORE POP SWAP1 POP PUSH2 0x9A5 DUP2 PUSH2 0x2100 JUMP JUMPDEST PUSH1 0x0 PUSH20 0xAF88D065E77C8CC2239327C5EDB3A432268E5831 PUSH20 0xFFFFFFFFFFFFFFFFFFFFFFFFFFFFFFFFFFFFFFFF AND PUSH4 0x70A08231 ADDRESS PUSH1 0x40 MLOAD DUP3 PUSH4 0xFFFFFFFF AND PUSH1 0xE0 SHL DUP2 MSTORE PUSH1 0x4 ADD PUSH2 0x9F4 SWAP2 SWAP1 PUSH2 0x26C6 JUMP JUMPDEST PUSH1 0x20 PUSH1 0x40 MLOAD DUP1 DUP4 SUB DUP2 DUP7 GAS STATICCALL ISZERO DUP1 ISZERO PUSH2 0xA11 JUMPI RETURNDATASIZE PUSH1 0x0 DUP1 RETURNDATACOPY RETURNDATASIZE PUSH1 0x0 REVERT JUMPDEST POP POP POP POP PUSH1 0x40 MLOAD RETURNDATASIZE PUSH1 0x1F NOT PUSH1 0x1F DUP3 ADD AND DUP3 ADD DUP1 PUSH1 0x40 MSTORE POP DUP2 ADD SWAP1 PUSH2 0xA35 SWAP2 SWAP1 PUSH2 0x2931 JUMP JUMPDEST SWAP1 POP DUP5 DUP5 DUP3 PUSH2 0xA44 SWAP2 SWAP1 PUSH2 0x2A48 JUMP JUMPDEST GT ISZERO PUSH2 0xA91 JUMPI PUSH32 0x357D905F1831209797DF4D55D79C5C5BF1D9F7311C976AFD05E13D881EAB9BC8 DUP5 DUP3 PUSH2 0xA77 SWAP2 SWAP1 PUSH2 0x2A48 JUMP JUMPDEST PUSH1 0x40 MLOAD PUSH2 0xA84 SWAP2 SWAP1 PUSH2 0x2672 JUMP JUMPDEST PUSH1 0x40 MLOAD DUP1 SWAP2 SUB SWAP1 LOG1 PUSH2 0xAD9 JUMP JUMPDEST DUP4 DUP2 PUSH2 0xA9D SWAP2 SWAP1 PUSH2 0x2A48 JUMP JUMPDEST PUSH1 0x40 MLOAD PUSH32 0xD4989A9400000000000000000000000000000000000000000000000000000000 DUP2 MSTORE PUSH1 0x4 ADD PUSH2 0xAD0 SWAP2 SWAP1 PUSH2 0x2672 JUMP JUMPDEST PUSH1 0x40 MLOAD DUP1 SWAP2 SUB SWAP1 REVERT JUMPDEST POP POP POP POP POP POP JUMP JUMPDEST PUSH20 0xFD086BC7CD5C481DCC9C85EBE478A1C0B69FCBB9 DUP2 JUMP JUMPDEST PUSH32 0x0 PUSH20 0xFFFFFFFFFFFFFFFFFFFFFFFFFFFFFFFFFFFFFFFF AND CALLER PUSH20 0xFFFFFFFFFFFFFFFFFFFFFFFFFFFFFFFFFFFFFFFF AND EQ PUSH2 0xB89 JUMPI CALLER PUSH1 0x40 MLOAD PUSH32 0xF9EBB4C700000000000000000000000000000000000000000000000000000000 DUP2 MSTORE PUSH1 0x4 ADD PUSH2 0xB80 SWAP2 SWAP1 PUSH2 0x26C6 JUMP JUMPDEST PUSH1 0x40 MLOAD DUP1 SWAP2 SUB SWAP1 REVERT JUMPDEST PUSH20 0xFD086BC7CD5C481DCC9C85EBE478A1C0B69FCBB9 PUSH20 0xFFFFFFFFFFFFFFFFFFFFFFFFFFFFFFFFFFFFFFFF AND DUP3 PUSH20 0xFFFFFFFFFFFFFFFFFFFFFFFFFFFFFFFFFFFFFFFF AND EQ ISZERO DUP1 ISZERO PUSH2 0xC19 JUMPI POP PUSH20 0xAF88D065E77C8CC2239327C5EDB3A432268E5831 PUSH20 0xFFFFFFFFFFFFFFFFFFFFFFFFFFFFFFFFFFFFFFFF AND DUP3 PUSH20 0xFFFFFFFFFFFFFFFFFFFFFFFFFFFFFFFFFFFFFFFF AND EQ ISZERO JUMPDEST ISZERO PUSH2 0xC5B JUMPI DUP2 PUSH1 0x40 MLOAD PUSH32 0xF01157C300000000000000000000000000000000000000000000000000000000 DUP2 MSTORE PUSH1 0x4 ADD PUSH2 0xC52 SWAP2 SWAP1 PUSH2 0x26C6 JUMP JUMPDEST PUSH1 0x40 MLOAD DUP1 SWAP2 SUB SWAP1 REVERT JUMPDEST PUSH1 0x0 DUP2 GT PUSH2 0xC9E JUMPI PUSH1 0x40 MLOAD PUSH32 0x8C379A000000000000000000000000000000000000000000000000000000000 DUP2 MSTORE PUSH1 0x4 ADD PUSH2 0xC95 SWAP1 PUSH2 0x2AD9 JUMP JUMPDEST PUSH1 0x40 MLOAD DUP1 SWAP2 SUB SWAP1 REVERT JUMPDEST DUP2 PUSH20 0xFFFFFFFFFFFFFFFFFFFFFFFFFFFFFFFFFFFFFFFF AND PUSH4 0x23B872DD CALLER ADDRESS DUP5 PUSH1 0x40 MLOAD DUP5 PUSH4 0xFFFFFFFF AND PUSH1 0xE0 SHL DUP2 MSTORE PUSH1 0x4 ADD PUSH2 0xCDB SWAP4 SWAP3 SWAP2 SWAP1 PUSH2 0x2AF9 JUMP JUMPDEST PUSH1 0x20 PUSH1 0x40 MLOAD DUP1 DUP4 SUB DUP2 PUSH1 0x0 DUP8 GAS CALL ISZERO DUP1 ISZERO PUSH2 0xCFA JUMPI RETURNDATASIZE PUSH1 0x0 DUP1 RETURNDATACOPY RETURNDATASIZE PUSH1 0x0 REVERT JUMPDEST POP POP POP POP PUSH1 0x40 MLOAD RETURNDATASIZE PUSH1 0x1F NOT PUSH1 0x1F DUP3 ADD AND DUP3 ADD DUP1 PUSH1 0x40 MSTORE POP DUP2 ADD SWAP1 PUSH2 0xD1E SWAP2 SWAP1 PUSH2 0x2B68 JUMP JUMPDEST POP POP POP JUMP JUMPDEST PUSH20 0xAF88D065E77C8CC2239327C5EDB3A432268E5831 DUP2 JUMP JUMPDEST PUSH20 0x82AF49447D8A07E3BD95BD0D56F35241523FBAB1 DUP2 JUMP JUMPDEST PUSH32 0x0 PUSH20 0xFFFFFFFFFFFFFFFFFFFFFFFFFFFFFFFFFFFFFFFF AND CALLER PUSH20 0xFFFFFFFFFFFFFFFFFFFFFFFFFFFFFFFFFFFFFFFF AND EQ PUSH2 0xDE3 JUMPI CALLER PUSH1 0x40 MLOAD PUSH32 0xF9EBB4C700000000000000000000000000000000000000000000000000000000 DUP2 MSTORE PUSH1 0x4 ADD PUSH2 0xDDA SWAP2 SWAP1 PUSH2 0x26C6 JUMP JUMPDEST PUSH1 0x40 MLOAD DUP1 SWAP2 SUB SWAP1 REVERT JUMPDEST PUSH1 0x0 PUSH20 0xFFFFFFFFFFFFFFFFFFFFFFFFFFFFFFFFFFFFFFFF AND DUP2 PUSH20 0xFFFFFFFFFFFFFFFFFFFFFFFFFFFFFFFFFFFFFFFF AND SUB PUSH2 0xE52 JUMPI PUSH1 0x40 MLOAD PUSH32 0x8C379A000000000000000000000000000000000000000000000000000000000 DUP2 MSTORE PUSH1 0x4 ADD PUSH2 0xE49 SWAP1 PUSH2 0x2BE1 JUMP JUMPDEST PUSH1 0x40 MLOAD DUP1 SWAP2 SUB SWAP1 REVERT JUMPDEST ADDRESS PUSH20 0xFFFFFFFFFFFFFFFFFFFFFFFFFFFFFFFFFFFFFFFF AND DUP2 PUSH20 0xFFFFFFFFFFFFFFFFFFFFFFFFFFFFFFFFFFFFFFFF AND SUB PUSH2 0xEC0 JUMPI PUSH1 0x40 MLOAD PUSH32 0x8C379A000000000000000000000000000000000000000000000000000000000 DUP2 MSTORE PUSH1 0x4 ADD PUSH2 0xEB7 SWAP1 PUSH2 0x2C4D JUMP JUMPDEST PUSH1 0x40 MLOAD DUP1 SWAP2 SUB SWAP1 REVERT JUMPDEST DUP1 PUSH1 0x0 DUP1 PUSH2 0x100 EXP DUP2 SLOAD DUP2 PUSH20 0xFFFFFFFFFFFFFFFFFFFFFFFFFFFFFFFFFFFFFFFF MUL NOT AND SWAP1 DUP4 PUSH20 0xFFFFFFFFFFFFFFFFFFFFFFFFFFFFFFFFFFFFFFFF AND MUL OR SWAP1 SSTORE POP POP JUMP JUMPDEST PUSH1 0x0 PUSH1 0x1 PUSH1 0x0 DUP5 PUSH20 0xFFFFFFFFFFFFFFFFFFFFFFFFFFFFFFFFFFFFFFFF AND PUSH20 0xFFFFFFFFFFFFFFFFFFFFFFFFFFFFFFFFFFFFFFFF AND DUP2 MSTORE PUSH1 0x20 ADD SWAP1 DUP2 MSTORE PUSH1 0x20 ADD PUSH1 0x0 KECCAK256 PUSH1 0x0 DUP4 PUSH20 0xFFFFFFFFFFFFFFFFFFFFFFFFFFFFFFFFFFFFFFFF AND PUSH20 0xFFFFFFFFFFFFFFFFFFFFFFFFFFFFFFFFFFFFFFFF AND DUP2 MSTORE PUSH1 0x20 ADD SWAP1 DUP2 MSTORE PUSH1 0x20 ADD PUSH1 0x0 KECCAK256 SLOAD SWAP1 POP SWAP3 SWAP2 POP POP JUMP JUMPDEST PUSH1 0x0 DUP1 DUP3 PUSH20 0xFFFFFFFFFFFFFFFFFFFFFFFFFFFFFFFFFFFFFFFF AND PUSH4 0x3850C7BD PUSH1 0x40 MLOAD DUP2 PUSH4 0xFFFFFFFF AND PUSH1 0xE0 SHL DUP2 MSTORE PUSH1 0x4 ADD PUSH1 0xE0 PUSH1 0x40 MLOAD DUP1 DUP4 SUB DUP2 DUP7 GAS STATICCALL ISZERO DUP1 ISZERO PUSH2 0xFD8 JUMPI RETURNDATASIZE PUSH1 0x0 DUP1 RETURNDATACOPY RETURNDATASIZE PUSH1 0x0 REVERT JUMPDEST POP POP POP POP PUSH1 0x40 MLOAD RETURNDATASIZE PUSH1 0x1F NOT PUSH1 0x1F DUP3 ADD AND DUP3 ADD DUP1 PUSH1 0x40 MSTORE POP DUP2 ADD SWAP1 PUSH2 0xFFC SWAP2 SWAP1 PUSH2 0x2D48 JUMP JUMPDEST POP POP POP POP POP POP SWAP1 POP DUP1 SWAP2 POP POP SWAP2 SWAP1 POP JUMP JUMPDEST PUSH1 0x0 PUSH32 0x0 SWAP1 POP SWAP1 JUMP JUMPDEST PUSH1 0x0 DUP1 SLOAD SWAP1 PUSH2 0x100 EXP SWAP1 DIV PUSH20 0xFFFFFFFFFFFFFFFFFFFFFFFFFFFFFFFFFFFFFFFF AND PUSH20 0xFFFFFFFFFFFFFFFFFFFFFFFFFFFFFFFFFFFFFFFF AND CALLER PUSH20 0xFFFFFFFFFFFFFFFFFFFFFFFFFFFFFFFFFFFFFFFF AND EQ PUSH2 0x10C5 JUMPI CALLER PUSH1 0x40 MLOAD PUSH32 0x4104D7D700000000000000000000000000000000000000000000000000000000 DUP2 MSTORE PUSH1 0x4 ADD PUSH2 0x10BC SWAP2 SWAP1 PUSH2 0x26C6 JUMP JUMPDEST PUSH1 0x40 MLOAD DUP1 SWAP2 SUB SWAP1 REVERT JUMPDEST PUSH1 0x0 PUSH20 0xAF88D065E77C8CC2239327C5EDB3A432268E5831 PUSH20 0xFFFFFFFFFFFFFFFFFFFFFFFFFFFFFFFFFFFFFFFF AND PUSH4 0x70A08231 ADDRESS PUSH1 0x40 MLOAD DUP3 PUSH4 0xFFFFFFFF AND PUSH1 0xE0 SHL DUP2 MSTORE PUSH1 0x4 ADD PUSH2 0x1114 SWAP2 SWAP1 PUSH2 0x26C6 JUMP JUMPDEST PUSH1 0x20 PUSH1 0x40 MLOAD DUP1 DUP4 SUB DUP2 DUP7 GAS STATICCALL ISZERO DUP1 ISZERO PUSH2 0x1131 JUMPI RETURNDATASIZE PUSH1 0x0 DUP1 RETURNDATACOPY RETURNDATASIZE PUSH1 0x0 REVERT JUMPDEST POP POP POP POP PUSH1 0x40 MLOAD RETURNDATASIZE PUSH1 0x1F NOT PUSH1 0x1F DUP3 ADD AND DUP3 ADD DUP1 PUSH1 0x40 MSTORE POP DUP2 ADD SWAP1 PUSH2 0x1155 SWAP2 SWAP1 PUSH2 0x2931 JUMP JUMPDEST SWAP1 POP PUSH1 0x0 PUSH20 0xFD086BC7CD5C481DCC9C85EBE478A1C0B69FCBB9 PUSH20 0xFFFFFFFFFFFFFFFFFFFFFFFFFFFFFFFFFFFFFFFF AND PUSH4 0x70A08231 ADDRESS PUSH1 0x40 MLOAD DUP3 PUSH4 0xFFFFFFFF AND PUSH1 0xE0 SHL DUP2 MSTORE PUSH1 0x4 ADD PUSH2 0x11A6 SWAP2 SWAP1 PUSH2 0x26C6 JUMP JUMPDEST PUSH1 0x20 PUSH1 0x40 MLOAD DUP1 DUP4 SUB DUP2 DUP7 GAS STATICCALL ISZERO DUP1 ISZERO PUSH2 0x11C3 JUMPI RETURNDATASIZE PUSH1 0x0 DUP1 RETURNDATACOPY RETURNDATASIZE PUSH1 0x0 REVERT JUMPDEST POP POP POP POP PUSH1 0x40 MLOAD RETURNDATASIZE PUSH1 0x1F NOT PUSH1 0x1F DUP3 ADD AND DUP3 ADD DUP1 PUSH1 0x40 MSTORE POP DUP2 ADD SWAP1 PUSH2 0x11E7 SWAP2 SWAP1 PUSH2 0x2931 JUMP JUMPDEST SWAP1 POP PUSH2 0x11F2 DUP4 PUSH2 0x2060 JUMP JUMPDEST PUSH1 0x0 PUSH1 0x64 SWAP1 POP PUSH1 0x0 PUSH1 0x40 MLOAD DUP1 PUSH1 0xA0 ADD PUSH1 0x40 MSTORE DUP1 PUSH20 0x82AF49447D8A07E3BD95BD0D56F35241523FBAB1 DUP5 PUSH20 0xFD086BC7CD5C481DCC9C85EBE478A1C0B69FCBB9 PUSH1 0x40 MLOAD PUSH1 0x20 ADD PUSH2 0x1242 SWAP4 SWAP3 SWAP2 SWAP1 PUSH2 0x29DC JUMP JUMPDEST PUSH1 0x40 MLOAD PUSH1 0x20 DUP2 DUP4 SUB SUB DUP2 MSTORE SWAP1 PUSH1 0x40 MSTORE DUP2 MSTORE PUSH1 0x20 ADD ADDRESS PUSH20 0xFFFFFFFFFFFFFFFFFFFFFFFFFFFFFFFFFFFFFFFF AND DUP2 MSTORE PUSH1 0x20 ADD TIMESTAMP DUP2 MSTORE PUSH1 0x20 ADD PUSH20 0x82AF49447D8A07E3BD95BD0D56F35241523FBAB1 PUSH20 0xFFFFFFFFFFFFFFFFFFFFFFFFFFFFFFFFFFFFFFFF AND PUSH4 0x70A08231 ADDRESS PUSH1 0x40 MLOAD DUP3 PUSH4 0xFFFFFFFF AND PUSH1 0xE0 SHL DUP2 MSTORE PUSH1 0x4 ADD PUSH2 0x12C5 SWAP2 SWAP1 PUSH2 0x26C6 JUMP JUMPDEST PUSH1 0x20 PUSH1 0x40 MLOAD DUP1 DUP4 SUB DUP2 DUP7 GAS STATICCALL ISZERO DUP1 ISZERO PUSH2 0x12E2 JUMPI RETURNDATASIZE PUSH1 0x0 DUP1 RETURNDATACOPY RETURNDATASIZE PUSH1 0x0 REVERT JUMPDEST POP POP POP POP PUSH1 0x40 MLOAD RETURNDATASIZE PUSH1 0x1F NOT PUSH1 0x1F DUP3 ADD AND DUP3 ADD DUP1 PUSH1 0x40 MSTORE POP DUP2 ADD SWAP1 PUSH2 0x1306 SWAP2 SWAP1 PUSH2 0x2931 JUMP JUMPDEST DUP2 MSTORE PUSH1 0x20 ADD PUSH1 0x0 DUP2 MSTORE POP SWAP1 POP PUSH2 0x131B DUP2 PUSH2 0x2100 JUMP JUMPDEST PUSH1 0x0 PUSH1 0x40 MLOAD DUP1 PUSH1 0xA0 ADD PUSH1 0x40 MSTORE DUP1 PUSH20 0xFD086BC7CD5C481DCC9C85EBE478A1C0B69FCBB9 DUP6 PUSH20 0xAF88D065E77C8CC2239327C5EDB3A432268E5831 PUSH1 0x40 MLOAD PUSH1 0x20 ADD PUSH2 0x1365 SWAP4 SWAP3 SWAP2 SWAP1 PUSH2 0x29DC JUMP JUMPDEST PUSH1 0x40 MLOAD PUSH1 0x20 DUP2 DUP4 SUB SUB DUP2 MSTORE SWAP1 PUSH1 0x40 MSTORE DUP2 MSTORE PUSH1 0x20 ADD ADDRESS PUSH20 0xFFFFFFFFFFFFFFFFFFFFFFFFFFFFFFFFFFFFFFFF AND DUP2 MSTORE PUSH1 0x20 ADD TIMESTAMP DUP2 MSTORE PUSH1 0x20 ADD DUP6 PUSH20 0xFD086BC7CD5C481DCC9C85EBE478A1C0B69FCBB9 PUSH20 0xFFFFFFFFFFFFFFFFFFFFFFFFFFFFFFFFFFFFFFFF AND PUSH4 0x70A08231 ADDRESS PUSH1 0x40 MLOAD DUP3 PUSH4 0xFFFFFFFF AND PUSH1 0xE0 SHL DUP2 MSTORE PUSH1 0x4 ADD PUSH2 0x13E9 SWAP2 SWAP1 PUSH2 0x26C6 JUMP JUMPDEST PUSH1 0x20 PUSH1 0x40 MLOAD DUP1 DUP4 SUB DUP2 DUP7 GAS STATICCALL ISZERO DUP1 ISZERO PUSH2 0x1406 JUMPI RETURNDATASIZE PUSH1 0x0 DUP1 RETURNDATACOPY RETURNDATASIZE PUSH1 0x0 REVERT JUMPDEST POP POP POP POP PUSH1 0x40 MLOAD RETURNDATASIZE PUSH1 0x1F NOT PUSH1 0x1F DUP3 ADD AND DUP3 ADD DUP1 PUSH1 0x40 MSTORE POP DUP2 ADD SWAP1 PUSH2 0x142A SWAP2 SWAP1 PUSH2 0x2931 JUMP JUMPDEST PUSH2 0x1434 SWAP2 SWAP1 PUSH2 0x2A48 JUMP JUMPDEST DUP2 MSTORE PUSH1 0x20 ADD PUSH1 0x0 DUP2 MSTORE POP SWAP1 POP PUSH2 0x1449 DUP2 PUSH2 0x21A0 JUMP JUMPDEST PUSH1 0x0 PUSH20 0xAF88D065E77C8CC2239327C5EDB3A432268E5831 PUSH20 0xFFFFFFFFFFFFFFFFFFFFFFFFFFFFFFFFFFFFFFFF AND PUSH4 0x70A08231 ADDRESS PUSH1 0x40 MLOAD DUP3 PUSH4 0xFFFFFFFF AND PUSH1 0xE0 SHL DUP2 MSTORE PUSH1 0x4 ADD PUSH2 0x1498 SWAP2 SWAP1 PUSH2 0x26C6 JUMP JUMPDEST PUSH1 0x20 PUSH1 0x40 MLOAD DUP1 DUP4 SUB DUP2 DUP7 GAS STATICCALL ISZERO DUP1 ISZERO PUSH2 0x14B5 JUMPI RETURNDATASIZE PUSH1 0x0 DUP1 RETURNDATACOPY RETURNDATASIZE PUSH1 0x0 REVERT JUMPDEST POP POP POP POP PUSH1 0x40 MLOAD RETURNDATASIZE PUSH1 0x1F NOT PUSH1 0x1F DUP3 ADD AND DUP3 ADD DUP1 PUSH1 0x40 MSTORE POP DUP2 ADD SWAP1 PUSH2 0x14D9 SWAP2 SWAP1 PUSH2 0x2931 JUMP JUMPDEST SWAP1 POP DUP6 DUP2 GT ISZERO PUSH2 0x151F JUMPI PUSH32 0x357D905F1831209797DF4D55D79C5C5BF1D9F7311C976AFD05E13D881EAB9BC8 DUP2 PUSH1 0x40 MLOAD PUSH2 0x1512 SWAP2 SWAP1 PUSH2 0x2672 JUMP JUMPDEST PUSH1 0x40 MLOAD DUP1 SWAP2 SUB SWAP1 LOG1 PUSH2 0x155C JUMP JUMPDEST DUP1 PUSH1 0x40 MLOAD PUSH32 0xD4989A9400000000000000000000000000000000000000000000000000000000 DUP2 MSTORE PUSH1 0x4 ADD PUSH2 0x1553 SWAP2 SWAP1 PUSH2 0x2672 JUMP JUMPDEST PUSH1 0x40 MLOAD DUP1 SWAP2 SUB SWAP1 REVERT JUMPDEST POP POP POP POP POP POP POP JUMP JUMPDEST PUSH32 0x0 PUSH20 0xFFFFFFFFFFFFFFFFFFFFFFFFFFFFFFFFFFFFFFFF AND CALLER PUSH20 0xFFFFFFFFFFFFFFFFFFFFFFFFFFFFFFFFFFFFFFFF AND EQ PUSH2 0x15F5 JUMPI CALLER PUSH1 0x40 MLOAD PUSH32 0xF9EBB4C700000000000000000000000000000000000000000000000000000000 DUP2 MSTORE PUSH1 0x4 ADD PUSH2 0x15EC SWAP2 SWAP1 PUSH2 0x26C6 JUMP JUMPDEST PUSH1 0x40 MLOAD DUP1 SWAP2 SUB SWAP1 REVERT JUMPDEST PUSH20 0xFD086BC7CD5C481DCC9C85EBE478A1C0B69FCBB9 PUSH20 0xFFFFFFFFFFFFFFFFFFFFFFFFFFFFFFFFFFFFFFFF AND DUP3 PUSH20 0xFFFFFFFFFFFFFFFFFFFFFFFFFFFFFFFFFFFFFFFF AND EQ ISZERO DUP1 ISZERO PUSH2 0x1685 JUMPI POP PUSH20 0xAF88D065E77C8CC2239327C5EDB3A432268E5831 PUSH20 0xFFFFFFFFFFFFFFFFFFFFFFFFFFFFFFFFFFFFFFFF AND DUP3 PUSH20 0xFFFFFFFFFFFFFFFFFFFFFFFFFFFFFFFFFFFFFFFF AND EQ ISZERO JUMPDEST ISZERO PUSH2 0x16C7 JUMPI DUP2 PUSH1 0x40 MLOAD PUSH32 0xF01157C300000000000000000000000000000000000000000000000000000000 DUP2 MSTORE PUSH1 0x4 ADD PUSH2 0x16BE SWAP2 SWAP1 PUSH2 0x26C6 JUMP JUMPDEST PUSH1 0x40 MLOAD DUP1 SWAP2 SUB SWAP1 REVERT JUMPDEST DUP2 PUSH20 0xFFFFFFFFFFFFFFFFFFFFFFFFFFFFFFFFFFFFFFFF AND PUSH4 0x70A08231 ADDRESS PUSH1 0x40 MLOAD DUP3 PUSH4 0xFFFFFFFF AND PUSH1 0xE0 SHL DUP2 MSTORE PUSH1 0x4 ADD PUSH2 0x1700 SWAP2 SWAP1 PUSH2 0x26C6 JUMP JUMPDEST PUSH1 0x20 PUSH1 0x40 MLOAD DUP1 DUP4 SUB DUP2 DUP7 GAS STATICCALL ISZERO DUP1 ISZERO PUSH2 0x171D JUMPI RETURNDATASIZE PUSH1 0x0 DUP1 RETURNDATACOPY RETURNDATASIZE PUSH1 0x0 REVERT JUMPDEST POP POP POP POP PUSH1 0x40 MLOAD RETURNDATASIZE PUSH1 0x1F NOT PUSH1 0x1F DUP3 ADD AND DUP3 ADD DUP1 PUSH1 0x40 MSTORE POP DUP2 ADD SWAP1 PUSH2 0x1741 SWAP2 SWAP1 PUSH2 0x2931 JUMP JUMPDEST DUP2 GT ISZERO PUSH2 0x1783 JUMPI PUSH1 0x40 MLOAD PUSH32 0x8C379A000000000000000000000000000000000000000000000000000000000 DUP2 MSTORE PUSH1 0x4 ADD PUSH2 0x177A SWAP1 PUSH2 0x2E36 JUMP JUMPDEST PUSH1 0x40 MLOAD DUP1 SWAP2 SUB SWAP1 REVERT JUMPDEST DUP2 PUSH20 0xFFFFFFFFFFFFFFFFFFFFFFFFFFFFFFFFFFFFFFFF AND PUSH4 0xA9059CBB CALLER DUP4 PUSH1 0x40 MLOAD DUP4 PUSH4 0xFFFFFFFF AND PUSH1 0xE0 SHL DUP2 MSTORE PUSH1 0x4 ADD PUSH2 0x17BE SWAP3 SWAP2 SWAP1 PUSH2 0x2E56 JUMP JUMPDEST PUSH1 0x20 PUSH1 0x40 MLOAD DUP1 DUP4 SUB DUP2 PUSH1 0x0 DUP8 GAS CALL ISZERO DUP1 ISZERO PUSH2 0x17DD JUMPI RETURNDATASIZE PUSH1 0x0 DUP1 RETURNDATACOPY RETURNDATASIZE PUSH1 0x0 REVERT JUMPDEST POP POP POP POP PUSH1 0x40 MLOAD RETURNDATASIZE PUSH1 0x1F NOT PUSH1 0x1F DUP3 ADD AND DUP3 ADD DUP1 PUSH1 0x40 MSTORE POP DUP2 ADD SWAP1 PUSH2 0x1801 SWAP2 SWAP1 PUSH2 0x2B68 JUMP JUMPDEST POP POP POP JUMP JUMPDEST PUSH1 0x0 DUP2 PUSH20 0xFFFFFFFFFFFFFFFFFFFFFFFFFFFFFFFFFFFFFFFF AND PUSH4 0x70A08231 ADDRESS PUSH1 0x40 MLOAD DUP3 PUSH4 0xFFFFFFFF AND PUSH1 0xE0 SHL DUP2 MSTORE PUSH1 0x4 ADD PUSH2 0x1841 SWAP2 SWAP1 PUSH2 0x26C6 JUMP JUMPDEST PUSH1 0x20 PUSH1 0x40 MLOAD DUP1 DUP4 SUB DUP2 DUP7 GAS STATICCALL ISZERO DUP1 ISZERO PUSH2 0x185E JUMPI RETURNDATASIZE PUSH1 0x0 DUP1 RETURNDATACOPY RETURNDATASIZE PUSH1 0x0 REVERT JUMPDEST POP POP POP POP PUSH1 0x40 MLOAD RETURNDATASIZE PUSH1 0x1F NOT PUSH1 0x1F DUP3 ADD AND DUP3 ADD DUP1 PUSH1 0x40 MSTORE POP DUP2 ADD SWAP1 PUSH2 0x1882 SWAP2 SWAP1 PUSH2 0x2931 JUMP JUMPDEST SWAP1 POP SWAP2 SWAP1 POP JUMP JUMPDEST PUSH1 0x0 DUP1 SLOAD SWAP1 PUSH2 0x100 EXP SWAP1 DIV PUSH20 0xFFFFFFFFFFFFFFFFFFFFFFFFFFFFFFFFFFFFFFFF AND DUP2 JUMP JUMPDEST PUSH1 0x0 DUP1 SLOAD SWAP1 PUSH2 0x100 EXP SWAP1 DIV PUSH20 0xFFFFFFFFFFFFFFFFFFFFFFFFFFFFFFFFFFFFFFFF AND PUSH20 0xFFFFFFFFFFFFFFFFFFFFFFFFFFFFFFFFFFFFFFFF AND CALLER PUSH20 0xFFFFFFFFFFFFFFFFFFFFFFFFFFFFFFFFFFFFFFFF AND EQ PUSH2 0x193D JUMPI CALLER PUSH1 0x40 MLOAD PUSH32 0x4104D7D700000000000000000000000000000000000000000000000000000000 DUP2 MSTORE PUSH1 0x4 ADD PUSH2 0x1934 SWAP2 SWAP1 PUSH2 0x26C6 JUMP JUMPDEST PUSH1 0x40 MLOAD DUP1 SWAP2 SUB SWAP1 REVERT JUMPDEST PUSH1 0x0 PUSH20 0xAF88D065E77C8CC2239327C5EDB3A432268E5831 PUSH20 0xFFFFFFFFFFFFFFFFFFFFFFFFFFFFFFFFFFFFFFFF AND PUSH4 0x70A08231 ADDRESS PUSH1 0x40 MLOAD DUP3 PUSH4 0xFFFFFFFF AND PUSH1 0xE0 SHL DUP2 MSTORE PUSH1 0x4 ADD PUSH2 0x198C SWAP2 SWAP1 PUSH2 0x26C6 JUMP JUMPDEST PUSH1 0x20 PUSH1 0x40 MLOAD DUP1 DUP4 SUB DUP2 DUP7 GAS STATICCALL ISZERO DUP1 ISZERO PUSH2 0x19A9 JUMPI RETURNDATASIZE PUSH1 0x0 DUP1 RETURNDATACOPY RETURNDATASIZE PUSH1 0x0 REVERT JUMPDEST POP POP POP POP PUSH1 0x40 MLOAD RETURNDATASIZE PUSH1 0x1F NOT PUSH1 0x1F DUP3 ADD AND DUP3 ADD DUP1 PUSH1 0x40 MSTORE POP DUP2 ADD SWAP1 PUSH2 0x19CD SWAP2 SWAP1 PUSH2 0x2931 JUMP JUMPDEST SWAP1 POP PUSH1 0x0 PUSH20 0xFD086BC7CD5C481DCC9C85EBE478A1C0B69FCBB9 PUSH20 0xFFFFFFFFFFFFFFFFFFFFFFFFFFFFFFFFFFFFFFFF AND PUSH4 0x70A08231 ADDRESS PUSH1 0x40 MLOAD DUP3 PUSH4 0xFFFFFFFF AND PUSH1 0xE0 SHL DUP2 MSTORE PUSH1 0x4 ADD PUSH2 0x1A1E SWAP2 SWAP1 PUSH2 0x26C6 JUMP JUMPDEST PUSH1 0x20 PUSH1 0x40 MLOAD DUP1 DUP4 SUB DUP2 DUP7 GAS STATICCALL ISZERO DUP1 ISZERO PUSH2 0x1A3B JUMPI RETURNDATASIZE PUSH1 0x0 DUP1 RETURNDATACOPY RETURNDATASIZE PUSH1 0x0 REVERT JUMPDEST POP POP POP POP PUSH1 0x40 MLOAD RETURNDATASIZE PUSH1 0x1F NOT PUSH1 0x1F DUP3 ADD AND DUP3 ADD DUP1 PUSH1 0x40 MSTORE POP DUP2 ADD SWAP1 PUSH2 0x1A5F SWAP2 SWAP1 PUSH2 0x2931 JUMP JUMPDEST SWAP1 POP PUSH2 0x1A6A DUP4 PUSH2 0x2060 JUMP JUMPDEST PUSH1 0x0 PUSH1 0x64 SWAP1 POP PUSH1 0x0 PUSH1 0x40 MLOAD DUP1 PUSH1 0xA0 ADD PUSH1 0x40 MSTORE DUP1 PUSH20 0x82AF49447D8A07E3BD95BD0D56F35241523FBAB1 DUP5 PUSH20 0xAF88D065E77C8CC2239327C5EDB3A432268E5831 PUSH1 0x40 MLOAD PUSH1 0x20 ADD PUSH2 0x1ABA SWAP4 SWAP3 SWAP2 SWAP1 PUSH2 0x29DC JUMP JUMPDEST PUSH1 0x40 MLOAD PUSH1 0x20 DUP2 DUP4 SUB SUB DUP2 MSTORE SWAP1 PUSH1 0x40 MSTORE DUP2 MSTORE PUSH1 0x20 ADD ADDRESS PUSH20 0xFFFFFFFFFFFFFFFFFFFFFFFFFFFFFFFFFFFFFFFF AND DUP2 MSTORE PUSH1 0x20 ADD TIMESTAMP DUP2 MSTORE PUSH1 0x20 ADD PUSH20 0x82AF49447D8A07E3BD95BD0D56F35241523FBAB1 PUSH20 0xFFFFFFFFFFFFFFFFFFFFFFFFFFFFFFFFFFFFFFFF AND PUSH4 0x70A08231 ADDRESS PUSH1 0x40 MLOAD DUP3 PUSH4 0xFFFFFFFF AND PUSH1 0xE0 SHL DUP2 MSTORE PUSH1 0x4 ADD PUSH2 0x1B3D SWAP2 SWAP1 PUSH2 0x26C6 JUMP JUMPDEST PUSH1 0x20 PUSH1 0x40 MLOAD DUP1 DUP4 SUB DUP2 DUP7 GAS STATICCALL ISZERO DUP1 ISZERO PUSH2 0x1B5A JUMPI RETURNDATASIZE PUSH1 0x0 DUP1 RETURNDATACOPY RETURNDATASIZE PUSH1 0x0 REVERT JUMPDEST POP POP POP POP PUSH1 0x40 MLOAD RETURNDATASIZE PUSH1 0x1F NOT PUSH1 0x1F DUP3 ADD AND DUP3 ADD DUP1 PUSH1 0x40 MSTORE POP DUP2 ADD SWAP1 PUSH2 0x1B7E SWAP2 SWAP1 PUSH2 0x2931 JUMP JUMPDEST DUP2 MSTORE PUSH1 0x20 ADD PUSH1 0x0 DUP2 MSTORE POP SWAP1 POP PUSH2 0x1B93 DUP2 PUSH2 0x2100 JUMP JUMPDEST PUSH1 0x0 PUSH1 0x40 MLOAD DUP1 PUSH1 0xA0 ADD PUSH1 0x40 MSTORE DUP1 PUSH20 0xAF88D065E77C8CC2239327C5EDB3A432268E5831 DUP6 PUSH20 0xFD086BC7CD5C481DCC9C85EBE478A1C0B69FCBB9 PUSH1 0x40 MLOAD PUSH1 0x20 ADD PUSH2 0x1BDD SWAP4 SWAP3 SWAP2 SWAP1 PUSH2 0x29DC JUMP JUMPDEST PUSH1 0x40 MLOAD PUSH1 0x20 DUP2 DUP4 SUB SUB DUP2 MSTORE SWAP1 PUSH1 0x40 MSTORE DUP2 MSTORE PUSH1 0x20 ADD ADDRESS PUSH20 0xFFFFFFFFFFFFFFFFFFFFFFFFFFFFFFFFFFFFFFFF AND DUP2 MSTORE PUSH1 0x20 ADD TIMESTAMP DUP2 MSTORE PUSH1 0x20 ADD DUP7 PUSH20 0xAF88D065E77C8CC2239327C5EDB3A432268E5831 PUSH20 0xFFFFFFFFFFFFFFFFFFFFFFFFFFFFFFFFFFFFFFFF AND PUSH4 0x70A08231 ADDRESS PUSH1 0x40 MLOAD DUP3 PUSH4 0xFFFFFFFF AND PUSH1 0xE0 SHL DUP2 MSTORE PUSH1 0x4 ADD PUSH2 0x1C61 SWAP2 SWAP1 PUSH2 0x26C6 JUMP JUMPDEST PUSH1 0x20 PUSH1 0x40 MLOAD DUP1 DUP4 SUB DUP2 DUP7 GAS STATICCALL ISZERO DUP1 ISZERO PUSH2 0x1C7E JUMPI RETURNDATASIZE PUSH1 0x0 DUP1 RETURNDATACOPY RETURNDATASIZE PUSH1 0x0 REVERT JUMPDEST POP POP POP POP PUSH1 0x40 MLOAD RETURNDATASIZE PUSH1 0x1F NOT PUSH1 0x1F DUP3 ADD AND DUP3 ADD DUP1 PUSH1 0x40 MSTORE POP DUP2 ADD SWAP1 PUSH2 0x1CA2 SWAP2 SWAP1 PUSH2 0x2931 JUMP JUMPDEST PUSH2 0x1CAC SWAP2 SWAP1 PUSH2 0x2A48 JUMP JUMPDEST DUP2 MSTORE PUSH1 0x20 ADD PUSH1 0x0 DUP2 MSTORE POP SWAP1 POP PUSH2 0x1CC1 DUP2 PUSH2 0x21A0 JUMP JUMPDEST PUSH1 0x0 PUSH20 0xFD086BC7CD5C481DCC9C85EBE478A1C0B69FCBB9 PUSH20 0xFFFFFFFFFFFFFFFFFFFFFFFFFFFFFFFFFFFFFFFF AND PUSH4 0x70A08231 ADDRESS PUSH1 0x40 MLOAD DUP3 PUSH4 0xFFFFFFFF AND PUSH1 0xE0 SHL DUP2 MSTORE PUSH1 0x4 ADD PUSH2 0x1D10 SWAP2 SWAP1 PUSH2 0x26C6 JUMP JUMPDEST PUSH1 0x20 PUSH1 0x40 MLOAD DUP1 DUP4 SUB DUP2 DUP7 GAS STATICCALL ISZERO DUP1 ISZERO PUSH2 0x1D2D JUMPI RETURNDATASIZE PUSH1 0x0 DUP1 RETURNDATACOPY RETURNDATASIZE PUSH1 0x0 REVERT JUMPDEST POP POP POP POP PUSH1 0x40 MLOAD RETURNDATASIZE PUSH1 0x1F NOT PUSH1 0x1F DUP3 ADD AND DUP3 ADD DUP1 PUSH1 0x40 MSTORE POP DUP2 ADD SWAP1 PUSH2 0x1D51 SWAP2 SWAP1 PUSH2 0x2931 JUMP JUMPDEST SWAP1 POP DUP5 DUP2 GT ISZERO PUSH2 0x1D97 JUMPI PUSH32 0x357D905F1831209797DF4D55D79C5C5BF1D9F7311C976AFD05E13D881EAB9BC8 DUP2 PUSH1 0x40 MLOAD PUSH2 0x1D8A SWAP2 SWAP1 PUSH2 0x2672 JUMP JUMPDEST PUSH1 0x40 MLOAD DUP1 SWAP2 SUB SWAP1 LOG1 PUSH2 0x1DD4 JUMP JUMPDEST DUP1 PUSH1 0x40 MLOAD PUSH32 0xD4989A9400000000000000000000000000000000000000000000000000000000 DUP2 MSTORE PUSH1 0x4 ADD PUSH2 0x1DCB SWAP2 SWAP1 PUSH2 0x2672 JUMP JUMPDEST PUSH1 0x40 MLOAD DUP1 SWAP2 SUB SWAP1 REVERT JUMPDEST POP POP POP POP POP POP POP JUMP JUMPDEST PUSH32 0x0 PUSH20 0xFFFFFFFFFFFFFFFFFFFFFFFFFFFFFFFFFFFFFFFF AND CALLER PUSH20 0xFFFFFFFFFFFFFFFFFFFFFFFFFFFFFFFFFFFFFFFF AND EQ PUSH2 0x1E6D JUMPI CALLER PUSH1 0x40 MLOAD PUSH32 0xF9EBB4C700000000000000000000000000000000000000000000000000000000 DUP2 MSTORE PUSH1 0x4 ADD PUSH2 0x1E64 SWAP2 SWAP1 PUSH2 0x26C6 JUMP JUMPDEST PUSH1 0x40 MLOAD DUP1 SWAP2 SUB SWAP1 REVERT JUMPDEST DUP1 PUSH1 0x1 PUSH1 0x0 DUP6 PUSH20 0xFFFFFFFFFFFFFFFFFFFFFFFFFFFFFFFFFFFFFFFF AND PUSH20 0xFFFFFFFFFFFFFFFFFFFFFFFFFFFFFFFFFFFFFFFF AND DUP2 MSTORE PUSH1 0x20 ADD SWAP1 DUP2 MSTORE PUSH1 0x20 ADD PUSH1 0x0 KECCAK256 PUSH1 0x0 DUP5 PUSH20 0xFFFFFFFFFFFFFFFFFFFFFFFFFFFFFFFFFFFFFFFF AND PUSH20 0xFFFFFFFFFFFFFFFFFFFFFFFFFFFFFFFFFFFFFFFF AND DUP2 MSTORE PUSH1 0x20 ADD SWAP1 DUP2 MSTORE PUSH1 0x20 ADD PUSH1 0x0 KECCAK256 DUP2 SWAP1 SSTORE POP DUP3 PUSH20 0xFFFFFFFFFFFFFFFFFFFFFFFFFFFFFFFFFFFFFFFF AND PUSH4 0x95EA7B3 DUP4 DUP4 PUSH1 0x40 MLOAD DUP4 PUSH4 0xFFFFFFFF AND PUSH1 0xE0 SHL DUP2 MSTORE PUSH1 0x4 ADD PUSH2 0x1F29 SWAP3 SWAP2 SWAP1 PUSH2 0x2E56 JUMP JUMPDEST PUSH1 0x20 PUSH1 0x40 MLOAD DUP1 DUP4 SUB DUP2 PUSH1 0x0 DUP8 GAS CALL ISZERO DUP1 ISZERO PUSH2 0x1F48 JUMPI RETURNDATASIZE PUSH1 0x0 DUP1 RETURNDATACOPY RETURNDATASIZE PUSH1 0x0 REVERT JUMPDEST POP POP POP POP PUSH1 0x40 MLOAD RETURNDATASIZE PUSH1 0x1F NOT PUSH1 0x1F DUP3 ADD AND DUP3 ADD DUP1 PUSH1 0x40 MSTORE POP DUP2 ADD SWAP1 PUSH2 0x1F6C SWAP2 SWAP1 PUSH2 0x2B68 JUMP JUMPDEST POP POP POP POP JUMP JUMPDEST PUSH32 0x0 DUP2 JUMP JUMPDEST PUSH1 0x0 DUP1 PUSH20 0x639FE6AB55C921F74E7FAC1EE960C0B6293BA612 PUSH20 0xFFFFFFFFFFFFFFFFFFFFFFFFFFFFFFFFFFFFFFFF AND PUSH4 0xFEAF968C PUSH1 0x40 MLOAD DUP2 PUSH4 0xFFFFFFFF AND PUSH1 0xE0 SHL DUP2 MSTORE PUSH1 0x4 ADD PUSH1 0xA0 PUSH1 0x40 MLOAD DUP1 DUP4 SUB DUP2 DUP7 GAS STATICCALL ISZERO DUP1 ISZERO PUSH2 0x1FF8 JUMPI RETURNDATASIZE PUSH1 0x0 DUP1 RETURNDATACOPY RETURNDATASIZE PUSH1 0x0 REVERT JUMPDEST POP POP POP POP PUSH1 0x40 MLOAD RETURNDATASIZE PUSH1 0x1F NOT PUSH1 0x1F DUP3 ADD AND DUP3 ADD DUP1 PUSH1 0x40 MSTORE POP DUP2 ADD SWAP1 PUSH2 0x201C SWAP2 SWAP1 PUSH2 0x2EED JUMP JUMPDEST POP POP POP SWAP2 POP POP DUP1 SWAP2 POP POP SWAP1 JUMP JUMPDEST PUSH1 0x60 DUP4 DUP4 DUP4 PUSH1 0x40 MLOAD PUSH1 0x20 ADD PUSH2 0x2040 SWAP4 SWAP3 SWAP2 SWAP1 PUSH2 0x29DC JUMP JUMPDEST PUSH1 0x40 MLOAD PUSH1 0x20 DUP2 DUP4 SUB SUB DUP2 MSTORE SWAP1 PUSH1 0x40 MSTORE SWAP1 POP SWAP4 SWAP3 POP POP POP JUMP JUMPDEST PUSH1 0x0 TIMESTAMP SWAP1 POP SWAP1 JUMP JUMPDEST PUSH32 0x0 PUSH20 0xFFFFFFFFFFFFFFFFFFFFFFFFFFFFFFFFFFFFFFFF AND PUSH4 0xC04B8D59 DUP3 PUSH1 0x40 MLOAD DUP3 PUSH4 0xFFFFFFFF AND PUSH1 0xE0 SHL DUP2 MSTORE PUSH1 0x4 ADD PUSH2 0x20B9 SWAP2 SWAP1 PUSH2 0x3046 JUMP JUMPDEST PUSH1 0x20 PUSH1 0x40 MLOAD DUP1 DUP4 SUB DUP2 PUSH1 0x0 DUP8 GAS CALL ISZERO DUP1 ISZERO PUSH2 0x20D8 JUMPI RETURNDATASIZE PUSH1 0x0 DUP1 RETURNDATACOPY RETURNDATASIZE PUSH1 0x0 REVERT JUMPDEST POP POP POP POP PUSH1 0x40 MLOAD RETURNDATASIZE PUSH1 0x1F NOT PUSH1 0x1F DUP3 ADD AND DUP3 ADD DUP1 PUSH1 0x40 MSTORE POP DUP2 ADD SWAP1 PUSH2 0x20FC SWAP2 SWAP1 PUSH2 0x2931 JUMP JUMPDEST POP POP JUMP JUMPDEST PUSH32 0x0 PUSH20 0xFFFFFFFFFFFFFFFFFFFFFFFFFFFFFFFFFFFFFFFF AND PUSH4 0xC04B8D59 DUP3 PUSH1 0x40 MLOAD DUP3 PUSH4 0xFFFFFFFF AND PUSH1 0xE0 SHL DUP2 MSTORE PUSH1 0x4 ADD PUSH2 0x2159 SWAP2 SWAP1 PUSH2 0x3046 JUMP JUMPDEST PUSH1 0x20 PUSH1 0x40 MLOAD DUP1 DUP4 SUB DUP2 PUSH1 0x0 DUP8 GAS CALL ISZERO DUP1 ISZERO PUSH2 0x2178 JUMPI RETURNDATASIZE PUSH1 0x0 DUP1 RETURNDATACOPY RETURNDATASIZE PUSH1 0x0 REVERT JUMPDEST POP POP POP POP PUSH1 0x40 MLOAD RETURNDATASIZE PUSH1 0x1F NOT PUSH1 0x1F DUP3 ADD AND DUP3 ADD DUP1 PUSH1 0x40 MSTORE POP DUP2 ADD SWAP1 PUSH2 0x219C SWAP2 SWAP1 PUSH2 0x2931 JUMP JUMPDEST POP POP JUMP JUMPDEST PUSH32 0x0 PUSH20 0xFFFFFFFFFFFFFFFFFFFFFFFFFFFFFFFFFFFFFFFF AND PUSH4 0xC04B8D59 DUP3 PUSH1 0x40 MLOAD DUP3 PUSH4 0xFFFFFFFF AND PUSH1 0xE0 SHL DUP2 MSTORE PUSH1 0x4 ADD PUSH2 0x21F9 SWAP2 SWAP1 PUSH2 0x3046 JUMP JUMPDEST PUSH1 0x20 PUSH1 0x40 MLOAD DUP1 DUP4 SUB DUP2 PUSH1 0x0 DUP8 GAS CALL ISZERO DUP1 ISZERO PUSH2 0x2218 JUMPI RETURNDATASIZE PUSH1 0x0 DUP1 RETURNDATACOPY RETURNDATASIZE PUSH1 0x0 REVERT JUMPDEST POP POP POP POP PUSH1 0x40 MLOAD RETURNDATASIZE PUSH1 0x1F NOT PUSH1 0x1F DUP3 ADD AND DUP3 ADD DUP1 PUSH1 0x40 MSTORE POP DUP2 ADD SWAP1 PUSH2 0x223C SWAP2 SWAP1 PUSH2 0x2931 JUMP JUMPDEST POP POP JUMP JUMPDEST PUSH1 0x0 PUSH1 0x40 MLOAD SWAP1 POP SWAP1 JUMP JUMPDEST PUSH1 0x0 DUP1 REVERT JUMPDEST PUSH1 0x0 DUP1 REVERT JUMPDEST PUSH1 0x0 DUP1 REVERT JUMPDEST PUSH1 0x0 PUSH1 0x1F NOT PUSH1 0x1F DUP4 ADD AND SWAP1 POP SWAP2 SWAP1 POP JUMP JUMPDEST PUSH32 0x4E487B7100000000000000000000000000000000000000000000000000000000 PUSH1 0x0 MSTORE PUSH1 0x41 PUSH1 0x4 MSTORE PUSH1 0x24 PUSH1 0x0 REVERT JUMPDEST PUSH2 0x22A2 DUP3 PUSH2 0x2259 JUMP JUMPDEST DUP2 ADD DUP2 DUP2 LT PUSH8 0xFFFFFFFFFFFFFFFF DUP3 GT OR ISZERO PUSH2 0x22C1 JUMPI PUSH2 0x22C0 PUSH2 0x226A JUMP JUMPDEST JUMPDEST DUP1 PUSH1 0x40 MSTORE POP POP POP JUMP JUMPDEST PUSH1 0x0 PUSH2 0x22D4 PUSH2 0x2240 JUMP JUMPDEST SWAP1 POP PUSH2 0x22E0 DUP3 DUP3 PUSH2 0x2299 JUMP JUMPDEST SWAP2 SWAP1 POP JUMP JUMPDEST PUSH1 0x0 DUP1 REVERT JUMPDEST PUSH1 0x0 DUP1 REVERT JUMPDEST PUSH1 0x0 DUP1 REVERT JUMPDEST PUSH1 0x0 PUSH8 0xFFFFFFFFFFFFFFFF DUP3 GT ISZERO PUSH2 0x230F JUMPI PUSH2 0x230E PUSH2 0x226A JUMP JUMPDEST JUMPDEST PUSH2 0x2318 DUP3 PUSH2 0x2259 JUMP JUMPDEST SWAP1 POP PUSH1 0x20 DUP2 ADD SWAP1 POP SWAP2 SWAP1 POP JUMP JUMPDEST DUP3 DUP2 DUP4 CALLDATACOPY PUSH1 0x0 DUP4 DUP4 ADD MSTORE POP POP POP JUMP JUMPDEST PUSH1 0x0 PUSH2 0x2347 PUSH2 0x2342 DUP5 PUSH2 0x22F4 JUMP JUMPDEST PUSH2 0x22CA JUMP JUMPDEST SWAP1 POP DUP3 DUP2 MSTORE PUSH1 0x20 DUP2 ADD DUP5 DUP5 DUP5 ADD GT ISZERO PUSH2 0x2363 JUMPI PUSH2 0x2362 PUSH2 0x22EF JUMP JUMPDEST JUMPDEST PUSH2 0x236E DUP5 DUP3 DUP6 PUSH2 0x2325 JUMP JUMPDEST POP SWAP4 SWAP3 POP POP POP JUMP JUMPDEST PUSH1 0x0 DUP3 PUSH1 0x1F DUP4 ADD SLT PUSH2 0x238B JUMPI PUSH2 0x238A PUSH2 0x22EA JUMP JUMPDEST JUMPDEST DUP2 CALLDATALOAD PUSH2 0x239B DUP5 DUP3 PUSH1 0x20 DUP7 ADD PUSH2 0x2334 JUMP JUMPDEST SWAP2 POP POP SWAP3 SWAP2 POP POP JUMP JUMPDEST PUSH1 0x0 PUSH20 0xFFFFFFFFFFFFFFFFFFFFFFFFFFFFFFFFFFFFFFFF DUP3 AND SWAP1 POP SWAP2 SWAP1 POP JUMP JUMPDEST PUSH1 0x0 PUSH2 0x23CF DUP3 PUSH2 0x23A4 JUMP JUMPDEST SWAP1 POP SWAP2 SWAP1 POP JUMP JUMPDEST PUSH2 0x23DF DUP2 PUSH2 0x23C4 JUMP JUMPDEST DUP2 EQ PUSH2 0x23EA JUMPI PUSH1 0x0 DUP1 REVERT JUMPDEST POP JUMP JUMPDEST PUSH1 0x0 DUP2 CALLDATALOAD SWAP1 POP PUSH2 0x23FC DUP2 PUSH2 0x23D6 JUMP JUMPDEST SWAP3 SWAP2 POP POP JUMP JUMPDEST PUSH1 0x0 DUP2 SWAP1 POP SWAP2 SWAP1 POP JUMP JUMPDEST PUSH2 0x2415 DUP2 PUSH2 0x2402 JUMP JUMPDEST DUP2 EQ PUSH2 0x2420 JUMPI PUSH1 0x0 DUP1 REVERT JUMPDEST POP JUMP JUMPDEST PUSH1 0x0 DUP2 CALLDATALOAD SWAP1 POP PUSH2 0x2432 DUP2 PUSH2 0x240C JUMP JUMPDEST SWAP3 SWAP2 POP POP JUMP JUMPDEST PUSH1 0x0 PUSH1 0xA0 DUP3 DUP5 SUB SLT ISZERO PUSH2 0x244E JUMPI PUSH2 0x244D PUSH2 0x2254 JUMP JUMPDEST JUMPDEST PUSH2 0x2458 PUSH1 0xA0 PUSH2 0x22CA JUMP JUMPDEST SWAP1 POP PUSH1 0x0 DUP3 ADD CALLDATALOAD PUSH8 0xFFFFFFFFFFFFFFFF DUP2 GT ISZERO PUSH2 0x2478 JUMPI PUSH2 0x2477 PUSH2 0x22E5 JUMP JUMPDEST JUMPDEST PUSH2 0x2484 DUP5 DUP3 DUP6 ADD PUSH2 0x2376 JUMP JUMPDEST PUSH1 0x0 DUP4 ADD MSTORE POP PUSH1 0x20 PUSH2 0x2498 DUP5 DUP3 DUP6 ADD PUSH2 0x23ED JUMP JUMPDEST PUSH1 0x20 DUP4 ADD MSTORE POP PUSH1 0x40 PUSH2 0x24AC DUP5 DUP3 DUP6 ADD PUSH2 0x2423 JUMP JUMPDEST PUSH1 0x40 DUP4 ADD MSTORE POP PUSH1 0x60 PUSH2 0x24C0 DUP5 DUP3 DUP6 ADD PUSH2 0x2423 JUMP JUMPDEST PUSH1 0x60 DUP4 ADD MSTORE POP PUSH1 0x80 PUSH2 0x24D4 DUP5 DUP3 DUP6 ADD PUSH2 0x2423 JUMP JUMPDEST PUSH1 0x80 DUP4 ADD MSTORE POP SWAP3 SWAP2 POP POP JUMP JUMPDEST PUSH1 0x0 DUP1 PUSH1 0x40 DUP4 DUP6 SUB SLT ISZERO PUSH2 0x24F7 JUMPI PUSH2 0x24F6 PUSH2 0x224A JUMP JUMPDEST JUMPDEST PUSH1 0x0 DUP4 ADD CALLDATALOAD PUSH8 0xFFFFFFFFFFFFFFFF DUP2 GT ISZERO PUSH2 0x2515 JUMPI PUSH2 0x2514 PUSH2 0x224F JUMP JUMPDEST JUMPDEST PUSH2 0x2521 DUP6 DUP3 DUP7 ADD PUSH2 0x2438 JUMP JUMPDEST SWAP3 POP POP PUSH1 0x20 PUSH2 0x2532 DUP6 DUP3 DUP7 ADD PUSH2 0x2423 JUMP JUMPDEST SWAP2 POP POP SWAP3 POP SWAP3 SWAP1 POP JUMP JUMPDEST PUSH1 0x0 DUP2 SWAP1 POP SWAP2 SWAP1 POP JUMP JUMPDEST PUSH1 0x0 PUSH2 0x2561 PUSH2 0x255C PUSH2 0x2557 DUP5 PUSH2 0x23A4 JUMP JUMPDEST PUSH2 0x253C JUMP JUMPDEST PUSH2 0x23A4 JUMP JUMPDEST SWAP1 POP SWAP2 SWAP1 POP JUMP JUMPDEST PUSH1 0x0 PUSH2 0x2573 DUP3 PUSH2 0x2546 JUMP JUMPDEST SWAP1 POP SWAP2 SWAP1 POP JUMP JUMPDEST PUSH1 0x0 PUSH2 0x2585 DUP3 PUSH2 0x2568 JUMP JUMPDEST SWAP1 POP SWAP2 SWAP1 POP JUMP JUMPDEST PUSH2 0x2595 DUP2 PUSH2 0x257A JUMP JUMPDEST DUP3 MSTORE POP POP JUMP JUMPDEST PUSH1 0x0 PUSH1 0x20 DUP3 ADD SWAP1 POP PUSH2 0x25B0 PUSH1 0x0 DUP4 ADD DUP5 PUSH2 0x258C JUMP JUMPDEST SWAP3 SWAP2 POP POP JUMP JUMPDEST PUSH1 0x0 DUP1 PUSH1 0x40 DUP4 DUP6 SUB SLT ISZERO PUSH2 0x25CD JUMPI PUSH2 0x25CC PUSH2 0x224A JUMP JUMPDEST JUMPDEST PUSH1 0x0 PUSH2 0x25DB DUP6 DUP3 DUP7 ADD PUSH2 0x23ED JUMP JUMPDEST SWAP3 POP POP PUSH1 0x20 PUSH2 0x25EC DUP6 DUP3 DUP7 ADD PUSH2 0x2423 JUMP JUMPDEST SWAP2 POP POP SWAP3 POP SWAP3 SWAP1 POP JUMP JUMPDEST PUSH1 0x0 PUSH1 0x20 DUP3 DUP5 SUB SLT ISZERO PUSH2 0x260C JUMPI PUSH2 0x260B PUSH2 0x224A JUMP JUMPDEST JUMPDEST PUSH1 0x0 PUSH2 0x261A DUP5 DUP3 DUP6 ADD PUSH2 0x23ED JUMP JUMPDEST SWAP2 POP POP SWAP3 SWAP2 POP POP JUMP JUMPDEST PUSH1 0x0 DUP1 PUSH1 0x40 DUP4 DUP6 SUB SLT ISZERO PUSH2 0x263A JUMPI PUSH2 0x2639 PUSH2 0x224A JUMP JUMPDEST JUMPDEST PUSH1 0x0 PUSH2 0x2648 DUP6 DUP3 DUP7 ADD PUSH2 0x23ED JUMP JUMPDEST SWAP3 POP POP PUSH1 0x20 PUSH2 0x2659 DUP6 DUP3 DUP7 ADD PUSH2 0x23ED JUMP JUMPDEST SWAP2 POP POP SWAP3 POP SWAP3 SWAP1 POP JUMP JUMPDEST PUSH2 0x266C DUP2 PUSH2 0x2402 JUMP JUMPDEST DUP3 MSTORE POP POP JUMP JUMPDEST PUSH1 0x0 PUSH1 0x20 DUP3 ADD SWAP1 POP PUSH2 0x2687 PUSH1 0x0 DUP4 ADD DUP5 PUSH2 0x2663 JUMP JUMPDEST SWAP3 SWAP2 POP POP JUMP JUMPDEST PUSH2 0x2696 DUP2 PUSH2 0x23A4 JUMP JUMPDEST DUP3 MSTORE POP POP JUMP JUMPDEST PUSH1 0x0 PUSH1 0x20 DUP3 ADD SWAP1 POP PUSH2 0x26B1 PUSH1 0x0 DUP4 ADD DUP5 PUSH2 0x268D JUMP JUMPDEST SWAP3 SWAP2 POP POP JUMP JUMPDEST PUSH2 0x26C0 DUP2 PUSH2 0x23C4 JUMP JUMPDEST DUP3 MSTORE POP POP JUMP JUMPDEST PUSH1 0x0 PUSH1 0x20 DUP3 ADD SWAP1 POP PUSH2 0x26DB PUSH1 0x0 DUP4 ADD DUP5 PUSH2 0x26B7 JUMP JUMPDEST SWAP3 SWAP2 POP POP JUMP JUMPDEST PUSH1 0x0 PUSH1 0x20 DUP3 DUP5 SUB SLT ISZERO PUSH2 0x26F7 JUMPI PUSH2 0x26F6 PUSH2 0x224A JUMP JUMPDEST JUMPDEST PUSH1 0x0 DUP3 ADD CALLDATALOAD PUSH8 0xFFFFFFFFFFFFFFFF DUP2 GT ISZERO PUSH2 0x2715 JUMPI PUSH2 0x2714 PUSH2 0x224F JUMP JUMPDEST JUMPDEST PUSH2 0x2721 DUP5 DUP3 DUP6 ADD PUSH2 0x2438 JUMP JUMPDEST SWAP2 POP POP SWAP3 SWAP2 POP POP JUMP JUMPDEST PUSH1 0x0 DUP1 PUSH1 0x0 PUSH1 0x60 DUP5 DUP7 SUB SLT ISZERO PUSH2 0x2743 JUMPI PUSH2 0x2742 PUSH2 0x224A JUMP JUMPDEST JUMPDEST PUSH1 0x0 PUSH2 0x2751 DUP7 DUP3 DUP8 ADD PUSH2 0x23ED JUMP JUMPDEST SWAP4 POP POP PUSH1 0x20 PUSH2 0x2762 DUP7 DUP3 DUP8 ADD PUSH2 0x23ED JUMP JUMPDEST SWAP3 POP POP PUSH1 0x40 PUSH2 0x2773 DUP7 DUP3 DUP8 ADD PUSH2 0x2423 JUMP JUMPDEST SWAP2 POP POP SWAP3 POP SWAP3 POP SWAP3 JUMP JUMPDEST PUSH1 0x0 PUSH2 0x2788 DUP3 PUSH2 0x2568 JUMP JUMPDEST SWAP1 POP SWAP2 SWAP1 POP JUMP JUMPDEST PUSH2 0x2798 DUP2 PUSH2 0x277D JUMP JUMPDEST DUP3 MSTORE POP POP JUMP JUMPDEST PUSH1 0x0 PUSH1 0x20 DUP3 ADD SWAP1 POP PUSH2 0x27B3 PUSH1 0x0 DUP4 ADD DUP5 PUSH2 0x278F JUMP JUMPDEST SWAP3 SWAP2 POP POP JUMP JUMPDEST PUSH1 0x0 DUP2 SWAP1 POP SWAP2 SWAP1 POP JUMP JUMPDEST PUSH2 0x27CC DUP2 PUSH2 0x27B9 JUMP JUMPDEST DUP3 MSTORE POP POP JUMP JUMPDEST PUSH1 0x0 PUSH1 0x20 DUP3 ADD SWAP1 POP PUSH2 0x27E7 PUSH1 0x0 DUP4 ADD DUP5 PUSH2 0x27C3 JUMP JUMPDEST SWAP3 SWAP2 POP POP JUMP JUMPDEST PUSH1 0x0 PUSH3 0xFFFFFF DUP3 AND SWAP1 POP SWAP2 SWAP1 POP JUMP JUMPDEST PUSH2 0x2805 DUP2 PUSH2 0x27ED JUMP JUMPDEST DUP2 EQ PUSH2 0x2810 JUMPI PUSH1 0x0 DUP1 REVERT JUMPDEST POP JUMP JUMPDEST PUSH1 0x0 DUP2 CALLDATALOAD SWAP1 POP PUSH2 0x2822 DUP2 PUSH2 0x27FC JUMP JUMPDEST SWAP3 SWAP2 POP POP JUMP JUMPDEST PUSH1 0x0 DUP1 PUSH1 0x0 PUSH1 0x60 DUP5 DUP7 SUB SLT ISZERO PUSH2 0x2841 JUMPI PUSH2 0x2840 PUSH2 0x224A JUMP JUMPDEST JUMPDEST PUSH1 0x0 PUSH2 0x284F DUP7 DUP3 DUP8 ADD PUSH2 0x23ED JUMP JUMPDEST SWAP4 POP POP PUSH1 0x20 PUSH2 0x2860 DUP7 DUP3 DUP8 ADD PUSH2 0x2813 JUMP JUMPDEST SWAP3 POP POP PUSH1 0x40 PUSH2 0x2871 DUP7 DUP3 DUP8 ADD PUSH2 0x23ED JUMP JUMPDEST SWAP2 POP POP SWAP3 POP SWAP3 POP SWAP3 JUMP JUMPDEST PUSH1 0x0 DUP2 MLOAD SWAP1 POP SWAP2 SWAP1 POP JUMP JUMPDEST PUSH1 0x0 DUP3 DUP3 MSTORE PUSH1 0x20 DUP3 ADD SWAP1 POP SWAP3 SWAP2 POP POP JUMP JUMPDEST PUSH1 0x0 JUMPDEST DUP4 DUP2 LT ISZERO PUSH2 0x28B5 JUMPI DUP1 DUP3 ADD MLOAD DUP2 DUP5 ADD MSTORE PUSH1 0x20 DUP2 ADD SWAP1 POP PUSH2 0x289A JUMP JUMPDEST PUSH1 0x0 DUP5 DUP5 ADD MSTORE POP POP POP POP JUMP JUMPDEST PUSH1 0x0 PUSH2 0x28CC DUP3 PUSH2 0x287B JUMP JUMPDEST PUSH2 0x28D6 DUP2 DUP6 PUSH2 0x2886 JUMP JUMPDEST SWAP4 POP PUSH2 0x28E6 DUP2 DUP6 PUSH1 0x20 DUP7 ADD PUSH2 0x2897 JUMP JUMPDEST PUSH2 0x28EF DUP2 PUSH2 0x2259 JUMP JUMPDEST DUP5 ADD SWAP2 POP POP SWAP3 SWAP2 POP POP JUMP JUMPDEST PUSH1 0x0 PUSH1 0x20 DUP3 ADD SWAP1 POP DUP2 DUP2 SUB PUSH1 0x0 DUP4 ADD MSTORE PUSH2 0x2914 DUP2 DUP5 PUSH2 0x28C1 JUMP JUMPDEST SWAP1 POP SWAP3 SWAP2 POP POP JUMP JUMPDEST PUSH1 0x0 DUP2 MLOAD SWAP1 POP PUSH2 0x292B DUP2 PUSH2 0x240C JUMP JUMPDEST SWAP3 SWAP2 POP POP JUMP JUMPDEST PUSH1 0x0 PUSH1 0x20 DUP3 DUP5 SUB SLT ISZERO PUSH2 0x2947 JUMPI PUSH2 0x2946 PUSH2 0x224A JUMP JUMPDEST JUMPDEST PUSH1 0x0 PUSH2 0x2955 DUP5 DUP3 DUP6 ADD PUSH2 0x291C JUMP JUMPDEST SWAP2 POP POP SWAP3 SWAP2 POP POP JUMP JUMPDEST PUSH1 0x0 DUP2 PUSH1 0x60 SHL SWAP1 POP SWAP2 SWAP1 POP JUMP JUMPDEST PUSH1 0x0 PUSH2 0x2976 DUP3 PUSH2 0x295E JUMP JUMPDEST SWAP1 POP SWAP2 SWAP1 POP JUMP JUMPDEST PUSH1 0x0 PUSH2 0x2988 DUP3 PUSH2 0x296B JUMP JUMPDEST SWAP1 POP SWAP2 SWAP1 POP JUMP JUMPDEST PUSH2 0x29A0 PUSH2 0x299B DUP3 PUSH2 0x23C4 JUMP JUMPDEST PUSH2 0x297D JUMP JUMPDEST DUP3 MSTORE POP POP JUMP JUMPDEST PUSH1 0x0 DUP2 PUSH1 0xE8 SHL SWAP1 POP SWAP2 SWAP1 POP JUMP JUMPDEST PUSH1 0x0 PUSH2 0x29BE DUP3 PUSH2 0x29A6 JUMP JUMPDEST SWAP1 POP SWAP2 SWAP1 POP JUMP JUMPDEST PUSH2 0x29D6 PUSH2 0x29D1 DUP3 PUSH2 0x27ED JUMP JUMPDEST PUSH2 0x29B3 JUMP JUMPDEST DUP3 MSTORE POP POP JUMP JUMPDEST PUSH1 0x0 PUSH2 0x29E8 DUP3 DUP7 PUSH2 0x298F JUMP JUMPDEST PUSH1 0x14 DUP3 ADD SWAP2 POP PUSH2 0x29F8 DUP3 DUP6 PUSH2 0x29C5 JUMP JUMPDEST PUSH1 0x3 DUP3 ADD SWAP2 POP PUSH2 0x2A08 DUP3 DUP5 PUSH2 0x298F JUMP JUMPDEST PUSH1 0x14 DUP3 ADD SWAP2 POP DUP2 SWAP1 POP SWAP5 SWAP4 POP POP POP POP JUMP JUMPDEST PUSH32 0x4E487B7100000000000000000000000000000000000000000000000000000000 PUSH1 0x0 MSTORE PUSH1 0x11 PUSH1 0x4 MSTORE PUSH1 0x24 PUSH1 0x0 REVERT JUMPDEST PUSH1 0x0 PUSH2 0x2A53 DUP3 PUSH2 0x2402 JUMP JUMPDEST SWAP2 POP PUSH2 0x2A5E DUP4 PUSH2 0x2402 JUMP JUMPDEST SWAP3 POP DUP3 DUP3 SUB SWAP1 POP DUP2 DUP2 GT ISZERO PUSH2 0x2A76 JUMPI PUSH2 0x2A75 PUSH2 0x2A19 JUMP JUMPDEST JUMPDEST SWAP3 SWAP2 POP POP JUMP JUMPDEST PUSH1 0x0 DUP3 DUP3 MSTORE PUSH1 0x20 DUP3 ADD SWAP1 POP SWAP3 SWAP2 POP POP JUMP JUMPDEST PUSH32 0x416D6F756E742063616E27742062652030000000000000000000000000000000 PUSH1 0x0 DUP3 ADD MSTORE POP JUMP JUMPDEST PUSH1 0x0 PUSH2 0x2AC3 PUSH1 0x11 DUP4 PUSH2 0x2A7C JUMP JUMPDEST SWAP2 POP PUSH2 0x2ACE DUP3 PUSH2 0x2A8D JUMP JUMPDEST PUSH1 0x20 DUP3 ADD SWAP1 POP SWAP2 SWAP1 POP JUMP JUMPDEST PUSH1 0x0 PUSH1 0x20 DUP3 ADD SWAP1 POP DUP2 DUP2 SUB PUSH1 0x0 DUP4 ADD MSTORE PUSH2 0x2AF2 DUP2 PUSH2 0x2AB6 JUMP JUMPDEST SWAP1 POP SWAP2 SWAP1 POP JUMP JUMPDEST PUSH1 0x0 PUSH1 0x60 DUP3 ADD SWAP1 POP PUSH2 0x2B0E PUSH1 0x0 DUP4 ADD DUP7 PUSH2 0x26B7 JUMP JUMPDEST PUSH2 0x2B1B PUSH1 0x20 DUP4 ADD DUP6 PUSH2 0x26B7 JUMP JUMPDEST PUSH2 0x2B28 PUSH1 0x40 DUP4 ADD DUP5 PUSH2 0x2663 JUMP JUMPDEST SWAP5 SWAP4 POP POP POP POP JUMP JUMPDEST PUSH1 0x0 DUP2 ISZERO ISZERO SWAP1 POP SWAP2 SWAP1 POP JUMP JUMPDEST PUSH2 0x2B45 DUP2 PUSH2 0x2B30 JUMP JUMPDEST DUP2 EQ PUSH2 0x2B50 JUMPI PUSH1 0x0 DUP1 REVERT JUMPDEST POP JUMP JUMPDEST PUSH1 0x0 DUP2 MLOAD SWAP1 POP PUSH2 0x2B62 DUP2 PUSH2 0x2B3C JUMP JUMPDEST SWAP3 SWAP2 POP POP JUMP JUMPDEST PUSH1 0x0 PUSH1 0x20 DUP3 DUP5 SUB SLT ISZERO PUSH2 0x2B7E JUMPI PUSH2 0x2B7D PUSH2 0x224A JUMP JUMPDEST JUMPDEST PUSH1 0x0 PUSH2 0x2B8C DUP5 DUP3 DUP6 ADD PUSH2 0x2B53 JUMP JUMPDEST SWAP2 POP POP SWAP3 SWAP2 POP POP JUMP JUMPDEST PUSH32 0x43616E2774206265206120302061646472657373000000000000000000000000 PUSH1 0x0 DUP3 ADD MSTORE POP JUMP JUMPDEST PUSH1 0x0 PUSH2 0x2BCB PUSH1 0x14 DUP4 PUSH2 0x2A7C JUMP JUMPDEST SWAP2 POP PUSH2 0x2BD6 DUP3 PUSH2 0x2B95 JUMP JUMPDEST PUSH1 0x20 DUP3 ADD SWAP1 POP SWAP2 SWAP1 POP JUMP JUMPDEST PUSH1 0x0 PUSH1 0x20 DUP3 ADD SWAP1 POP DUP2 DUP2 SUB PUSH1 0x0 DUP4 ADD MSTORE PUSH2 0x2BFA DUP2 PUSH2 0x2BBE JUMP JUMPDEST SWAP1 POP SWAP2 SWAP1 POP JUMP JUMPDEST PUSH32 0x43616E2774206265207468697320616464726573730000000000000000000000 PUSH1 0x0 DUP3 ADD MSTORE POP JUMP JUMPDEST PUSH1 0x0 PUSH2 0x2C37 PUSH1 0x15 DUP4 PUSH2 0x2A7C JUMP JUMPDEST SWAP2 POP PUSH2 0x2C42 DUP3 PUSH2 0x2C01 JUMP JUMPDEST PUSH1 0x20 DUP3 ADD SWAP1 POP SWAP2 SWAP1 POP JUMP JUMPDEST PUSH1 0x0 PUSH1 0x20 DUP3 ADD SWAP1 POP DUP2 DUP2 SUB PUSH1 0x0 DUP4 ADD MSTORE PUSH2 0x2C66 DUP2 PUSH2 0x2C2A JUMP JUMPDEST SWAP1 POP SWAP2 SWAP1 POP JUMP JUMPDEST PUSH2 0x2C76 DUP2 PUSH2 0x23A4 JUMP JUMPDEST DUP2 EQ PUSH2 0x2C81 JUMPI PUSH1 0x0 DUP1 REVERT JUMPDEST POP JUMP JUMPDEST PUSH1 0x0 DUP2 MLOAD SWAP1 POP PUSH2 0x2C93 DUP2 PUSH2 0x2C6D JUMP JUMPDEST SWAP3 SWAP2 POP POP JUMP JUMPDEST PUSH1 0x0 DUP2 PUSH1 0x2 SIGNEXTEND SWAP1 POP SWAP2 SWAP1 POP JUMP JUMPDEST PUSH2 0x2CAF DUP2 PUSH2 0x2C99 JUMP JUMPDEST DUP2 EQ PUSH2 0x2CBA JUMPI PUSH1 0x0 DUP1 REVERT JUMPDEST POP JUMP JUMPDEST PUSH1 0x0 DUP2 MLOAD SWAP1 POP PUSH2 0x2CCC DUP2 PUSH2 0x2CA6 JUMP JUMPDEST SWAP3 SWAP2 POP POP JUMP JUMPDEST PUSH1 0x0 PUSH2 0xFFFF DUP3 AND SWAP1 POP SWAP2 SWAP1 POP JUMP JUMPDEST PUSH2 0x2CE9 DUP2 PUSH2 0x2CD2 JUMP JUMPDEST DUP2 EQ PUSH2 0x2CF4 JUMPI PUSH1 0x0 DUP1 REVERT JUMPDEST POP JUMP JUMPDEST PUSH1 0x0 DUP2 MLOAD SWAP1 POP PUSH2 0x2D06 DUP2 PUSH2 0x2CE0 JUMP JUMPDEST SWAP3 SWAP2 POP POP JUMP JUMPDEST PUSH1 0x0 PUSH4 0xFFFFFFFF DUP3 AND SWAP1 POP SWAP2 SWAP1 POP JUMP JUMPDEST PUSH2 0x2D25 DUP2 PUSH2 0x2D0C JUMP JUMPDEST DUP2 EQ PUSH2 0x2D30 JUMPI PUSH1 0x0 DUP1 REVERT JUMPDEST POP JUMP JUMPDEST PUSH1 0x0 DUP2 MLOAD SWAP1 POP PUSH2 0x2D42 DUP2 PUSH2 0x2D1C JUMP JUMPDEST SWAP3 SWAP2 POP POP JUMP JUMPDEST PUSH1 0x0 DUP1 PUSH1 0x0 DUP1 PUSH1 0x0 DUP1 PUSH1 0x0 PUSH1 0xE0 DUP9 DUP11 SUB SLT ISZERO PUSH2 0x2D67 JUMPI PUSH2 0x2D66 PUSH2 0x224A JUMP JUMPDEST JUMPDEST PUSH1 0x0 PUSH2 0x2D75 DUP11 DUP3 DUP12 ADD PUSH2 0x2C84 JUMP JUMPDEST SWAP8 POP POP PUSH1 0x20 PUSH2 0x2D86 DUP11 DUP3 DUP12 ADD PUSH2 0x2CBD JUMP JUMPDEST SWAP7 POP POP PUSH1 0x40 PUSH2 0x2D97 DUP11 DUP3 DUP12 ADD PUSH2 0x2CF7 JUMP JUMPDEST SWAP6 POP POP PUSH1 0x60 PUSH2 0x2DA8 DUP11 DUP3 DUP12 ADD PUSH2 0x2CF7 JUMP JUMPDEST SWAP5 POP POP PUSH1 0x80 PUSH2 0x2DB9 DUP11 DUP3 DUP12 ADD PUSH2 0x2CF7 JUMP JUMPDEST SWAP4 POP POP PUSH1 0xA0 PUSH2 0x2DCA DUP11 DUP3 DUP12 ADD PUSH2 0x2D33 JUMP JUMPDEST SWAP3 POP POP PUSH1 0xC0 PUSH2 0x2DDB DUP11 DUP3 DUP12 ADD PUSH2 0x2B53 JUMP JUMPDEST SWAP2 POP POP SWAP3 SWAP6 SWAP9 SWAP2 SWAP5 SWAP8 POP SWAP3 SWAP6 POP JUMP JUMPDEST PUSH32 0x416D6F756E7420697320686967686572207468616E2062616C616E6365000000 PUSH1 0x0 DUP3 ADD MSTORE POP JUMP JUMPDEST PUSH1 0x0 PUSH2 0x2E20 PUSH1 0x1D DUP4 PUSH2 0x2A7C JUMP JUMPDEST SWAP2 POP PUSH2 0x2E2B DUP3 PUSH2 0x2DEA JUMP JUMPDEST PUSH1 0x20 DUP3 ADD SWAP1 POP SWAP2 SWAP1 POP JUMP JUMPDEST PUSH1 0x0 PUSH1 0x20 DUP3 ADD SWAP1 POP DUP2 DUP2 SUB PUSH1 0x0 DUP4 ADD MSTORE PUSH2 0x2E4F DUP2 PUSH2 0x2E13 JUMP JUMPDEST SWAP1 POP SWAP2 SWAP1 POP JUMP JUMPDEST PUSH1 0x0 PUSH1 0x40 DUP3 ADD SWAP1 POP PUSH2 0x2E6B PUSH1 0x0 DUP4 ADD DUP6 PUSH2 0x26B7 JUMP JUMPDEST PUSH2 0x2E78 PUSH1 0x20 DUP4 ADD DUP5 PUSH2 0x2663 JUMP JUMPDEST SWAP4 SWAP3 POP POP POP JUMP JUMPDEST PUSH1 0x0 PUSH10 0xFFFFFFFFFFFFFFFFFFFF DUP3 AND SWAP1 POP SWAP2 SWAP1 POP JUMP JUMPDEST PUSH2 0x2E9E DUP2 PUSH2 0x2E7F JUMP JUMPDEST DUP2 EQ PUSH2 0x2EA9 JUMPI PUSH1 0x0 DUP1 REVERT JUMPDEST POP JUMP JUMPDEST PUSH1 0x0 DUP2 MLOAD SWAP1 POP PUSH2 0x2EBB DUP2 PUSH2 0x2E95 JUMP JUMPDEST SWAP3 SWAP2 POP POP JUMP JUMPDEST PUSH2 0x2ECA DUP2 PUSH2 0x27B9 JUMP JUMPDEST DUP2 EQ PUSH2 0x2ED5 JUMPI PUSH1 0x0 DUP1 REVERT JUMPDEST POP JUMP JUMPDEST PUSH1 0x0 DUP2 MLOAD SWAP1 POP PUSH2 0x2EE7 DUP2 PUSH2 0x2EC1 JUMP JUMPDEST SWAP3 SWAP2 POP POP JUMP JUMPDEST PUSH1 0x0 DUP1 PUSH1 0x0 DUP1 PUSH1 0x0 PUSH1 0xA0 DUP7 DUP9 SUB SLT ISZERO PUSH2 0x2F09 JUMPI PUSH2 0x2F08 PUSH2 0x224A JUMP JUMPDEST JUMPDEST PUSH1 0x0 PUSH2 0x2F17 DUP9 DUP3 DUP10 ADD PUSH2 0x2EAC JUMP JUMPDEST SWAP6 POP POP PUSH1 0x20 PUSH2 0x2F28 DUP9 DUP3 DUP10 ADD PUSH2 0x2ED8 JUMP JUMPDEST SWAP5 POP POP PUSH1 0x40 PUSH2 0x2F39 DUP9 DUP3 DUP10 ADD PUSH2 0x291C JUMP JUMPDEST SWAP4 POP POP PUSH1 0x60 PUSH2 0x2F4A DUP9 DUP3 DUP10 ADD PUSH2 0x291C JUMP JUMPDEST SWAP3 POP POP PUSH1 0x80 PUSH2 0x2F5B DUP9 DUP3 DUP10 ADD PUSH2 0x2EAC JUMP JUMPDEST SWAP2 POP POP SWAP3 SWAP6 POP SWAP3 SWAP6 SWAP1 SWAP4 POP JUMP JUMPDEST PUSH1 0x0 DUP3 DUP3 MSTORE PUSH1 0x20 DUP3 ADD SWAP1 POP SWAP3 SWAP2 POP POP JUMP JUMPDEST PUSH1 0x0 PUSH2 0x2F84 DUP3 PUSH2 0x287B JUMP JUMPDEST PUSH2 0x2F8E DUP2 DUP6 PUSH2 0x2F68 JUMP JUMPDEST SWAP4 POP PUSH2 0x2F9E DUP2 DUP6 PUSH1 0x20 DUP7 ADD PUSH2 0x2897 JUMP JUMPDEST PUSH2 0x2FA7 DUP2 PUSH2 0x2259 JUMP JUMPDEST DUP5 ADD SWAP2 POP POP SWAP3 SWAP2 POP POP JUMP JUMPDEST PUSH2 0x2FBB DUP2 PUSH2 0x23C4 JUMP JUMPDEST DUP3 MSTORE POP POP JUMP JUMPDEST PUSH2 0x2FCA DUP2 PUSH2 0x2402 JUMP JUMPDEST DUP3 MSTORE POP POP JUMP JUMPDEST PUSH1 0x0 PUSH1 0xA0 DUP4 ADD PUSH1 0x0 DUP4 ADD MLOAD DUP5 DUP3 SUB PUSH1 0x0 DUP7 ADD MSTORE PUSH2 0x2FED DUP3 DUP3 PUSH2 0x2F79 JUMP JUMPDEST SWAP2 POP POP PUSH1 0x20 DUP4 ADD MLOAD PUSH2 0x3002 PUSH1 0x20 DUP7 ADD DUP3 PUSH2 0x2FB2 JUMP JUMPDEST POP PUSH1 0x40 DUP4 ADD MLOAD PUSH2 0x3015 PUSH1 0x40 DUP7 ADD DUP3 PUSH2 0x2FC1 JUMP JUMPDEST POP PUSH1 0x60 DUP4 ADD MLOAD PUSH2 0x3028 PUSH1 0x60 DUP7 ADD DUP3 PUSH2 0x2FC1 JUMP JUMPDEST POP PUSH1 0x80 DUP4 ADD MLOAD PUSH2 0x303B PUSH1 0x80 DUP7 ADD DUP3 PUSH2 0x2FC1 JUMP JUMPDEST POP DUP1 SWAP2 POP POP SWAP3 SWAP2 POP POP JUMP JUMPDEST PUSH1 0x0 PUSH1 0x20 DUP3 ADD SWAP1 POP DUP2 DUP2 SUB PUSH1 0x0 DUP4 ADD MSTORE PUSH2 0x3060 DUP2 DUP5 PUSH2 0x2FD0 JUMP JUMPDEST SWAP1 POP SWAP3 SWAP2 POP POP JUMP INVALID LOG2 PUSH5 0x6970667358 0x22 SLT KECCAK256 0xB9 0x2A ADD 0xEE 0x22 0xC PUSH2 0x7617 LOG2 ADDRESS 0xA9 0x23 0xCA MUL PUSH11 0x290E550DF88129030FF7D7 GASLIMIT BLOCKHASH 0xEC CALLVALUE LOG1 PUSH5 0x736F6C6343 STOP ADDMOD EQ STOP CALLER "},"methodIdentifiers":{"approveToken(address,address,uint256)":"da3e3397","depositToken(address,uint256)":"338b5dea","pancakeRouterV3()":"e47aaf6d","returnBlockTimestamp()":"f556d1d4","returnETHPrice()":"e8b018b4","returnOwner()":"94a927fe","returnPancakePoolV3Price(address)":"8c94f596","returnPathData(address,uint24,address)":"f1584673","returnTokenApproved(address,address)":"786fb10c","returnTokenBalance(address)":"a119b86e","setTradeExecutor(address)":"5767c659","trade1((bytes,address,uint256,uint256,uint256),uint256)":"05ddad1f","trade2((bytes,address,uint256,uint256,uint256),uint256)":"272a6dd9","trade3((bytes,address,uint256,uint256,uint256))":"96ef4634","trade4((bytes,address,uint256,uint256,uint256))":"c5c5e278","tradeExecutor()":"a7f07011","usdc()":"3e413bee","usdt()":"2f48ab7d","weth()":"3fc8cef3","withdrawToken(address,uint256)":"9e281a98"}}}}}