{"contracts/OptimusPrime.sol":{"OptimusPrime":{"abi":[{"inputs":[{"internalType":"address","name":"_pancakeswapRouterV3","type":"address"}],"stateMutability":"nonpayable","type":"constructor"},{"inputs":[{"internalType":"uint256","name":"finalBalance","type":"uint256"}],"name":"NoProfit","type":"error"},{"inputs":[{"internalType":"address","name":"sender","type":"address"}],"name":"NotTheOwner","type":"error"},{"inputs":[{"internalType":"address","name":"sender","type":"address"}],"name":"NotTheTradeExecutor","type":"error"},{"inputs":[{"internalType":"address","name":"token","type":"address"}],"name":"TokenNotAccepted","type":"error"},{"anonymous":false,"inputs":[{"indexed":false,"internalType":"uint256","name":"_finalBalance","type":"uint256"}],"name":"Profit","type":"event"},{"inputs":[{"internalType":"address","name":"tokenToApprove","type":"address"},{"internalType":"address","name":"spender","type":"address"},{"internalType":"uint256","name":"amount","type":"uint256"}],"name":"approveToken","outputs":[],"stateMutability":"nonpayable","type":"function"},{"inputs":[{"internalType":"address","name":"token","type":"address"},{"internalType":"uint256","name":"amount","type":"uint256"}],"name":"depositToken","outputs":[],"stateMutability":"nonpayable","type":"function"},{"inputs":[],"name":"isLocked","outputs":[{"internalType":"bool","name":"","type":"bool"}],"stateMutability":"view","type":"function"},{"inputs":[],"name":"lock","outputs":[],"stateMutability":"nonpayable","type":"function"},{"inputs":[],"name":"pancakeRouterV3","outputs":[{"internalType":"contract IV3PancakeSwapRouter","name":"","type":"address"}],"stateMutability":"view","type":"function"},{"inputs":[],"name":"returnBlockTimestamp","outputs":[{"internalType":"uint256","name":"","type":"uint256"}],"stateMutability":"view","type":"function"},{"inputs":[{"internalType":"address","name":"tokenA","type":"address"},{"internalType":"uint24","name":"poolFee","type":"uint24"},{"internalType":"address","name":"tokenB","type":"address"}],"name":"returnPathData","outputs":[{"internalType":"bytes","name":"","type":"bytes"}],"stateMutability":"pure","type":"function"},{"inputs":[{"internalType":"address","name":"token","type":"address"},{"internalType":"address","name":"spender","type":"address"}],"name":"returnTokenApproved","outputs":[{"internalType":"uint256","name":"","type":"uint256"}],"stateMutability":"view","type":"function"},{"inputs":[{"internalType":"address","name":"token","type":"address"}],"name":"returnTokenBalance","outputs":[{"internalType":"uint256","name":"","type":"uint256"}],"stateMutability":"view","type":"function"},{"inputs":[{"internalType":"address","name":"_tradeExecutor","type":"address"}],"name":"setTradeExecutor","outputs":[],"stateMutability":"nonpayable","type":"function"},{"inputs":[],"name":"swapUSDCforUSDTnoSlippage","outputs":[],"stateMutability":"nonpayable","type":"function"},{"inputs":[],"name":"swapUSDTforUSDCnoSlippage","outputs":[],"stateMutability":"nonpayable","type":"function"},{"inputs":[{"components":[{"internalType":"bytes","name":"path","type":"bytes"},{"internalType":"address","name":"recipient","type":"address"},{"internalType":"uint256","name":"deadline","type":"uint256"},{"internalType":"uint256","name":"amountIn","type":"uint256"},{"internalType":"uint256","name":"amountOutMinimum","type":"uint256"}],"internalType":"struct IV3PancakeSwapRouter.ExactInputParams","name":"params","type":"tuple"},{"internalType":"uint256","name":"initialAmountIn","type":"uint256"}],"name":"trade1","outputs":[],"stateMutability":"nonpayable","type":"function"},{"inputs":[{"components":[{"internalType":"bytes","name":"path","type":"bytes"},{"internalType":"address","name":"recipient","type":"address"},{"internalType":"uint256","name":"deadline","type":"uint256"},{"internalType":"uint256","name":"amountIn","type":"uint256"},{"internalType":"uint256","name":"amountOutMinimum","type":"uint256"}],"internalType":"struct IV3PancakeSwapRouter.ExactInputParams","name":"params","type":"tuple"},{"internalType":"uint256","name":"initialAmountIn","type":"uint256"}],"name":"trade2","outputs":[],"stateMutability":"nonpayable","type":"function"},{"inputs":[],"name":"tradeExecutor","outputs":[{"internalType":"address","name":"","type":"address"}],"stateMutability":"view","type":"function"},{"inputs":[],"name":"unlock","outputs":[],"stateMutability":"nonpayable","type":"function"},{"inputs":[],"name":"usdc","outputs":[{"internalType":"contract IERC20","name":"","type":"address"}],"stateMutability":"view","type":"function"},{"inputs":[],"name":"usdt","outputs":[{"internalType":"contract IERC20","name":"","type":"address"}],"stateMutability":"view","type":"function"},{"inputs":[],"name":"weth","outputs":[{"internalType":"contract IERC20","name":"","type":"address"}],"stateMutability":"view","type":"function"},{"inputs":[{"internalType":"address","name":"token","type":"address"},{"internalType":"uint256","name":"amount","type":"uint256"}],"name":"withdrawToken","outputs":[],"stateMutability":"nonpayable","type":"function"}],"evm":{"bytecode":{"linkReferences":{},"object":"60c06040523480156200001157600080fd5b50604051620029a0380380620029a0833981810160405281019062000037919062000110565b8073ffffffffffffffffffffffffffffffffffffffff1660a08173ffffffffffffffffffffffffffffffffffffffff16815250503373ffffffffffffffffffffffffffffffffffffffff1660808173ffffffffffffffffffffffffffffffffffffffff16815250505062000142565b600080fd5b600073ffffffffffffffffffffffffffffffffffffffff82169050919050565b6000620000d882620000ab565b9050919050565b620000ea81620000cb565b8114620000f657600080fd5b50565b6000815190506200010a81620000df565b92915050565b600060208284031215620001295762000128620000a6565b5b60006200013984828501620000f9565b91505092915050565b60805160a0516127eb620001b5600039600081816108aa015281816112b3015281816118fc01528181611a5a0152611afa0152600081816106f501528181610cf401528181610f4e015281816110fe015281816113dc0152818161164101528181611767015261195701526127eb6000f3fe608060405234801561001057600080fd5b506004361061012c5760003560e01c80639e281a98116100ad578063da3e339711610071578063da3e3397146102d1578063e47aaf6d146102ed578063f15846731461030b578063f556d1d41461033b578063f83d08ba146103595761012c565b80639e281a981461023f578063a119b86e1461025b578063a4e2d6341461028b578063a69df4b5146102a9578063a7f07011146102b35761012c565b80633e413bee116100f45780633e413bee146101ad5780633fc8cef3146101cb5780635767c659146101e95780637201c6be14610205578063786fb10c1461020f5761012c565b806305ddad1f146101315780630ebaf4581461014d578063272a6dd9146101575780632f48ab7d14610173578063338b5dea14610191575b600080fd5b61014b60048036038101906101469190611e38565b610363565b005b6101556106f3565b005b610171600480360381019061016c9190611e38565b61094a565b005b61017b610cda565b6040516101889190611ef3565b60405180910390f35b6101ab60048036038101906101a69190611f0e565b610cf2565b005b6101b5610f1c565b6040516101c29190611ef3565b60405180910390f35b6101d3610f34565b6040516101e09190611ef3565b60405180910390f35b61020360048036038101906101fe9190611f4e565b610f4c565b005b61020d6110fc565b005b61022960048036038101906102249190611f7b565b611353565b6040516102369190611fca565b60405180910390f35b61025960048036038101906102549190611f0e565b6113da565b005b61027560048036038101906102709190611f4e565b6115a9565b6040516102829190611fca565b60405180910390f35b61029361162c565b6040516102a09190612000565b60405180910390f35b6102b161163f565b005b6102bb611741565b6040516102c8919061202a565b60405180910390f35b6102eb60048036038101906102e69190612045565b611765565b005b6102f56118fa565b60405161030291906120b9565b60405180910390f35b6103256004803603810190610320919061210f565b61191e565b60405161033291906121e1565b60405180910390f35b61034361194d565b6040516103509190611fca565b60405180910390f35b610361611955565b005b60008054906101000a900473ffffffffffffffffffffffffffffffffffffffff1673ffffffffffffffffffffffffffffffffffffffff163373ffffffffffffffffffffffffffffffffffffffff16146103f357336040517f4104d7d70000000000000000000000000000000000000000000000000000000081526004016103ea919061202a565b60405180910390fd5b600073fd086bc7cd5c481dcc9c85ebe478a1c0b69fcbb973ffffffffffffffffffffffffffffffffffffffff166370a08231306040518263ffffffff1660e01b8152600401610442919061202a565b602060405180830381865afa15801561045f573d6000803e3d6000fd5b505050506040513d601f19601f820116820180604052508101906104839190612218565b905061048e83611a58565b60006064905060006040518060a001604052807382af49447d8a07e3bd95bd0d56f35241523fbab18473fd086bc7cd5c481dcc9c85ebe478a1c0b69fcbb96040516020016104de939291906122c3565b60405160208183030381529060405281526020013073ffffffffffffffffffffffffffffffffffffffff1681526020014281526020017382af49447d8a07e3bd95bd0d56f35241523fbab173ffffffffffffffffffffffffffffffffffffffff166370a08231306040518263ffffffff1660e01b8152600401610561919061202a565b602060405180830381865afa15801561057e573d6000803e3d6000fd5b505050506040513d601f19601f820116820180604052508101906105a29190612218565b8152602001600081525090506105b781611af8565b600073fd086bc7cd5c481dcc9c85ebe478a1c0b69fcbb973ffffffffffffffffffffffffffffffffffffffff166370a08231306040518263ffffffff1660e01b8152600401610606919061202a565b602060405180830381865afa158015610623573d6000803e3d6000fd5b505050506040513d601f19601f820116820180604052508101906106479190612218565b9050848482610656919061232f565b11156106a3577f357d905f1831209797df4d55d79c5c5bf1d9f7311c976afd05e13d881eab9bc88482610689919061232f565b6040516106969190611fca565b60405180910390a16106eb565b83816106af919061232f565b6040517fd4989a940000000000000000000000000000000000000000000000000000000081526004016106e29190611fca565b60405180910390fd5b505050505050565b7f000000000000000000000000000000000000000000000000000000000000000073ffffffffffffffffffffffffffffffffffffffff163373ffffffffffffffffffffffffffffffffffffffff161461078357336040517ff9ebb4c700000000000000000000000000000000000000000000000000000000815260040161077a919061202a565b60405180910390fd5b600060649050600073af88d065e77c8cc2239327c5edb3a432268e583173ffffffffffffffffffffffffffffffffffffffff166370a08231306040518263ffffffff1660e01b81526004016107d8919061202a565b602060405180830381865afa1580156107f5573d6000803e3d6000fd5b505050506040513d601f19601f820116820180604052508101906108199190612218565b905060006040518060a0016040528073af88d065e77c8cc2239327c5edb3a432268e58318573fd086bc7cd5c481dcc9c85ebe478a1c0b69fcbb9604051602001610865939291906122c3565b60405160208183030381529060405281526020013073ffffffffffffffffffffffffffffffffffffffff168152602001428152602001838152602001600081525090507f000000000000000000000000000000000000000000000000000000000000000073ffffffffffffffffffffffffffffffffffffffff1663c04b8d59826040518263ffffffff1660e01b81526004016109019190612441565b6020604051808303816000875af1158015610920573d6000803e3d6000fd5b505050506040513d601f19601f820116820180604052508101906109449190612218565b50505050565b60008054906101000a900473ffffffffffffffffffffffffffffffffffffffff1673ffffffffffffffffffffffffffffffffffffffff163373ffffffffffffffffffffffffffffffffffffffff16146109da57336040517f4104d7d70000000000000000000000000000000000000000000000000000000081526004016109d1919061202a565b60405180910390fd5b600073af88d065e77c8cc2239327c5edb3a432268e583173ffffffffffffffffffffffffffffffffffffffff166370a08231306040518263ffffffff1660e01b8152600401610a29919061202a565b602060405180830381865afa158015610a46573d6000803e3d6000fd5b505050506040513d601f19601f82011682018060405250810190610a6a9190612218565b9050610a7583611a58565b60006064905060006040518060a001604052807382af49447d8a07e3bd95bd0d56f35241523fbab18473af88d065e77c8cc2239327c5edb3a432268e5831604051602001610ac5939291906122c3565b60405160208183030381529060405281526020013073ffffffffffffffffffffffffffffffffffffffff1681526020014281526020017382af49447d8a07e3bd95bd0d56f35241523fbab173ffffffffffffffffffffffffffffffffffffffff166370a08231306040518263ffffffff1660e01b8152600401610b48919061202a565b602060405180830381865afa158015610b65573d6000803e3d6000fd5b505050506040513d601f19601f82011682018060405250810190610b899190612218565b815260200160008152509050610b9e81611af8565b600073af88d065e77c8cc2239327c5edb3a432268e583173ffffffffffffffffffffffffffffffffffffffff166370a08231306040518263ffffffff1660e01b8152600401610bed919061202a565b602060405180830381865afa158015610c0a573d6000803e3d6000fd5b505050506040513d601f19601f82011682018060405250810190610c2e9190612218565b9050848482610c3d919061232f565b1115610c8a577f357d905f1831209797df4d55d79c5c5bf1d9f7311c976afd05e13d881eab9bc88482610c70919061232f565b604051610c7d9190611fca565b60405180910390a1610cd2565b8381610c96919061232f565b6040517fd4989a94000000000000000000000000000000000000000000000000000000008152600401610cc99190611fca565b60405180910390fd5b505050505050565b73fd086bc7cd5c481dcc9c85ebe478a1c0b69fcbb981565b7f000000000000000000000000000000000000000000000000000000000000000073ffffffffffffffffffffffffffffffffffffffff163373ffffffffffffffffffffffffffffffffffffffff1614610d8257336040517ff9ebb4c7000000000000000000000000000000000000000000000000000000008152600401610d79919061202a565b60405180910390fd5b73fd086bc7cd5c481dcc9c85ebe478a1c0b69fcbb973ffffffffffffffffffffffffffffffffffffffff168273ffffffffffffffffffffffffffffffffffffffff1614158015610e12575073af88d065e77c8cc2239327c5edb3a432268e583173ffffffffffffffffffffffffffffffffffffffff168273ffffffffffffffffffffffffffffffffffffffff1614155b15610e5457816040517ff01157c3000000000000000000000000000000000000000000000000000000008152600401610e4b919061202a565b60405180910390fd5b60008111610e97576040517f08c379a0000000000000000000000000000000000000000000000000000000008152600401610e8e906124c0565b60405180910390fd5b8173ffffffffffffffffffffffffffffffffffffffff166323b872dd3330846040518463ffffffff1660e01b8152600401610ed4939291906124e0565b6020604051808303816000875af1158015610ef3573d6000803e3d6000fd5b505050506040513d601f19601f82011682018060405250810190610f179190612543565b505050565b73af88d065e77c8cc2239327c5edb3a432268e583181565b7382af49447d8a07e3bd95bd0d56f35241523fbab181565b7f000000000000000000000000000000000000000000000000000000000000000073ffffffffffffffffffffffffffffffffffffffff163373ffffffffffffffffffffffffffffffffffffffff1614610fdc57336040517ff9ebb4c7000000000000000000000000000000000000000000000000000000008152600401610fd3919061202a565b60405180910390fd5b600073ffffffffffffffffffffffffffffffffffffffff168173ffffffffffffffffffffffffffffffffffffffff160361104b576040517f08c379a0000000000000000000000000000000000000000000000000000000008152600401611042906125bc565b60405180910390fd5b3073ffffffffffffffffffffffffffffffffffffffff168173ffffffffffffffffffffffffffffffffffffffff16036110b9576040517f08c379a00000000000000000000000000000000000000000000000000000000081526004016110b090612628565b60405180910390fd5b806000806101000a81548173ffffffffffffffffffffffffffffffffffffffff021916908373ffffffffffffffffffffffffffffffffffffffff16021790555050565b7f000000000000000000000000000000000000000000000000000000000000000073ffffffffffffffffffffffffffffffffffffffff163373ffffffffffffffffffffffffffffffffffffffff161461118c57336040517ff9ebb4c7000000000000000000000000000000000000000000000000000000008152600401611183919061202a565b60405180910390fd5b600060649050600073fd086bc7cd5c481dcc9c85ebe478a1c0b69fcbb973ffffffffffffffffffffffffffffffffffffffff166370a08231306040518263ffffffff1660e01b81526004016111e1919061202a565b602060405180830381865afa1580156111fe573d6000803e3d6000fd5b505050506040513d601f19601f820116820180604052508101906112229190612218565b905060006040518060a0016040528073fd086bc7cd5c481dcc9c85ebe478a1c0b69fcbb98573af88d065e77c8cc2239327c5edb3a432268e583160405160200161126e939291906122c3565b60405160208183030381529060405281526020013073ffffffffffffffffffffffffffffffffffffffff168152602001428152602001838152602001600081525090507f000000000000000000000000000000000000000000000000000000000000000073ffffffffffffffffffffffffffffffffffffffff1663c04b8d59826040518263ffffffff1660e01b815260040161130a9190612441565b6020604051808303816000875af1158015611329573d6000803e3d6000fd5b505050506040513d601f19601f8201168201806040525081019061134d9190612218565b50505050565b6000600160008473ffffffffffffffffffffffffffffffffffffffff1673ffffffffffffffffffffffffffffffffffffffff16815260200190815260200160002060008373ffffffffffffffffffffffffffffffffffffffff1673ffffffffffffffffffffffffffffffffffffffff16815260200190815260200160002054905092915050565b7f000000000000000000000000000000000000000000000000000000000000000073ffffffffffffffffffffffffffffffffffffffff163373ffffffffffffffffffffffffffffffffffffffff161461146a57336040517ff9ebb4c7000000000000000000000000000000000000000000000000000000008152600401611461919061202a565b60405180910390fd5b8173ffffffffffffffffffffffffffffffffffffffff166370a08231306040518263ffffffff1660e01b81526004016114a3919061202a565b602060405180830381865afa1580156114c0573d6000803e3d6000fd5b505050506040513d601f19601f820116820180604052508101906114e49190612218565b811115611526576040517f08c379a000000000000000000000000000000000000000000000000000000000815260040161151d90612694565b60405180910390fd5b8173ffffffffffffffffffffffffffffffffffffffff1663a9059cbb33836040518363ffffffff1660e01b81526004016115619291906126b4565b6020604051808303816000875af1158015611580573d6000803e3d6000fd5b505050506040513d601f19601f820116820180604052508101906115a49190612543565b505050565b60008173ffffffffffffffffffffffffffffffffffffffff166370a08231306040518263ffffffff1660e01b81526004016115e4919061202a565b602060405180830381865afa158015611601573d6000803e3d6000fd5b505050506040513d601f19601f820116820180604052508101906116259190612218565b9050919050565b600060149054906101000a900460ff1681565b7f000000000000000000000000000000000000000000000000000000000000000073ffffffffffffffffffffffffffffffffffffffff163373ffffffffffffffffffffffffffffffffffffffff16146116cf57336040517ff9ebb4c70000000000000000000000000000000000000000000000000000000081526004016116c6919061202a565b60405180910390fd5b60011515600060149054906101000a900460ff16151514611725576040517f08c379a000000000000000000000000000000000000000000000000000000000815260040161171c90612729565b60405180910390fd5b60008060146101000a81548160ff021916908315150217905550565b60008054906101000a900473ffffffffffffffffffffffffffffffffffffffff1681565b7f000000000000000000000000000000000000000000000000000000000000000073ffffffffffffffffffffffffffffffffffffffff163373ffffffffffffffffffffffffffffffffffffffff16146117f557336040517ff9ebb4c70000000000000000000000000000000000000000000000000000000081526004016117ec919061202a565b60405180910390fd5b80600160008573ffffffffffffffffffffffffffffffffffffffff1673ffffffffffffffffffffffffffffffffffffffff16815260200190815260200160002060008473ffffffffffffffffffffffffffffffffffffffff1673ffffffffffffffffffffffffffffffffffffffff168152602001908152602001600020819055508273ffffffffffffffffffffffffffffffffffffffff1663095ea7b383836040518363ffffffff1660e01b81526004016118b19291906126b4565b6020604051808303816000875af11580156118d0573d6000803e3d6000fd5b505050506040513d601f19601f820116820180604052508101906118f49190612543565b50505050565b7f000000000000000000000000000000000000000000000000000000000000000081565b6060838383604051602001611935939291906122c3565b60405160208183030381529060405290509392505050565b600042905090565b7f000000000000000000000000000000000000000000000000000000000000000073ffffffffffffffffffffffffffffffffffffffff163373ffffffffffffffffffffffffffffffffffffffff16146119e557336040517ff9ebb4c70000000000000000000000000000000000000000000000000000000081526004016119dc919061202a565b60405180910390fd5b60001515600060149054906101000a900460ff16151514611a3b576040517f08c379a0000000000000000000000000000000000000000000000000000000008152600401611a3290612795565b60405180910390fd5b6001600060146101000a81548160ff021916908315150217905550565b7f000000000000000000000000000000000000000000000000000000000000000073ffffffffffffffffffffffffffffffffffffffff1663c04b8d59826040518263ffffffff1660e01b8152600401611ab19190612441565b6020604051808303816000875af1158015611ad0573d6000803e3d6000fd5b505050506040513d601f19601f82011682018060405250810190611af49190612218565b5050565b7f000000000000000000000000000000000000000000000000000000000000000073ffffffffffffffffffffffffffffffffffffffff1663c04b8d59826040518263ffffffff1660e01b8152600401611b519190612441565b6020604051808303816000875af1158015611b70573d6000803e3d6000fd5b505050506040513d601f19601f82011682018060405250810190611b949190612218565b5050565b6000604051905090565b600080fd5b600080fd5b600080fd5b6000601f19601f8301169050919050565b7f4e487b7100000000000000000000000000000000000000000000000000000000600052604160045260246000fd5b611bfa82611bb1565b810181811067ffffffffffffffff82111715611c1957611c18611bc2565b5b80604052505050565b6000611c2c611b98565b9050611c388282611bf1565b919050565b600080fd5b600080fd5b600080fd5b600067ffffffffffffffff821115611c6757611c66611bc2565b5b611c7082611bb1565b9050602081019050919050565b82818337600083830152505050565b6000611c9f611c9a84611c4c565b611c22565b905082815260208101848484011115611cbb57611cba611c47565b5b611cc6848285611c7d565b509392505050565b600082601f830112611ce357611ce2611c42565b5b8135611cf3848260208601611c8c565b91505092915050565b600073ffffffffffffffffffffffffffffffffffffffff82169050919050565b6000611d2782611cfc565b9050919050565b611d3781611d1c565b8114611d4257600080fd5b50565b600081359050611d5481611d2e565b92915050565b6000819050919050565b611d6d81611d5a565b8114611d7857600080fd5b50565b600081359050611d8a81611d64565b92915050565b600060a08284031215611da657611da5611bac565b5b611db060a0611c22565b9050600082013567ffffffffffffffff811115611dd057611dcf611c3d565b5b611ddc84828501611cce565b6000830152506020611df084828501611d45565b6020830152506040611e0484828501611d7b565b6040830152506060611e1884828501611d7b565b6060830152506080611e2c84828501611d7b565b60808301525092915050565b60008060408385031215611e4f57611e4e611ba2565b5b600083013567ffffffffffffffff811115611e6d57611e6c611ba7565b5b611e7985828601611d90565b9250506020611e8a85828601611d7b565b9150509250929050565b6000819050919050565b6000611eb9611eb4611eaf84611cfc565b611e94565b611cfc565b9050919050565b6000611ecb82611e9e565b9050919050565b6000611edd82611ec0565b9050919050565b611eed81611ed2565b82525050565b6000602082019050611f086000830184611ee4565b92915050565b60008060408385031215611f2557611f24611ba2565b5b6000611f3385828601611d45565b9250506020611f4485828601611d7b565b9150509250929050565b600060208284031215611f6457611f63611ba2565b5b6000611f7284828501611d45565b91505092915050565b60008060408385031215611f9257611f91611ba2565b5b6000611fa085828601611d45565b9250506020611fb185828601611d45565b9150509250929050565b611fc481611d5a565b82525050565b6000602082019050611fdf6000830184611fbb565b92915050565b60008115159050919050565b611ffa81611fe5565b82525050565b60006020820190506120156000830184611ff1565b92915050565b61202481611d1c565b82525050565b600060208201905061203f600083018461201b565b92915050565b60008060006060848603121561205e5761205d611ba2565b5b600061206c86828701611d45565b935050602061207d86828701611d45565b925050604061208e86828701611d7b565b9150509250925092565b60006120a382611ec0565b9050919050565b6120b381612098565b82525050565b60006020820190506120ce60008301846120aa565b92915050565b600062ffffff82169050919050565b6120ec816120d4565b81146120f757600080fd5b50565b600081359050612109816120e3565b92915050565b60008060006060848603121561212857612127611ba2565b5b600061213686828701611d45565b9350506020612147868287016120fa565b925050604061215886828701611d45565b9150509250925092565b600081519050919050565b600082825260208201905092915050565b60005b8381101561219c578082015181840152602081019050612181565b60008484015250505050565b60006121b382612162565b6121bd818561216d565b93506121cd81856020860161217e565b6121d681611bb1565b840191505092915050565b600060208201905081810360008301526121fb81846121a8565b905092915050565b60008151905061221281611d64565b92915050565b60006020828403121561222e5761222d611ba2565b5b600061223c84828501612203565b91505092915050565b60008160601b9050919050565b600061225d82612245565b9050919050565b600061226f82612252565b9050919050565b61228761228282611d1c565b612264565b82525050565b60008160e81b9050919050565b60006122a58261228d565b9050919050565b6122bd6122b8826120d4565b61229a565b82525050565b60006122cf8286612276565b6014820191506122df82856122ac565b6003820191506122ef8284612276565b601482019150819050949350505050565b7f4e487b7100000000000000000000000000000000000000000000000000000000600052601160045260246000fd5b600061233a82611d5a565b915061234583611d5a565b925082820390508181111561235d5761235c612300565b5b92915050565b600082825260208201905092915050565b600061237f82612162565b6123898185612363565b935061239981856020860161217e565b6123a281611bb1565b840191505092915050565b6123b681611d1c565b82525050565b6123c581611d5a565b82525050565b600060a08301600083015184820360008601526123e88282612374565b91505060208301516123fd60208601826123ad565b50604083015161241060408601826123bc565b50606083015161242360608601826123bc565b50608083015161243660808601826123bc565b508091505092915050565b6000602082019050818103600083015261245b81846123cb565b905092915050565b600082825260208201905092915050565b7f416d6f756e742063616e27742062652030000000000000000000000000000000600082015250565b60006124aa601183612463565b91506124b582612474565b602082019050919050565b600060208201905081810360008301526124d98161249d565b9050919050565b60006060820190506124f5600083018661201b565b612502602083018561201b565b61250f6040830184611fbb565b949350505050565b61252081611fe5565b811461252b57600080fd5b50565b60008151905061253d81612517565b92915050565b60006020828403121561255957612558611ba2565b5b60006125678482850161252e565b91505092915050565b7f43616e2774206265206120302061646472657373000000000000000000000000600082015250565b60006125a6601483612463565b91506125b182612570565b602082019050919050565b600060208201905081810360008301526125d581612599565b9050919050565b7f43616e2774206265207468697320616464726573730000000000000000000000600082015250565b6000612612601583612463565b915061261d826125dc565b602082019050919050565b6000602082019050818103600083015261264181612605565b9050919050565b7f416d6f756e7420697320686967686572207468616e2062616c616e6365000000600082015250565b600061267e601d83612463565b915061268982612648565b602082019050919050565b600060208201905081810360008301526126ad81612671565b9050919050565b60006040820190506126c9600083018561201b565b6126d66020830184611fbb565b9392505050565b7f4e6f74206c6f636b656400000000000000000000000000000000000000000000600082015250565b6000612713600a83612463565b915061271e826126dd565b602082019050919050565b6000602082019050818103600083015261274281612706565b9050919050565b7f416c7265616479206c6f636b6564000000000000000000000000000000000000600082015250565b600061277f600e83612463565b915061278a82612749565b602082019050919050565b600060208201905081810360008301526127ae81612772565b905091905056fea264697066735822122043e757821d64e8060e4f67f64856bd57352902d2428b619bc6cf0043c01c696864736f6c63430008140033","opcodes":"PUSH1 0xC0 PUSH1 0x40 MSTORE CALLVALUE DUP1 ISZERO PUSH3 0x11 JUMPI PUSH1 0x0 DUP1 REVERT JUMPDEST POP PUSH1 0x40 MLOAD PUSH3 0x29A0 CODESIZE SUB DUP1 PUSH3 0x29A0 DUP4 CODECOPY DUP2 DUP2 ADD PUSH1 0x40 MSTORE DUP2 ADD SWAP1 PUSH3 0x37 SWAP2 SWAP1 PUSH3 0x110 JUMP JUMPDEST DUP1 PUSH20 0xFFFFFFFFFFFFFFFFFFFFFFFFFFFFFFFFFFFFFFFF AND PUSH1 0xA0 DUP2 PUSH20 0xFFFFFFFFFFFFFFFFFFFFFFFFFFFFFFFFFFFFFFFF AND DUP2 MSTORE POP POP CALLER PUSH20 0xFFFFFFFFFFFFFFFFFFFFFFFFFFFFFFFFFFFFFFFF AND PUSH1 0x80 DUP2 PUSH20 0xFFFFFFFFFFFFFFFFFFFFFFFFFFFFFFFFFFFFFFFF AND DUP2 MSTORE POP POP POP PUSH3 0x142 JUMP JUMPDEST PUSH1 0x0 DUP1 REVERT JUMPDEST PUSH1 0x0 PUSH20 0xFFFFFFFFFFFFFFFFFFFFFFFFFFFFFFFFFFFFFFFF DUP3 AND SWAP1 POP SWAP2 SWAP1 POP JUMP JUMPDEST PUSH1 0x0 PUSH3 0xD8 DUP3 PUSH3 0xAB JUMP JUMPDEST SWAP1 POP SWAP2 SWAP1 POP JUMP JUMPDEST PUSH3 0xEA DUP2 PUSH3 0xCB JUMP JUMPDEST DUP2 EQ PUSH3 0xF6 JUMPI PUSH1 0x0 DUP1 REVERT JUMPDEST POP JUMP JUMPDEST PUSH1 0x0 DUP2 MLOAD SWAP1 POP PUSH3 0x10A DUP2 PUSH3 0xDF JUMP JUMPDEST SWAP3 SWAP2 POP POP JUMP JUMPDEST PUSH1 0x0 PUSH1 0x20 DUP3 DUP5 SUB SLT ISZERO PUSH3 0x129 JUMPI PUSH3 0x128 PUSH3 0xA6 JUMP JUMPDEST JUMPDEST PUSH1 0x0 PUSH3 0x139 DUP5 DUP3 DUP6 ADD PUSH3 0xF9 JUMP JUMPDEST SWAP2 POP POP SWAP3 SWAP2 POP POP JUMP JUMPDEST PUSH1 0x80 MLOAD PUSH1 0xA0 MLOAD PUSH2 0x27EB PUSH3 0x1B5 PUSH1 0x0 CODECOPY PUSH1 0x0 DUP2 DUP2 PUSH2 0x8AA ADD MSTORE DUP2 DUP2 PUSH2 0x12B3 ADD MSTORE DUP2 DUP2 PUSH2 0x18FC ADD MSTORE DUP2 DUP2 PUSH2 0x1A5A ADD MSTORE PUSH2 0x1AFA ADD MSTORE PUSH1 0x0 DUP2 DUP2 PUSH2 0x6F5 ADD MSTORE DUP2 DUP2 PUSH2 0xCF4 ADD MSTORE DUP2 DUP2 PUSH2 0xF4E ADD MSTORE DUP2 DUP2 PUSH2 0x10FE ADD MSTORE DUP2 DUP2 PUSH2 0x13DC ADD MSTORE DUP2 DUP2 PUSH2 0x1641 ADD MSTORE DUP2 DUP2 PUSH2 0x1767 ADD MSTORE PUSH2 0x1957 ADD MSTORE PUSH2 0x27EB PUSH1 0x0 RETURN INVALID PUSH1 0x80 PUSH1 0x40 MSTORE CALLVALUE DUP1 ISZERO PUSH2 0x10 JUMPI PUSH1 0x0 DUP1 REVERT JUMPDEST POP PUSH1 0x4 CALLDATASIZE LT PUSH2 0x12C JUMPI PUSH1 0x0 CALLDATALOAD PUSH1 0xE0 SHR DUP1 PUSH4 0x9E281A98 GT PUSH2 0xAD JUMPI DUP1 PUSH4 0xDA3E3397 GT PUSH2 0x71 JUMPI DUP1 PUSH4 0xDA3E3397 EQ PUSH2 0x2D1 JUMPI DUP1 PUSH4 0xE47AAF6D EQ PUSH2 0x2ED JUMPI DUP1 PUSH4 0xF1584673 EQ PUSH2 0x30B JUMPI DUP1 PUSH4 0xF556D1D4 EQ PUSH2 0x33B JUMPI DUP1 PUSH4 0xF83D08BA EQ PUSH2 0x359 JUMPI PUSH2 0x12C JUMP JUMPDEST DUP1 PUSH4 0x9E281A98 EQ PUSH2 0x23F JUMPI DUP1 PUSH4 0xA119B86E EQ PUSH2 0x25B JUMPI DUP1 PUSH4 0xA4E2D634 EQ PUSH2 0x28B JUMPI DUP1 PUSH4 0xA69DF4B5 EQ PUSH2 0x2A9 JUMPI DUP1 PUSH4 0xA7F07011 EQ PUSH2 0x2B3 JUMPI PUSH2 0x12C JUMP JUMPDEST DUP1 PUSH4 0x3E413BEE GT PUSH2 0xF4 JUMPI DUP1 PUSH4 0x3E413BEE EQ PUSH2 0x1AD JUMPI DUP1 PUSH4 0x3FC8CEF3 EQ PUSH2 0x1CB JUMPI DUP1 PUSH4 0x5767C659 EQ PUSH2 0x1E9 JUMPI DUP1 PUSH4 0x7201C6BE EQ PUSH2 0x205 JUMPI DUP1 PUSH4 0x786FB10C EQ PUSH2 0x20F JUMPI PUSH2 0x12C JUMP JUMPDEST DUP1 PUSH4 0x5DDAD1F EQ PUSH2 0x131 JUMPI DUP1 PUSH4 0xEBAF458 EQ PUSH2 0x14D JUMPI DUP1 PUSH4 0x272A6DD9 EQ PUSH2 0x157 JUMPI DUP1 PUSH4 0x2F48AB7D EQ PUSH2 0x173 JUMPI DUP1 PUSH4 0x338B5DEA EQ PUSH2 0x191 JUMPI JUMPDEST PUSH1 0x0 DUP1 REVERT JUMPDEST PUSH2 0x14B PUSH1 0x4 DUP1 CALLDATASIZE SUB DUP2 ADD SWAP1 PUSH2 0x146 SWAP2 SWAP1 PUSH2 0x1E38 JUMP JUMPDEST PUSH2 0x363 JUMP JUMPDEST STOP JUMPDEST PUSH2 0x155 PUSH2 0x6F3 JUMP JUMPDEST STOP JUMPDEST PUSH2 0x171 PUSH1 0x4 DUP1 CALLDATASIZE SUB DUP2 ADD SWAP1 PUSH2 0x16C SWAP2 SWAP1 PUSH2 0x1E38 JUMP JUMPDEST PUSH2 0x94A JUMP JUMPDEST STOP JUMPDEST PUSH2 0x17B PUSH2 0xCDA JUMP JUMPDEST PUSH1 0x40 MLOAD PUSH2 0x188 SWAP2 SWAP1 PUSH2 0x1EF3 JUMP JUMPDEST PUSH1 0x40 MLOAD DUP1 SWAP2 SUB SWAP1 RETURN JUMPDEST PUSH2 0x1AB PUSH1 0x4 DUP1 CALLDATASIZE SUB DUP2 ADD SWAP1 PUSH2 0x1A6 SWAP2 SWAP1 PUSH2 0x1F0E JUMP JUMPDEST PUSH2 0xCF2 JUMP JUMPDEST STOP JUMPDEST PUSH2 0x1B5 PUSH2 0xF1C JUMP JUMPDEST PUSH1 0x40 MLOAD PUSH2 0x1C2 SWAP2 SWAP1 PUSH2 0x1EF3 JUMP JUMPDEST PUSH1 0x40 MLOAD DUP1 SWAP2 SUB SWAP1 RETURN JUMPDEST PUSH2 0x1D3 PUSH2 0xF34 JUMP JUMPDEST PUSH1 0x40 MLOAD PUSH2 0x1E0 SWAP2 SWAP1 PUSH2 0x1EF3 JUMP JUMPDEST PUSH1 0x40 MLOAD DUP1 SWAP2 SUB SWAP1 RETURN JUMPDEST PUSH2 0x203 PUSH1 0x4 DUP1 CALLDATASIZE SUB DUP2 ADD SWAP1 PUSH2 0x1FE SWAP2 SWAP1 PUSH2 0x1F4E JUMP JUMPDEST PUSH2 0xF4C JUMP JUMPDEST STOP JUMPDEST PUSH2 0x20D PUSH2 0x10FC JUMP JUMPDEST STOP JUMPDEST PUSH2 0x229 PUSH1 0x4 DUP1 CALLDATASIZE SUB DUP2 ADD SWAP1 PUSH2 0x224 SWAP2 SWAP1 PUSH2 0x1F7B JUMP JUMPDEST PUSH2 0x1353 JUMP JUMPDEST PUSH1 0x40 MLOAD PUSH2 0x236 SWAP2 SWAP1 PUSH2 0x1FCA JUMP JUMPDEST PUSH1 0x40 MLOAD DUP1 SWAP2 SUB SWAP1 RETURN JUMPDEST PUSH2 0x259 PUSH1 0x4 DUP1 CALLDATASIZE SUB DUP2 ADD SWAP1 PUSH2 0x254 SWAP2 SWAP1 PUSH2 0x1F0E JUMP JUMPDEST PUSH2 0x13DA JUMP JUMPDEST STOP JUMPDEST PUSH2 0x275 PUSH1 0x4 DUP1 CALLDATASIZE SUB DUP2 ADD SWAP1 PUSH2 0x270 SWAP2 SWAP1 PUSH2 0x1F4E JUMP JUMPDEST PUSH2 0x15A9 JUMP JUMPDEST PUSH1 0x40 MLOAD PUSH2 0x282 SWAP2 SWAP1 PUSH2 0x1FCA JUMP JUMPDEST PUSH1 0x40 MLOAD DUP1 SWAP2 SUB SWAP1 RETURN JUMPDEST PUSH2 0x293 PUSH2 0x162C JUMP JUMPDEST PUSH1 0x40 MLOAD PUSH2 0x2A0 SWAP2 SWAP1 PUSH2 0x2000 JUMP JUMPDEST PUSH1 0x40 MLOAD DUP1 SWAP2 SUB SWAP1 RETURN JUMPDEST PUSH2 0x2B1 PUSH2 0x163F JUMP JUMPDEST STOP JUMPDEST PUSH2 0x2BB PUSH2 0x1741 JUMP JUMPDEST PUSH1 0x40 MLOAD PUSH2 0x2C8 SWAP2 SWAP1 PUSH2 0x202A JUMP JUMPDEST PUSH1 0x40 MLOAD DUP1 SWAP2 SUB SWAP1 RETURN JUMPDEST PUSH2 0x2EB PUSH1 0x4 DUP1 CALLDATASIZE SUB DUP2 ADD SWAP1 PUSH2 0x2E6 SWAP2 SWAP1 PUSH2 0x2045 JUMP JUMPDEST PUSH2 0x1765 JUMP JUMPDEST STOP JUMPDEST PUSH2 0x2F5 PUSH2 0x18FA JUMP JUMPDEST PUSH1 0x40 MLOAD PUSH2 0x302 SWAP2 SWAP1 PUSH2 0x20B9 JUMP JUMPDEST PUSH1 0x40 MLOAD DUP1 SWAP2 SUB SWAP1 RETURN JUMPDEST PUSH2 0x325 PUSH1 0x4 DUP1 CALLDATASIZE SUB DUP2 ADD SWAP1 PUSH2 0x320 SWAP2 SWAP1 PUSH2 0x210F JUMP JUMPDEST PUSH2 0x191E JUMP JUMPDEST PUSH1 0x40 MLOAD PUSH2 0x332 SWAP2 SWAP1 PUSH2 0x21E1 JUMP JUMPDEST PUSH1 0x40 MLOAD DUP1 SWAP2 SUB SWAP1 RETURN JUMPDEST PUSH2 0x343 PUSH2 0x194D JUMP JUMPDEST PUSH1 0x40 MLOAD PUSH2 0x350 SWAP2 SWAP1 PUSH2 0x1FCA JUMP JUMPDEST PUSH1 0x40 MLOAD DUP1 SWAP2 SUB SWAP1 RETURN JUMPDEST PUSH2 0x361 PUSH2 0x1955 JUMP JUMPDEST STOP JUMPDEST PUSH1 0x0 DUP1 SLOAD SWAP1 PUSH2 0x100 EXP SWAP1 DIV PUSH20 0xFFFFFFFFFFFFFFFFFFFFFFFFFFFFFFFFFFFFFFFF AND PUSH20 0xFFFFFFFFFFFFFFFFFFFFFFFFFFFFFFFFFFFFFFFF AND CALLER PUSH20 0xFFFFFFFFFFFFFFFFFFFFFFFFFFFFFFFFFFFFFFFF AND EQ PUSH2 0x3F3 JUMPI CALLER PUSH1 0x40 MLOAD PUSH32 0x4104D7D700000000000000000000000000000000000000000000000000000000 DUP2 MSTORE PUSH1 0x4 ADD PUSH2 0x3EA SWAP2 SWAP1 PUSH2 0x202A JUMP JUMPDEST PUSH1 0x40 MLOAD DUP1 SWAP2 SUB SWAP1 REVERT JUMPDEST PUSH1 0x0 PUSH20 0xFD086BC7CD5C481DCC9C85EBE478A1C0B69FCBB9 PUSH20 0xFFFFFFFFFFFFFFFFFFFFFFFFFFFFFFFFFFFFFFFF AND PUSH4 0x70A08231 ADDRESS PUSH1 0x40 MLOAD DUP3 PUSH4 0xFFFFFFFF AND PUSH1 0xE0 SHL DUP2 MSTORE PUSH1 0x4 ADD PUSH2 0x442 SWAP2 SWAP1 PUSH2 0x202A JUMP JUMPDEST PUSH1 0x20 PUSH1 0x40 MLOAD DUP1 DUP4 SUB DUP2 DUP7 GAS STATICCALL ISZERO DUP1 ISZERO PUSH2 0x45F JUMPI RETURNDATASIZE PUSH1 0x0 DUP1 RETURNDATACOPY RETURNDATASIZE PUSH1 0x0 REVERT JUMPDEST POP POP POP POP PUSH1 0x40 MLOAD RETURNDATASIZE PUSH1 0x1F NOT PUSH1 0x1F DUP3 ADD AND DUP3 ADD DUP1 PUSH1 0x40 MSTORE POP DUP2 ADD SWAP1 PUSH2 0x483 SWAP2 SWAP1 PUSH2 0x2218 JUMP JUMPDEST SWAP1 POP PUSH2 0x48E DUP4 PUSH2 0x1A58 JUMP JUMPDEST PUSH1 0x0 PUSH1 0x64 SWAP1 POP PUSH1 0x0 PUSH1 0x40 MLOAD DUP1 PUSH1 0xA0 ADD PUSH1 0x40 MSTORE DUP1 PUSH20 0x82AF49447D8A07E3BD95BD0D56F35241523FBAB1 DUP5 PUSH20 0xFD086BC7CD5C481DCC9C85EBE478A1C0B69FCBB9 PUSH1 0x40 MLOAD PUSH1 0x20 ADD PUSH2 0x4DE SWAP4 SWAP3 SWAP2 SWAP1 PUSH2 0x22C3 JUMP JUMPDEST PUSH1 0x40 MLOAD PUSH1 0x20 DUP2 DUP4 SUB SUB DUP2 MSTORE SWAP1 PUSH1 0x40 MSTORE DUP2 MSTORE PUSH1 0x20 ADD ADDRESS PUSH20 0xFFFFFFFFFFFFFFFFFFFFFFFFFFFFFFFFFFFFFFFF AND DUP2 MSTORE PUSH1 0x20 ADD TIMESTAMP DUP2 MSTORE PUSH1 0x20 ADD PUSH20 0x82AF49447D8A07E3BD95BD0D56F35241523FBAB1 PUSH20 0xFFFFFFFFFFFFFFFFFFFFFFFFFFFFFFFFFFFFFFFF AND PUSH4 0x70A08231 ADDRESS PUSH1 0x40 MLOAD DUP3 PUSH4 0xFFFFFFFF AND PUSH1 0xE0 SHL DUP2 MSTORE PUSH1 0x4 ADD PUSH2 0x561 SWAP2 SWAP1 PUSH2 0x202A JUMP JUMPDEST PUSH1 0x20 PUSH1 0x40 MLOAD DUP1 DUP4 SUB DUP2 DUP7 GAS STATICCALL ISZERO DUP1 ISZERO PUSH2 0x57E JUMPI RETURNDATASIZE PUSH1 0x0 DUP1 RETURNDATACOPY RETURNDATASIZE PUSH1 0x0 REVERT JUMPDEST POP POP POP POP PUSH1 0x40 MLOAD RETURNDATASIZE PUSH1 0x1F NOT PUSH1 0x1F DUP3 ADD AND DUP3 ADD DUP1 PUSH1 0x40 MSTORE POP DUP2 ADD SWAP1 PUSH2 0x5A2 SWAP2 SWAP1 PUSH2 0x2218 JUMP JUMPDEST DUP2 MSTORE PUSH1 0x20 ADD PUSH1 0x0 DUP2 MSTORE POP SWAP1 POP PUSH2 0x5B7 DUP2 PUSH2 0x1AF8 JUMP JUMPDEST PUSH1 0x0 PUSH20 0xFD086BC7CD5C481DCC9C85EBE478A1C0B69FCBB9 PUSH20 0xFFFFFFFFFFFFFFFFFFFFFFFFFFFFFFFFFFFFFFFF AND PUSH4 0x70A08231 ADDRESS PUSH1 0x40 MLOAD DUP3 PUSH4 0xFFFFFFFF AND PUSH1 0xE0 SHL DUP2 MSTORE PUSH1 0x4 ADD PUSH2 0x606 SWAP2 SWAP1 PUSH2 0x202A JUMP JUMPDEST PUSH1 0x20 PUSH1 0x40 MLOAD DUP1 DUP4 SUB DUP2 DUP7 GAS STATICCALL ISZERO DUP1 ISZERO PUSH2 0x623 JUMPI RETURNDATASIZE PUSH1 0x0 DUP1 RETURNDATACOPY RETURNDATASIZE PUSH1 0x0 REVERT JUMPDEST POP POP POP POP PUSH1 0x40 MLOAD RETURNDATASIZE PUSH1 0x1F NOT PUSH1 0x1F DUP3 ADD AND DUP3 ADD DUP1 PUSH1 0x40 MSTORE POP DUP2 ADD SWAP1 PUSH2 0x647 SWAP2 SWAP1 PUSH2 0x2218 JUMP JUMPDEST SWAP1 POP DUP5 DUP5 DUP3 PUSH2 0x656 SWAP2 SWAP1 PUSH2 0x232F JUMP JUMPDEST GT ISZERO PUSH2 0x6A3 JUMPI PUSH32 0x357D905F1831209797DF4D55D79C5C5BF1D9F7311C976AFD05E13D881EAB9BC8 DUP5 DUP3 PUSH2 0x689 SWAP2 SWAP1 PUSH2 0x232F JUMP JUMPDEST PUSH1 0x40 MLOAD PUSH2 0x696 SWAP2 SWAP1 PUSH2 0x1FCA JUMP JUMPDEST PUSH1 0x40 MLOAD DUP1 SWAP2 SUB SWAP1 LOG1 PUSH2 0x6EB JUMP JUMPDEST DUP4 DUP2 PUSH2 0x6AF SWAP2 SWAP1 PUSH2 0x232F JUMP JUMPDEST PUSH1 0x40 MLOAD PUSH32 0xD4989A9400000000000000000000000000000000000000000000000000000000 DUP2 MSTORE PUSH1 0x4 ADD PUSH2 0x6E2 SWAP2 SWAP1 PUSH2 0x1FCA JUMP JUMPDEST PUSH1 0x40 MLOAD DUP1 SWAP2 SUB SWAP1 REVERT JUMPDEST POP POP POP POP POP POP JUMP JUMPDEST PUSH32 0x0 PUSH20 0xFFFFFFFFFFFFFFFFFFFFFFFFFFFFFFFFFFFFFFFF AND CALLER PUSH20 0xFFFFFFFFFFFFFFFFFFFFFFFFFFFFFFFFFFFFFFFF AND EQ PUSH2 0x783 JUMPI CALLER PUSH1 0x40 MLOAD PUSH32 0xF9EBB4C700000000000000000000000000000000000000000000000000000000 DUP2 MSTORE PUSH1 0x4 ADD PUSH2 0x77A SWAP2 SWAP1 PUSH2 0x202A JUMP JUMPDEST PUSH1 0x40 MLOAD DUP1 SWAP2 SUB SWAP1 REVERT JUMPDEST PUSH1 0x0 PUSH1 0x64 SWAP1 POP PUSH1 0x0 PUSH20 0xAF88D065E77C8CC2239327C5EDB3A432268E5831 PUSH20 0xFFFFFFFFFFFFFFFFFFFFFFFFFFFFFFFFFFFFFFFF AND PUSH4 0x70A08231 ADDRESS PUSH1 0x40 MLOAD DUP3 PUSH4 0xFFFFFFFF AND PUSH1 0xE0 SHL DUP2 MSTORE PUSH1 0x4 ADD PUSH2 0x7D8 SWAP2 SWAP1 PUSH2 0x202A JUMP JUMPDEST PUSH1 0x20 PUSH1 0x40 MLOAD DUP1 DUP4 SUB DUP2 DUP7 GAS STATICCALL ISZERO DUP1 ISZERO PUSH2 0x7F5 JUMPI RETURNDATASIZE PUSH1 0x0 DUP1 RETURNDATACOPY RETURNDATASIZE PUSH1 0x0 REVERT JUMPDEST POP POP POP POP PUSH1 0x40 MLOAD RETURNDATASIZE PUSH1 0x1F NOT PUSH1 0x1F DUP3 ADD AND DUP3 ADD DUP1 PUSH1 0x40 MSTORE POP DUP2 ADD SWAP1 PUSH2 0x819 SWAP2 SWAP1 PUSH2 0x2218 JUMP JUMPDEST SWAP1 POP PUSH1 0x0 PUSH1 0x40 MLOAD DUP1 PUSH1 0xA0 ADD PUSH1 0x40 MSTORE DUP1 PUSH20 0xAF88D065E77C8CC2239327C5EDB3A432268E5831 DUP6 PUSH20 0xFD086BC7CD5C481DCC9C85EBE478A1C0B69FCBB9 PUSH1 0x40 MLOAD PUSH1 0x20 ADD PUSH2 0x865 SWAP4 SWAP3 SWAP2 SWAP1 PUSH2 0x22C3 JUMP JUMPDEST PUSH1 0x40 MLOAD PUSH1 0x20 DUP2 DUP4 SUB SUB DUP2 MSTORE SWAP1 PUSH1 0x40 MSTORE DUP2 MSTORE PUSH1 0x20 ADD ADDRESS PUSH20 0xFFFFFFFFFFFFFFFFFFFFFFFFFFFFFFFFFFFFFFFF AND DUP2 MSTORE PUSH1 0x20 ADD TIMESTAMP DUP2 MSTORE PUSH1 0x20 ADD DUP4 DUP2 MSTORE PUSH1 0x20 ADD PUSH1 0x0 DUP2 MSTORE POP SWAP1 POP PUSH32 0x0 PUSH20 0xFFFFFFFFFFFFFFFFFFFFFFFFFFFFFFFFFFFFFFFF AND PUSH4 0xC04B8D59 DUP3 PUSH1 0x40 MLOAD DUP3 PUSH4 0xFFFFFFFF AND PUSH1 0xE0 SHL DUP2 MSTORE PUSH1 0x4 ADD PUSH2 0x901 SWAP2 SWAP1 PUSH2 0x2441 JUMP JUMPDEST PUSH1 0x20 PUSH1 0x40 MLOAD DUP1 DUP4 SUB DUP2 PUSH1 0x0 DUP8 GAS CALL ISZERO DUP1 ISZERO PUSH2 0x920 JUMPI RETURNDATASIZE PUSH1 0x0 DUP1 RETURNDATACOPY RETURNDATASIZE PUSH1 0x0 REVERT JUMPDEST POP POP POP POP PUSH1 0x40 MLOAD RETURNDATASIZE PUSH1 0x1F NOT PUSH1 0x1F DUP3 ADD AND DUP3 ADD DUP1 PUSH1 0x40 MSTORE POP DUP2 ADD SWAP1 PUSH2 0x944 SWAP2 SWAP1 PUSH2 0x2218 JUMP JUMPDEST POP POP POP POP JUMP JUMPDEST PUSH1 0x0 DUP1 SLOAD SWAP1 PUSH2 0x100 EXP SWAP1 DIV PUSH20 0xFFFFFFFFFFFFFFFFFFFFFFFFFFFFFFFFFFFFFFFF AND PUSH20 0xFFFFFFFFFFFFFFFFFFFFFFFFFFFFFFFFFFFFFFFF AND CALLER PUSH20 0xFFFFFFFFFFFFFFFFFFFFFFFFFFFFFFFFFFFFFFFF AND EQ PUSH2 0x9DA JUMPI CALLER PUSH1 0x40 MLOAD PUSH32 0x4104D7D700000000000000000000000000000000000000000000000000000000 DUP2 MSTORE PUSH1 0x4 ADD PUSH2 0x9D1 SWAP2 SWAP1 PUSH2 0x202A JUMP JUMPDEST PUSH1 0x40 MLOAD DUP1 SWAP2 SUB SWAP1 REVERT JUMPDEST PUSH1 0x0 PUSH20 0xAF88D065E77C8CC2239327C5EDB3A432268E5831 PUSH20 0xFFFFFFFFFFFFFFFFFFFFFFFFFFFFFFFFFFFFFFFF AND PUSH4 0x70A08231 ADDRESS PUSH1 0x40 MLOAD DUP3 PUSH4 0xFFFFFFFF AND PUSH1 0xE0 SHL DUP2 MSTORE PUSH1 0x4 ADD PUSH2 0xA29 SWAP2 SWAP1 PUSH2 0x202A JUMP JUMPDEST PUSH1 0x20 PUSH1 0x40 MLOAD DUP1 DUP4 SUB DUP2 DUP7 GAS STATICCALL ISZERO DUP1 ISZERO PUSH2 0xA46 JUMPI RETURNDATASIZE PUSH1 0x0 DUP1 RETURNDATACOPY RETURNDATASIZE PUSH1 0x0 REVERT JUMPDEST POP POP POP POP PUSH1 0x40 MLOAD RETURNDATASIZE PUSH1 0x1F NOT PUSH1 0x1F DUP3 ADD AND DUP3 ADD DUP1 PUSH1 0x40 MSTORE POP DUP2 ADD SWAP1 PUSH2 0xA6A SWAP2 SWAP1 PUSH2 0x2218 JUMP JUMPDEST SWAP1 POP PUSH2 0xA75 DUP4 PUSH2 0x1A58 JUMP JUMPDEST PUSH1 0x0 PUSH1 0x64 SWAP1 POP PUSH1 0x0 PUSH1 0x40 MLOAD DUP1 PUSH1 0xA0 ADD PUSH1 0x40 MSTORE DUP1 PUSH20 0x82AF49447D8A07E3BD95BD0D56F35241523FBAB1 DUP5 PUSH20 0xAF88D065E77C8CC2239327C5EDB3A432268E5831 PUSH1 0x40 MLOAD PUSH1 0x20 ADD PUSH2 0xAC5 SWAP4 SWAP3 SWAP2 SWAP1 PUSH2 0x22C3 JUMP JUMPDEST PUSH1 0x40 MLOAD PUSH1 0x20 DUP2 DUP4 SUB SUB DUP2 MSTORE SWAP1 PUSH1 0x40 MSTORE DUP2 MSTORE PUSH1 0x20 ADD ADDRESS PUSH20 0xFFFFFFFFFFFFFFFFFFFFFFFFFFFFFFFFFFFFFFFF AND DUP2 MSTORE PUSH1 0x20 ADD TIMESTAMP DUP2 MSTORE PUSH1 0x20 ADD PUSH20 0x82AF49447D8A07E3BD95BD0D56F35241523FBAB1 PUSH20 0xFFFFFFFFFFFFFFFFFFFFFFFFFFFFFFFFFFFFFFFF AND PUSH4 0x70A08231 ADDRESS PUSH1 0x40 MLOAD DUP3 PUSH4 0xFFFFFFFF AND PUSH1 0xE0 SHL DUP2 MSTORE PUSH1 0x4 ADD PUSH2 0xB48 SWAP2 SWAP1 PUSH2 0x202A JUMP JUMPDEST PUSH1 0x20 PUSH1 0x40 MLOAD DUP1 DUP4 SUB DUP2 DUP7 GAS STATICCALL ISZERO DUP1 ISZERO PUSH2 0xB65 JUMPI RETURNDATASIZE PUSH1 0x0 DUP1 RETURNDATACOPY RETURNDATASIZE PUSH1 0x0 REVERT JUMPDEST POP POP POP POP PUSH1 0x40 MLOAD RETURNDATASIZE PUSH1 0x1F NOT PUSH1 0x1F DUP3 ADD AND DUP3 ADD DUP1 PUSH1 0x40 MSTORE POP DUP2 ADD SWAP1 PUSH2 0xB89 SWAP2 SWAP1 PUSH2 0x2218 JUMP JUMPDEST DUP2 MSTORE PUSH1 0x20 ADD PUSH1 0x0 DUP2 MSTORE POP SWAP1 POP PUSH2 0xB9E DUP2 PUSH2 0x1AF8 JUMP JUMPDEST PUSH1 0x0 PUSH20 0xAF88D065E77C8CC2239327C5EDB3A432268E5831 PUSH20 0xFFFFFFFFFFFFFFFFFFFFFFFFFFFFFFFFFFFFFFFF AND PUSH4 0x70A08231 ADDRESS PUSH1 0x40 MLOAD DUP3 PUSH4 0xFFFFFFFF AND PUSH1 0xE0 SHL DUP2 MSTORE PUSH1 0x4 ADD PUSH2 0xBED SWAP2 SWAP1 PUSH2 0x202A JUMP JUMPDEST PUSH1 0x20 PUSH1 0x40 MLOAD DUP1 DUP4 SUB DUP2 DUP7 GAS STATICCALL ISZERO DUP1 ISZERO PUSH2 0xC0A JUMPI RETURNDATASIZE PUSH1 0x0 DUP1 RETURNDATACOPY RETURNDATASIZE PUSH1 0x0 REVERT JUMPDEST POP POP POP POP PUSH1 0x40 MLOAD RETURNDATASIZE PUSH1 0x1F NOT PUSH1 0x1F DUP3 ADD AND DUP3 ADD DUP1 PUSH1 0x40 MSTORE POP DUP2 ADD SWAP1 PUSH2 0xC2E SWAP2 SWAP1 PUSH2 0x2218 JUMP JUMPDEST SWAP1 POP DUP5 DUP5 DUP3 PUSH2 0xC3D SWAP2 SWAP1 PUSH2 0x232F JUMP JUMPDEST GT ISZERO PUSH2 0xC8A JUMPI PUSH32 0x357D905F1831209797DF4D55D79C5C5BF1D9F7311C976AFD05E13D881EAB9BC8 DUP5 DUP3 PUSH2 0xC70 SWAP2 SWAP1 PUSH2 0x232F JUMP JUMPDEST PUSH1 0x40 MLOAD PUSH2 0xC7D SWAP2 SWAP1 PUSH2 0x1FCA JUMP JUMPDEST PUSH1 0x40 MLOAD DUP1 SWAP2 SUB SWAP1 LOG1 PUSH2 0xCD2 JUMP JUMPDEST DUP4 DUP2 PUSH2 0xC96 SWAP2 SWAP1 PUSH2 0x232F JUMP JUMPDEST PUSH1 0x40 MLOAD PUSH32 0xD4989A9400000000000000000000000000000000000000000000000000000000 DUP2 MSTORE PUSH1 0x4 ADD PUSH2 0xCC9 SWAP2 SWAP1 PUSH2 0x1FCA JUMP JUMPDEST PUSH1 0x40 MLOAD DUP1 SWAP2 SUB SWAP1 REVERT JUMPDEST POP POP POP POP POP POP JUMP JUMPDEST PUSH20 0xFD086BC7CD5C481DCC9C85EBE478A1C0B69FCBB9 DUP2 JUMP JUMPDEST PUSH32 0x0 PUSH20 0xFFFFFFFFFFFFFFFFFFFFFFFFFFFFFFFFFFFFFFFF AND CALLER PUSH20 0xFFFFFFFFFFFFFFFFFFFFFFFFFFFFFFFFFFFFFFFF AND EQ PUSH2 0xD82 JUMPI CALLER PUSH1 0x40 MLOAD PUSH32 0xF9EBB4C700000000000000000000000000000000000000000000000000000000 DUP2 MSTORE PUSH1 0x4 ADD PUSH2 0xD79 SWAP2 SWAP1 PUSH2 0x202A JUMP JUMPDEST PUSH1 0x40 MLOAD DUP1 SWAP2 SUB SWAP1 REVERT JUMPDEST PUSH20 0xFD086BC7CD5C481DCC9C85EBE478A1C0B69FCBB9 PUSH20 0xFFFFFFFFFFFFFFFFFFFFFFFFFFFFFFFFFFFFFFFF AND DUP3 PUSH20 0xFFFFFFFFFFFFFFFFFFFFFFFFFFFFFFFFFFFFFFFF AND EQ ISZERO DUP1 ISZERO PUSH2 0xE12 JUMPI POP PUSH20 0xAF88D065E77C8CC2239327C5EDB3A432268E5831 PUSH20 0xFFFFFFFFFFFFFFFFFFFFFFFFFFFFFFFFFFFFFFFF AND DUP3 PUSH20 0xFFFFFFFFFFFFFFFFFFFFFFFFFFFFFFFFFFFFFFFF AND EQ ISZERO JUMPDEST ISZERO PUSH2 0xE54 JUMPI DUP2 PUSH1 0x40 MLOAD PUSH32 0xF01157C300000000000000000000000000000000000000000000000000000000 DUP2 MSTORE PUSH1 0x4 ADD PUSH2 0xE4B SWAP2 SWAP1 PUSH2 0x202A JUMP JUMPDEST PUSH1 0x40 MLOAD DUP1 SWAP2 SUB SWAP1 REVERT JUMPDEST PUSH1 0x0 DUP2 GT PUSH2 0xE97 JUMPI PUSH1 0x40 MLOAD PUSH32 0x8C379A000000000000000000000000000000000000000000000000000000000 DUP2 MSTORE PUSH1 0x4 ADD PUSH2 0xE8E SWAP1 PUSH2 0x24C0 JUMP JUMPDEST PUSH1 0x40 MLOAD DUP1 SWAP2 SUB SWAP1 REVERT JUMPDEST DUP2 PUSH20 0xFFFFFFFFFFFFFFFFFFFFFFFFFFFFFFFFFFFFFFFF AND PUSH4 0x23B872DD CALLER ADDRESS DUP5 PUSH1 0x40 MLOAD DUP5 PUSH4 0xFFFFFFFF AND PUSH1 0xE0 SHL DUP2 MSTORE PUSH1 0x4 ADD PUSH2 0xED4 SWAP4 SWAP3 SWAP2 SWAP1 PUSH2 0x24E0 JUMP JUMPDEST PUSH1 0x20 PUSH1 0x40 MLOAD DUP1 DUP4 SUB DUP2 PUSH1 0x0 DUP8 GAS CALL ISZERO DUP1 ISZERO PUSH2 0xEF3 JUMPI RETURNDATASIZE PUSH1 0x0 DUP1 RETURNDATACOPY RETURNDATASIZE PUSH1 0x0 REVERT JUMPDEST POP POP POP POP PUSH1 0x40 MLOAD RETURNDATASIZE PUSH1 0x1F NOT PUSH1 0x1F DUP3 ADD AND DUP3 ADD DUP1 PUSH1 0x40 MSTORE POP DUP2 ADD SWAP1 PUSH2 0xF17 SWAP2 SWAP1 PUSH2 0x2543 JUMP JUMPDEST POP POP POP JUMP JUMPDEST PUSH20 0xAF88D065E77C8CC2239327C5EDB3A432268E5831 DUP2 JUMP JUMPDEST PUSH20 0x82AF49447D8A07E3BD95BD0D56F35241523FBAB1 DUP2 JUMP JUMPDEST PUSH32 0x0 PUSH20 0xFFFFFFFFFFFFFFFFFFFFFFFFFFFFFFFFFFFFFFFF AND CALLER PUSH20 0xFFFFFFFFFFFFFFFFFFFFFFFFFFFFFFFFFFFFFFFF AND EQ PUSH2 0xFDC JUMPI CALLER PUSH1 0x40 MLOAD PUSH32 0xF9EBB4C700000000000000000000000000000000000000000000000000000000 DUP2 MSTORE PUSH1 0x4 ADD PUSH2 0xFD3 SWAP2 SWAP1 PUSH2 0x202A JUMP JUMPDEST PUSH1 0x40 MLOAD DUP1 SWAP2 SUB SWAP1 REVERT JUMPDEST PUSH1 0x0 PUSH20 0xFFFFFFFFFFFFFFFFFFFFFFFFFFFFFFFFFFFFFFFF AND DUP2 PUSH20 0xFFFFFFFFFFFFFFFFFFFFFFFFFFFFFFFFFFFFFFFF AND SUB PUSH2 0x104B JUMPI PUSH1 0x40 MLOAD PUSH32 0x8C379A000000000000000000000000000000000000000000000000000000000 DUP2 MSTORE PUSH1 0x4 ADD PUSH2 0x1042 SWAP1 PUSH2 0x25BC JUMP JUMPDEST PUSH1 0x40 MLOAD DUP1 SWAP2 SUB SWAP1 REVERT JUMPDEST ADDRESS PUSH20 0xFFFFFFFFFFFFFFFFFFFFFFFFFFFFFFFFFFFFFFFF AND DUP2 PUSH20 0xFFFFFFFFFFFFFFFFFFFFFFFFFFFFFFFFFFFFFFFF AND SUB PUSH2 0x10B9 JUMPI PUSH1 0x40 MLOAD PUSH32 0x8C379A000000000000000000000000000000000000000000000000000000000 DUP2 MSTORE PUSH1 0x4 ADD PUSH2 0x10B0 SWAP1 PUSH2 0x2628 JUMP JUMPDEST PUSH1 0x40 MLOAD DUP1 SWAP2 SUB SWAP1 REVERT JUMPDEST DUP1 PUSH1 0x0 DUP1 PUSH2 0x100 EXP DUP2 SLOAD DUP2 PUSH20 0xFFFFFFFFFFFFFFFFFFFFFFFFFFFFFFFFFFFFFFFF MUL NOT AND SWAP1 DUP4 PUSH20 0xFFFFFFFFFFFFFFFFFFFFFFFFFFFFFFFFFFFFFFFF AND MUL OR SWAP1 SSTORE POP POP JUMP JUMPDEST PUSH32 0x0 PUSH20 0xFFFFFFFFFFFFFFFFFFFFFFFFFFFFFFFFFFFFFFFF AND CALLER PUSH20 0xFFFFFFFFFFFFFFFFFFFFFFFFFFFFFFFFFFFFFFFF AND EQ PUSH2 0x118C JUMPI CALLER PUSH1 0x40 MLOAD PUSH32 0xF9EBB4C700000000000000000000000000000000000000000000000000000000 DUP2 MSTORE PUSH1 0x4 ADD PUSH2 0x1183 SWAP2 SWAP1 PUSH2 0x202A JUMP JUMPDEST PUSH1 0x40 MLOAD DUP1 SWAP2 SUB SWAP1 REVERT JUMPDEST PUSH1 0x0 PUSH1 0x64 SWAP1 POP PUSH1 0x0 PUSH20 0xFD086BC7CD5C481DCC9C85EBE478A1C0B69FCBB9 PUSH20 0xFFFFFFFFFFFFFFFFFFFFFFFFFFFFFFFFFFFFFFFF AND PUSH4 0x70A08231 ADDRESS PUSH1 0x40 MLOAD DUP3 PUSH4 0xFFFFFFFF AND PUSH1 0xE0 SHL DUP2 MSTORE PUSH1 0x4 ADD PUSH2 0x11E1 SWAP2 SWAP1 PUSH2 0x202A JUMP JUMPDEST PUSH1 0x20 PUSH1 0x40 MLOAD DUP1 DUP4 SUB DUP2 DUP7 GAS STATICCALL ISZERO DUP1 ISZERO PUSH2 0x11FE JUMPI RETURNDATASIZE PUSH1 0x0 DUP1 RETURNDATACOPY RETURNDATASIZE PUSH1 0x0 REVERT JUMPDEST POP POP POP POP PUSH1 0x40 MLOAD RETURNDATASIZE PUSH1 0x1F NOT PUSH1 0x1F DUP3 ADD AND DUP3 ADD DUP1 PUSH1 0x40 MSTORE POP DUP2 ADD SWAP1 PUSH2 0x1222 SWAP2 SWAP1 PUSH2 0x2218 JUMP JUMPDEST SWAP1 POP PUSH1 0x0 PUSH1 0x40 MLOAD DUP1 PUSH1 0xA0 ADD PUSH1 0x40 MSTORE DUP1 PUSH20 0xFD086BC7CD5C481DCC9C85EBE478A1C0B69FCBB9 DUP6 PUSH20 0xAF88D065E77C8CC2239327C5EDB3A432268E5831 PUSH1 0x40 MLOAD PUSH1 0x20 ADD PUSH2 0x126E SWAP4 SWAP3 SWAP2 SWAP1 PUSH2 0x22C3 JUMP JUMPDEST PUSH1 0x40 MLOAD PUSH1 0x20 DUP2 DUP4 SUB SUB DUP2 MSTORE SWAP1 PUSH1 0x40 MSTORE DUP2 MSTORE PUSH1 0x20 ADD ADDRESS PUSH20 0xFFFFFFFFFFFFFFFFFFFFFFFFFFFFFFFFFFFFFFFF AND DUP2 MSTORE PUSH1 0x20 ADD TIMESTAMP DUP2 MSTORE PUSH1 0x20 ADD DUP4 DUP2 MSTORE PUSH1 0x20 ADD PUSH1 0x0 DUP2 MSTORE POP SWAP1 POP PUSH32 0x0 PUSH20 0xFFFFFFFFFFFFFFFFFFFFFFFFFFFFFFFFFFFFFFFF AND PUSH4 0xC04B8D59 DUP3 PUSH1 0x40 MLOAD DUP3 PUSH4 0xFFFFFFFF AND PUSH1 0xE0 SHL DUP2 MSTORE PUSH1 0x4 ADD PUSH2 0x130A SWAP2 SWAP1 PUSH2 0x2441 JUMP JUMPDEST PUSH1 0x20 PUSH1 0x40 MLOAD DUP1 DUP4 SUB DUP2 PUSH1 0x0 DUP8 GAS CALL ISZERO DUP1 ISZERO PUSH2 0x1329 JUMPI RETURNDATASIZE PUSH1 0x0 DUP1 RETURNDATACOPY RETURNDATASIZE PUSH1 0x0 REVERT JUMPDEST POP POP POP POP PUSH1 0x40 MLOAD RETURNDATASIZE PUSH1 0x1F NOT PUSH1 0x1F DUP3 ADD AND DUP3 ADD DUP1 PUSH1 0x40 MSTORE POP DUP2 ADD SWAP1 PUSH2 0x134D SWAP2 SWAP1 PUSH2 0x2218 JUMP JUMPDEST POP POP POP POP JUMP JUMPDEST PUSH1 0x0 PUSH1 0x1 PUSH1 0x0 DUP5 PUSH20 0xFFFFFFFFFFFFFFFFFFFFFFFFFFFFFFFFFFFFFFFF AND PUSH20 0xFFFFFFFFFFFFFFFFFFFFFFFFFFFFFFFFFFFFFFFF AND DUP2 MSTORE PUSH1 0x20 ADD SWAP1 DUP2 MSTORE PUSH1 0x20 ADD PUSH1 0x0 KECCAK256 PUSH1 0x0 DUP4 PUSH20 0xFFFFFFFFFFFFFFFFFFFFFFFFFFFFFFFFFFFFFFFF AND PUSH20 0xFFFFFFFFFFFFFFFFFFFFFFFFFFFFFFFFFFFFFFFF AND DUP2 MSTORE PUSH1 0x20 ADD SWAP1 DUP2 MSTORE PUSH1 0x20 ADD PUSH1 0x0 KECCAK256 SLOAD SWAP1 POP SWAP3 SWAP2 POP POP JUMP JUMPDEST PUSH32 0x0 PUSH20 0xFFFFFFFFFFFFFFFFFFFFFFFFFFFFFFFFFFFFFFFF AND CALLER PUSH20 0xFFFFFFFFFFFFFFFFFFFFFFFFFFFFFFFFFFFFFFFF AND EQ PUSH2 0x146A JUMPI CALLER PUSH1 0x40 MLOAD PUSH32 0xF9EBB4C700000000000000000000000000000000000000000000000000000000 DUP2 MSTORE PUSH1 0x4 ADD PUSH2 0x1461 SWAP2 SWAP1 PUSH2 0x202A JUMP JUMPDEST PUSH1 0x40 MLOAD DUP1 SWAP2 SUB SWAP1 REVERT JUMPDEST DUP2 PUSH20 0xFFFFFFFFFFFFFFFFFFFFFFFFFFFFFFFFFFFFFFFF AND PUSH4 0x70A08231 ADDRESS PUSH1 0x40 MLOAD DUP3 PUSH4 0xFFFFFFFF AND PUSH1 0xE0 SHL DUP2 MSTORE PUSH1 0x4 ADD PUSH2 0x14A3 SWAP2 SWAP1 PUSH2 0x202A JUMP JUMPDEST PUSH1 0x20 PUSH1 0x40 MLOAD DUP1 DUP4 SUB DUP2 DUP7 GAS STATICCALL ISZERO DUP1 ISZERO PUSH2 0x14C0 JUMPI RETURNDATASIZE PUSH1 0x0 DUP1 RETURNDATACOPY RETURNDATASIZE PUSH1 0x0 REVERT JUMPDEST POP POP POP POP PUSH1 0x40 MLOAD RETURNDATASIZE PUSH1 0x1F NOT PUSH1 0x1F DUP3 ADD AND DUP3 ADD DUP1 PUSH1 0x40 MSTORE POP DUP2 ADD SWAP1 PUSH2 0x14E4 SWAP2 SWAP1 PUSH2 0x2218 JUMP JUMPDEST DUP2 GT ISZERO PUSH2 0x1526 JUMPI PUSH1 0x40 MLOAD PUSH32 0x8C379A000000000000000000000000000000000000000000000000000000000 DUP2 MSTORE PUSH1 0x4 ADD PUSH2 0x151D SWAP1 PUSH2 0x2694 JUMP JUMPDEST PUSH1 0x40 MLOAD DUP1 SWAP2 SUB SWAP1 REVERT JUMPDEST DUP2 PUSH20 0xFFFFFFFFFFFFFFFFFFFFFFFFFFFFFFFFFFFFFFFF AND PUSH4 0xA9059CBB CALLER DUP4 PUSH1 0x40 MLOAD DUP4 PUSH4 0xFFFFFFFF AND PUSH1 0xE0 SHL DUP2 MSTORE PUSH1 0x4 ADD PUSH2 0x1561 SWAP3 SWAP2 SWAP1 PUSH2 0x26B4 JUMP JUMPDEST PUSH1 0x20 PUSH1 0x40 MLOAD DUP1 DUP4 SUB DUP2 PUSH1 0x0 DUP8 GAS CALL ISZERO DUP1 ISZERO PUSH2 0x1580 JUMPI RETURNDATASIZE PUSH1 0x0 DUP1 RETURNDATACOPY RETURNDATASIZE PUSH1 0x0 REVERT JUMPDEST POP POP POP POP PUSH1 0x40 MLOAD RETURNDATASIZE PUSH1 0x1F NOT PUSH1 0x1F DUP3 ADD AND DUP3 ADD DUP1 PUSH1 0x40 MSTORE POP DUP2 ADD SWAP1 PUSH2 0x15A4 SWAP2 SWAP1 PUSH2 0x2543 JUMP JUMPDEST POP POP POP JUMP JUMPDEST PUSH1 0x0 DUP2 PUSH20 0xFFFFFFFFFFFFFFFFFFFFFFFFFFFFFFFFFFFFFFFF AND PUSH4 0x70A08231 ADDRESS PUSH1 0x40 MLOAD DUP3 PUSH4 0xFFFFFFFF AND PUSH1 0xE0 SHL DUP2 MSTORE PUSH1 0x4 ADD PUSH2 0x15E4 SWAP2 SWAP1 PUSH2 0x202A JUMP JUMPDEST PUSH1 0x20 PUSH1 0x40 MLOAD DUP1 DUP4 SUB DUP2 DUP7 GAS STATICCALL ISZERO DUP1 ISZERO PUSH2 0x1601 JUMPI RETURNDATASIZE PUSH1 0x0 DUP1 RETURNDATACOPY RETURNDATASIZE PUSH1 0x0 REVERT JUMPDEST POP POP POP POP PUSH1 0x40 MLOAD RETURNDATASIZE PUSH1 0x1F NOT PUSH1 0x1F DUP3 ADD AND DUP3 ADD DUP1 PUSH1 0x40 MSTORE POP DUP2 ADD SWAP1 PUSH2 0x1625 SWAP2 SWAP1 PUSH2 0x2218 JUMP JUMPDEST SWAP1 POP SWAP2 SWAP1 POP JUMP JUMPDEST PUSH1 0x0 PUSH1 0x14 SWAP1 SLOAD SWAP1 PUSH2 0x100 EXP SWAP1 DIV PUSH1 0xFF AND DUP2 JUMP JUMPDEST PUSH32 0x0 PUSH20 0xFFFFFFFFFFFFFFFFFFFFFFFFFFFFFFFFFFFFFFFF AND CALLER PUSH20 0xFFFFFFFFFFFFFFFFFFFFFFFFFFFFFFFFFFFFFFFF AND EQ PUSH2 0x16CF JUMPI CALLER PUSH1 0x40 MLOAD PUSH32 0xF9EBB4C700000000000000000000000000000000000000000000000000000000 DUP2 MSTORE PUSH1 0x4 ADD PUSH2 0x16C6 SWAP2 SWAP1 PUSH2 0x202A JUMP JUMPDEST PUSH1 0x40 MLOAD DUP1 SWAP2 SUB SWAP1 REVERT JUMPDEST PUSH1 0x1 ISZERO ISZERO PUSH1 0x0 PUSH1 0x14 SWAP1 SLOAD SWAP1 PUSH2 0x100 EXP SWAP1 DIV PUSH1 0xFF AND ISZERO ISZERO EQ PUSH2 0x1725 JUMPI PUSH1 0x40 MLOAD PUSH32 0x8C379A000000000000000000000000000000000000000000000000000000000 DUP2 MSTORE PUSH1 0x4 ADD PUSH2 0x171C SWAP1 PUSH2 0x2729 JUMP JUMPDEST PUSH1 0x40 MLOAD DUP1 SWAP2 SUB SWAP1 REVERT JUMPDEST PUSH1 0x0 DUP1 PUSH1 0x14 PUSH2 0x100 EXP DUP2 SLOAD DUP2 PUSH1 0xFF MUL NOT AND SWAP1 DUP4 ISZERO ISZERO MUL OR SWAP1 SSTORE POP JUMP JUMPDEST PUSH1 0x0 DUP1 SLOAD SWAP1 PUSH2 0x100 EXP SWAP1 DIV PUSH20 0xFFFFFFFFFFFFFFFFFFFFFFFFFFFFFFFFFFFFFFFF AND DUP2 JUMP JUMPDEST PUSH32 0x0 PUSH20 0xFFFFFFFFFFFFFFFFFFFFFFFFFFFFFFFFFFFFFFFF AND CALLER PUSH20 0xFFFFFFFFFFFFFFFFFFFFFFFFFFFFFFFFFFFFFFFF AND EQ PUSH2 0x17F5 JUMPI CALLER PUSH1 0x40 MLOAD PUSH32 0xF9EBB4C700000000000000000000000000000000000000000000000000000000 DUP2 MSTORE PUSH1 0x4 ADD PUSH2 0x17EC SWAP2 SWAP1 PUSH2 0x202A JUMP JUMPDEST PUSH1 0x40 MLOAD DUP1 SWAP2 SUB SWAP1 REVERT JUMPDEST DUP1 PUSH1 0x1 PUSH1 0x0 DUP6 PUSH20 0xFFFFFFFFFFFFFFFFFFFFFFFFFFFFFFFFFFFFFFFF AND PUSH20 0xFFFFFFFFFFFFFFFFFFFFFFFFFFFFFFFFFFFFFFFF AND DUP2 MSTORE PUSH1 0x20 ADD SWAP1 DUP2 MSTORE PUSH1 0x20 ADD PUSH1 0x0 KECCAK256 PUSH1 0x0 DUP5 PUSH20 0xFFFFFFFFFFFFFFFFFFFFFFFFFFFFFFFFFFFFFFFF AND PUSH20 0xFFFFFFFFFFFFFFFFFFFFFFFFFFFFFFFFFFFFFFFF AND DUP2 MSTORE PUSH1 0x20 ADD SWAP1 DUP2 MSTORE PUSH1 0x20 ADD PUSH1 0x0 KECCAK256 DUP2 SWAP1 SSTORE POP DUP3 PUSH20 0xFFFFFFFFFFFFFFFFFFFFFFFFFFFFFFFFFFFFFFFF AND PUSH4 0x95EA7B3 DUP4 DUP4 PUSH1 0x40 MLOAD DUP4 PUSH4 0xFFFFFFFF AND PUSH1 0xE0 SHL DUP2 MSTORE PUSH1 0x4 ADD PUSH2 0x18B1 SWAP3 SWAP2 SWAP1 PUSH2 0x26B4 JUMP JUMPDEST PUSH1 0x20 PUSH1 0x40 MLOAD DUP1 DUP4 SUB DUP2 PUSH1 0x0 DUP8 GAS CALL ISZERO DUP1 ISZERO PUSH2 0x18D0 JUMPI RETURNDATASIZE PUSH1 0x0 DUP1 RETURNDATACOPY RETURNDATASIZE PUSH1 0x0 REVERT JUMPDEST POP POP POP POP PUSH1 0x40 MLOAD RETURNDATASIZE PUSH1 0x1F NOT PUSH1 0x1F DUP3 ADD AND DUP3 ADD DUP1 PUSH1 0x40 MSTORE POP DUP2 ADD SWAP1 PUSH2 0x18F4 SWAP2 SWAP1 PUSH2 0x2543 JUMP JUMPDEST POP POP POP POP JUMP JUMPDEST PUSH32 0x0 DUP2 JUMP JUMPDEST PUSH1 0x60 DUP4 DUP4 DUP4 PUSH1 0x40 MLOAD PUSH1 0x20 ADD PUSH2 0x1935 SWAP4 SWAP3 SWAP2 SWAP1 PUSH2 0x22C3 JUMP JUMPDEST PUSH1 0x40 MLOAD PUSH1 0x20 DUP2 DUP4 SUB SUB DUP2 MSTORE SWAP1 PUSH1 0x40 MSTORE SWAP1 POP SWAP4 SWAP3 POP POP POP JUMP JUMPDEST PUSH1 0x0 TIMESTAMP SWAP1 POP SWAP1 JUMP JUMPDEST PUSH32 0x0 PUSH20 0xFFFFFFFFFFFFFFFFFFFFFFFFFFFFFFFFFFFFFFFF AND CALLER PUSH20 0xFFFFFFFFFFFFFFFFFFFFFFFFFFFFFFFFFFFFFFFF AND EQ PUSH2 0x19E5 JUMPI CALLER PUSH1 0x40 MLOAD PUSH32 0xF9EBB4C700000000000000000000000000000000000000000000000000000000 DUP2 MSTORE PUSH1 0x4 ADD PUSH2 0x19DC SWAP2 SWAP1 PUSH2 0x202A JUMP JUMPDEST PUSH1 0x40 MLOAD DUP1 SWAP2 SUB SWAP1 REVERT JUMPDEST PUSH1 0x0 ISZERO ISZERO PUSH1 0x0 PUSH1 0x14 SWAP1 SLOAD SWAP1 PUSH2 0x100 EXP SWAP1 DIV PUSH1 0xFF AND ISZERO ISZERO EQ PUSH2 0x1A3B JUMPI PUSH1 0x40 MLOAD PUSH32 0x8C379A000000000000000000000000000000000000000000000000000000000 DUP2 MSTORE PUSH1 0x4 ADD PUSH2 0x1A32 SWAP1 PUSH2 0x2795 JUMP JUMPDEST PUSH1 0x40 MLOAD DUP1 SWAP2 SUB SWAP1 REVERT JUMPDEST PUSH1 0x1 PUSH1 0x0 PUSH1 0x14 PUSH2 0x100 EXP DUP2 SLOAD DUP2 PUSH1 0xFF MUL NOT AND SWAP1 DUP4 ISZERO ISZERO MUL OR SWAP1 SSTORE POP JUMP JUMPDEST PUSH32 0x0 PUSH20 0xFFFFFFFFFFFFFFFFFFFFFFFFFFFFFFFFFFFFFFFF AND PUSH4 0xC04B8D59 DUP3 PUSH1 0x40 MLOAD DUP3 PUSH4 0xFFFFFFFF AND PUSH1 0xE0 SHL DUP2 MSTORE PUSH1 0x4 ADD PUSH2 0x1AB1 SWAP2 SWAP1 PUSH2 0x2441 JUMP JUMPDEST PUSH1 0x20 PUSH1 0x40 MLOAD DUP1 DUP4 SUB DUP2 PUSH1 0x0 DUP8 GAS CALL ISZERO DUP1 ISZERO PUSH2 0x1AD0 JUMPI RETURNDATASIZE PUSH1 0x0 DUP1 RETURNDATACOPY RETURNDATASIZE PUSH1 0x0 REVERT JUMPDEST POP POP POP POP PUSH1 0x40 MLOAD RETURNDATASIZE PUSH1 0x1F NOT PUSH1 0x1F DUP3 ADD AND DUP3 ADD DUP1 PUSH1 0x40 MSTORE POP DUP2 ADD SWAP1 PUSH2 0x1AF4 SWAP2 SWAP1 PUSH2 0x2218 JUMP JUMPDEST POP POP JUMP JUMPDEST PUSH32 0x0 PUSH20 0xFFFFFFFFFFFFFFFFFFFFFFFFFFFFFFFFFFFFFFFF AND PUSH4 0xC04B8D59 DUP3 PUSH1 0x40 MLOAD DUP3 PUSH4 0xFFFFFFFF AND PUSH1 0xE0 SHL DUP2 MSTORE PUSH1 0x4 ADD PUSH2 0x1B51 SWAP2 SWAP1 PUSH2 0x2441 JUMP JUMPDEST PUSH1 0x20 PUSH1 0x40 MLOAD DUP1 DUP4 SUB DUP2 PUSH1 0x0 DUP8 GAS CALL ISZERO DUP1 ISZERO PUSH2 0x1B70 JUMPI RETURNDATASIZE PUSH1 0x0 DUP1 RETURNDATACOPY RETURNDATASIZE PUSH1 0x0 REVERT JUMPDEST POP POP POP POP PUSH1 0x40 MLOAD RETURNDATASIZE PUSH1 0x1F NOT PUSH1 0x1F DUP3 ADD AND DUP3 ADD DUP1 PUSH1 0x40 MSTORE POP DUP2 ADD SWAP1 PUSH2 0x1B94 SWAP2 SWAP1 PUSH2 0x2218 JUMP JUMPDEST POP POP JUMP JUMPDEST PUSH1 0x0 PUSH1 0x40 MLOAD SWAP1 POP SWAP1 JUMP JUMPDEST PUSH1 0x0 DUP1 REVERT JUMPDEST PUSH1 0x0 DUP1 REVERT JUMPDEST PUSH1 0x0 DUP1 REVERT JUMPDEST PUSH1 0x0 PUSH1 0x1F NOT PUSH1 0x1F DUP4 ADD AND SWAP1 POP SWAP2 SWAP1 POP JUMP JUMPDEST PUSH32 0x4E487B7100000000000000000000000000000000000000000000000000000000 PUSH1 0x0 MSTORE PUSH1 0x41 PUSH1 0x4 MSTORE PUSH1 0x24 PUSH1 0x0 REVERT JUMPDEST PUSH2 0x1BFA DUP3 PUSH2 0x1BB1 JUMP JUMPDEST DUP2 ADD DUP2 DUP2 LT PUSH8 0xFFFFFFFFFFFFFFFF DUP3 GT OR ISZERO PUSH2 0x1C19 JUMPI PUSH2 0x1C18 PUSH2 0x1BC2 JUMP JUMPDEST JUMPDEST DUP1 PUSH1 0x40 MSTORE POP POP POP JUMP JUMPDEST PUSH1 0x0 PUSH2 0x1C2C PUSH2 0x1B98 JUMP JUMPDEST SWAP1 POP PUSH2 0x1C38 DUP3 DUP3 PUSH2 0x1BF1 JUMP JUMPDEST SWAP2 SWAP1 POP JUMP JUMPDEST PUSH1 0x0 DUP1 REVERT JUMPDEST PUSH1 0x0 DUP1 REVERT JUMPDEST PUSH1 0x0 DUP1 REVERT JUMPDEST PUSH1 0x0 PUSH8 0xFFFFFFFFFFFFFFFF DUP3 GT ISZERO PUSH2 0x1C67 JUMPI PUSH2 0x1C66 PUSH2 0x1BC2 JUMP JUMPDEST JUMPDEST PUSH2 0x1C70 DUP3 PUSH2 0x1BB1 JUMP JUMPDEST SWAP1 POP PUSH1 0x20 DUP2 ADD SWAP1 POP SWAP2 SWAP1 POP JUMP JUMPDEST DUP3 DUP2 DUP4 CALLDATACOPY PUSH1 0x0 DUP4 DUP4 ADD MSTORE POP POP POP JUMP JUMPDEST PUSH1 0x0 PUSH2 0x1C9F PUSH2 0x1C9A DUP5 PUSH2 0x1C4C JUMP JUMPDEST PUSH2 0x1C22 JUMP JUMPDEST SWAP1 POP DUP3 DUP2 MSTORE PUSH1 0x20 DUP2 ADD DUP5 DUP5 DUP5 ADD GT ISZERO PUSH2 0x1CBB JUMPI PUSH2 0x1CBA PUSH2 0x1C47 JUMP JUMPDEST JUMPDEST PUSH2 0x1CC6 DUP5 DUP3 DUP6 PUSH2 0x1C7D JUMP JUMPDEST POP SWAP4 SWAP3 POP POP POP JUMP JUMPDEST PUSH1 0x0 DUP3 PUSH1 0x1F DUP4 ADD SLT PUSH2 0x1CE3 JUMPI PUSH2 0x1CE2 PUSH2 0x1C42 JUMP JUMPDEST JUMPDEST DUP2 CALLDATALOAD PUSH2 0x1CF3 DUP5 DUP3 PUSH1 0x20 DUP7 ADD PUSH2 0x1C8C JUMP JUMPDEST SWAP2 POP POP SWAP3 SWAP2 POP POP JUMP JUMPDEST PUSH1 0x0 PUSH20 0xFFFFFFFFFFFFFFFFFFFFFFFFFFFFFFFFFFFFFFFF DUP3 AND SWAP1 POP SWAP2 SWAP1 POP JUMP JUMPDEST PUSH1 0x0 PUSH2 0x1D27 DUP3 PUSH2 0x1CFC JUMP JUMPDEST SWAP1 POP SWAP2 SWAP1 POP JUMP JUMPDEST PUSH2 0x1D37 DUP2 PUSH2 0x1D1C JUMP JUMPDEST DUP2 EQ PUSH2 0x1D42 JUMPI PUSH1 0x0 DUP1 REVERT JUMPDEST POP JUMP JUMPDEST PUSH1 0x0 DUP2 CALLDATALOAD SWAP1 POP PUSH2 0x1D54 DUP2 PUSH2 0x1D2E JUMP JUMPDEST SWAP3 SWAP2 POP POP JUMP JUMPDEST PUSH1 0x0 DUP2 SWAP1 POP SWAP2 SWAP1 POP JUMP JUMPDEST PUSH2 0x1D6D DUP2 PUSH2 0x1D5A JUMP JUMPDEST DUP2 EQ PUSH2 0x1D78 JUMPI PUSH1 0x0 DUP1 REVERT JUMPDEST POP JUMP JUMPDEST PUSH1 0x0 DUP2 CALLDATALOAD SWAP1 POP PUSH2 0x1D8A DUP2 PUSH2 0x1D64 JUMP JUMPDEST SWAP3 SWAP2 POP POP JUMP JUMPDEST PUSH1 0x0 PUSH1 0xA0 DUP3 DUP5 SUB SLT ISZERO PUSH2 0x1DA6 JUMPI PUSH2 0x1DA5 PUSH2 0x1BAC JUMP JUMPDEST JUMPDEST PUSH2 0x1DB0 PUSH1 0xA0 PUSH2 0x1C22 JUMP JUMPDEST SWAP1 POP PUSH1 0x0 DUP3 ADD CALLDATALOAD PUSH8 0xFFFFFFFFFFFFFFFF DUP2 GT ISZERO PUSH2 0x1DD0 JUMPI PUSH2 0x1DCF PUSH2 0x1C3D JUMP JUMPDEST JUMPDEST PUSH2 0x1DDC DUP5 DUP3 DUP6 ADD PUSH2 0x1CCE JUMP JUMPDEST PUSH1 0x0 DUP4 ADD MSTORE POP PUSH1 0x20 PUSH2 0x1DF0 DUP5 DUP3 DUP6 ADD PUSH2 0x1D45 JUMP JUMPDEST PUSH1 0x20 DUP4 ADD MSTORE POP PUSH1 0x40 PUSH2 0x1E04 DUP5 DUP3 DUP6 ADD PUSH2 0x1D7B JUMP JUMPDEST PUSH1 0x40 DUP4 ADD MSTORE POP PUSH1 0x60 PUSH2 0x1E18 DUP5 DUP3 DUP6 ADD PUSH2 0x1D7B JUMP JUMPDEST PUSH1 0x60 DUP4 ADD MSTORE POP PUSH1 0x80 PUSH2 0x1E2C DUP5 DUP3 DUP6 ADD PUSH2 0x1D7B JUMP JUMPDEST PUSH1 0x80 DUP4 ADD MSTORE POP SWAP3 SWAP2 POP POP JUMP JUMPDEST PUSH1 0x0 DUP1 PUSH1 0x40 DUP4 DUP6 SUB SLT ISZERO PUSH2 0x1E4F JUMPI PUSH2 0x1E4E PUSH2 0x1BA2 JUMP JUMPDEST JUMPDEST PUSH1 0x0 DUP4 ADD CALLDATALOAD PUSH8 0xFFFFFFFFFFFFFFFF DUP2 GT ISZERO PUSH2 0x1E6D JUMPI PUSH2 0x1E6C PUSH2 0x1BA7 JUMP JUMPDEST JUMPDEST PUSH2 0x1E79 DUP6 DUP3 DUP7 ADD PUSH2 0x1D90 JUMP JUMPDEST SWAP3 POP POP PUSH1 0x20 PUSH2 0x1E8A DUP6 DUP3 DUP7 ADD PUSH2 0x1D7B JUMP JUMPDEST SWAP2 POP POP SWAP3 POP SWAP3 SWAP1 POP JUMP JUMPDEST PUSH1 0x0 DUP2 SWAP1 POP SWAP2 SWAP1 POP JUMP JUMPDEST PUSH1 0x0 PUSH2 0x1EB9 PUSH2 0x1EB4 PUSH2 0x1EAF DUP5 PUSH2 0x1CFC JUMP JUMPDEST PUSH2 0x1E94 JUMP JUMPDEST PUSH2 0x1CFC JUMP JUMPDEST SWAP1 POP SWAP2 SWAP1 POP JUMP JUMPDEST PUSH1 0x0 PUSH2 0x1ECB DUP3 PUSH2 0x1E9E JUMP JUMPDEST SWAP1 POP SWAP2 SWAP1 POP JUMP JUMPDEST PUSH1 0x0 PUSH2 0x1EDD DUP3 PUSH2 0x1EC0 JUMP JUMPDEST SWAP1 POP SWAP2 SWAP1 POP JUMP JUMPDEST PUSH2 0x1EED DUP2 PUSH2 0x1ED2 JUMP JUMPDEST DUP3 MSTORE POP POP JUMP JUMPDEST PUSH1 0x0 PUSH1 0x20 DUP3 ADD SWAP1 POP PUSH2 0x1F08 PUSH1 0x0 DUP4 ADD DUP5 PUSH2 0x1EE4 JUMP JUMPDEST SWAP3 SWAP2 POP POP JUMP JUMPDEST PUSH1 0x0 DUP1 PUSH1 0x40 DUP4 DUP6 SUB SLT ISZERO PUSH2 0x1F25 JUMPI PUSH2 0x1F24 PUSH2 0x1BA2 JUMP JUMPDEST JUMPDEST PUSH1 0x0 PUSH2 0x1F33 DUP6 DUP3 DUP7 ADD PUSH2 0x1D45 JUMP JUMPDEST SWAP3 POP POP PUSH1 0x20 PUSH2 0x1F44 DUP6 DUP3 DUP7 ADD PUSH2 0x1D7B JUMP JUMPDEST SWAP2 POP POP SWAP3 POP SWAP3 SWAP1 POP JUMP JUMPDEST PUSH1 0x0 PUSH1 0x20 DUP3 DUP5 SUB SLT ISZERO PUSH2 0x1F64 JUMPI PUSH2 0x1F63 PUSH2 0x1BA2 JUMP JUMPDEST JUMPDEST PUSH1 0x0 PUSH2 0x1F72 DUP5 DUP3 DUP6 ADD PUSH2 0x1D45 JUMP JUMPDEST SWAP2 POP POP SWAP3 SWAP2 POP POP JUMP JUMPDEST PUSH1 0x0 DUP1 PUSH1 0x40 DUP4 DUP6 SUB SLT ISZERO PUSH2 0x1F92 JUMPI PUSH2 0x1F91 PUSH2 0x1BA2 JUMP JUMPDEST JUMPDEST PUSH1 0x0 PUSH2 0x1FA0 DUP6 DUP3 DUP7 ADD PUSH2 0x1D45 JUMP JUMPDEST SWAP3 POP POP PUSH1 0x20 PUSH2 0x1FB1 DUP6 DUP3 DUP7 ADD PUSH2 0x1D45 JUMP JUMPDEST SWAP2 POP POP SWAP3 POP SWAP3 SWAP1 POP JUMP JUMPDEST PUSH2 0x1FC4 DUP2 PUSH2 0x1D5A JUMP JUMPDEST DUP3 MSTORE POP POP JUMP JUMPDEST PUSH1 0x0 PUSH1 0x20 DUP3 ADD SWAP1 POP PUSH2 0x1FDF PUSH1 0x0 DUP4 ADD DUP5 PUSH2 0x1FBB JUMP JUMPDEST SWAP3 SWAP2 POP POP JUMP JUMPDEST PUSH1 0x0 DUP2 ISZERO ISZERO SWAP1 POP SWAP2 SWAP1 POP JUMP JUMPDEST PUSH2 0x1FFA DUP2 PUSH2 0x1FE5 JUMP JUMPDEST DUP3 MSTORE POP POP JUMP JUMPDEST PUSH1 0x0 PUSH1 0x20 DUP3 ADD SWAP1 POP PUSH2 0x2015 PUSH1 0x0 DUP4 ADD DUP5 PUSH2 0x1FF1 JUMP JUMPDEST SWAP3 SWAP2 POP POP JUMP JUMPDEST PUSH2 0x2024 DUP2 PUSH2 0x1D1C JUMP JUMPDEST DUP3 MSTORE POP POP JUMP JUMPDEST PUSH1 0x0 PUSH1 0x20 DUP3 ADD SWAP1 POP PUSH2 0x203F PUSH1 0x0 DUP4 ADD DUP5 PUSH2 0x201B JUMP JUMPDEST SWAP3 SWAP2 POP POP JUMP JUMPDEST PUSH1 0x0 DUP1 PUSH1 0x0 PUSH1 0x60 DUP5 DUP7 SUB SLT ISZERO PUSH2 0x205E JUMPI PUSH2 0x205D PUSH2 0x1BA2 JUMP JUMPDEST JUMPDEST PUSH1 0x0 PUSH2 0x206C DUP7 DUP3 DUP8 ADD PUSH2 0x1D45 JUMP JUMPDEST SWAP4 POP POP PUSH1 0x20 PUSH2 0x207D DUP7 DUP3 DUP8 ADD PUSH2 0x1D45 JUMP JUMPDEST SWAP3 POP POP PUSH1 0x40 PUSH2 0x208E DUP7 DUP3 DUP8 ADD PUSH2 0x1D7B JUMP JUMPDEST SWAP2 POP POP SWAP3 POP SWAP3 POP SWAP3 JUMP JUMPDEST PUSH1 0x0 PUSH2 0x20A3 DUP3 PUSH2 0x1EC0 JUMP JUMPDEST SWAP1 POP SWAP2 SWAP1 POP JUMP JUMPDEST PUSH2 0x20B3 DUP2 PUSH2 0x2098 JUMP JUMPDEST DUP3 MSTORE POP POP JUMP JUMPDEST PUSH1 0x0 PUSH1 0x20 DUP3 ADD SWAP1 POP PUSH2 0x20CE PUSH1 0x0 DUP4 ADD DUP5 PUSH2 0x20AA JUMP JUMPDEST SWAP3 SWAP2 POP POP JUMP JUMPDEST PUSH1 0x0 PUSH3 0xFFFFFF DUP3 AND SWAP1 POP SWAP2 SWAP1 POP JUMP JUMPDEST PUSH2 0x20EC DUP2 PUSH2 0x20D4 JUMP JUMPDEST DUP2 EQ PUSH2 0x20F7 JUMPI PUSH1 0x0 DUP1 REVERT JUMPDEST POP JUMP JUMPDEST PUSH1 0x0 DUP2 CALLDATALOAD SWAP1 POP PUSH2 0x2109 DUP2 PUSH2 0x20E3 JUMP JUMPDEST SWAP3 SWAP2 POP POP JUMP JUMPDEST PUSH1 0x0 DUP1 PUSH1 0x0 PUSH1 0x60 DUP5 DUP7 SUB SLT ISZERO PUSH2 0x2128 JUMPI PUSH2 0x2127 PUSH2 0x1BA2 JUMP JUMPDEST JUMPDEST PUSH1 0x0 PUSH2 0x2136 DUP7 DUP3 DUP8 ADD PUSH2 0x1D45 JUMP JUMPDEST SWAP4 POP POP PUSH1 0x20 PUSH2 0x2147 DUP7 DUP3 DUP8 ADD PUSH2 0x20FA JUMP JUMPDEST SWAP3 POP POP PUSH1 0x40 PUSH2 0x2158 DUP7 DUP3 DUP8 ADD PUSH2 0x1D45 JUMP JUMPDEST SWAP2 POP POP SWAP3 POP SWAP3 POP SWAP3 JUMP JUMPDEST PUSH1 0x0 DUP2 MLOAD SWAP1 POP SWAP2 SWAP1 POP JUMP JUMPDEST PUSH1 0x0 DUP3 DUP3 MSTORE PUSH1 0x20 DUP3 ADD SWAP1 POP SWAP3 SWAP2 POP POP JUMP JUMPDEST PUSH1 0x0 JUMPDEST DUP4 DUP2 LT ISZERO PUSH2 0x219C JUMPI DUP1 DUP3 ADD MLOAD DUP2 DUP5 ADD MSTORE PUSH1 0x20 DUP2 ADD SWAP1 POP PUSH2 0x2181 JUMP JUMPDEST PUSH1 0x0 DUP5 DUP5 ADD MSTORE POP POP POP POP JUMP JUMPDEST PUSH1 0x0 PUSH2 0x21B3 DUP3 PUSH2 0x2162 JUMP JUMPDEST PUSH2 0x21BD DUP2 DUP6 PUSH2 0x216D JUMP JUMPDEST SWAP4 POP PUSH2 0x21CD DUP2 DUP6 PUSH1 0x20 DUP7 ADD PUSH2 0x217E JUMP JUMPDEST PUSH2 0x21D6 DUP2 PUSH2 0x1BB1 JUMP JUMPDEST DUP5 ADD SWAP2 POP POP SWAP3 SWAP2 POP POP JUMP JUMPDEST PUSH1 0x0 PUSH1 0x20 DUP3 ADD SWAP1 POP DUP2 DUP2 SUB PUSH1 0x0 DUP4 ADD MSTORE PUSH2 0x21FB DUP2 DUP5 PUSH2 0x21A8 JUMP JUMPDEST SWAP1 POP SWAP3 SWAP2 POP POP JUMP JUMPDEST PUSH1 0x0 DUP2 MLOAD SWAP1 POP PUSH2 0x2212 DUP2 PUSH2 0x1D64 JUMP JUMPDEST SWAP3 SWAP2 POP POP JUMP JUMPDEST PUSH1 0x0 PUSH1 0x20 DUP3 DUP5 SUB SLT ISZERO PUSH2 0x222E JUMPI PUSH2 0x222D PUSH2 0x1BA2 JUMP JUMPDEST JUMPDEST PUSH1 0x0 PUSH2 0x223C DUP5 DUP3 DUP6 ADD PUSH2 0x2203 JUMP JUMPDEST SWAP2 POP POP SWAP3 SWAP2 POP POP JUMP JUMPDEST PUSH1 0x0 DUP2 PUSH1 0x60 SHL SWAP1 POP SWAP2 SWAP1 POP JUMP JUMPDEST PUSH1 0x0 PUSH2 0x225D DUP3 PUSH2 0x2245 JUMP JUMPDEST SWAP1 POP SWAP2 SWAP1 POP JUMP JUMPDEST PUSH1 0x0 PUSH2 0x226F DUP3 PUSH2 0x2252 JUMP JUMPDEST SWAP1 POP SWAP2 SWAP1 POP JUMP JUMPDEST PUSH2 0x2287 PUSH2 0x2282 DUP3 PUSH2 0x1D1C JUMP JUMPDEST PUSH2 0x2264 JUMP JUMPDEST DUP3 MSTORE POP POP JUMP JUMPDEST PUSH1 0x0 DUP2 PUSH1 0xE8 SHL SWAP1 POP SWAP2 SWAP1 POP JUMP JUMPDEST PUSH1 0x0 PUSH2 0x22A5 DUP3 PUSH2 0x228D JUMP JUMPDEST SWAP1 POP SWAP2 SWAP1 POP JUMP JUMPDEST PUSH2 0x22BD PUSH2 0x22B8 DUP3 PUSH2 0x20D4 JUMP JUMPDEST PUSH2 0x229A JUMP JUMPDEST DUP3 MSTORE POP POP JUMP JUMPDEST PUSH1 0x0 PUSH2 0x22CF DUP3 DUP7 PUSH2 0x2276 JUMP JUMPDEST PUSH1 0x14 DUP3 ADD SWAP2 POP PUSH2 0x22DF DUP3 DUP6 PUSH2 0x22AC JUMP JUMPDEST PUSH1 0x3 DUP3 ADD SWAP2 POP PUSH2 0x22EF DUP3 DUP5 PUSH2 0x2276 JUMP JUMPDEST PUSH1 0x14 DUP3 ADD SWAP2 POP DUP2 SWAP1 POP SWAP5 SWAP4 POP POP POP POP JUMP JUMPDEST PUSH32 0x4E487B7100000000000000000000000000000000000000000000000000000000 PUSH1 0x0 MSTORE PUSH1 0x11 PUSH1 0x4 MSTORE PUSH1 0x24 PUSH1 0x0 REVERT JUMPDEST PUSH1 0x0 PUSH2 0x233A DUP3 PUSH2 0x1D5A JUMP JUMPDEST SWAP2 POP PUSH2 0x2345 DUP4 PUSH2 0x1D5A JUMP JUMPDEST SWAP3 POP DUP3 DUP3 SUB SWAP1 POP DUP2 DUP2 GT ISZERO PUSH2 0x235D JUMPI PUSH2 0x235C PUSH2 0x2300 JUMP JUMPDEST JUMPDEST SWAP3 SWAP2 POP POP JUMP JUMPDEST PUSH1 0x0 DUP3 DUP3 MSTORE PUSH1 0x20 DUP3 ADD SWAP1 POP SWAP3 SWAP2 POP POP JUMP JUMPDEST PUSH1 0x0 PUSH2 0x237F DUP3 PUSH2 0x2162 JUMP JUMPDEST PUSH2 0x2389 DUP2 DUP6 PUSH2 0x2363 JUMP JUMPDEST SWAP4 POP PUSH2 0x2399 DUP2 DUP6 PUSH1 0x20 DUP7 ADD PUSH2 0x217E JUMP JUMPDEST PUSH2 0x23A2 DUP2 PUSH2 0x1BB1 JUMP JUMPDEST DUP5 ADD SWAP2 POP POP SWAP3 SWAP2 POP POP JUMP JUMPDEST PUSH2 0x23B6 DUP2 PUSH2 0x1D1C JUMP JUMPDEST DUP3 MSTORE POP POP JUMP JUMPDEST PUSH2 0x23C5 DUP2 PUSH2 0x1D5A JUMP JUMPDEST DUP3 MSTORE POP POP JUMP JUMPDEST PUSH1 0x0 PUSH1 0xA0 DUP4 ADD PUSH1 0x0 DUP4 ADD MLOAD DUP5 DUP3 SUB PUSH1 0x0 DUP7 ADD MSTORE PUSH2 0x23E8 DUP3 DUP3 PUSH2 0x2374 JUMP JUMPDEST SWAP2 POP POP PUSH1 0x20 DUP4 ADD MLOAD PUSH2 0x23FD PUSH1 0x20 DUP7 ADD DUP3 PUSH2 0x23AD JUMP JUMPDEST POP PUSH1 0x40 DUP4 ADD MLOAD PUSH2 0x2410 PUSH1 0x40 DUP7 ADD DUP3 PUSH2 0x23BC JUMP JUMPDEST POP PUSH1 0x60 DUP4 ADD MLOAD PUSH2 0x2423 PUSH1 0x60 DUP7 ADD DUP3 PUSH2 0x23BC JUMP JUMPDEST POP PUSH1 0x80 DUP4 ADD MLOAD PUSH2 0x2436 PUSH1 0x80 DUP7 ADD DUP3 PUSH2 0x23BC JUMP JUMPDEST POP DUP1 SWAP2 POP POP SWAP3 SWAP2 POP POP JUMP JUMPDEST PUSH1 0x0 PUSH1 0x20 DUP3 ADD SWAP1 POP DUP2 DUP2 SUB PUSH1 0x0 DUP4 ADD MSTORE PUSH2 0x245B DUP2 DUP5 PUSH2 0x23CB JUMP JUMPDEST SWAP1 POP SWAP3 SWAP2 POP POP JUMP JUMPDEST PUSH1 0x0 DUP3 DUP3 MSTORE PUSH1 0x20 DUP3 ADD SWAP1 POP SWAP3 SWAP2 POP POP JUMP JUMPDEST PUSH32 0x416D6F756E742063616E27742062652030000000000000000000000000000000 PUSH1 0x0 DUP3 ADD MSTORE POP JUMP JUMPDEST PUSH1 0x0 PUSH2 0x24AA PUSH1 0x11 DUP4 PUSH2 0x2463 JUMP JUMPDEST SWAP2 POP PUSH2 0x24B5 DUP3 PUSH2 0x2474 JUMP JUMPDEST PUSH1 0x20 DUP3 ADD SWAP1 POP SWAP2 SWAP1 POP JUMP JUMPDEST PUSH1 0x0 PUSH1 0x20 DUP3 ADD SWAP1 POP DUP2 DUP2 SUB PUSH1 0x0 DUP4 ADD MSTORE PUSH2 0x24D9 DUP2 PUSH2 0x249D JUMP JUMPDEST SWAP1 POP SWAP2 SWAP1 POP JUMP JUMPDEST PUSH1 0x0 PUSH1 0x60 DUP3 ADD SWAP1 POP PUSH2 0x24F5 PUSH1 0x0 DUP4 ADD DUP7 PUSH2 0x201B JUMP JUMPDEST PUSH2 0x2502 PUSH1 0x20 DUP4 ADD DUP6 PUSH2 0x201B JUMP JUMPDEST PUSH2 0x250F PUSH1 0x40 DUP4 ADD DUP5 PUSH2 0x1FBB JUMP JUMPDEST SWAP5 SWAP4 POP POP POP POP JUMP JUMPDEST PUSH2 0x2520 DUP2 PUSH2 0x1FE5 JUMP JUMPDEST DUP2 EQ PUSH2 0x252B JUMPI PUSH1 0x0 DUP1 REVERT JUMPDEST POP JUMP JUMPDEST PUSH1 0x0 DUP2 MLOAD SWAP1 POP PUSH2 0x253D DUP2 PUSH2 0x2517 JUMP JUMPDEST SWAP3 SWAP2 POP POP JUMP JUMPDEST PUSH1 0x0 PUSH1 0x20 DUP3 DUP5 SUB SLT ISZERO PUSH2 0x2559 JUMPI PUSH2 0x2558 PUSH2 0x1BA2 JUMP JUMPDEST JUMPDEST PUSH1 0x0 PUSH2 0x2567 DUP5 DUP3 DUP6 ADD PUSH2 0x252E JUMP JUMPDEST SWAP2 POP POP SWAP3 SWAP2 POP POP JUMP JUMPDEST PUSH32 0x43616E2774206265206120302061646472657373000000000000000000000000 PUSH1 0x0 DUP3 ADD MSTORE POP JUMP JUMPDEST PUSH1 0x0 PUSH2 0x25A6 PUSH1 0x14 DUP4 PUSH2 0x2463 JUMP JUMPDEST SWAP2 POP PUSH2 0x25B1 DUP3 PUSH2 0x2570 JUMP JUMPDEST PUSH1 0x20 DUP3 ADD SWAP1 POP SWAP2 SWAP1 POP JUMP JUMPDEST PUSH1 0x0 PUSH1 0x20 DUP3 ADD SWAP1 POP DUP2 DUP2 SUB PUSH1 0x0 DUP4 ADD MSTORE PUSH2 0x25D5 DUP2 PUSH2 0x2599 JUMP JUMPDEST SWAP1 POP SWAP2 SWAP1 POP JUMP JUMPDEST PUSH32 0x43616E2774206265207468697320616464726573730000000000000000000000 PUSH1 0x0 DUP3 ADD MSTORE POP JUMP JUMPDEST PUSH1 0x0 PUSH2 0x2612 PUSH1 0x15 DUP4 PUSH2 0x2463 JUMP JUMPDEST SWAP2 POP PUSH2 0x261D DUP3 PUSH2 0x25DC JUMP JUMPDEST PUSH1 0x20 DUP3 ADD SWAP1 POP SWAP2 SWAP1 POP JUMP JUMPDEST PUSH1 0x0 PUSH1 0x20 DUP3 ADD SWAP1 POP DUP2 DUP2 SUB PUSH1 0x0 DUP4 ADD MSTORE PUSH2 0x2641 DUP2 PUSH2 0x2605 JUMP JUMPDEST SWAP1 POP SWAP2 SWAP1 POP JUMP JUMPDEST PUSH32 0x416D6F756E7420697320686967686572207468616E2062616C616E6365000000 PUSH1 0x0 DUP3 ADD MSTORE POP JUMP JUMPDEST PUSH1 0x0 PUSH2 0x267E PUSH1 0x1D DUP4 PUSH2 0x2463 JUMP JUMPDEST SWAP2 POP PUSH2 0x2689 DUP3 PUSH2 0x2648 JUMP JUMPDEST PUSH1 0x20 DUP3 ADD SWAP1 POP SWAP2 SWAP1 POP JUMP JUMPDEST PUSH1 0x0 PUSH1 0x20 DUP3 ADD SWAP1 POP DUP2 DUP2 SUB PUSH1 0x0 DUP4 ADD MSTORE PUSH2 0x26AD DUP2 PUSH2 0x2671 JUMP JUMPDEST SWAP1 POP SWAP2 SWAP1 POP JUMP JUMPDEST PUSH1 0x0 PUSH1 0x40 DUP3 ADD SWAP1 POP PUSH2 0x26C9 PUSH1 0x0 DUP4 ADD DUP6 PUSH2 0x201B JUMP JUMPDEST PUSH2 0x26D6 PUSH1 0x20 DUP4 ADD DUP5 PUSH2 0x1FBB JUMP JUMPDEST SWAP4 SWAP3 POP POP POP JUMP JUMPDEST PUSH32 0x4E6F74206C6F636B656400000000000000000000000000000000000000000000 PUSH1 0x0 DUP3 ADD MSTORE POP JUMP JUMPDEST PUSH1 0x0 PUSH2 0x2713 PUSH1 0xA DUP4 PUSH2 0x2463 JUMP JUMPDEST SWAP2 POP PUSH2 0x271E DUP3 PUSH2 0x26DD JUMP JUMPDEST PUSH1 0x20 DUP3 ADD SWAP1 POP SWAP2 SWAP1 POP JUMP JUMPDEST PUSH1 0x0 PUSH1 0x20 DUP3 ADD SWAP1 POP DUP2 DUP2 SUB PUSH1 0x0 DUP4 ADD MSTORE PUSH2 0x2742 DUP2 PUSH2 0x2706 JUMP JUMPDEST SWAP1 POP SWAP2 SWAP1 POP JUMP JUMPDEST PUSH32 0x416C7265616479206C6F636B6564000000000000000000000000000000000000 PUSH1 0x0 DUP3 ADD MSTORE POP JUMP JUMPDEST PUSH1 0x0 PUSH2 0x277F PUSH1 0xE DUP4 PUSH2 0x2463 JUMP JUMPDEST SWAP2 POP PUSH2 0x278A DUP3 PUSH2 0x2749 JUMP JUMPDEST PUSH1 0x20 DUP3 ADD SWAP1 POP SWAP2 SWAP1 POP JUMP JUMPDEST PUSH1 0x0 PUSH1 0x20 DUP3 ADD SWAP1 POP DUP2 DUP2 SUB PUSH1 0x0 DUP4 ADD MSTORE PUSH2 0x27AE DUP2 PUSH2 0x2772 JUMP JUMPDEST SWAP1 POP SWAP2 SWAP1 POP JUMP INVALID LOG2 PUSH5 0x6970667358 0x22 SLT KECCAK256 NUMBER 0xE7 JUMPI DUP3 SAR PUSH5 0xE8060E4F67 0xF6 BASEFEE JUMP 0xBD JUMPI CALLDATALOAD 0x29 MUL 0xD2 TIMESTAMP DUP12 PUSH2 0x9BC6 0xCF STOP NUMBER 0xC0 SHR PUSH10 0x6864736F6C6343000814 STOP CALLER "},"methodIdentifiers":{"approveToken(address,address,uint256)":"da3e3397","depositToken(address,uint256)":"338b5dea","isLocked()":"a4e2d634","lock()":"f83d08ba","pancakeRouterV3()":"e47aaf6d","returnBlockTimestamp()":"f556d1d4","returnPathData(address,uint24,address)":"f1584673","returnTokenApproved(address,address)":"786fb10c","returnTokenBalance(address)":"a119b86e","setTradeExecutor(address)":"5767c659","swapUSDCforUSDTnoSlippage()":"0ebaf458","swapUSDTforUSDCnoSlippage()":"7201c6be","trade1((bytes,address,uint256,uint256,uint256),uint256)":"05ddad1f","trade2((bytes,address,uint256,uint256,uint256),uint256)":"272a6dd9","tradeExecutor()":"a7f07011","unlock()":"a69df4b5","usdc()":"3e413bee","usdt()":"2f48ab7d","weth()":"3fc8cef3","withdrawToken(address,uint256)":"9e281a98"}}}}}