{"contracts/OptimusPrime.sol":{"OptimusPrime":{"abi":[{"inputs":[{"internalType":"address","name":"_pancakeswapRouterV3","type":"address"},{"internalType":"address","name":"_uniswapRouterV3","type":"address"}],"stateMutability":"nonpayable","type":"constructor"},{"inputs":[{"internalType":"uint256","name":"finalBalance","type":"uint256"}],"name":"NoProfit","type":"error"},{"inputs":[{"internalType":"address","name":"sender","type":"address"}],"name":"NotTheOwner","type":"error"},{"inputs":[{"internalType":"address","name":"sender","type":"address"}],"name":"NotTheTradeExecutor","type":"error"},{"inputs":[{"internalType":"address","name":"token","type":"address"}],"name":"TokenNotAccepted","type":"error"},{"anonymous":false,"inputs":[{"indexed":false,"internalType":"uint256","name":"_finalBalance","type":"uint256"}],"name":"Profit","type":"event"},{"inputs":[{"internalType":"address","name":"tokenToApprove","type":"address"},{"internalType":"address","name":"spender","type":"address"},{"internalType":"uint256","name":"amount","type":"uint256"}],"name":"approveToken","outputs":[],"stateMutability":"nonpayable","type":"function"},{"inputs":[{"internalType":"address","name":"token","type":"address"},{"internalType":"uint256","name":"amount","type":"uint256"}],"name":"depositToken","outputs":[],"stateMutability":"nonpayable","type":"function"},{"inputs":[],"name":"isLocked","outputs":[{"internalType":"bool","name":"","type":"bool"}],"stateMutability":"view","type":"function"},{"inputs":[],"name":"lock","outputs":[],"stateMutability":"nonpayable","type":"function"},{"inputs":[],"name":"pancakeRouterV3","outputs":[{"internalType":"contract IV3PancakeSwapRouter","name":"","type":"address"}],"stateMutability":"view","type":"function"},{"inputs":[],"name":"returnBlockTimestamp","outputs":[{"internalType":"uint256","name":"","type":"uint256"}],"stateMutability":"view","type":"function"},{"inputs":[{"internalType":"address","name":"tokenA","type":"address"},{"internalType":"uint24","name":"poolFee","type":"uint24"},{"internalType":"address","name":"tokenB","type":"address"}],"name":"returnPathData","outputs":[{"internalType":"bytes","name":"","type":"bytes"}],"stateMutability":"pure","type":"function"},{"inputs":[{"internalType":"address","name":"token","type":"address"},{"internalType":"address","name":"spender","type":"address"}],"name":"returnTokenApproved","outputs":[{"internalType":"uint256","name":"","type":"uint256"}],"stateMutability":"view","type":"function"},{"inputs":[{"internalType":"address","name":"token","type":"address"}],"name":"returnTokenBalance","outputs":[{"internalType":"uint256","name":"","type":"uint256"}],"stateMutability":"view","type":"function"},{"inputs":[{"internalType":"address","name":"_tradeExecutor","type":"address"}],"name":"setTradeExecutor","outputs":[],"stateMutability":"nonpayable","type":"function"},{"inputs":[],"name":"swapUSDCforUSDTnoSlippage","outputs":[],"stateMutability":"nonpayable","type":"function"},{"inputs":[],"name":"swapUSDCforUSDTwithSlippage","outputs":[],"stateMutability":"nonpayable","type":"function"},{"inputs":[],"name":"swapUSDTforUSDCnoSlippage","outputs":[],"stateMutability":"nonpayable","type":"function"},{"inputs":[],"name":"swapUSDTforUSDCwithSlippage","outputs":[],"stateMutability":"nonpayable","type":"function"},{"inputs":[{"components":[{"internalType":"bytes","name":"path","type":"bytes"},{"internalType":"address","name":"recipient","type":"address"},{"internalType":"uint256","name":"deadline","type":"uint256"},{"internalType":"uint256","name":"amountIn","type":"uint256"},{"internalType":"uint256","name":"amountOutMinimum","type":"uint256"}],"internalType":"struct IV3PancakeSwapRouter.ExactInputParams","name":"params","type":"tuple"},{"internalType":"uint256","name":"initialAmountIn","type":"uint256"}],"name":"trade1","outputs":[],"stateMutability":"nonpayable","type":"function"},{"inputs":[{"components":[{"internalType":"bytes","name":"path","type":"bytes"},{"internalType":"address","name":"recipient","type":"address"},{"internalType":"uint256","name":"deadline","type":"uint256"},{"internalType":"uint256","name":"amountIn","type":"uint256"},{"internalType":"uint256","name":"amountOutMinimum","type":"uint256"}],"internalType":"struct IV3PancakeSwapRouter.ExactInputParams","name":"params","type":"tuple"},{"internalType":"uint256","name":"initialAmountIn","type":"uint256"}],"name":"trade2","outputs":[],"stateMutability":"nonpayable","type":"function"},{"inputs":[],"name":"tradeExecutor","outputs":[{"internalType":"address","name":"","type":"address"}],"stateMutability":"view","type":"function"},{"inputs":[],"name":"uniswapRouterV3","outputs":[{"internalType":"contract IV3UniswapSwapRouter","name":"","type":"address"}],"stateMutability":"view","type":"function"},{"inputs":[],"name":"unlock","outputs":[],"stateMutability":"nonpayable","type":"function"},{"inputs":[],"name":"usdc","outputs":[{"internalType":"contract IERC20","name":"","type":"address"}],"stateMutability":"view","type":"function"},{"inputs":[],"name":"usdt","outputs":[{"internalType":"contract IERC20","name":"","type":"address"}],"stateMutability":"view","type":"function"},{"inputs":[],"name":"weth","outputs":[{"internalType":"contract IERC20","name":"","type":"address"}],"stateMutability":"view","type":"function"},{"inputs":[{"internalType":"address","name":"token","type":"address"},{"internalType":"uint256","name":"amount","type":"uint256"}],"name":"withdrawToken","outputs":[],"stateMutability":"nonpayable","type":"function"}],"evm":{"bytecode":{"linkReferences":{},"object":"60e06040523480156200001157600080fd5b50604051620039b0380380620039b0833981810160405281019062000037919062000145565b8173ffffffffffffffffffffffffffffffffffffffff1660a08173ffffffffffffffffffffffffffffffffffffffff16815250508073ffffffffffffffffffffffffffffffffffffffff1660c08173ffffffffffffffffffffffffffffffffffffffff16815250503373ffffffffffffffffffffffffffffffffffffffff1660808173ffffffffffffffffffffffffffffffffffffffff168152505050506200018c565b600080fd5b600073ffffffffffffffffffffffffffffffffffffffff82169050919050565b60006200010d82620000e0565b9050919050565b6200011f8162000100565b81146200012b57600080fd5b50565b6000815190506200013f8162000114565b92915050565b600080604083850312156200015f576200015e620000db565b5b60006200016f858286016200012e565b925050602062000182858286016200012e565b9150509250929050565b60805160a05160c05161377d620002336000396000818161099f015281816114b80152611c9b0152600081816108fd015281816112d2015281816118da01528181611e87015281816124d30152818161263101526126d101526000818161074801528181610d6b01528181610fad01528181611575015281816117250152818161197c01528181611fb3015281816122180152818161233e015261252e015261377d6000f3fe608060405234801561001057600080fd5b506004361061014d5760003560e01c8063743aa1d0116100c3578063a7f070111161007c578063a7f0701114610306578063da3e339714610324578063e47aaf6d14610340578063f15846731461035e578063f556d1d41461038e578063f83d08ba146103ac5761014d565b8063743aa1d014610258578063786fb10c146102625780639e281a9814610292578063a119b86e146102ae578063a4e2d634146102de578063a69df4b5146102fc5761014d565b8063338b5dea11610115578063338b5dea146101d05780633e413bee146101ec5780633ee0b6241461020a5780633fc8cef3146102145780635767c659146102325780637201c6be1461024e5761014d565b806305ddad1f146101525780630ebaf4581461016e57806310f91b0b14610178578063272a6dd9146101965780632f48ab7d146101b2575b600080fd5b61016c60048036038101906101679190612a0f565b6103b6565b005b610176610746565b005b61018061099d565b60405161018d9190612aca565b60405180910390f35b6101b060048036038101906101ab9190612a0f565b6109c1565b005b6101ba610d51565b6040516101c79190612b06565b60405180910390f35b6101ea60048036038101906101e59190612b21565b610d69565b005b6101f4610f93565b6040516102019190612b06565b60405180910390f35b610212610fab565b005b61021c61155b565b6040516102299190612b06565b60405180910390f35b61024c60048036038101906102479190612b61565b611573565b005b610256611723565b005b61026061197a565b005b61027c60048036038101906102779190612b8e565b611f2a565b6040516102899190612bdd565b60405180910390f35b6102ac60048036038101906102a79190612b21565b611fb1565b005b6102c860048036038101906102c39190612b61565b612180565b6040516102d59190612bdd565b60405180910390f35b6102e6612203565b6040516102f39190612c13565b60405180910390f35b610304612216565b005b61030e612318565b60405161031b9190612c3d565b60405180910390f35b61033e60048036038101906103399190612c58565b61233c565b005b6103486124d1565b6040516103559190612ccc565b60405180910390f35b61037860048036038101906103739190612d22565b6124f5565b6040516103859190612df4565b60405180910390f35b610396612524565b6040516103a39190612bdd565b60405180910390f35b6103b461252c565b005b60008054906101000a900473ffffffffffffffffffffffffffffffffffffffff1673ffffffffffffffffffffffffffffffffffffffff163373ffffffffffffffffffffffffffffffffffffffff161461044657336040517f4104d7d700000000000000000000000000000000000000000000000000000000815260040161043d9190612c3d565b60405180910390fd5b600073fd086bc7cd5c481dcc9c85ebe478a1c0b69fcbb973ffffffffffffffffffffffffffffffffffffffff166370a08231306040518263ffffffff1660e01b81526004016104959190612c3d565b602060405180830381865afa1580156104b2573d6000803e3d6000fd5b505050506040513d601f19601f820116820180604052508101906104d69190612e2b565b90506104e18361262f565b60006064905060006040518060a001604052807382af49447d8a07e3bd95bd0d56f35241523fbab18473fd086bc7cd5c481dcc9c85ebe478a1c0b69fcbb960405160200161053193929190612ed6565b60405160208183030381529060405281526020013073ffffffffffffffffffffffffffffffffffffffff1681526020014281526020017382af49447d8a07e3bd95bd0d56f35241523fbab173ffffffffffffffffffffffffffffffffffffffff166370a08231306040518263ffffffff1660e01b81526004016105b49190612c3d565b602060405180830381865afa1580156105d1573d6000803e3d6000fd5b505050506040513d601f19601f820116820180604052508101906105f59190612e2b565b81526020016000815250905061060a816126cf565b600073fd086bc7cd5c481dcc9c85ebe478a1c0b69fcbb973ffffffffffffffffffffffffffffffffffffffff166370a08231306040518263ffffffff1660e01b81526004016106599190612c3d565b602060405180830381865afa158015610676573d6000803e3d6000fd5b505050506040513d601f19601f8201168201806040525081019061069a9190612e2b565b90508484826106a99190612f42565b11156106f6577f357d905f1831209797df4d55d79c5c5bf1d9f7311c976afd05e13d881eab9bc884826106dc9190612f42565b6040516106e99190612bdd565b60405180910390a161073e565b83816107029190612f42565b6040517fd4989a940000000000000000000000000000000000000000000000000000000081526004016107359190612bdd565b60405180910390fd5b505050505050565b7f000000000000000000000000000000000000000000000000000000000000000073ffffffffffffffffffffffffffffffffffffffff163373ffffffffffffffffffffffffffffffffffffffff16146107d657336040517ff9ebb4c70000000000000000000000000000000000000000000000000000000081526004016107cd9190612c3d565b60405180910390fd5b600060649050600073af88d065e77c8cc2239327c5edb3a432268e583173ffffffffffffffffffffffffffffffffffffffff166370a08231306040518263ffffffff1660e01b815260040161082b9190612c3d565b602060405180830381865afa158015610848573d6000803e3d6000fd5b505050506040513d601f19601f8201168201806040525081019061086c9190612e2b565b905060006040518060a0016040528073af88d065e77c8cc2239327c5edb3a432268e58318573fd086bc7cd5c481dcc9c85ebe478a1c0b69fcbb96040516020016108b893929190612ed6565b60405160208183030381529060405281526020013073ffffffffffffffffffffffffffffffffffffffff168152602001428152602001838152602001600081525090507f000000000000000000000000000000000000000000000000000000000000000073ffffffffffffffffffffffffffffffffffffffff1663c04b8d59826040518263ffffffff1660e01b81526004016109549190613054565b6020604051808303816000875af1158015610973573d6000803e3d6000fd5b505050506040513d601f19601f820116820180604052508101906109979190612e2b565b50505050565b7f000000000000000000000000000000000000000000000000000000000000000081565b60008054906101000a900473ffffffffffffffffffffffffffffffffffffffff1673ffffffffffffffffffffffffffffffffffffffff163373ffffffffffffffffffffffffffffffffffffffff1614610a5157336040517f4104d7d7000000000000000000000000000000000000000000000000000000008152600401610a489190612c3d565b60405180910390fd5b600073af88d065e77c8cc2239327c5edb3a432268e583173ffffffffffffffffffffffffffffffffffffffff166370a08231306040518263ffffffff1660e01b8152600401610aa09190612c3d565b602060405180830381865afa158015610abd573d6000803e3d6000fd5b505050506040513d601f19601f82011682018060405250810190610ae19190612e2b565b9050610aec8361262f565b60006064905060006040518060a001604052807382af49447d8a07e3bd95bd0d56f35241523fbab18473af88d065e77c8cc2239327c5edb3a432268e5831604051602001610b3c93929190612ed6565b60405160208183030381529060405281526020013073ffffffffffffffffffffffffffffffffffffffff1681526020014281526020017382af49447d8a07e3bd95bd0d56f35241523fbab173ffffffffffffffffffffffffffffffffffffffff166370a08231306040518263ffffffff1660e01b8152600401610bbf9190612c3d565b602060405180830381865afa158015610bdc573d6000803e3d6000fd5b505050506040513d601f19601f82011682018060405250810190610c009190612e2b565b815260200160008152509050610c15816126cf565b600073af88d065e77c8cc2239327c5edb3a432268e583173ffffffffffffffffffffffffffffffffffffffff166370a08231306040518263ffffffff1660e01b8152600401610c649190612c3d565b602060405180830381865afa158015610c81573d6000803e3d6000fd5b505050506040513d601f19601f82011682018060405250810190610ca59190612e2b565b9050848482610cb49190612f42565b1115610d01577f357d905f1831209797df4d55d79c5c5bf1d9f7311c976afd05e13d881eab9bc88482610ce79190612f42565b604051610cf49190612bdd565b60405180910390a1610d49565b8381610d0d9190612f42565b6040517fd4989a94000000000000000000000000000000000000000000000000000000008152600401610d409190612bdd565b60405180910390fd5b505050505050565b73fd086bc7cd5c481dcc9c85ebe478a1c0b69fcbb981565b7f000000000000000000000000000000000000000000000000000000000000000073ffffffffffffffffffffffffffffffffffffffff163373ffffffffffffffffffffffffffffffffffffffff1614610df957336040517ff9ebb4c7000000000000000000000000000000000000000000000000000000008152600401610df09190612c3d565b60405180910390fd5b73fd086bc7cd5c481dcc9c85ebe478a1c0b69fcbb973ffffffffffffffffffffffffffffffffffffffff168273ffffffffffffffffffffffffffffffffffffffff1614158015610e89575073af88d065e77c8cc2239327c5edb3a432268e583173ffffffffffffffffffffffffffffffffffffffff168273ffffffffffffffffffffffffffffffffffffffff1614155b15610ecb57816040517ff01157c3000000000000000000000000000000000000000000000000000000008152600401610ec29190612c3d565b60405180910390fd5b60008111610f0e576040517f08c379a0000000000000000000000000000000000000000000000000000000008152600401610f05906130d3565b60405180910390fd5b8173ffffffffffffffffffffffffffffffffffffffff166323b872dd3330846040518463ffffffff1660e01b8152600401610f4b939291906130f3565b6020604051808303816000875af1158015610f6a573d6000803e3d6000fd5b505050506040513d601f19601f82011682018060405250810190610f8e9190613156565b505050565b73af88d065e77c8cc2239327c5edb3a432268e583181565b7f000000000000000000000000000000000000000000000000000000000000000073ffffffffffffffffffffffffffffffffffffffff163373ffffffffffffffffffffffffffffffffffffffff161461103b57336040517ff9ebb4c70000000000000000000000000000000000000000000000000000000081526004016110329190612c3d565b60405180910390fd5b600073be3ad6a5669dc0b8b12febc03608860c31e2eef673ffffffffffffffffffffffffffffffffffffffff16633850c7bd6040518163ffffffff1660e01b815260040160e060405180830381865afa15801561109c573d6000803e3d6000fd5b505050506040513d601f19601f820116820180604052508101906110c0919061325b565b50505050505090506000737e928afb59f5de9d2f4d162f754c6eb40c88aa8e73ffffffffffffffffffffffffffffffffffffffff16633850c7bd6040518163ffffffff1660e01b815260040160e060405180830381865afa158015611129573d6000803e3d6000fd5b505050506040513d601f19601f8201168201806040525081019061114d9190613339565b50505050505090508073ffffffffffffffffffffffffffffffffffffffff168273ffffffffffffffffffffffffffffffffffffffff16111561137557600060649050600073fd086bc7cd5c481dcc9c85ebe478a1c0b69fcbb973ffffffffffffffffffffffffffffffffffffffff166370a08231306040518263ffffffff1660e01b81526004016111de9190612c3d565b602060405180830381865afa1580156111fb573d6000803e3d6000fd5b505050506040513d601f19601f8201168201806040525081019061121f9190612e2b565b905060006040518060a0016040528073fd086bc7cd5c481dcc9c85ebe478a1c0b69fcbb98573af88d065e77c8cc2239327c5edb3a432268e583160405160200161126b93929190612ed6565b60405160208183030381529060405281526020013073ffffffffffffffffffffffffffffffffffffffff16815260200142815260200183815260200160646001856112b691906133db565b6112c0919061344c565b846112cb9190612f42565b81525090507f000000000000000000000000000000000000000000000000000000000000000073ffffffffffffffffffffffffffffffffffffffff1663c04b8d59826040518263ffffffff1660e01b81526004016113299190613054565b6020604051808303816000875af1158015611348573d6000803e3d6000fd5b505050506040513d601f19601f8201168201806040525081019061136c9190612e2b565b50505050611557565b600060649050600073fd086bc7cd5c481dcc9c85ebe478a1c0b69fcbb973ffffffffffffffffffffffffffffffffffffffff166370a08231306040518263ffffffff1660e01b81526004016113ca9190612c3d565b602060405180830381865afa1580156113e7573d6000803e3d6000fd5b505050506040513d601f19601f8201168201806040525081019061140b9190612e2b565b90506000604051806080016040528073fd086bc7cd5c481dcc9c85ebe478a1c0b69fcbb98573af88d065e77c8cc2239327c5edb3a432268e583160405160200161145793929190612ed6565b60405160208183030381529060405281526020013073ffffffffffffffffffffffffffffffffffffffff168152602001838152602001606460018561149c91906133db565b6114a6919061344c565b846114b19190612f42565b81525090507f000000000000000000000000000000000000000000000000000000000000000073ffffffffffffffffffffffffffffffffffffffff1663b858183f826040518263ffffffff1660e01b815260040161150f91906134e0565b6020604051808303816000875af115801561152e573d6000803e3d6000fd5b505050506040513d601f19601f820116820180604052508101906115529190612e2b565b505050505b5050565b7382af49447d8a07e3bd95bd0d56f35241523fbab181565b7f000000000000000000000000000000000000000000000000000000000000000073ffffffffffffffffffffffffffffffffffffffff163373ffffffffffffffffffffffffffffffffffffffff161461160357336040517ff9ebb4c70000000000000000000000000000000000000000000000000000000081526004016115fa9190612c3d565b60405180910390fd5b600073ffffffffffffffffffffffffffffffffffffffff168173ffffffffffffffffffffffffffffffffffffffff1603611672576040517f08c379a00000000000000000000000000000000000000000000000000000000081526004016116699061354e565b60405180910390fd5b3073ffffffffffffffffffffffffffffffffffffffff168173ffffffffffffffffffffffffffffffffffffffff16036116e0576040517f08c379a00000000000000000000000000000000000000000000000000000000081526004016116d7906135ba565b60405180910390fd5b806000806101000a81548173ffffffffffffffffffffffffffffffffffffffff021916908373ffffffffffffffffffffffffffffffffffffffff16021790555050565b7f000000000000000000000000000000000000000000000000000000000000000073ffffffffffffffffffffffffffffffffffffffff163373ffffffffffffffffffffffffffffffffffffffff16146117b357336040517ff9ebb4c70000000000000000000000000000000000000000000000000000000081526004016117aa9190612c3d565b60405180910390fd5b600060649050600073fd086bc7cd5c481dcc9c85ebe478a1c0b69fcbb973ffffffffffffffffffffffffffffffffffffffff166370a08231306040518263ffffffff1660e01b81526004016118089190612c3d565b602060405180830381865afa158015611825573d6000803e3d6000fd5b505050506040513d601f19601f820116820180604052508101906118499190612e2b565b905060006040518060a0016040528073fd086bc7cd5c481dcc9c85ebe478a1c0b69fcbb98573af88d065e77c8cc2239327c5edb3a432268e583160405160200161189593929190612ed6565b60405160208183030381529060405281526020013073ffffffffffffffffffffffffffffffffffffffff168152602001428152602001838152602001600081525090507f000000000000000000000000000000000000000000000000000000000000000073ffffffffffffffffffffffffffffffffffffffff1663c04b8d59826040518263ffffffff1660e01b81526004016119319190613054565b6020604051808303816000875af1158015611950573d6000803e3d6000fd5b505050506040513d601f19601f820116820180604052508101906119749190612e2b565b50505050565b7f000000000000000000000000000000000000000000000000000000000000000073ffffffffffffffffffffffffffffffffffffffff163373ffffffffffffffffffffffffffffffffffffffff1614611a0a57336040517ff9ebb4c7000000000000000000000000000000000000000000000000000000008152600401611a019190612c3d565b60405180910390fd5b600073be3ad6a5669dc0b8b12febc03608860c31e2eef673ffffffffffffffffffffffffffffffffffffffff16633850c7bd6040518163ffffffff1660e01b815260040160e060405180830381865afa158015611a6b573d6000803e3d6000fd5b505050506040513d601f19601f82011682018060405250810190611a8f919061325b565b50505050505090506000737e928afb59f5de9d2f4d162f754c6eb40c88aa8e73ffffffffffffffffffffffffffffffffffffffff16633850c7bd6040518163ffffffff1660e01b815260040160e060405180830381865afa158015611af8573d6000803e3d6000fd5b505050506040513d601f19601f82011682018060405250810190611b1c9190613339565b50505050505090508073ffffffffffffffffffffffffffffffffffffffff168273ffffffffffffffffffffffffffffffffffffffff161115611d3e57600060649050600073af88d065e77c8cc2239327c5edb3a432268e583173ffffffffffffffffffffffffffffffffffffffff166370a08231306040518263ffffffff1660e01b8152600401611bad9190612c3d565b602060405180830381865afa158015611bca573d6000803e3d6000fd5b505050506040513d601f19601f82011682018060405250810190611bee9190612e2b565b90506000604051806080016040528073af88d065e77c8cc2239327c5edb3a432268e58318573fd086bc7cd5c481dcc9c85ebe478a1c0b69fcbb9604051602001611c3a93929190612ed6565b60405160208183030381529060405281526020013073ffffffffffffffffffffffffffffffffffffffff1681526020018381526020016064600185611c7f91906133db565b611c89919061344c565b84611c949190612f42565b81525090507f000000000000000000000000000000000000000000000000000000000000000073ffffffffffffffffffffffffffffffffffffffff1663b858183f826040518263ffffffff1660e01b8152600401611cf291906134e0565b6020604051808303816000875af1158015611d11573d6000803e3d6000fd5b505050506040513d601f19601f82011682018060405250810190611d359190612e2b565b50505050611f26565b600060649050600073af88d065e77c8cc2239327c5edb3a432268e583173ffffffffffffffffffffffffffffffffffffffff166370a08231306040518263ffffffff1660e01b8152600401611d939190612c3d565b602060405180830381865afa158015611db0573d6000803e3d6000fd5b505050506040513d601f19601f82011682018060405250810190611dd49190612e2b565b905060006040518060a0016040528073af88d065e77c8cc2239327c5edb3a432268e58318573fd086bc7cd5c481dcc9c85ebe478a1c0b69fcbb9604051602001611e2093929190612ed6565b60405160208183030381529060405281526020013073ffffffffffffffffffffffffffffffffffffffff1681526020014281526020018381526020016064600185611e6b91906133db565b611e75919061344c565b84611e809190612f42565b81525090507f000000000000000000000000000000000000000000000000000000000000000073ffffffffffffffffffffffffffffffffffffffff1663c04b8d59826040518263ffffffff1660e01b8152600401611ede9190613054565b6020604051808303816000875af1158015611efd573d6000803e3d6000fd5b505050506040513d601f19601f82011682018060405250810190611f219190612e2b565b505050505b5050565b6000600160008473ffffffffffffffffffffffffffffffffffffffff1673ffffffffffffffffffffffffffffffffffffffff16815260200190815260200160002060008373ffffffffffffffffffffffffffffffffffffffff1673ffffffffffffffffffffffffffffffffffffffff16815260200190815260200160002054905092915050565b7f000000000000000000000000000000000000000000000000000000000000000073ffffffffffffffffffffffffffffffffffffffff163373ffffffffffffffffffffffffffffffffffffffff161461204157336040517ff9ebb4c70000000000000000000000000000000000000000000000000000000081526004016120389190612c3d565b60405180910390fd5b8173ffffffffffffffffffffffffffffffffffffffff166370a08231306040518263ffffffff1660e01b815260040161207a9190612c3d565b602060405180830381865afa158015612097573d6000803e3d6000fd5b505050506040513d601f19601f820116820180604052508101906120bb9190612e2b565b8111156120fd576040517f08c379a00000000000000000000000000000000000000000000000000000000081526004016120f490613626565b60405180910390fd5b8173ffffffffffffffffffffffffffffffffffffffff1663a9059cbb33836040518363ffffffff1660e01b8152600401612138929190613646565b6020604051808303816000875af1158015612157573d6000803e3d6000fd5b505050506040513d601f19601f8201168201806040525081019061217b9190613156565b505050565b60008173ffffffffffffffffffffffffffffffffffffffff166370a08231306040518263ffffffff1660e01b81526004016121bb9190612c3d565b602060405180830381865afa1580156121d8573d6000803e3d6000fd5b505050506040513d601f19601f820116820180604052508101906121fc9190612e2b565b9050919050565b600060149054906101000a900460ff1681565b7f000000000000000000000000000000000000000000000000000000000000000073ffffffffffffffffffffffffffffffffffffffff163373ffffffffffffffffffffffffffffffffffffffff16146122a657336040517ff9ebb4c700000000000000000000000000000000000000000000000000000000815260040161229d9190612c3d565b60405180910390fd5b60011515600060149054906101000a900460ff161515146122fc576040517f08c379a00000000000000000000000000000000000000000000000000000000081526004016122f3906136bb565b60405180910390fd5b60008060146101000a81548160ff021916908315150217905550565b60008054906101000a900473ffffffffffffffffffffffffffffffffffffffff1681565b7f000000000000000000000000000000000000000000000000000000000000000073ffffffffffffffffffffffffffffffffffffffff163373ffffffffffffffffffffffffffffffffffffffff16146123cc57336040517ff9ebb4c70000000000000000000000000000000000000000000000000000000081526004016123c39190612c3d565b60405180910390fd5b80600160008573ffffffffffffffffffffffffffffffffffffffff1673ffffffffffffffffffffffffffffffffffffffff16815260200190815260200160002060008473ffffffffffffffffffffffffffffffffffffffff1673ffffffffffffffffffffffffffffffffffffffff168152602001908152602001600020819055508273ffffffffffffffffffffffffffffffffffffffff1663095ea7b383836040518363ffffffff1660e01b8152600401612488929190613646565b6020604051808303816000875af11580156124a7573d6000803e3d6000fd5b505050506040513d601f19601f820116820180604052508101906124cb9190613156565b50505050565b7f000000000000000000000000000000000000000000000000000000000000000081565b606083838360405160200161250c93929190612ed6565b60405160208183030381529060405290509392505050565b600042905090565b7f000000000000000000000000000000000000000000000000000000000000000073ffffffffffffffffffffffffffffffffffffffff163373ffffffffffffffffffffffffffffffffffffffff16146125bc57336040517ff9ebb4c70000000000000000000000000000000000000000000000000000000081526004016125b39190612c3d565b60405180910390fd5b60001515600060149054906101000a900460ff16151514612612576040517f08c379a000000000000000000000000000000000000000000000000000000000815260040161260990613727565b60405180910390fd5b6001600060146101000a81548160ff021916908315150217905550565b7f000000000000000000000000000000000000000000000000000000000000000073ffffffffffffffffffffffffffffffffffffffff1663c04b8d59826040518263ffffffff1660e01b81526004016126889190613054565b6020604051808303816000875af11580156126a7573d6000803e3d6000fd5b505050506040513d601f19601f820116820180604052508101906126cb9190612e2b565b5050565b7f000000000000000000000000000000000000000000000000000000000000000073ffffffffffffffffffffffffffffffffffffffff1663c04b8d59826040518263ffffffff1660e01b81526004016127289190613054565b6020604051808303816000875af1158015612747573d6000803e3d6000fd5b505050506040513d601f19601f8201168201806040525081019061276b9190612e2b565b5050565b6000604051905090565b600080fd5b600080fd5b600080fd5b6000601f19601f8301169050919050565b7f4e487b7100000000000000000000000000000000000000000000000000000000600052604160045260246000fd5b6127d182612788565b810181811067ffffffffffffffff821117156127f0576127ef612799565b5b80604052505050565b600061280361276f565b905061280f82826127c8565b919050565b600080fd5b600080fd5b600080fd5b600067ffffffffffffffff82111561283e5761283d612799565b5b61284782612788565b9050602081019050919050565b82818337600083830152505050565b600061287661287184612823565b6127f9565b9050828152602081018484840111156128925761289161281e565b5b61289d848285612854565b509392505050565b600082601f8301126128ba576128b9612819565b5b81356128ca848260208601612863565b91505092915050565b600073ffffffffffffffffffffffffffffffffffffffff82169050919050565b60006128fe826128d3565b9050919050565b61290e816128f3565b811461291957600080fd5b50565b60008135905061292b81612905565b92915050565b6000819050919050565b61294481612931565b811461294f57600080fd5b50565b6000813590506129618161293b565b92915050565b600060a0828403121561297d5761297c612783565b5b61298760a06127f9565b9050600082013567ffffffffffffffff8111156129a7576129a6612814565b5b6129b3848285016128a5565b60008301525060206129c78482850161291c565b60208301525060406129db84828501612952565b60408301525060606129ef84828501612952565b6060830152506080612a0384828501612952565b60808301525092915050565b60008060408385031215612a2657612a25612779565b5b600083013567ffffffffffffffff811115612a4457612a4361277e565b5b612a5085828601612967565b9250506020612a6185828601612952565b9150509250929050565b6000819050919050565b6000612a90612a8b612a86846128d3565b612a6b565b6128d3565b9050919050565b6000612aa282612a75565b9050919050565b6000612ab482612a97565b9050919050565b612ac481612aa9565b82525050565b6000602082019050612adf6000830184612abb565b92915050565b6000612af082612a97565b9050919050565b612b0081612ae5565b82525050565b6000602082019050612b1b6000830184612af7565b92915050565b60008060408385031215612b3857612b37612779565b5b6000612b468582860161291c565b9250506020612b5785828601612952565b9150509250929050565b600060208284031215612b7757612b76612779565b5b6000612b858482850161291c565b91505092915050565b60008060408385031215612ba557612ba4612779565b5b6000612bb38582860161291c565b9250506020612bc48582860161291c565b9150509250929050565b612bd781612931565b82525050565b6000602082019050612bf26000830184612bce565b92915050565b60008115159050919050565b612c0d81612bf8565b82525050565b6000602082019050612c286000830184612c04565b92915050565b612c37816128f3565b82525050565b6000602082019050612c526000830184612c2e565b92915050565b600080600060608486031215612c7157612c70612779565b5b6000612c7f8682870161291c565b9350506020612c908682870161291c565b9250506040612ca186828701612952565b9150509250925092565b6000612cb682612a97565b9050919050565b612cc681612cab565b82525050565b6000602082019050612ce16000830184612cbd565b92915050565b600062ffffff82169050919050565b612cff81612ce7565b8114612d0a57600080fd5b50565b600081359050612d1c81612cf6565b92915050565b600080600060608486031215612d3b57612d3a612779565b5b6000612d498682870161291c565b9350506020612d5a86828701612d0d565b9250506040612d6b8682870161291c565b9150509250925092565b600081519050919050565b600082825260208201905092915050565b60005b83811015612daf578082015181840152602081019050612d94565b60008484015250505050565b6000612dc682612d75565b612dd08185612d80565b9350612de0818560208601612d91565b612de981612788565b840191505092915050565b60006020820190508181036000830152612e0e8184612dbb565b905092915050565b600081519050612e258161293b565b92915050565b600060208284031215612e4157612e40612779565b5b6000612e4f84828501612e16565b91505092915050565b60008160601b9050919050565b6000612e7082612e58565b9050919050565b6000612e8282612e65565b9050919050565b612e9a612e95826128f3565b612e77565b82525050565b60008160e81b9050919050565b6000612eb882612ea0565b9050919050565b612ed0612ecb82612ce7565b612ead565b82525050565b6000612ee28286612e89565b601482019150612ef28285612ebf565b600382019150612f028284612e89565b601482019150819050949350505050565b7f4e487b7100000000000000000000000000000000000000000000000000000000600052601160045260246000fd5b6000612f4d82612931565b9150612f5883612931565b9250828203905081811115612f7057612f6f612f13565b5b92915050565b600082825260208201905092915050565b6000612f9282612d75565b612f9c8185612f76565b9350612fac818560208601612d91565b612fb581612788565b840191505092915050565b612fc9816128f3565b82525050565b612fd881612931565b82525050565b600060a0830160008301518482036000860152612ffb8282612f87565b91505060208301516130106020860182612fc0565b5060408301516130236040860182612fcf565b5060608301516130366060860182612fcf565b5060808301516130496080860182612fcf565b508091505092915050565b6000602082019050818103600083015261306e8184612fde565b905092915050565b600082825260208201905092915050565b7f416d6f756e742063616e27742062652030000000000000000000000000000000600082015250565b60006130bd601183613076565b91506130c882613087565b602082019050919050565b600060208201905081810360008301526130ec816130b0565b9050919050565b60006060820190506131086000830186612c2e565b6131156020830185612c2e565b6131226040830184612bce565b949350505050565b61313381612bf8565b811461313e57600080fd5b50565b6000815190506131508161312a565b92915050565b60006020828403121561316c5761316b612779565b5b600061317a84828501613141565b91505092915050565b61318c816128d3565b811461319757600080fd5b50565b6000815190506131a981613183565b92915050565b60008160020b9050919050565b6131c5816131af565b81146131d057600080fd5b50565b6000815190506131e2816131bc565b92915050565b600061ffff82169050919050565b6131ff816131e8565b811461320a57600080fd5b50565b60008151905061321c816131f6565b92915050565b600060ff82169050919050565b61323881613222565b811461324357600080fd5b50565b6000815190506132558161322f565b92915050565b600080600080600080600060e0888a03121561327a57613279612779565b5b60006132888a828b0161319a565b97505060206132998a828b016131d3565b96505060406132aa8a828b0161320d565b95505060606132bb8a828b0161320d565b94505060806132cc8a828b0161320d565b93505060a06132dd8a828b01613246565b92505060c06132ee8a828b01613141565b91505092959891949750929550565b600063ffffffff82169050919050565b613316816132fd565b811461332157600080fd5b50565b6000815190506133338161330d565b92915050565b600080600080600080600060e0888a03121561335857613357612779565b5b60006133668a828b0161319a565b97505060206133778a828b016131d3565b96505060406133888a828b0161320d565b95505060606133998a828b0161320d565b94505060806133aa8a828b0161320d565b93505060a06133bb8a828b01613324565b92505060c06133cc8a828b01613141565b91505092959891949750929550565b60006133e682612931565b91506133f183612931565b92508282026133ff81612931565b9150828204841483151761341657613415612f13565b5b5092915050565b7f4e487b7100000000000000000000000000000000000000000000000000000000600052601260045260246000fd5b600061345782612931565b915061346283612931565b9250826134725761347161341d565b5b828204905092915050565b6000608083016000830151848203600086015261349a8282612f87565b91505060208301516134af6020860182612fc0565b5060408301516134c26040860182612fcf565b5060608301516134d56060860182612fcf565b508091505092915050565b600060208201905081810360008301526134fa818461347d565b905092915050565b7f43616e2774206265206120302061646472657373000000000000000000000000600082015250565b6000613538601483613076565b915061354382613502565b602082019050919050565b600060208201905081810360008301526135678161352b565b9050919050565b7f43616e2774206265207468697320616464726573730000000000000000000000600082015250565b60006135a4601583613076565b91506135af8261356e565b602082019050919050565b600060208201905081810360008301526135d381613597565b9050919050565b7f416d6f756e7420697320686967686572207468616e2062616c616e6365000000600082015250565b6000613610601d83613076565b915061361b826135da565b602082019050919050565b6000602082019050818103600083015261363f81613603565b9050919050565b600060408201905061365b6000830185612c2e565b6136686020830184612bce565b9392505050565b7f4e6f74206c6f636b656400000000000000000000000000000000000000000000600082015250565b60006136a5600a83613076565b91506136b08261366f565b602082019050919050565b600060208201905081810360008301526136d481613698565b9050919050565b7f416c7265616479206c6f636b6564000000000000000000000000000000000000600082015250565b6000613711600e83613076565b915061371c826136db565b602082019050919050565b6000602082019050818103600083015261374081613704565b905091905056fea264697066735822122006bcdd6170a7d58ee6d88d69dd6e708d301b2074e744778c30c032b19dc6817864736f6c63430008140033","opcodes":"PUSH1 0xE0 PUSH1 0x40 MSTORE CALLVALUE DUP1 ISZERO PUSH3 0x11 JUMPI PUSH1 0x0 DUP1 REVERT JUMPDEST POP PUSH1 0x40 MLOAD PUSH3 0x39B0 CODESIZE SUB DUP1 PUSH3 0x39B0 DUP4 CODECOPY DUP2 DUP2 ADD PUSH1 0x40 MSTORE DUP2 ADD SWAP1 PUSH3 0x37 SWAP2 SWAP1 PUSH3 0x145 JUMP JUMPDEST DUP2 PUSH20 0xFFFFFFFFFFFFFFFFFFFFFFFFFFFFFFFFFFFFFFFF AND PUSH1 0xA0 DUP2 PUSH20 0xFFFFFFFFFFFFFFFFFFFFFFFFFFFFFFFFFFFFFFFF AND DUP2 MSTORE POP POP DUP1 PUSH20 0xFFFFFFFFFFFFFFFFFFFFFFFFFFFFFFFFFFFFFFFF AND PUSH1 0xC0 DUP2 PUSH20 0xFFFFFFFFFFFFFFFFFFFFFFFFFFFFFFFFFFFFFFFF AND DUP2 MSTORE POP POP CALLER PUSH20 0xFFFFFFFFFFFFFFFFFFFFFFFFFFFFFFFFFFFFFFFF AND PUSH1 0x80 DUP2 PUSH20 0xFFFFFFFFFFFFFFFFFFFFFFFFFFFFFFFFFFFFFFFF AND DUP2 MSTORE POP POP POP POP PUSH3 0x18C JUMP JUMPDEST PUSH1 0x0 DUP1 REVERT JUMPDEST PUSH1 0x0 PUSH20 0xFFFFFFFFFFFFFFFFFFFFFFFFFFFFFFFFFFFFFFFF DUP3 AND SWAP1 POP SWAP2 SWAP1 POP JUMP JUMPDEST PUSH1 0x0 PUSH3 0x10D DUP3 PUSH3 0xE0 JUMP JUMPDEST SWAP1 POP SWAP2 SWAP1 POP JUMP JUMPDEST PUSH3 0x11F DUP2 PUSH3 0x100 JUMP JUMPDEST DUP2 EQ PUSH3 0x12B JUMPI PUSH1 0x0 DUP1 REVERT JUMPDEST POP JUMP JUMPDEST PUSH1 0x0 DUP2 MLOAD SWAP1 POP PUSH3 0x13F DUP2 PUSH3 0x114 JUMP JUMPDEST SWAP3 SWAP2 POP POP JUMP JUMPDEST PUSH1 0x0 DUP1 PUSH1 0x40 DUP4 DUP6 SUB SLT ISZERO PUSH3 0x15F JUMPI PUSH3 0x15E PUSH3 0xDB JUMP JUMPDEST JUMPDEST PUSH1 0x0 PUSH3 0x16F DUP6 DUP3 DUP7 ADD PUSH3 0x12E JUMP JUMPDEST SWAP3 POP POP PUSH1 0x20 PUSH3 0x182 DUP6 DUP3 DUP7 ADD PUSH3 0x12E JUMP JUMPDEST SWAP2 POP POP SWAP3 POP SWAP3 SWAP1 POP JUMP JUMPDEST PUSH1 0x80 MLOAD PUSH1 0xA0 MLOAD PUSH1 0xC0 MLOAD PUSH2 0x377D PUSH3 0x233 PUSH1 0x0 CODECOPY PUSH1 0x0 DUP2 DUP2 PUSH2 0x99F ADD MSTORE DUP2 DUP2 PUSH2 0x14B8 ADD MSTORE PUSH2 0x1C9B ADD MSTORE PUSH1 0x0 DUP2 DUP2 PUSH2 0x8FD ADD MSTORE DUP2 DUP2 PUSH2 0x12D2 ADD MSTORE DUP2 DUP2 PUSH2 0x18DA ADD MSTORE DUP2 DUP2 PUSH2 0x1E87 ADD MSTORE DUP2 DUP2 PUSH2 0x24D3 ADD MSTORE DUP2 DUP2 PUSH2 0x2631 ADD MSTORE PUSH2 0x26D1 ADD MSTORE PUSH1 0x0 DUP2 DUP2 PUSH2 0x748 ADD MSTORE DUP2 DUP2 PUSH2 0xD6B ADD MSTORE DUP2 DUP2 PUSH2 0xFAD ADD MSTORE DUP2 DUP2 PUSH2 0x1575 ADD MSTORE DUP2 DUP2 PUSH2 0x1725 ADD MSTORE DUP2 DUP2 PUSH2 0x197C ADD MSTORE DUP2 DUP2 PUSH2 0x1FB3 ADD MSTORE DUP2 DUP2 PUSH2 0x2218 ADD MSTORE DUP2 DUP2 PUSH2 0x233E ADD MSTORE PUSH2 0x252E ADD MSTORE PUSH2 0x377D PUSH1 0x0 RETURN INVALID PUSH1 0x80 PUSH1 0x40 MSTORE CALLVALUE DUP1 ISZERO PUSH2 0x10 JUMPI PUSH1 0x0 DUP1 REVERT JUMPDEST POP PUSH1 0x4 CALLDATASIZE LT PUSH2 0x14D JUMPI PUSH1 0x0 CALLDATALOAD PUSH1 0xE0 SHR DUP1 PUSH4 0x743AA1D0 GT PUSH2 0xC3 JUMPI DUP1 PUSH4 0xA7F07011 GT PUSH2 0x7C JUMPI DUP1 PUSH4 0xA7F07011 EQ PUSH2 0x306 JUMPI DUP1 PUSH4 0xDA3E3397 EQ PUSH2 0x324 JUMPI DUP1 PUSH4 0xE47AAF6D EQ PUSH2 0x340 JUMPI DUP1 PUSH4 0xF1584673 EQ PUSH2 0x35E JUMPI DUP1 PUSH4 0xF556D1D4 EQ PUSH2 0x38E JUMPI DUP1 PUSH4 0xF83D08BA EQ PUSH2 0x3AC JUMPI PUSH2 0x14D JUMP JUMPDEST DUP1 PUSH4 0x743AA1D0 EQ PUSH2 0x258 JUMPI DUP1 PUSH4 0x786FB10C EQ PUSH2 0x262 JUMPI DUP1 PUSH4 0x9E281A98 EQ PUSH2 0x292 JUMPI DUP1 PUSH4 0xA119B86E EQ PUSH2 0x2AE JUMPI DUP1 PUSH4 0xA4E2D634 EQ PUSH2 0x2DE JUMPI DUP1 PUSH4 0xA69DF4B5 EQ PUSH2 0x2FC JUMPI PUSH2 0x14D JUMP JUMPDEST DUP1 PUSH4 0x338B5DEA GT PUSH2 0x115 JUMPI DUP1 PUSH4 0x338B5DEA EQ PUSH2 0x1D0 JUMPI DUP1 PUSH4 0x3E413BEE EQ PUSH2 0x1EC JUMPI DUP1 PUSH4 0x3EE0B624 EQ PUSH2 0x20A JUMPI DUP1 PUSH4 0x3FC8CEF3 EQ PUSH2 0x214 JUMPI DUP1 PUSH4 0x5767C659 EQ PUSH2 0x232 JUMPI DUP1 PUSH4 0x7201C6BE EQ PUSH2 0x24E JUMPI PUSH2 0x14D JUMP JUMPDEST DUP1 PUSH4 0x5DDAD1F EQ PUSH2 0x152 JUMPI DUP1 PUSH4 0xEBAF458 EQ PUSH2 0x16E JUMPI DUP1 PUSH4 0x10F91B0B EQ PUSH2 0x178 JUMPI DUP1 PUSH4 0x272A6DD9 EQ PUSH2 0x196 JUMPI DUP1 PUSH4 0x2F48AB7D EQ PUSH2 0x1B2 JUMPI JUMPDEST PUSH1 0x0 DUP1 REVERT JUMPDEST PUSH2 0x16C PUSH1 0x4 DUP1 CALLDATASIZE SUB DUP2 ADD SWAP1 PUSH2 0x167 SWAP2 SWAP1 PUSH2 0x2A0F JUMP JUMPDEST PUSH2 0x3B6 JUMP JUMPDEST STOP JUMPDEST PUSH2 0x176 PUSH2 0x746 JUMP JUMPDEST STOP JUMPDEST PUSH2 0x180 PUSH2 0x99D JUMP JUMPDEST PUSH1 0x40 MLOAD PUSH2 0x18D SWAP2 SWAP1 PUSH2 0x2ACA JUMP JUMPDEST PUSH1 0x40 MLOAD DUP1 SWAP2 SUB SWAP1 RETURN JUMPDEST PUSH2 0x1B0 PUSH1 0x4 DUP1 CALLDATASIZE SUB DUP2 ADD SWAP1 PUSH2 0x1AB SWAP2 SWAP1 PUSH2 0x2A0F JUMP JUMPDEST PUSH2 0x9C1 JUMP JUMPDEST STOP JUMPDEST PUSH2 0x1BA PUSH2 0xD51 JUMP JUMPDEST PUSH1 0x40 MLOAD PUSH2 0x1C7 SWAP2 SWAP1 PUSH2 0x2B06 JUMP JUMPDEST PUSH1 0x40 MLOAD DUP1 SWAP2 SUB SWAP1 RETURN JUMPDEST PUSH2 0x1EA PUSH1 0x4 DUP1 CALLDATASIZE SUB DUP2 ADD SWAP1 PUSH2 0x1E5 SWAP2 SWAP1 PUSH2 0x2B21 JUMP JUMPDEST PUSH2 0xD69 JUMP JUMPDEST STOP JUMPDEST PUSH2 0x1F4 PUSH2 0xF93 JUMP JUMPDEST PUSH1 0x40 MLOAD PUSH2 0x201 SWAP2 SWAP1 PUSH2 0x2B06 JUMP JUMPDEST PUSH1 0x40 MLOAD DUP1 SWAP2 SUB SWAP1 RETURN JUMPDEST PUSH2 0x212 PUSH2 0xFAB JUMP JUMPDEST STOP JUMPDEST PUSH2 0x21C PUSH2 0x155B JUMP JUMPDEST PUSH1 0x40 MLOAD PUSH2 0x229 SWAP2 SWAP1 PUSH2 0x2B06 JUMP JUMPDEST PUSH1 0x40 MLOAD DUP1 SWAP2 SUB SWAP1 RETURN JUMPDEST PUSH2 0x24C PUSH1 0x4 DUP1 CALLDATASIZE SUB DUP2 ADD SWAP1 PUSH2 0x247 SWAP2 SWAP1 PUSH2 0x2B61 JUMP JUMPDEST PUSH2 0x1573 JUMP JUMPDEST STOP JUMPDEST PUSH2 0x256 PUSH2 0x1723 JUMP JUMPDEST STOP JUMPDEST PUSH2 0x260 PUSH2 0x197A JUMP JUMPDEST STOP JUMPDEST PUSH2 0x27C PUSH1 0x4 DUP1 CALLDATASIZE SUB DUP2 ADD SWAP1 PUSH2 0x277 SWAP2 SWAP1 PUSH2 0x2B8E JUMP JUMPDEST PUSH2 0x1F2A JUMP JUMPDEST PUSH1 0x40 MLOAD PUSH2 0x289 SWAP2 SWAP1 PUSH2 0x2BDD JUMP JUMPDEST PUSH1 0x40 MLOAD DUP1 SWAP2 SUB SWAP1 RETURN JUMPDEST PUSH2 0x2AC PUSH1 0x4 DUP1 CALLDATASIZE SUB DUP2 ADD SWAP1 PUSH2 0x2A7 SWAP2 SWAP1 PUSH2 0x2B21 JUMP JUMPDEST PUSH2 0x1FB1 JUMP JUMPDEST STOP JUMPDEST PUSH2 0x2C8 PUSH1 0x4 DUP1 CALLDATASIZE SUB DUP2 ADD SWAP1 PUSH2 0x2C3 SWAP2 SWAP1 PUSH2 0x2B61 JUMP JUMPDEST PUSH2 0x2180 JUMP JUMPDEST PUSH1 0x40 MLOAD PUSH2 0x2D5 SWAP2 SWAP1 PUSH2 0x2BDD JUMP JUMPDEST PUSH1 0x40 MLOAD DUP1 SWAP2 SUB SWAP1 RETURN JUMPDEST PUSH2 0x2E6 PUSH2 0x2203 JUMP JUMPDEST PUSH1 0x40 MLOAD PUSH2 0x2F3 SWAP2 SWAP1 PUSH2 0x2C13 JUMP JUMPDEST PUSH1 0x40 MLOAD DUP1 SWAP2 SUB SWAP1 RETURN JUMPDEST PUSH2 0x304 PUSH2 0x2216 JUMP JUMPDEST STOP JUMPDEST PUSH2 0x30E PUSH2 0x2318 JUMP JUMPDEST PUSH1 0x40 MLOAD PUSH2 0x31B SWAP2 SWAP1 PUSH2 0x2C3D JUMP JUMPDEST PUSH1 0x40 MLOAD DUP1 SWAP2 SUB SWAP1 RETURN JUMPDEST PUSH2 0x33E PUSH1 0x4 DUP1 CALLDATASIZE SUB DUP2 ADD SWAP1 PUSH2 0x339 SWAP2 SWAP1 PUSH2 0x2C58 JUMP JUMPDEST PUSH2 0x233C JUMP JUMPDEST STOP JUMPDEST PUSH2 0x348 PUSH2 0x24D1 JUMP JUMPDEST PUSH1 0x40 MLOAD PUSH2 0x355 SWAP2 SWAP1 PUSH2 0x2CCC JUMP JUMPDEST PUSH1 0x40 MLOAD DUP1 SWAP2 SUB SWAP1 RETURN JUMPDEST PUSH2 0x378 PUSH1 0x4 DUP1 CALLDATASIZE SUB DUP2 ADD SWAP1 PUSH2 0x373 SWAP2 SWAP1 PUSH2 0x2D22 JUMP JUMPDEST PUSH2 0x24F5 JUMP JUMPDEST PUSH1 0x40 MLOAD PUSH2 0x385 SWAP2 SWAP1 PUSH2 0x2DF4 JUMP JUMPDEST PUSH1 0x40 MLOAD DUP1 SWAP2 SUB SWAP1 RETURN JUMPDEST PUSH2 0x396 PUSH2 0x2524 JUMP JUMPDEST PUSH1 0x40 MLOAD PUSH2 0x3A3 SWAP2 SWAP1 PUSH2 0x2BDD JUMP JUMPDEST PUSH1 0x40 MLOAD DUP1 SWAP2 SUB SWAP1 RETURN JUMPDEST PUSH2 0x3B4 PUSH2 0x252C JUMP JUMPDEST STOP JUMPDEST PUSH1 0x0 DUP1 SLOAD SWAP1 PUSH2 0x100 EXP SWAP1 DIV PUSH20 0xFFFFFFFFFFFFFFFFFFFFFFFFFFFFFFFFFFFFFFFF AND PUSH20 0xFFFFFFFFFFFFFFFFFFFFFFFFFFFFFFFFFFFFFFFF AND CALLER PUSH20 0xFFFFFFFFFFFFFFFFFFFFFFFFFFFFFFFFFFFFFFFF AND EQ PUSH2 0x446 JUMPI CALLER PUSH1 0x40 MLOAD PUSH32 0x4104D7D700000000000000000000000000000000000000000000000000000000 DUP2 MSTORE PUSH1 0x4 ADD PUSH2 0x43D SWAP2 SWAP1 PUSH2 0x2C3D JUMP JUMPDEST PUSH1 0x40 MLOAD DUP1 SWAP2 SUB SWAP1 REVERT JUMPDEST PUSH1 0x0 PUSH20 0xFD086BC7CD5C481DCC9C85EBE478A1C0B69FCBB9 PUSH20 0xFFFFFFFFFFFFFFFFFFFFFFFFFFFFFFFFFFFFFFFF AND PUSH4 0x70A08231 ADDRESS PUSH1 0x40 MLOAD DUP3 PUSH4 0xFFFFFFFF AND PUSH1 0xE0 SHL DUP2 MSTORE PUSH1 0x4 ADD PUSH2 0x495 SWAP2 SWAP1 PUSH2 0x2C3D JUMP JUMPDEST PUSH1 0x20 PUSH1 0x40 MLOAD DUP1 DUP4 SUB DUP2 DUP7 GAS STATICCALL ISZERO DUP1 ISZERO PUSH2 0x4B2 JUMPI RETURNDATASIZE PUSH1 0x0 DUP1 RETURNDATACOPY RETURNDATASIZE PUSH1 0x0 REVERT JUMPDEST POP POP POP POP PUSH1 0x40 MLOAD RETURNDATASIZE PUSH1 0x1F NOT PUSH1 0x1F DUP3 ADD AND DUP3 ADD DUP1 PUSH1 0x40 MSTORE POP DUP2 ADD SWAP1 PUSH2 0x4D6 SWAP2 SWAP1 PUSH2 0x2E2B JUMP JUMPDEST SWAP1 POP PUSH2 0x4E1 DUP4 PUSH2 0x262F JUMP JUMPDEST PUSH1 0x0 PUSH1 0x64 SWAP1 POP PUSH1 0x0 PUSH1 0x40 MLOAD DUP1 PUSH1 0xA0 ADD PUSH1 0x40 MSTORE DUP1 PUSH20 0x82AF49447D8A07E3BD95BD0D56F35241523FBAB1 DUP5 PUSH20 0xFD086BC7CD5C481DCC9C85EBE478A1C0B69FCBB9 PUSH1 0x40 MLOAD PUSH1 0x20 ADD PUSH2 0x531 SWAP4 SWAP3 SWAP2 SWAP1 PUSH2 0x2ED6 JUMP JUMPDEST PUSH1 0x40 MLOAD PUSH1 0x20 DUP2 DUP4 SUB SUB DUP2 MSTORE SWAP1 PUSH1 0x40 MSTORE DUP2 MSTORE PUSH1 0x20 ADD ADDRESS PUSH20 0xFFFFFFFFFFFFFFFFFFFFFFFFFFFFFFFFFFFFFFFF AND DUP2 MSTORE PUSH1 0x20 ADD TIMESTAMP DUP2 MSTORE PUSH1 0x20 ADD PUSH20 0x82AF49447D8A07E3BD95BD0D56F35241523FBAB1 PUSH20 0xFFFFFFFFFFFFFFFFFFFFFFFFFFFFFFFFFFFFFFFF AND PUSH4 0x70A08231 ADDRESS PUSH1 0x40 MLOAD DUP3 PUSH4 0xFFFFFFFF AND PUSH1 0xE0 SHL DUP2 MSTORE PUSH1 0x4 ADD PUSH2 0x5B4 SWAP2 SWAP1 PUSH2 0x2C3D JUMP JUMPDEST PUSH1 0x20 PUSH1 0x40 MLOAD DUP1 DUP4 SUB DUP2 DUP7 GAS STATICCALL ISZERO DUP1 ISZERO PUSH2 0x5D1 JUMPI RETURNDATASIZE PUSH1 0x0 DUP1 RETURNDATACOPY RETURNDATASIZE PUSH1 0x0 REVERT JUMPDEST POP POP POP POP PUSH1 0x40 MLOAD RETURNDATASIZE PUSH1 0x1F NOT PUSH1 0x1F DUP3 ADD AND DUP3 ADD DUP1 PUSH1 0x40 MSTORE POP DUP2 ADD SWAP1 PUSH2 0x5F5 SWAP2 SWAP1 PUSH2 0x2E2B JUMP JUMPDEST DUP2 MSTORE PUSH1 0x20 ADD PUSH1 0x0 DUP2 MSTORE POP SWAP1 POP PUSH2 0x60A DUP2 PUSH2 0x26CF JUMP JUMPDEST PUSH1 0x0 PUSH20 0xFD086BC7CD5C481DCC9C85EBE478A1C0B69FCBB9 PUSH20 0xFFFFFFFFFFFFFFFFFFFFFFFFFFFFFFFFFFFFFFFF AND PUSH4 0x70A08231 ADDRESS PUSH1 0x40 MLOAD DUP3 PUSH4 0xFFFFFFFF AND PUSH1 0xE0 SHL DUP2 MSTORE PUSH1 0x4 ADD PUSH2 0x659 SWAP2 SWAP1 PUSH2 0x2C3D JUMP JUMPDEST PUSH1 0x20 PUSH1 0x40 MLOAD DUP1 DUP4 SUB DUP2 DUP7 GAS STATICCALL ISZERO DUP1 ISZERO PUSH2 0x676 JUMPI RETURNDATASIZE PUSH1 0x0 DUP1 RETURNDATACOPY RETURNDATASIZE PUSH1 0x0 REVERT JUMPDEST POP POP POP POP PUSH1 0x40 MLOAD RETURNDATASIZE PUSH1 0x1F NOT PUSH1 0x1F DUP3 ADD AND DUP3 ADD DUP1 PUSH1 0x40 MSTORE POP DUP2 ADD SWAP1 PUSH2 0x69A SWAP2 SWAP1 PUSH2 0x2E2B JUMP JUMPDEST SWAP1 POP DUP5 DUP5 DUP3 PUSH2 0x6A9 SWAP2 SWAP1 PUSH2 0x2F42 JUMP JUMPDEST GT ISZERO PUSH2 0x6F6 JUMPI PUSH32 0x357D905F1831209797DF4D55D79C5C5BF1D9F7311C976AFD05E13D881EAB9BC8 DUP5 DUP3 PUSH2 0x6DC SWAP2 SWAP1 PUSH2 0x2F42 JUMP JUMPDEST PUSH1 0x40 MLOAD PUSH2 0x6E9 SWAP2 SWAP1 PUSH2 0x2BDD JUMP JUMPDEST PUSH1 0x40 MLOAD DUP1 SWAP2 SUB SWAP1 LOG1 PUSH2 0x73E JUMP JUMPDEST DUP4 DUP2 PUSH2 0x702 SWAP2 SWAP1 PUSH2 0x2F42 JUMP JUMPDEST PUSH1 0x40 MLOAD PUSH32 0xD4989A9400000000000000000000000000000000000000000000000000000000 DUP2 MSTORE PUSH1 0x4 ADD PUSH2 0x735 SWAP2 SWAP1 PUSH2 0x2BDD JUMP JUMPDEST PUSH1 0x40 MLOAD DUP1 SWAP2 SUB SWAP1 REVERT JUMPDEST POP POP POP POP POP POP JUMP JUMPDEST PUSH32 0x0 PUSH20 0xFFFFFFFFFFFFFFFFFFFFFFFFFFFFFFFFFFFFFFFF AND CALLER PUSH20 0xFFFFFFFFFFFFFFFFFFFFFFFFFFFFFFFFFFFFFFFF AND EQ PUSH2 0x7D6 JUMPI CALLER PUSH1 0x40 MLOAD PUSH32 0xF9EBB4C700000000000000000000000000000000000000000000000000000000 DUP2 MSTORE PUSH1 0x4 ADD PUSH2 0x7CD SWAP2 SWAP1 PUSH2 0x2C3D JUMP JUMPDEST PUSH1 0x40 MLOAD DUP1 SWAP2 SUB SWAP1 REVERT JUMPDEST PUSH1 0x0 PUSH1 0x64 SWAP1 POP PUSH1 0x0 PUSH20 0xAF88D065E77C8CC2239327C5EDB3A432268E5831 PUSH20 0xFFFFFFFFFFFFFFFFFFFFFFFFFFFFFFFFFFFFFFFF AND PUSH4 0x70A08231 ADDRESS PUSH1 0x40 MLOAD DUP3 PUSH4 0xFFFFFFFF AND PUSH1 0xE0 SHL DUP2 MSTORE PUSH1 0x4 ADD PUSH2 0x82B SWAP2 SWAP1 PUSH2 0x2C3D JUMP JUMPDEST PUSH1 0x20 PUSH1 0x40 MLOAD DUP1 DUP4 SUB DUP2 DUP7 GAS STATICCALL ISZERO DUP1 ISZERO PUSH2 0x848 JUMPI RETURNDATASIZE PUSH1 0x0 DUP1 RETURNDATACOPY RETURNDATASIZE PUSH1 0x0 REVERT JUMPDEST POP POP POP POP PUSH1 0x40 MLOAD RETURNDATASIZE PUSH1 0x1F NOT PUSH1 0x1F DUP3 ADD AND DUP3 ADD DUP1 PUSH1 0x40 MSTORE POP DUP2 ADD SWAP1 PUSH2 0x86C SWAP2 SWAP1 PUSH2 0x2E2B JUMP JUMPDEST SWAP1 POP PUSH1 0x0 PUSH1 0x40 MLOAD DUP1 PUSH1 0xA0 ADD PUSH1 0x40 MSTORE DUP1 PUSH20 0xAF88D065E77C8CC2239327C5EDB3A432268E5831 DUP6 PUSH20 0xFD086BC7CD5C481DCC9C85EBE478A1C0B69FCBB9 PUSH1 0x40 MLOAD PUSH1 0x20 ADD PUSH2 0x8B8 SWAP4 SWAP3 SWAP2 SWAP1 PUSH2 0x2ED6 JUMP JUMPDEST PUSH1 0x40 MLOAD PUSH1 0x20 DUP2 DUP4 SUB SUB DUP2 MSTORE SWAP1 PUSH1 0x40 MSTORE DUP2 MSTORE PUSH1 0x20 ADD ADDRESS PUSH20 0xFFFFFFFFFFFFFFFFFFFFFFFFFFFFFFFFFFFFFFFF AND DUP2 MSTORE PUSH1 0x20 ADD TIMESTAMP DUP2 MSTORE PUSH1 0x20 ADD DUP4 DUP2 MSTORE PUSH1 0x20 ADD PUSH1 0x0 DUP2 MSTORE POP SWAP1 POP PUSH32 0x0 PUSH20 0xFFFFFFFFFFFFFFFFFFFFFFFFFFFFFFFFFFFFFFFF AND PUSH4 0xC04B8D59 DUP3 PUSH1 0x40 MLOAD DUP3 PUSH4 0xFFFFFFFF AND PUSH1 0xE0 SHL DUP2 MSTORE PUSH1 0x4 ADD PUSH2 0x954 SWAP2 SWAP1 PUSH2 0x3054 JUMP JUMPDEST PUSH1 0x20 PUSH1 0x40 MLOAD DUP1 DUP4 SUB DUP2 PUSH1 0x0 DUP8 GAS CALL ISZERO DUP1 ISZERO PUSH2 0x973 JUMPI RETURNDATASIZE PUSH1 0x0 DUP1 RETURNDATACOPY RETURNDATASIZE PUSH1 0x0 REVERT JUMPDEST POP POP POP POP PUSH1 0x40 MLOAD RETURNDATASIZE PUSH1 0x1F NOT PUSH1 0x1F DUP3 ADD AND DUP3 ADD DUP1 PUSH1 0x40 MSTORE POP DUP2 ADD SWAP1 PUSH2 0x997 SWAP2 SWAP1 PUSH2 0x2E2B JUMP JUMPDEST POP POP POP POP JUMP JUMPDEST PUSH32 0x0 DUP2 JUMP JUMPDEST PUSH1 0x0 DUP1 SLOAD SWAP1 PUSH2 0x100 EXP SWAP1 DIV PUSH20 0xFFFFFFFFFFFFFFFFFFFFFFFFFFFFFFFFFFFFFFFF AND PUSH20 0xFFFFFFFFFFFFFFFFFFFFFFFFFFFFFFFFFFFFFFFF AND CALLER PUSH20 0xFFFFFFFFFFFFFFFFFFFFFFFFFFFFFFFFFFFFFFFF AND EQ PUSH2 0xA51 JUMPI CALLER PUSH1 0x40 MLOAD PUSH32 0x4104D7D700000000000000000000000000000000000000000000000000000000 DUP2 MSTORE PUSH1 0x4 ADD PUSH2 0xA48 SWAP2 SWAP1 PUSH2 0x2C3D JUMP JUMPDEST PUSH1 0x40 MLOAD DUP1 SWAP2 SUB SWAP1 REVERT JUMPDEST PUSH1 0x0 PUSH20 0xAF88D065E77C8CC2239327C5EDB3A432268E5831 PUSH20 0xFFFFFFFFFFFFFFFFFFFFFFFFFFFFFFFFFFFFFFFF AND PUSH4 0x70A08231 ADDRESS PUSH1 0x40 MLOAD DUP3 PUSH4 0xFFFFFFFF AND PUSH1 0xE0 SHL DUP2 MSTORE PUSH1 0x4 ADD PUSH2 0xAA0 SWAP2 SWAP1 PUSH2 0x2C3D JUMP JUMPDEST PUSH1 0x20 PUSH1 0x40 MLOAD DUP1 DUP4 SUB DUP2 DUP7 GAS STATICCALL ISZERO DUP1 ISZERO PUSH2 0xABD JUMPI RETURNDATASIZE PUSH1 0x0 DUP1 RETURNDATACOPY RETURNDATASIZE PUSH1 0x0 REVERT JUMPDEST POP POP POP POP PUSH1 0x40 MLOAD RETURNDATASIZE PUSH1 0x1F NOT PUSH1 0x1F DUP3 ADD AND DUP3 ADD DUP1 PUSH1 0x40 MSTORE POP DUP2 ADD SWAP1 PUSH2 0xAE1 SWAP2 SWAP1 PUSH2 0x2E2B JUMP JUMPDEST SWAP1 POP PUSH2 0xAEC DUP4 PUSH2 0x262F JUMP JUMPDEST PUSH1 0x0 PUSH1 0x64 SWAP1 POP PUSH1 0x0 PUSH1 0x40 MLOAD DUP1 PUSH1 0xA0 ADD PUSH1 0x40 MSTORE DUP1 PUSH20 0x82AF49447D8A07E3BD95BD0D56F35241523FBAB1 DUP5 PUSH20 0xAF88D065E77C8CC2239327C5EDB3A432268E5831 PUSH1 0x40 MLOAD PUSH1 0x20 ADD PUSH2 0xB3C SWAP4 SWAP3 SWAP2 SWAP1 PUSH2 0x2ED6 JUMP JUMPDEST PUSH1 0x40 MLOAD PUSH1 0x20 DUP2 DUP4 SUB SUB DUP2 MSTORE SWAP1 PUSH1 0x40 MSTORE DUP2 MSTORE PUSH1 0x20 ADD ADDRESS PUSH20 0xFFFFFFFFFFFFFFFFFFFFFFFFFFFFFFFFFFFFFFFF AND DUP2 MSTORE PUSH1 0x20 ADD TIMESTAMP DUP2 MSTORE PUSH1 0x20 ADD PUSH20 0x82AF49447D8A07E3BD95BD0D56F35241523FBAB1 PUSH20 0xFFFFFFFFFFFFFFFFFFFFFFFFFFFFFFFFFFFFFFFF AND PUSH4 0x70A08231 ADDRESS PUSH1 0x40 MLOAD DUP3 PUSH4 0xFFFFFFFF AND PUSH1 0xE0 SHL DUP2 MSTORE PUSH1 0x4 ADD PUSH2 0xBBF SWAP2 SWAP1 PUSH2 0x2C3D JUMP JUMPDEST PUSH1 0x20 PUSH1 0x40 MLOAD DUP1 DUP4 SUB DUP2 DUP7 GAS STATICCALL ISZERO DUP1 ISZERO PUSH2 0xBDC JUMPI RETURNDATASIZE PUSH1 0x0 DUP1 RETURNDATACOPY RETURNDATASIZE PUSH1 0x0 REVERT JUMPDEST POP POP POP POP PUSH1 0x40 MLOAD RETURNDATASIZE PUSH1 0x1F NOT PUSH1 0x1F DUP3 ADD AND DUP3 ADD DUP1 PUSH1 0x40 MSTORE POP DUP2 ADD SWAP1 PUSH2 0xC00 SWAP2 SWAP1 PUSH2 0x2E2B JUMP JUMPDEST DUP2 MSTORE PUSH1 0x20 ADD PUSH1 0x0 DUP2 MSTORE POP SWAP1 POP PUSH2 0xC15 DUP2 PUSH2 0x26CF JUMP JUMPDEST PUSH1 0x0 PUSH20 0xAF88D065E77C8CC2239327C5EDB3A432268E5831 PUSH20 0xFFFFFFFFFFFFFFFFFFFFFFFFFFFFFFFFFFFFFFFF AND PUSH4 0x70A08231 ADDRESS PUSH1 0x40 MLOAD DUP3 PUSH4 0xFFFFFFFF AND PUSH1 0xE0 SHL DUP2 MSTORE PUSH1 0x4 ADD PUSH2 0xC64 SWAP2 SWAP1 PUSH2 0x2C3D JUMP JUMPDEST PUSH1 0x20 PUSH1 0x40 MLOAD DUP1 DUP4 SUB DUP2 DUP7 GAS STATICCALL ISZERO DUP1 ISZERO PUSH2 0xC81 JUMPI RETURNDATASIZE PUSH1 0x0 DUP1 RETURNDATACOPY RETURNDATASIZE PUSH1 0x0 REVERT JUMPDEST POP POP POP POP PUSH1 0x40 MLOAD RETURNDATASIZE PUSH1 0x1F NOT PUSH1 0x1F DUP3 ADD AND DUP3 ADD DUP1 PUSH1 0x40 MSTORE POP DUP2 ADD SWAP1 PUSH2 0xCA5 SWAP2 SWAP1 PUSH2 0x2E2B JUMP JUMPDEST SWAP1 POP DUP5 DUP5 DUP3 PUSH2 0xCB4 SWAP2 SWAP1 PUSH2 0x2F42 JUMP JUMPDEST GT ISZERO PUSH2 0xD01 JUMPI PUSH32 0x357D905F1831209797DF4D55D79C5C5BF1D9F7311C976AFD05E13D881EAB9BC8 DUP5 DUP3 PUSH2 0xCE7 SWAP2 SWAP1 PUSH2 0x2F42 JUMP JUMPDEST PUSH1 0x40 MLOAD PUSH2 0xCF4 SWAP2 SWAP1 PUSH2 0x2BDD JUMP JUMPDEST PUSH1 0x40 MLOAD DUP1 SWAP2 SUB SWAP1 LOG1 PUSH2 0xD49 JUMP JUMPDEST DUP4 DUP2 PUSH2 0xD0D SWAP2 SWAP1 PUSH2 0x2F42 JUMP JUMPDEST PUSH1 0x40 MLOAD PUSH32 0xD4989A9400000000000000000000000000000000000000000000000000000000 DUP2 MSTORE PUSH1 0x4 ADD PUSH2 0xD40 SWAP2 SWAP1 PUSH2 0x2BDD JUMP JUMPDEST PUSH1 0x40 MLOAD DUP1 SWAP2 SUB SWAP1 REVERT JUMPDEST POP POP POP POP POP POP JUMP JUMPDEST PUSH20 0xFD086BC7CD5C481DCC9C85EBE478A1C0B69FCBB9 DUP2 JUMP JUMPDEST PUSH32 0x0 PUSH20 0xFFFFFFFFFFFFFFFFFFFFFFFFFFFFFFFFFFFFFFFF AND CALLER PUSH20 0xFFFFFFFFFFFFFFFFFFFFFFFFFFFFFFFFFFFFFFFF AND EQ PUSH2 0xDF9 JUMPI CALLER PUSH1 0x40 MLOAD PUSH32 0xF9EBB4C700000000000000000000000000000000000000000000000000000000 DUP2 MSTORE PUSH1 0x4 ADD PUSH2 0xDF0 SWAP2 SWAP1 PUSH2 0x2C3D JUMP JUMPDEST PUSH1 0x40 MLOAD DUP1 SWAP2 SUB SWAP1 REVERT JUMPDEST PUSH20 0xFD086BC7CD5C481DCC9C85EBE478A1C0B69FCBB9 PUSH20 0xFFFFFFFFFFFFFFFFFFFFFFFFFFFFFFFFFFFFFFFF AND DUP3 PUSH20 0xFFFFFFFFFFFFFFFFFFFFFFFFFFFFFFFFFFFFFFFF AND EQ ISZERO DUP1 ISZERO PUSH2 0xE89 JUMPI POP PUSH20 0xAF88D065E77C8CC2239327C5EDB3A432268E5831 PUSH20 0xFFFFFFFFFFFFFFFFFFFFFFFFFFFFFFFFFFFFFFFF AND DUP3 PUSH20 0xFFFFFFFFFFFFFFFFFFFFFFFFFFFFFFFFFFFFFFFF AND EQ ISZERO JUMPDEST ISZERO PUSH2 0xECB JUMPI DUP2 PUSH1 0x40 MLOAD PUSH32 0xF01157C300000000000000000000000000000000000000000000000000000000 DUP2 MSTORE PUSH1 0x4 ADD PUSH2 0xEC2 SWAP2 SWAP1 PUSH2 0x2C3D JUMP JUMPDEST PUSH1 0x40 MLOAD DUP1 SWAP2 SUB SWAP1 REVERT JUMPDEST PUSH1 0x0 DUP2 GT PUSH2 0xF0E JUMPI PUSH1 0x40 MLOAD PUSH32 0x8C379A000000000000000000000000000000000000000000000000000000000 DUP2 MSTORE PUSH1 0x4 ADD PUSH2 0xF05 SWAP1 PUSH2 0x30D3 JUMP JUMPDEST PUSH1 0x40 MLOAD DUP1 SWAP2 SUB SWAP1 REVERT JUMPDEST DUP2 PUSH20 0xFFFFFFFFFFFFFFFFFFFFFFFFFFFFFFFFFFFFFFFF AND PUSH4 0x23B872DD CALLER ADDRESS DUP5 PUSH1 0x40 MLOAD DUP5 PUSH4 0xFFFFFFFF AND PUSH1 0xE0 SHL DUP2 MSTORE PUSH1 0x4 ADD PUSH2 0xF4B SWAP4 SWAP3 SWAP2 SWAP1 PUSH2 0x30F3 JUMP JUMPDEST PUSH1 0x20 PUSH1 0x40 MLOAD DUP1 DUP4 SUB DUP2 PUSH1 0x0 DUP8 GAS CALL ISZERO DUP1 ISZERO PUSH2 0xF6A JUMPI RETURNDATASIZE PUSH1 0x0 DUP1 RETURNDATACOPY RETURNDATASIZE PUSH1 0x0 REVERT JUMPDEST POP POP POP POP PUSH1 0x40 MLOAD RETURNDATASIZE PUSH1 0x1F NOT PUSH1 0x1F DUP3 ADD AND DUP3 ADD DUP1 PUSH1 0x40 MSTORE POP DUP2 ADD SWAP1 PUSH2 0xF8E SWAP2 SWAP1 PUSH2 0x3156 JUMP JUMPDEST POP POP POP JUMP JUMPDEST PUSH20 0xAF88D065E77C8CC2239327C5EDB3A432268E5831 DUP2 JUMP JUMPDEST PUSH32 0x0 PUSH20 0xFFFFFFFFFFFFFFFFFFFFFFFFFFFFFFFFFFFFFFFF AND CALLER PUSH20 0xFFFFFFFFFFFFFFFFFFFFFFFFFFFFFFFFFFFFFFFF AND EQ PUSH2 0x103B JUMPI CALLER PUSH1 0x40 MLOAD PUSH32 0xF9EBB4C700000000000000000000000000000000000000000000000000000000 DUP2 MSTORE PUSH1 0x4 ADD PUSH2 0x1032 SWAP2 SWAP1 PUSH2 0x2C3D JUMP JUMPDEST PUSH1 0x40 MLOAD DUP1 SWAP2 SUB SWAP1 REVERT JUMPDEST PUSH1 0x0 PUSH20 0xBE3AD6A5669DC0B8B12FEBC03608860C31E2EEF6 PUSH20 0xFFFFFFFFFFFFFFFFFFFFFFFFFFFFFFFFFFFFFFFF AND PUSH4 0x3850C7BD PUSH1 0x40 MLOAD DUP2 PUSH4 0xFFFFFFFF AND PUSH1 0xE0 SHL DUP2 MSTORE PUSH1 0x4 ADD PUSH1 0xE0 PUSH1 0x40 MLOAD DUP1 DUP4 SUB DUP2 DUP7 GAS STATICCALL ISZERO DUP1 ISZERO PUSH2 0x109C JUMPI RETURNDATASIZE PUSH1 0x0 DUP1 RETURNDATACOPY RETURNDATASIZE PUSH1 0x0 REVERT JUMPDEST POP POP POP POP PUSH1 0x40 MLOAD RETURNDATASIZE PUSH1 0x1F NOT PUSH1 0x1F DUP3 ADD AND DUP3 ADD DUP1 PUSH1 0x40 MSTORE POP DUP2 ADD SWAP1 PUSH2 0x10C0 SWAP2 SWAP1 PUSH2 0x325B JUMP JUMPDEST POP POP POP POP POP POP SWAP1 POP PUSH1 0x0 PUSH20 0x7E928AFB59F5DE9D2F4D162F754C6EB40C88AA8E PUSH20 0xFFFFFFFFFFFFFFFFFFFFFFFFFFFFFFFFFFFFFFFF AND PUSH4 0x3850C7BD PUSH1 0x40 MLOAD DUP2 PUSH4 0xFFFFFFFF AND PUSH1 0xE0 SHL DUP2 MSTORE PUSH1 0x4 ADD PUSH1 0xE0 PUSH1 0x40 MLOAD DUP1 DUP4 SUB DUP2 DUP7 GAS STATICCALL ISZERO DUP1 ISZERO PUSH2 0x1129 JUMPI RETURNDATASIZE PUSH1 0x0 DUP1 RETURNDATACOPY RETURNDATASIZE PUSH1 0x0 REVERT JUMPDEST POP POP POP POP PUSH1 0x40 MLOAD RETURNDATASIZE PUSH1 0x1F NOT PUSH1 0x1F DUP3 ADD AND DUP3 ADD DUP1 PUSH1 0x40 MSTORE POP DUP2 ADD SWAP1 PUSH2 0x114D SWAP2 SWAP1 PUSH2 0x3339 JUMP JUMPDEST POP POP POP POP POP POP SWAP1 POP DUP1 PUSH20 0xFFFFFFFFFFFFFFFFFFFFFFFFFFFFFFFFFFFFFFFF AND DUP3 PUSH20 0xFFFFFFFFFFFFFFFFFFFFFFFFFFFFFFFFFFFFFFFF AND GT ISZERO PUSH2 0x1375 JUMPI PUSH1 0x0 PUSH1 0x64 SWAP1 POP PUSH1 0x0 PUSH20 0xFD086BC7CD5C481DCC9C85EBE478A1C0B69FCBB9 PUSH20 0xFFFFFFFFFFFFFFFFFFFFFFFFFFFFFFFFFFFFFFFF AND PUSH4 0x70A08231 ADDRESS PUSH1 0x40 MLOAD DUP3 PUSH4 0xFFFFFFFF AND PUSH1 0xE0 SHL DUP2 MSTORE PUSH1 0x4 ADD PUSH2 0x11DE SWAP2 SWAP1 PUSH2 0x2C3D JUMP JUMPDEST PUSH1 0x20 PUSH1 0x40 MLOAD DUP1 DUP4 SUB DUP2 DUP7 GAS STATICCALL ISZERO DUP1 ISZERO PUSH2 0x11FB JUMPI RETURNDATASIZE PUSH1 0x0 DUP1 RETURNDATACOPY RETURNDATASIZE PUSH1 0x0 REVERT JUMPDEST POP POP POP POP PUSH1 0x40 MLOAD RETURNDATASIZE PUSH1 0x1F NOT PUSH1 0x1F DUP3 ADD AND DUP3 ADD DUP1 PUSH1 0x40 MSTORE POP DUP2 ADD SWAP1 PUSH2 0x121F SWAP2 SWAP1 PUSH2 0x2E2B JUMP JUMPDEST SWAP1 POP PUSH1 0x0 PUSH1 0x40 MLOAD DUP1 PUSH1 0xA0 ADD PUSH1 0x40 MSTORE DUP1 PUSH20 0xFD086BC7CD5C481DCC9C85EBE478A1C0B69FCBB9 DUP6 PUSH20 0xAF88D065E77C8CC2239327C5EDB3A432268E5831 PUSH1 0x40 MLOAD PUSH1 0x20 ADD PUSH2 0x126B SWAP4 SWAP3 SWAP2 SWAP1 PUSH2 0x2ED6 JUMP JUMPDEST PUSH1 0x40 MLOAD PUSH1 0x20 DUP2 DUP4 SUB SUB DUP2 MSTORE SWAP1 PUSH1 0x40 MSTORE DUP2 MSTORE PUSH1 0x20 ADD ADDRESS PUSH20 0xFFFFFFFFFFFFFFFFFFFFFFFFFFFFFFFFFFFFFFFF AND DUP2 MSTORE PUSH1 0x20 ADD TIMESTAMP DUP2 MSTORE PUSH1 0x20 ADD DUP4 DUP2 MSTORE PUSH1 0x20 ADD PUSH1 0x64 PUSH1 0x1 DUP6 PUSH2 0x12B6 SWAP2 SWAP1 PUSH2 0x33DB JUMP JUMPDEST PUSH2 0x12C0 SWAP2 SWAP1 PUSH2 0x344C JUMP JUMPDEST DUP5 PUSH2 0x12CB SWAP2 SWAP1 PUSH2 0x2F42 JUMP JUMPDEST DUP2 MSTORE POP SWAP1 POP PUSH32 0x0 PUSH20 0xFFFFFFFFFFFFFFFFFFFFFFFFFFFFFFFFFFFFFFFF AND PUSH4 0xC04B8D59 DUP3 PUSH1 0x40 MLOAD DUP3 PUSH4 0xFFFFFFFF AND PUSH1 0xE0 SHL DUP2 MSTORE PUSH1 0x4 ADD PUSH2 0x1329 SWAP2 SWAP1 PUSH2 0x3054 JUMP JUMPDEST PUSH1 0x20 PUSH1 0x40 MLOAD DUP1 DUP4 SUB DUP2 PUSH1 0x0 DUP8 GAS CALL ISZERO DUP1 ISZERO PUSH2 0x1348 JUMPI RETURNDATASIZE PUSH1 0x0 DUP1 RETURNDATACOPY RETURNDATASIZE PUSH1 0x0 REVERT JUMPDEST POP POP POP POP PUSH1 0x40 MLOAD RETURNDATASIZE PUSH1 0x1F NOT PUSH1 0x1F DUP3 ADD AND DUP3 ADD DUP1 PUSH1 0x40 MSTORE POP DUP2 ADD SWAP1 PUSH2 0x136C SWAP2 SWAP1 PUSH2 0x2E2B JUMP JUMPDEST POP POP POP POP PUSH2 0x1557 JUMP JUMPDEST PUSH1 0x0 PUSH1 0x64 SWAP1 POP PUSH1 0x0 PUSH20 0xFD086BC7CD5C481DCC9C85EBE478A1C0B69FCBB9 PUSH20 0xFFFFFFFFFFFFFFFFFFFFFFFFFFFFFFFFFFFFFFFF AND PUSH4 0x70A08231 ADDRESS PUSH1 0x40 MLOAD DUP3 PUSH4 0xFFFFFFFF AND PUSH1 0xE0 SHL DUP2 MSTORE PUSH1 0x4 ADD PUSH2 0x13CA SWAP2 SWAP1 PUSH2 0x2C3D JUMP JUMPDEST PUSH1 0x20 PUSH1 0x40 MLOAD DUP1 DUP4 SUB DUP2 DUP7 GAS STATICCALL ISZERO DUP1 ISZERO PUSH2 0x13E7 JUMPI RETURNDATASIZE PUSH1 0x0 DUP1 RETURNDATACOPY RETURNDATASIZE PUSH1 0x0 REVERT JUMPDEST POP POP POP POP PUSH1 0x40 MLOAD RETURNDATASIZE PUSH1 0x1F NOT PUSH1 0x1F DUP3 ADD AND DUP3 ADD DUP1 PUSH1 0x40 MSTORE POP DUP2 ADD SWAP1 PUSH2 0x140B SWAP2 SWAP1 PUSH2 0x2E2B JUMP JUMPDEST SWAP1 POP PUSH1 0x0 PUSH1 0x40 MLOAD DUP1 PUSH1 0x80 ADD PUSH1 0x40 MSTORE DUP1 PUSH20 0xFD086BC7CD5C481DCC9C85EBE478A1C0B69FCBB9 DUP6 PUSH20 0xAF88D065E77C8CC2239327C5EDB3A432268E5831 PUSH1 0x40 MLOAD PUSH1 0x20 ADD PUSH2 0x1457 SWAP4 SWAP3 SWAP2 SWAP1 PUSH2 0x2ED6 JUMP JUMPDEST PUSH1 0x40 MLOAD PUSH1 0x20 DUP2 DUP4 SUB SUB DUP2 MSTORE SWAP1 PUSH1 0x40 MSTORE DUP2 MSTORE PUSH1 0x20 ADD ADDRESS PUSH20 0xFFFFFFFFFFFFFFFFFFFFFFFFFFFFFFFFFFFFFFFF AND DUP2 MSTORE PUSH1 0x20 ADD DUP4 DUP2 MSTORE PUSH1 0x20 ADD PUSH1 0x64 PUSH1 0x1 DUP6 PUSH2 0x149C SWAP2 SWAP1 PUSH2 0x33DB JUMP JUMPDEST PUSH2 0x14A6 SWAP2 SWAP1 PUSH2 0x344C JUMP JUMPDEST DUP5 PUSH2 0x14B1 SWAP2 SWAP1 PUSH2 0x2F42 JUMP JUMPDEST DUP2 MSTORE POP SWAP1 POP PUSH32 0x0 PUSH20 0xFFFFFFFFFFFFFFFFFFFFFFFFFFFFFFFFFFFFFFFF AND PUSH4 0xB858183F DUP3 PUSH1 0x40 MLOAD DUP3 PUSH4 0xFFFFFFFF AND PUSH1 0xE0 SHL DUP2 MSTORE PUSH1 0x4 ADD PUSH2 0x150F SWAP2 SWAP1 PUSH2 0x34E0 JUMP JUMPDEST PUSH1 0x20 PUSH1 0x40 MLOAD DUP1 DUP4 SUB DUP2 PUSH1 0x0 DUP8 GAS CALL ISZERO DUP1 ISZERO PUSH2 0x152E JUMPI RETURNDATASIZE PUSH1 0x0 DUP1 RETURNDATACOPY RETURNDATASIZE PUSH1 0x0 REVERT JUMPDEST POP POP POP POP PUSH1 0x40 MLOAD RETURNDATASIZE PUSH1 0x1F NOT PUSH1 0x1F DUP3 ADD AND DUP3 ADD DUP1 PUSH1 0x40 MSTORE POP DUP2 ADD SWAP1 PUSH2 0x1552 SWAP2 SWAP1 PUSH2 0x2E2B JUMP JUMPDEST POP POP POP POP JUMPDEST POP POP JUMP JUMPDEST PUSH20 0x82AF49447D8A07E3BD95BD0D56F35241523FBAB1 DUP2 JUMP JUMPDEST PUSH32 0x0 PUSH20 0xFFFFFFFFFFFFFFFFFFFFFFFFFFFFFFFFFFFFFFFF AND CALLER PUSH20 0xFFFFFFFFFFFFFFFFFFFFFFFFFFFFFFFFFFFFFFFF AND EQ PUSH2 0x1603 JUMPI CALLER PUSH1 0x40 MLOAD PUSH32 0xF9EBB4C700000000000000000000000000000000000000000000000000000000 DUP2 MSTORE PUSH1 0x4 ADD PUSH2 0x15FA SWAP2 SWAP1 PUSH2 0x2C3D JUMP JUMPDEST PUSH1 0x40 MLOAD DUP1 SWAP2 SUB SWAP1 REVERT JUMPDEST PUSH1 0x0 PUSH20 0xFFFFFFFFFFFFFFFFFFFFFFFFFFFFFFFFFFFFFFFF AND DUP2 PUSH20 0xFFFFFFFFFFFFFFFFFFFFFFFFFFFFFFFFFFFFFFFF AND SUB PUSH2 0x1672 JUMPI PUSH1 0x40 MLOAD PUSH32 0x8C379A000000000000000000000000000000000000000000000000000000000 DUP2 MSTORE PUSH1 0x4 ADD PUSH2 0x1669 SWAP1 PUSH2 0x354E JUMP JUMPDEST PUSH1 0x40 MLOAD DUP1 SWAP2 SUB SWAP1 REVERT JUMPDEST ADDRESS PUSH20 0xFFFFFFFFFFFFFFFFFFFFFFFFFFFFFFFFFFFFFFFF AND DUP2 PUSH20 0xFFFFFFFFFFFFFFFFFFFFFFFFFFFFFFFFFFFFFFFF AND SUB PUSH2 0x16E0 JUMPI PUSH1 0x40 MLOAD PUSH32 0x8C379A000000000000000000000000000000000000000000000000000000000 DUP2 MSTORE PUSH1 0x4 ADD PUSH2 0x16D7 SWAP1 PUSH2 0x35BA JUMP JUMPDEST PUSH1 0x40 MLOAD DUP1 SWAP2 SUB SWAP1 REVERT JUMPDEST DUP1 PUSH1 0x0 DUP1 PUSH2 0x100 EXP DUP2 SLOAD DUP2 PUSH20 0xFFFFFFFFFFFFFFFFFFFFFFFFFFFFFFFFFFFFFFFF MUL NOT AND SWAP1 DUP4 PUSH20 0xFFFFFFFFFFFFFFFFFFFFFFFFFFFFFFFFFFFFFFFF AND MUL OR SWAP1 SSTORE POP POP JUMP JUMPDEST PUSH32 0x0 PUSH20 0xFFFFFFFFFFFFFFFFFFFFFFFFFFFFFFFFFFFFFFFF AND CALLER PUSH20 0xFFFFFFFFFFFFFFFFFFFFFFFFFFFFFFFFFFFFFFFF AND EQ PUSH2 0x17B3 JUMPI CALLER PUSH1 0x40 MLOAD PUSH32 0xF9EBB4C700000000000000000000000000000000000000000000000000000000 DUP2 MSTORE PUSH1 0x4 ADD PUSH2 0x17AA SWAP2 SWAP1 PUSH2 0x2C3D JUMP JUMPDEST PUSH1 0x40 MLOAD DUP1 SWAP2 SUB SWAP1 REVERT JUMPDEST PUSH1 0x0 PUSH1 0x64 SWAP1 POP PUSH1 0x0 PUSH20 0xFD086BC7CD5C481DCC9C85EBE478A1C0B69FCBB9 PUSH20 0xFFFFFFFFFFFFFFFFFFFFFFFFFFFFFFFFFFFFFFFF AND PUSH4 0x70A08231 ADDRESS PUSH1 0x40 MLOAD DUP3 PUSH4 0xFFFFFFFF AND PUSH1 0xE0 SHL DUP2 MSTORE PUSH1 0x4 ADD PUSH2 0x1808 SWAP2 SWAP1 PUSH2 0x2C3D JUMP JUMPDEST PUSH1 0x20 PUSH1 0x40 MLOAD DUP1 DUP4 SUB DUP2 DUP7 GAS STATICCALL ISZERO DUP1 ISZERO PUSH2 0x1825 JUMPI RETURNDATASIZE PUSH1 0x0 DUP1 RETURNDATACOPY RETURNDATASIZE PUSH1 0x0 REVERT JUMPDEST POP POP POP POP PUSH1 0x40 MLOAD RETURNDATASIZE PUSH1 0x1F NOT PUSH1 0x1F DUP3 ADD AND DUP3 ADD DUP1 PUSH1 0x40 MSTORE POP DUP2 ADD SWAP1 PUSH2 0x1849 SWAP2 SWAP1 PUSH2 0x2E2B JUMP JUMPDEST SWAP1 POP PUSH1 0x0 PUSH1 0x40 MLOAD DUP1 PUSH1 0xA0 ADD PUSH1 0x40 MSTORE DUP1 PUSH20 0xFD086BC7CD5C481DCC9C85EBE478A1C0B69FCBB9 DUP6 PUSH20 0xAF88D065E77C8CC2239327C5EDB3A432268E5831 PUSH1 0x40 MLOAD PUSH1 0x20 ADD PUSH2 0x1895 SWAP4 SWAP3 SWAP2 SWAP1 PUSH2 0x2ED6 JUMP JUMPDEST PUSH1 0x40 MLOAD PUSH1 0x20 DUP2 DUP4 SUB SUB DUP2 MSTORE SWAP1 PUSH1 0x40 MSTORE DUP2 MSTORE PUSH1 0x20 ADD ADDRESS PUSH20 0xFFFFFFFFFFFFFFFFFFFFFFFFFFFFFFFFFFFFFFFF AND DUP2 MSTORE PUSH1 0x20 ADD TIMESTAMP DUP2 MSTORE PUSH1 0x20 ADD DUP4 DUP2 MSTORE PUSH1 0x20 ADD PUSH1 0x0 DUP2 MSTORE POP SWAP1 POP PUSH32 0x0 PUSH20 0xFFFFFFFFFFFFFFFFFFFFFFFFFFFFFFFFFFFFFFFF AND PUSH4 0xC04B8D59 DUP3 PUSH1 0x40 MLOAD DUP3 PUSH4 0xFFFFFFFF AND PUSH1 0xE0 SHL DUP2 MSTORE PUSH1 0x4 ADD PUSH2 0x1931 SWAP2 SWAP1 PUSH2 0x3054 JUMP JUMPDEST PUSH1 0x20 PUSH1 0x40 MLOAD DUP1 DUP4 SUB DUP2 PUSH1 0x0 DUP8 GAS CALL ISZERO DUP1 ISZERO PUSH2 0x1950 JUMPI RETURNDATASIZE PUSH1 0x0 DUP1 RETURNDATACOPY RETURNDATASIZE PUSH1 0x0 REVERT JUMPDEST POP POP POP POP PUSH1 0x40 MLOAD RETURNDATASIZE PUSH1 0x1F NOT PUSH1 0x1F DUP3 ADD AND DUP3 ADD DUP1 PUSH1 0x40 MSTORE POP DUP2 ADD SWAP1 PUSH2 0x1974 SWAP2 SWAP1 PUSH2 0x2E2B JUMP JUMPDEST POP POP POP POP JUMP JUMPDEST PUSH32 0x0 PUSH20 0xFFFFFFFFFFFFFFFFFFFFFFFFFFFFFFFFFFFFFFFF AND CALLER PUSH20 0xFFFFFFFFFFFFFFFFFFFFFFFFFFFFFFFFFFFFFFFF AND EQ PUSH2 0x1A0A JUMPI CALLER PUSH1 0x40 MLOAD PUSH32 0xF9EBB4C700000000000000000000000000000000000000000000000000000000 DUP2 MSTORE PUSH1 0x4 ADD PUSH2 0x1A01 SWAP2 SWAP1 PUSH2 0x2C3D JUMP JUMPDEST PUSH1 0x40 MLOAD DUP1 SWAP2 SUB SWAP1 REVERT JUMPDEST PUSH1 0x0 PUSH20 0xBE3AD6A5669DC0B8B12FEBC03608860C31E2EEF6 PUSH20 0xFFFFFFFFFFFFFFFFFFFFFFFFFFFFFFFFFFFFFFFF AND PUSH4 0x3850C7BD PUSH1 0x40 MLOAD DUP2 PUSH4 0xFFFFFFFF AND PUSH1 0xE0 SHL DUP2 MSTORE PUSH1 0x4 ADD PUSH1 0xE0 PUSH1 0x40 MLOAD DUP1 DUP4 SUB DUP2 DUP7 GAS STATICCALL ISZERO DUP1 ISZERO PUSH2 0x1A6B JUMPI RETURNDATASIZE PUSH1 0x0 DUP1 RETURNDATACOPY RETURNDATASIZE PUSH1 0x0 REVERT JUMPDEST POP POP POP POP PUSH1 0x40 MLOAD RETURNDATASIZE PUSH1 0x1F NOT PUSH1 0x1F DUP3 ADD AND DUP3 ADD DUP1 PUSH1 0x40 MSTORE POP DUP2 ADD SWAP1 PUSH2 0x1A8F SWAP2 SWAP1 PUSH2 0x325B JUMP JUMPDEST POP POP POP POP POP POP SWAP1 POP PUSH1 0x0 PUSH20 0x7E928AFB59F5DE9D2F4D162F754C6EB40C88AA8E PUSH20 0xFFFFFFFFFFFFFFFFFFFFFFFFFFFFFFFFFFFFFFFF AND PUSH4 0x3850C7BD PUSH1 0x40 MLOAD DUP2 PUSH4 0xFFFFFFFF AND PUSH1 0xE0 SHL DUP2 MSTORE PUSH1 0x4 ADD PUSH1 0xE0 PUSH1 0x40 MLOAD DUP1 DUP4 SUB DUP2 DUP7 GAS STATICCALL ISZERO DUP1 ISZERO PUSH2 0x1AF8 JUMPI RETURNDATASIZE PUSH1 0x0 DUP1 RETURNDATACOPY RETURNDATASIZE PUSH1 0x0 REVERT JUMPDEST POP POP POP POP PUSH1 0x40 MLOAD RETURNDATASIZE PUSH1 0x1F NOT PUSH1 0x1F DUP3 ADD AND DUP3 ADD DUP1 PUSH1 0x40 MSTORE POP DUP2 ADD SWAP1 PUSH2 0x1B1C SWAP2 SWAP1 PUSH2 0x3339 JUMP JUMPDEST POP POP POP POP POP POP SWAP1 POP DUP1 PUSH20 0xFFFFFFFFFFFFFFFFFFFFFFFFFFFFFFFFFFFFFFFF AND DUP3 PUSH20 0xFFFFFFFFFFFFFFFFFFFFFFFFFFFFFFFFFFFFFFFF AND GT ISZERO PUSH2 0x1D3E JUMPI PUSH1 0x0 PUSH1 0x64 SWAP1 POP PUSH1 0x0 PUSH20 0xAF88D065E77C8CC2239327C5EDB3A432268E5831 PUSH20 0xFFFFFFFFFFFFFFFFFFFFFFFFFFFFFFFFFFFFFFFF AND PUSH4 0x70A08231 ADDRESS PUSH1 0x40 MLOAD DUP3 PUSH4 0xFFFFFFFF AND PUSH1 0xE0 SHL DUP2 MSTORE PUSH1 0x4 ADD PUSH2 0x1BAD SWAP2 SWAP1 PUSH2 0x2C3D JUMP JUMPDEST PUSH1 0x20 PUSH1 0x40 MLOAD DUP1 DUP4 SUB DUP2 DUP7 GAS STATICCALL ISZERO DUP1 ISZERO PUSH2 0x1BCA JUMPI RETURNDATASIZE PUSH1 0x0 DUP1 RETURNDATACOPY RETURNDATASIZE PUSH1 0x0 REVERT JUMPDEST POP POP POP POP PUSH1 0x40 MLOAD RETURNDATASIZE PUSH1 0x1F NOT PUSH1 0x1F DUP3 ADD AND DUP3 ADD DUP1 PUSH1 0x40 MSTORE POP DUP2 ADD SWAP1 PUSH2 0x1BEE SWAP2 SWAP1 PUSH2 0x2E2B JUMP JUMPDEST SWAP1 POP PUSH1 0x0 PUSH1 0x40 MLOAD DUP1 PUSH1 0x80 ADD PUSH1 0x40 MSTORE DUP1 PUSH20 0xAF88D065E77C8CC2239327C5EDB3A432268E5831 DUP6 PUSH20 0xFD086BC7CD5C481DCC9C85EBE478A1C0B69FCBB9 PUSH1 0x40 MLOAD PUSH1 0x20 ADD PUSH2 0x1C3A SWAP4 SWAP3 SWAP2 SWAP1 PUSH2 0x2ED6 JUMP JUMPDEST PUSH1 0x40 MLOAD PUSH1 0x20 DUP2 DUP4 SUB SUB DUP2 MSTORE SWAP1 PUSH1 0x40 MSTORE DUP2 MSTORE PUSH1 0x20 ADD ADDRESS PUSH20 0xFFFFFFFFFFFFFFFFFFFFFFFFFFFFFFFFFFFFFFFF AND DUP2 MSTORE PUSH1 0x20 ADD DUP4 DUP2 MSTORE PUSH1 0x20 ADD PUSH1 0x64 PUSH1 0x1 DUP6 PUSH2 0x1C7F SWAP2 SWAP1 PUSH2 0x33DB JUMP JUMPDEST PUSH2 0x1C89 SWAP2 SWAP1 PUSH2 0x344C JUMP JUMPDEST DUP5 PUSH2 0x1C94 SWAP2 SWAP1 PUSH2 0x2F42 JUMP JUMPDEST DUP2 MSTORE POP SWAP1 POP PUSH32 0x0 PUSH20 0xFFFFFFFFFFFFFFFFFFFFFFFFFFFFFFFFFFFFFFFF AND PUSH4 0xB858183F DUP3 PUSH1 0x40 MLOAD DUP3 PUSH4 0xFFFFFFFF AND PUSH1 0xE0 SHL DUP2 MSTORE PUSH1 0x4 ADD PUSH2 0x1CF2 SWAP2 SWAP1 PUSH2 0x34E0 JUMP JUMPDEST PUSH1 0x20 PUSH1 0x40 MLOAD DUP1 DUP4 SUB DUP2 PUSH1 0x0 DUP8 GAS CALL ISZERO DUP1 ISZERO PUSH2 0x1D11 JUMPI RETURNDATASIZE PUSH1 0x0 DUP1 RETURNDATACOPY RETURNDATASIZE PUSH1 0x0 REVERT JUMPDEST POP POP POP POP PUSH1 0x40 MLOAD RETURNDATASIZE PUSH1 0x1F NOT PUSH1 0x1F DUP3 ADD AND DUP3 ADD DUP1 PUSH1 0x40 MSTORE POP DUP2 ADD SWAP1 PUSH2 0x1D35 SWAP2 SWAP1 PUSH2 0x2E2B JUMP JUMPDEST POP POP POP POP PUSH2 0x1F26 JUMP JUMPDEST PUSH1 0x0 PUSH1 0x64 SWAP1 POP PUSH1 0x0 PUSH20 0xAF88D065E77C8CC2239327C5EDB3A432268E5831 PUSH20 0xFFFFFFFFFFFFFFFFFFFFFFFFFFFFFFFFFFFFFFFF AND PUSH4 0x70A08231 ADDRESS PUSH1 0x40 MLOAD DUP3 PUSH4 0xFFFFFFFF AND PUSH1 0xE0 SHL DUP2 MSTORE PUSH1 0x4 ADD PUSH2 0x1D93 SWAP2 SWAP1 PUSH2 0x2C3D JUMP JUMPDEST PUSH1 0x20 PUSH1 0x40 MLOAD DUP1 DUP4 SUB DUP2 DUP7 GAS STATICCALL ISZERO DUP1 ISZERO PUSH2 0x1DB0 JUMPI RETURNDATASIZE PUSH1 0x0 DUP1 RETURNDATACOPY RETURNDATASIZE PUSH1 0x0 REVERT JUMPDEST POP POP POP POP PUSH1 0x40 MLOAD RETURNDATASIZE PUSH1 0x1F NOT PUSH1 0x1F DUP3 ADD AND DUP3 ADD DUP1 PUSH1 0x40 MSTORE POP DUP2 ADD SWAP1 PUSH2 0x1DD4 SWAP2 SWAP1 PUSH2 0x2E2B JUMP JUMPDEST SWAP1 POP PUSH1 0x0 PUSH1 0x40 MLOAD DUP1 PUSH1 0xA0 ADD PUSH1 0x40 MSTORE DUP1 PUSH20 0xAF88D065E77C8CC2239327C5EDB3A432268E5831 DUP6 PUSH20 0xFD086BC7CD5C481DCC9C85EBE478A1C0B69FCBB9 PUSH1 0x40 MLOAD PUSH1 0x20 ADD PUSH2 0x1E20 SWAP4 SWAP3 SWAP2 SWAP1 PUSH2 0x2ED6 JUMP JUMPDEST PUSH1 0x40 MLOAD PUSH1 0x20 DUP2 DUP4 SUB SUB DUP2 MSTORE SWAP1 PUSH1 0x40 MSTORE DUP2 MSTORE PUSH1 0x20 ADD ADDRESS PUSH20 0xFFFFFFFFFFFFFFFFFFFFFFFFFFFFFFFFFFFFFFFF AND DUP2 MSTORE PUSH1 0x20 ADD TIMESTAMP DUP2 MSTORE PUSH1 0x20 ADD DUP4 DUP2 MSTORE PUSH1 0x20 ADD PUSH1 0x64 PUSH1 0x1 DUP6 PUSH2 0x1E6B SWAP2 SWAP1 PUSH2 0x33DB JUMP JUMPDEST PUSH2 0x1E75 SWAP2 SWAP1 PUSH2 0x344C JUMP JUMPDEST DUP5 PUSH2 0x1E80 SWAP2 SWAP1 PUSH2 0x2F42 JUMP JUMPDEST DUP2 MSTORE POP SWAP1 POP PUSH32 0x0 PUSH20 0xFFFFFFFFFFFFFFFFFFFFFFFFFFFFFFFFFFFFFFFF AND PUSH4 0xC04B8D59 DUP3 PUSH1 0x40 MLOAD DUP3 PUSH4 0xFFFFFFFF AND PUSH1 0xE0 SHL DUP2 MSTORE PUSH1 0x4 ADD PUSH2 0x1EDE SWAP2 SWAP1 PUSH2 0x3054 JUMP JUMPDEST PUSH1 0x20 PUSH1 0x40 MLOAD DUP1 DUP4 SUB DUP2 PUSH1 0x0 DUP8 GAS CALL ISZERO DUP1 ISZERO PUSH2 0x1EFD JUMPI RETURNDATASIZE PUSH1 0x0 DUP1 RETURNDATACOPY RETURNDATASIZE PUSH1 0x0 REVERT JUMPDEST POP POP POP POP PUSH1 0x40 MLOAD RETURNDATASIZE PUSH1 0x1F NOT PUSH1 0x1F DUP3 ADD AND DUP3 ADD DUP1 PUSH1 0x40 MSTORE POP DUP2 ADD SWAP1 PUSH2 0x1F21 SWAP2 SWAP1 PUSH2 0x2E2B JUMP JUMPDEST POP POP POP POP JUMPDEST POP POP JUMP JUMPDEST PUSH1 0x0 PUSH1 0x1 PUSH1 0x0 DUP5 PUSH20 0xFFFFFFFFFFFFFFFFFFFFFFFFFFFFFFFFFFFFFFFF AND PUSH20 0xFFFFFFFFFFFFFFFFFFFFFFFFFFFFFFFFFFFFFFFF AND DUP2 MSTORE PUSH1 0x20 ADD SWAP1 DUP2 MSTORE PUSH1 0x20 ADD PUSH1 0x0 KECCAK256 PUSH1 0x0 DUP4 PUSH20 0xFFFFFFFFFFFFFFFFFFFFFFFFFFFFFFFFFFFFFFFF AND PUSH20 0xFFFFFFFFFFFFFFFFFFFFFFFFFFFFFFFFFFFFFFFF AND DUP2 MSTORE PUSH1 0x20 ADD SWAP1 DUP2 MSTORE PUSH1 0x20 ADD PUSH1 0x0 KECCAK256 SLOAD SWAP1 POP SWAP3 SWAP2 POP POP JUMP JUMPDEST PUSH32 0x0 PUSH20 0xFFFFFFFFFFFFFFFFFFFFFFFFFFFFFFFFFFFFFFFF AND CALLER PUSH20 0xFFFFFFFFFFFFFFFFFFFFFFFFFFFFFFFFFFFFFFFF AND EQ PUSH2 0x2041 JUMPI CALLER PUSH1 0x40 MLOAD PUSH32 0xF9EBB4C700000000000000000000000000000000000000000000000000000000 DUP2 MSTORE PUSH1 0x4 ADD PUSH2 0x2038 SWAP2 SWAP1 PUSH2 0x2C3D JUMP JUMPDEST PUSH1 0x40 MLOAD DUP1 SWAP2 SUB SWAP1 REVERT JUMPDEST DUP2 PUSH20 0xFFFFFFFFFFFFFFFFFFFFFFFFFFFFFFFFFFFFFFFF AND PUSH4 0x70A08231 ADDRESS PUSH1 0x40 MLOAD DUP3 PUSH4 0xFFFFFFFF AND PUSH1 0xE0 SHL DUP2 MSTORE PUSH1 0x4 ADD PUSH2 0x207A SWAP2 SWAP1 PUSH2 0x2C3D JUMP JUMPDEST PUSH1 0x20 PUSH1 0x40 MLOAD DUP1 DUP4 SUB DUP2 DUP7 GAS STATICCALL ISZERO DUP1 ISZERO PUSH2 0x2097 JUMPI RETURNDATASIZE PUSH1 0x0 DUP1 RETURNDATACOPY RETURNDATASIZE PUSH1 0x0 REVERT JUMPDEST POP POP POP POP PUSH1 0x40 MLOAD RETURNDATASIZE PUSH1 0x1F NOT PUSH1 0x1F DUP3 ADD AND DUP3 ADD DUP1 PUSH1 0x40 MSTORE POP DUP2 ADD SWAP1 PUSH2 0x20BB SWAP2 SWAP1 PUSH2 0x2E2B JUMP JUMPDEST DUP2 GT ISZERO PUSH2 0x20FD JUMPI PUSH1 0x40 MLOAD PUSH32 0x8C379A000000000000000000000000000000000000000000000000000000000 DUP2 MSTORE PUSH1 0x4 ADD PUSH2 0x20F4 SWAP1 PUSH2 0x3626 JUMP JUMPDEST PUSH1 0x40 MLOAD DUP1 SWAP2 SUB SWAP1 REVERT JUMPDEST DUP2 PUSH20 0xFFFFFFFFFFFFFFFFFFFFFFFFFFFFFFFFFFFFFFFF AND PUSH4 0xA9059CBB CALLER DUP4 PUSH1 0x40 MLOAD DUP4 PUSH4 0xFFFFFFFF AND PUSH1 0xE0 SHL DUP2 MSTORE PUSH1 0x4 ADD PUSH2 0x2138 SWAP3 SWAP2 SWAP1 PUSH2 0x3646 JUMP JUMPDEST PUSH1 0x20 PUSH1 0x40 MLOAD DUP1 DUP4 SUB DUP2 PUSH1 0x0 DUP8 GAS CALL ISZERO DUP1 ISZERO PUSH2 0x2157 JUMPI RETURNDATASIZE PUSH1 0x0 DUP1 RETURNDATACOPY RETURNDATASIZE PUSH1 0x0 REVERT JUMPDEST POP POP POP POP PUSH1 0x40 MLOAD RETURNDATASIZE PUSH1 0x1F NOT PUSH1 0x1F DUP3 ADD AND DUP3 ADD DUP1 PUSH1 0x40 MSTORE POP DUP2 ADD SWAP1 PUSH2 0x217B SWAP2 SWAP1 PUSH2 0x3156 JUMP JUMPDEST POP POP POP JUMP JUMPDEST PUSH1 0x0 DUP2 PUSH20 0xFFFFFFFFFFFFFFFFFFFFFFFFFFFFFFFFFFFFFFFF AND PUSH4 0x70A08231 ADDRESS PUSH1 0x40 MLOAD DUP3 PUSH4 0xFFFFFFFF AND PUSH1 0xE0 SHL DUP2 MSTORE PUSH1 0x4 ADD PUSH2 0x21BB SWAP2 SWAP1 PUSH2 0x2C3D JUMP JUMPDEST PUSH1 0x20 PUSH1 0x40 MLOAD DUP1 DUP4 SUB DUP2 DUP7 GAS STATICCALL ISZERO DUP1 ISZERO PUSH2 0x21D8 JUMPI RETURNDATASIZE PUSH1 0x0 DUP1 RETURNDATACOPY RETURNDATASIZE PUSH1 0x0 REVERT JUMPDEST POP POP POP POP PUSH1 0x40 MLOAD RETURNDATASIZE PUSH1 0x1F NOT PUSH1 0x1F DUP3 ADD AND DUP3 ADD DUP1 PUSH1 0x40 MSTORE POP DUP2 ADD SWAP1 PUSH2 0x21FC SWAP2 SWAP1 PUSH2 0x2E2B JUMP JUMPDEST SWAP1 POP SWAP2 SWAP1 POP JUMP JUMPDEST PUSH1 0x0 PUSH1 0x14 SWAP1 SLOAD SWAP1 PUSH2 0x100 EXP SWAP1 DIV PUSH1 0xFF AND DUP2 JUMP JUMPDEST PUSH32 0x0 PUSH20 0xFFFFFFFFFFFFFFFFFFFFFFFFFFFFFFFFFFFFFFFF AND CALLER PUSH20 0xFFFFFFFFFFFFFFFFFFFFFFFFFFFFFFFFFFFFFFFF AND EQ PUSH2 0x22A6 JUMPI CALLER PUSH1 0x40 MLOAD PUSH32 0xF9EBB4C700000000000000000000000000000000000000000000000000000000 DUP2 MSTORE PUSH1 0x4 ADD PUSH2 0x229D SWAP2 SWAP1 PUSH2 0x2C3D JUMP JUMPDEST PUSH1 0x40 MLOAD DUP1 SWAP2 SUB SWAP1 REVERT JUMPDEST PUSH1 0x1 ISZERO ISZERO PUSH1 0x0 PUSH1 0x14 SWAP1 SLOAD SWAP1 PUSH2 0x100 EXP SWAP1 DIV PUSH1 0xFF AND ISZERO ISZERO EQ PUSH2 0x22FC JUMPI PUSH1 0x40 MLOAD PUSH32 0x8C379A000000000000000000000000000000000000000000000000000000000 DUP2 MSTORE PUSH1 0x4 ADD PUSH2 0x22F3 SWAP1 PUSH2 0x36BB JUMP JUMPDEST PUSH1 0x40 MLOAD DUP1 SWAP2 SUB SWAP1 REVERT JUMPDEST PUSH1 0x0 DUP1 PUSH1 0x14 PUSH2 0x100 EXP DUP2 SLOAD DUP2 PUSH1 0xFF MUL NOT AND SWAP1 DUP4 ISZERO ISZERO MUL OR SWAP1 SSTORE POP JUMP JUMPDEST PUSH1 0x0 DUP1 SLOAD SWAP1 PUSH2 0x100 EXP SWAP1 DIV PUSH20 0xFFFFFFFFFFFFFFFFFFFFFFFFFFFFFFFFFFFFFFFF AND DUP2 JUMP JUMPDEST PUSH32 0x0 PUSH20 0xFFFFFFFFFFFFFFFFFFFFFFFFFFFFFFFFFFFFFFFF AND CALLER PUSH20 0xFFFFFFFFFFFFFFFFFFFFFFFFFFFFFFFFFFFFFFFF AND EQ PUSH2 0x23CC JUMPI CALLER PUSH1 0x40 MLOAD PUSH32 0xF9EBB4C700000000000000000000000000000000000000000000000000000000 DUP2 MSTORE PUSH1 0x4 ADD PUSH2 0x23C3 SWAP2 SWAP1 PUSH2 0x2C3D JUMP JUMPDEST PUSH1 0x40 MLOAD DUP1 SWAP2 SUB SWAP1 REVERT JUMPDEST DUP1 PUSH1 0x1 PUSH1 0x0 DUP6 PUSH20 0xFFFFFFFFFFFFFFFFFFFFFFFFFFFFFFFFFFFFFFFF AND PUSH20 0xFFFFFFFFFFFFFFFFFFFFFFFFFFFFFFFFFFFFFFFF AND DUP2 MSTORE PUSH1 0x20 ADD SWAP1 DUP2 MSTORE PUSH1 0x20 ADD PUSH1 0x0 KECCAK256 PUSH1 0x0 DUP5 PUSH20 0xFFFFFFFFFFFFFFFFFFFFFFFFFFFFFFFFFFFFFFFF AND PUSH20 0xFFFFFFFFFFFFFFFFFFFFFFFFFFFFFFFFFFFFFFFF AND DUP2 MSTORE PUSH1 0x20 ADD SWAP1 DUP2 MSTORE PUSH1 0x20 ADD PUSH1 0x0 KECCAK256 DUP2 SWAP1 SSTORE POP DUP3 PUSH20 0xFFFFFFFFFFFFFFFFFFFFFFFFFFFFFFFFFFFFFFFF AND PUSH4 0x95EA7B3 DUP4 DUP4 PUSH1 0x40 MLOAD DUP4 PUSH4 0xFFFFFFFF AND PUSH1 0xE0 SHL DUP2 MSTORE PUSH1 0x4 ADD PUSH2 0x2488 SWAP3 SWAP2 SWAP1 PUSH2 0x3646 JUMP JUMPDEST PUSH1 0x20 PUSH1 0x40 MLOAD DUP1 DUP4 SUB DUP2 PUSH1 0x0 DUP8 GAS CALL ISZERO DUP1 ISZERO PUSH2 0x24A7 JUMPI RETURNDATASIZE PUSH1 0x0 DUP1 RETURNDATACOPY RETURNDATASIZE PUSH1 0x0 REVERT JUMPDEST POP POP POP POP PUSH1 0x40 MLOAD RETURNDATASIZE PUSH1 0x1F NOT PUSH1 0x1F DUP3 ADD AND DUP3 ADD DUP1 PUSH1 0x40 MSTORE POP DUP2 ADD SWAP1 PUSH2 0x24CB SWAP2 SWAP1 PUSH2 0x3156 JUMP JUMPDEST POP POP POP POP JUMP JUMPDEST PUSH32 0x0 DUP2 JUMP JUMPDEST PUSH1 0x60 DUP4 DUP4 DUP4 PUSH1 0x40 MLOAD PUSH1 0x20 ADD PUSH2 0x250C SWAP4 SWAP3 SWAP2 SWAP1 PUSH2 0x2ED6 JUMP JUMPDEST PUSH1 0x40 MLOAD PUSH1 0x20 DUP2 DUP4 SUB SUB DUP2 MSTORE SWAP1 PUSH1 0x40 MSTORE SWAP1 POP SWAP4 SWAP3 POP POP POP JUMP JUMPDEST PUSH1 0x0 TIMESTAMP SWAP1 POP SWAP1 JUMP JUMPDEST PUSH32 0x0 PUSH20 0xFFFFFFFFFFFFFFFFFFFFFFFFFFFFFFFFFFFFFFFF AND CALLER PUSH20 0xFFFFFFFFFFFFFFFFFFFFFFFFFFFFFFFFFFFFFFFF AND EQ PUSH2 0x25BC JUMPI CALLER PUSH1 0x40 MLOAD PUSH32 0xF9EBB4C700000000000000000000000000000000000000000000000000000000 DUP2 MSTORE PUSH1 0x4 ADD PUSH2 0x25B3 SWAP2 SWAP1 PUSH2 0x2C3D JUMP JUMPDEST PUSH1 0x40 MLOAD DUP1 SWAP2 SUB SWAP1 REVERT JUMPDEST PUSH1 0x0 ISZERO ISZERO PUSH1 0x0 PUSH1 0x14 SWAP1 SLOAD SWAP1 PUSH2 0x100 EXP SWAP1 DIV PUSH1 0xFF AND ISZERO ISZERO EQ PUSH2 0x2612 JUMPI PUSH1 0x40 MLOAD PUSH32 0x8C379A000000000000000000000000000000000000000000000000000000000 DUP2 MSTORE PUSH1 0x4 ADD PUSH2 0x2609 SWAP1 PUSH2 0x3727 JUMP JUMPDEST PUSH1 0x40 MLOAD DUP1 SWAP2 SUB SWAP1 REVERT JUMPDEST PUSH1 0x1 PUSH1 0x0 PUSH1 0x14 PUSH2 0x100 EXP DUP2 SLOAD DUP2 PUSH1 0xFF MUL NOT AND SWAP1 DUP4 ISZERO ISZERO MUL OR SWAP1 SSTORE POP JUMP JUMPDEST PUSH32 0x0 PUSH20 0xFFFFFFFFFFFFFFFFFFFFFFFFFFFFFFFFFFFFFFFF AND PUSH4 0xC04B8D59 DUP3 PUSH1 0x40 MLOAD DUP3 PUSH4 0xFFFFFFFF AND PUSH1 0xE0 SHL DUP2 MSTORE PUSH1 0x4 ADD PUSH2 0x2688 SWAP2 SWAP1 PUSH2 0x3054 JUMP JUMPDEST PUSH1 0x20 PUSH1 0x40 MLOAD DUP1 DUP4 SUB DUP2 PUSH1 0x0 DUP8 GAS CALL ISZERO DUP1 ISZERO PUSH2 0x26A7 JUMPI RETURNDATASIZE PUSH1 0x0 DUP1 RETURNDATACOPY RETURNDATASIZE PUSH1 0x0 REVERT JUMPDEST POP POP POP POP PUSH1 0x40 MLOAD RETURNDATASIZE PUSH1 0x1F NOT PUSH1 0x1F DUP3 ADD AND DUP3 ADD DUP1 PUSH1 0x40 MSTORE POP DUP2 ADD SWAP1 PUSH2 0x26CB SWAP2 SWAP1 PUSH2 0x2E2B JUMP JUMPDEST POP POP JUMP JUMPDEST PUSH32 0x0 PUSH20 0xFFFFFFFFFFFFFFFFFFFFFFFFFFFFFFFFFFFFFFFF AND PUSH4 0xC04B8D59 DUP3 PUSH1 0x40 MLOAD DUP3 PUSH4 0xFFFFFFFF AND PUSH1 0xE0 SHL DUP2 MSTORE PUSH1 0x4 ADD PUSH2 0x2728 SWAP2 SWAP1 PUSH2 0x3054 JUMP JUMPDEST PUSH1 0x20 PUSH1 0x40 MLOAD DUP1 DUP4 SUB DUP2 PUSH1 0x0 DUP8 GAS CALL ISZERO DUP1 ISZERO PUSH2 0x2747 JUMPI RETURNDATASIZE PUSH1 0x0 DUP1 RETURNDATACOPY RETURNDATASIZE PUSH1 0x0 REVERT JUMPDEST POP POP POP POP PUSH1 0x40 MLOAD RETURNDATASIZE PUSH1 0x1F NOT PUSH1 0x1F DUP3 ADD AND DUP3 ADD DUP1 PUSH1 0x40 MSTORE POP DUP2 ADD SWAP1 PUSH2 0x276B SWAP2 SWAP1 PUSH2 0x2E2B JUMP JUMPDEST POP POP JUMP JUMPDEST PUSH1 0x0 PUSH1 0x40 MLOAD SWAP1 POP SWAP1 JUMP JUMPDEST PUSH1 0x0 DUP1 REVERT JUMPDEST PUSH1 0x0 DUP1 REVERT JUMPDEST PUSH1 0x0 DUP1 REVERT JUMPDEST PUSH1 0x0 PUSH1 0x1F NOT PUSH1 0x1F DUP4 ADD AND SWAP1 POP SWAP2 SWAP1 POP JUMP JUMPDEST PUSH32 0x4E487B7100000000000000000000000000000000000000000000000000000000 PUSH1 0x0 MSTORE PUSH1 0x41 PUSH1 0x4 MSTORE PUSH1 0x24 PUSH1 0x0 REVERT JUMPDEST PUSH2 0x27D1 DUP3 PUSH2 0x2788 JUMP JUMPDEST DUP2 ADD DUP2 DUP2 LT PUSH8 0xFFFFFFFFFFFFFFFF DUP3 GT OR ISZERO PUSH2 0x27F0 JUMPI PUSH2 0x27EF PUSH2 0x2799 JUMP JUMPDEST JUMPDEST DUP1 PUSH1 0x40 MSTORE POP POP POP JUMP JUMPDEST PUSH1 0x0 PUSH2 0x2803 PUSH2 0x276F JUMP JUMPDEST SWAP1 POP PUSH2 0x280F DUP3 DUP3 PUSH2 0x27C8 JUMP JUMPDEST SWAP2 SWAP1 POP JUMP JUMPDEST PUSH1 0x0 DUP1 REVERT JUMPDEST PUSH1 0x0 DUP1 REVERT JUMPDEST PUSH1 0x0 DUP1 REVERT JUMPDEST PUSH1 0x0 PUSH8 0xFFFFFFFFFFFFFFFF DUP3 GT ISZERO PUSH2 0x283E JUMPI PUSH2 0x283D PUSH2 0x2799 JUMP JUMPDEST JUMPDEST PUSH2 0x2847 DUP3 PUSH2 0x2788 JUMP JUMPDEST SWAP1 POP PUSH1 0x20 DUP2 ADD SWAP1 POP SWAP2 SWAP1 POP JUMP JUMPDEST DUP3 DUP2 DUP4 CALLDATACOPY PUSH1 0x0 DUP4 DUP4 ADD MSTORE POP POP POP JUMP JUMPDEST PUSH1 0x0 PUSH2 0x2876 PUSH2 0x2871 DUP5 PUSH2 0x2823 JUMP JUMPDEST PUSH2 0x27F9 JUMP JUMPDEST SWAP1 POP DUP3 DUP2 MSTORE PUSH1 0x20 DUP2 ADD DUP5 DUP5 DUP5 ADD GT ISZERO PUSH2 0x2892 JUMPI PUSH2 0x2891 PUSH2 0x281E JUMP JUMPDEST JUMPDEST PUSH2 0x289D DUP5 DUP3 DUP6 PUSH2 0x2854 JUMP JUMPDEST POP SWAP4 SWAP3 POP POP POP JUMP JUMPDEST PUSH1 0x0 DUP3 PUSH1 0x1F DUP4 ADD SLT PUSH2 0x28BA JUMPI PUSH2 0x28B9 PUSH2 0x2819 JUMP JUMPDEST JUMPDEST DUP2 CALLDATALOAD PUSH2 0x28CA DUP5 DUP3 PUSH1 0x20 DUP7 ADD PUSH2 0x2863 JUMP JUMPDEST SWAP2 POP POP SWAP3 SWAP2 POP POP JUMP JUMPDEST PUSH1 0x0 PUSH20 0xFFFFFFFFFFFFFFFFFFFFFFFFFFFFFFFFFFFFFFFF DUP3 AND SWAP1 POP SWAP2 SWAP1 POP JUMP JUMPDEST PUSH1 0x0 PUSH2 0x28FE DUP3 PUSH2 0x28D3 JUMP JUMPDEST SWAP1 POP SWAP2 SWAP1 POP JUMP JUMPDEST PUSH2 0x290E DUP2 PUSH2 0x28F3 JUMP JUMPDEST DUP2 EQ PUSH2 0x2919 JUMPI PUSH1 0x0 DUP1 REVERT JUMPDEST POP JUMP JUMPDEST PUSH1 0x0 DUP2 CALLDATALOAD SWAP1 POP PUSH2 0x292B DUP2 PUSH2 0x2905 JUMP JUMPDEST SWAP3 SWAP2 POP POP JUMP JUMPDEST PUSH1 0x0 DUP2 SWAP1 POP SWAP2 SWAP1 POP JUMP JUMPDEST PUSH2 0x2944 DUP2 PUSH2 0x2931 JUMP JUMPDEST DUP2 EQ PUSH2 0x294F JUMPI PUSH1 0x0 DUP1 REVERT JUMPDEST POP JUMP JUMPDEST PUSH1 0x0 DUP2 CALLDATALOAD SWAP1 POP PUSH2 0x2961 DUP2 PUSH2 0x293B JUMP JUMPDEST SWAP3 SWAP2 POP POP JUMP JUMPDEST PUSH1 0x0 PUSH1 0xA0 DUP3 DUP5 SUB SLT ISZERO PUSH2 0x297D JUMPI PUSH2 0x297C PUSH2 0x2783 JUMP JUMPDEST JUMPDEST PUSH2 0x2987 PUSH1 0xA0 PUSH2 0x27F9 JUMP JUMPDEST SWAP1 POP PUSH1 0x0 DUP3 ADD CALLDATALOAD PUSH8 0xFFFFFFFFFFFFFFFF DUP2 GT ISZERO PUSH2 0x29A7 JUMPI PUSH2 0x29A6 PUSH2 0x2814 JUMP JUMPDEST JUMPDEST PUSH2 0x29B3 DUP5 DUP3 DUP6 ADD PUSH2 0x28A5 JUMP JUMPDEST PUSH1 0x0 DUP4 ADD MSTORE POP PUSH1 0x20 PUSH2 0x29C7 DUP5 DUP3 DUP6 ADD PUSH2 0x291C JUMP JUMPDEST PUSH1 0x20 DUP4 ADD MSTORE POP PUSH1 0x40 PUSH2 0x29DB DUP5 DUP3 DUP6 ADD PUSH2 0x2952 JUMP JUMPDEST PUSH1 0x40 DUP4 ADD MSTORE POP PUSH1 0x60 PUSH2 0x29EF DUP5 DUP3 DUP6 ADD PUSH2 0x2952 JUMP JUMPDEST PUSH1 0x60 DUP4 ADD MSTORE POP PUSH1 0x80 PUSH2 0x2A03 DUP5 DUP3 DUP6 ADD PUSH2 0x2952 JUMP JUMPDEST PUSH1 0x80 DUP4 ADD MSTORE POP SWAP3 SWAP2 POP POP JUMP JUMPDEST PUSH1 0x0 DUP1 PUSH1 0x40 DUP4 DUP6 SUB SLT ISZERO PUSH2 0x2A26 JUMPI PUSH2 0x2A25 PUSH2 0x2779 JUMP JUMPDEST JUMPDEST PUSH1 0x0 DUP4 ADD CALLDATALOAD PUSH8 0xFFFFFFFFFFFFFFFF DUP2 GT ISZERO PUSH2 0x2A44 JUMPI PUSH2 0x2A43 PUSH2 0x277E JUMP JUMPDEST JUMPDEST PUSH2 0x2A50 DUP6 DUP3 DUP7 ADD PUSH2 0x2967 JUMP JUMPDEST SWAP3 POP POP PUSH1 0x20 PUSH2 0x2A61 DUP6 DUP3 DUP7 ADD PUSH2 0x2952 JUMP JUMPDEST SWAP2 POP POP SWAP3 POP SWAP3 SWAP1 POP JUMP JUMPDEST PUSH1 0x0 DUP2 SWAP1 POP SWAP2 SWAP1 POP JUMP JUMPDEST PUSH1 0x0 PUSH2 0x2A90 PUSH2 0x2A8B PUSH2 0x2A86 DUP5 PUSH2 0x28D3 JUMP JUMPDEST PUSH2 0x2A6B JUMP JUMPDEST PUSH2 0x28D3 JUMP JUMPDEST SWAP1 POP SWAP2 SWAP1 POP JUMP JUMPDEST PUSH1 0x0 PUSH2 0x2AA2 DUP3 PUSH2 0x2A75 JUMP JUMPDEST SWAP1 POP SWAP2 SWAP1 POP JUMP JUMPDEST PUSH1 0x0 PUSH2 0x2AB4 DUP3 PUSH2 0x2A97 JUMP JUMPDEST SWAP1 POP SWAP2 SWAP1 POP JUMP JUMPDEST PUSH2 0x2AC4 DUP2 PUSH2 0x2AA9 JUMP JUMPDEST DUP3 MSTORE POP POP JUMP JUMPDEST PUSH1 0x0 PUSH1 0x20 DUP3 ADD SWAP1 POP PUSH2 0x2ADF PUSH1 0x0 DUP4 ADD DUP5 PUSH2 0x2ABB JUMP JUMPDEST SWAP3 SWAP2 POP POP JUMP JUMPDEST PUSH1 0x0 PUSH2 0x2AF0 DUP3 PUSH2 0x2A97 JUMP JUMPDEST SWAP1 POP SWAP2 SWAP1 POP JUMP JUMPDEST PUSH2 0x2B00 DUP2 PUSH2 0x2AE5 JUMP JUMPDEST DUP3 MSTORE POP POP JUMP JUMPDEST PUSH1 0x0 PUSH1 0x20 DUP3 ADD SWAP1 POP PUSH2 0x2B1B PUSH1 0x0 DUP4 ADD DUP5 PUSH2 0x2AF7 JUMP JUMPDEST SWAP3 SWAP2 POP POP JUMP JUMPDEST PUSH1 0x0 DUP1 PUSH1 0x40 DUP4 DUP6 SUB SLT ISZERO PUSH2 0x2B38 JUMPI PUSH2 0x2B37 PUSH2 0x2779 JUMP JUMPDEST JUMPDEST PUSH1 0x0 PUSH2 0x2B46 DUP6 DUP3 DUP7 ADD PUSH2 0x291C JUMP JUMPDEST SWAP3 POP POP PUSH1 0x20 PUSH2 0x2B57 DUP6 DUP3 DUP7 ADD PUSH2 0x2952 JUMP JUMPDEST SWAP2 POP POP SWAP3 POP SWAP3 SWAP1 POP JUMP JUMPDEST PUSH1 0x0 PUSH1 0x20 DUP3 DUP5 SUB SLT ISZERO PUSH2 0x2B77 JUMPI PUSH2 0x2B76 PUSH2 0x2779 JUMP JUMPDEST JUMPDEST PUSH1 0x0 PUSH2 0x2B85 DUP5 DUP3 DUP6 ADD PUSH2 0x291C JUMP JUMPDEST SWAP2 POP POP SWAP3 SWAP2 POP POP JUMP JUMPDEST PUSH1 0x0 DUP1 PUSH1 0x40 DUP4 DUP6 SUB SLT ISZERO PUSH2 0x2BA5 JUMPI PUSH2 0x2BA4 PUSH2 0x2779 JUMP JUMPDEST JUMPDEST PUSH1 0x0 PUSH2 0x2BB3 DUP6 DUP3 DUP7 ADD PUSH2 0x291C JUMP JUMPDEST SWAP3 POP POP PUSH1 0x20 PUSH2 0x2BC4 DUP6 DUP3 DUP7 ADD PUSH2 0x291C JUMP JUMPDEST SWAP2 POP POP SWAP3 POP SWAP3 SWAP1 POP JUMP JUMPDEST PUSH2 0x2BD7 DUP2 PUSH2 0x2931 JUMP JUMPDEST DUP3 MSTORE POP POP JUMP JUMPDEST PUSH1 0x0 PUSH1 0x20 DUP3 ADD SWAP1 POP PUSH2 0x2BF2 PUSH1 0x0 DUP4 ADD DUP5 PUSH2 0x2BCE JUMP JUMPDEST SWAP3 SWAP2 POP POP JUMP JUMPDEST PUSH1 0x0 DUP2 ISZERO ISZERO SWAP1 POP SWAP2 SWAP1 POP JUMP JUMPDEST PUSH2 0x2C0D DUP2 PUSH2 0x2BF8 JUMP JUMPDEST DUP3 MSTORE POP POP JUMP JUMPDEST PUSH1 0x0 PUSH1 0x20 DUP3 ADD SWAP1 POP PUSH2 0x2C28 PUSH1 0x0 DUP4 ADD DUP5 PUSH2 0x2C04 JUMP JUMPDEST SWAP3 SWAP2 POP POP JUMP JUMPDEST PUSH2 0x2C37 DUP2 PUSH2 0x28F3 JUMP JUMPDEST DUP3 MSTORE POP POP JUMP JUMPDEST PUSH1 0x0 PUSH1 0x20 DUP3 ADD SWAP1 POP PUSH2 0x2C52 PUSH1 0x0 DUP4 ADD DUP5 PUSH2 0x2C2E JUMP JUMPDEST SWAP3 SWAP2 POP POP JUMP JUMPDEST PUSH1 0x0 DUP1 PUSH1 0x0 PUSH1 0x60 DUP5 DUP7 SUB SLT ISZERO PUSH2 0x2C71 JUMPI PUSH2 0x2C70 PUSH2 0x2779 JUMP JUMPDEST JUMPDEST PUSH1 0x0 PUSH2 0x2C7F DUP7 DUP3 DUP8 ADD PUSH2 0x291C JUMP JUMPDEST SWAP4 POP POP PUSH1 0x20 PUSH2 0x2C90 DUP7 DUP3 DUP8 ADD PUSH2 0x291C JUMP JUMPDEST SWAP3 POP POP PUSH1 0x40 PUSH2 0x2CA1 DUP7 DUP3 DUP8 ADD PUSH2 0x2952 JUMP JUMPDEST SWAP2 POP POP SWAP3 POP SWAP3 POP SWAP3 JUMP JUMPDEST PUSH1 0x0 PUSH2 0x2CB6 DUP3 PUSH2 0x2A97 JUMP JUMPDEST SWAP1 POP SWAP2 SWAP1 POP JUMP JUMPDEST PUSH2 0x2CC6 DUP2 PUSH2 0x2CAB JUMP JUMPDEST DUP3 MSTORE POP POP JUMP JUMPDEST PUSH1 0x0 PUSH1 0x20 DUP3 ADD SWAP1 POP PUSH2 0x2CE1 PUSH1 0x0 DUP4 ADD DUP5 PUSH2 0x2CBD JUMP JUMPDEST SWAP3 SWAP2 POP POP JUMP JUMPDEST PUSH1 0x0 PUSH3 0xFFFFFF DUP3 AND SWAP1 POP SWAP2 SWAP1 POP JUMP JUMPDEST PUSH2 0x2CFF DUP2 PUSH2 0x2CE7 JUMP JUMPDEST DUP2 EQ PUSH2 0x2D0A JUMPI PUSH1 0x0 DUP1 REVERT JUMPDEST POP JUMP JUMPDEST PUSH1 0x0 DUP2 CALLDATALOAD SWAP1 POP PUSH2 0x2D1C DUP2 PUSH2 0x2CF6 JUMP JUMPDEST SWAP3 SWAP2 POP POP JUMP JUMPDEST PUSH1 0x0 DUP1 PUSH1 0x0 PUSH1 0x60 DUP5 DUP7 SUB SLT ISZERO PUSH2 0x2D3B JUMPI PUSH2 0x2D3A PUSH2 0x2779 JUMP JUMPDEST JUMPDEST PUSH1 0x0 PUSH2 0x2D49 DUP7 DUP3 DUP8 ADD PUSH2 0x291C JUMP JUMPDEST SWAP4 POP POP PUSH1 0x20 PUSH2 0x2D5A DUP7 DUP3 DUP8 ADD PUSH2 0x2D0D JUMP JUMPDEST SWAP3 POP POP PUSH1 0x40 PUSH2 0x2D6B DUP7 DUP3 DUP8 ADD PUSH2 0x291C JUMP JUMPDEST SWAP2 POP POP SWAP3 POP SWAP3 POP SWAP3 JUMP JUMPDEST PUSH1 0x0 DUP2 MLOAD SWAP1 POP SWAP2 SWAP1 POP JUMP JUMPDEST PUSH1 0x0 DUP3 DUP3 MSTORE PUSH1 0x20 DUP3 ADD SWAP1 POP SWAP3 SWAP2 POP POP JUMP JUMPDEST PUSH1 0x0 JUMPDEST DUP4 DUP2 LT ISZERO PUSH2 0x2DAF JUMPI DUP1 DUP3 ADD MLOAD DUP2 DUP5 ADD MSTORE PUSH1 0x20 DUP2 ADD SWAP1 POP PUSH2 0x2D94 JUMP JUMPDEST PUSH1 0x0 DUP5 DUP5 ADD MSTORE POP POP POP POP JUMP JUMPDEST PUSH1 0x0 PUSH2 0x2DC6 DUP3 PUSH2 0x2D75 JUMP JUMPDEST PUSH2 0x2DD0 DUP2 DUP6 PUSH2 0x2D80 JUMP JUMPDEST SWAP4 POP PUSH2 0x2DE0 DUP2 DUP6 PUSH1 0x20 DUP7 ADD PUSH2 0x2D91 JUMP JUMPDEST PUSH2 0x2DE9 DUP2 PUSH2 0x2788 JUMP JUMPDEST DUP5 ADD SWAP2 POP POP SWAP3 SWAP2 POP POP JUMP JUMPDEST PUSH1 0x0 PUSH1 0x20 DUP3 ADD SWAP1 POP DUP2 DUP2 SUB PUSH1 0x0 DUP4 ADD MSTORE PUSH2 0x2E0E DUP2 DUP5 PUSH2 0x2DBB JUMP JUMPDEST SWAP1 POP SWAP3 SWAP2 POP POP JUMP JUMPDEST PUSH1 0x0 DUP2 MLOAD SWAP1 POP PUSH2 0x2E25 DUP2 PUSH2 0x293B JUMP JUMPDEST SWAP3 SWAP2 POP POP JUMP JUMPDEST PUSH1 0x0 PUSH1 0x20 DUP3 DUP5 SUB SLT ISZERO PUSH2 0x2E41 JUMPI PUSH2 0x2E40 PUSH2 0x2779 JUMP JUMPDEST JUMPDEST PUSH1 0x0 PUSH2 0x2E4F DUP5 DUP3 DUP6 ADD PUSH2 0x2E16 JUMP JUMPDEST SWAP2 POP POP SWAP3 SWAP2 POP POP JUMP JUMPDEST PUSH1 0x0 DUP2 PUSH1 0x60 SHL SWAP1 POP SWAP2 SWAP1 POP JUMP JUMPDEST PUSH1 0x0 PUSH2 0x2E70 DUP3 PUSH2 0x2E58 JUMP JUMPDEST SWAP1 POP SWAP2 SWAP1 POP JUMP JUMPDEST PUSH1 0x0 PUSH2 0x2E82 DUP3 PUSH2 0x2E65 JUMP JUMPDEST SWAP1 POP SWAP2 SWAP1 POP JUMP JUMPDEST PUSH2 0x2E9A PUSH2 0x2E95 DUP3 PUSH2 0x28F3 JUMP JUMPDEST PUSH2 0x2E77 JUMP JUMPDEST DUP3 MSTORE POP POP JUMP JUMPDEST PUSH1 0x0 DUP2 PUSH1 0xE8 SHL SWAP1 POP SWAP2 SWAP1 POP JUMP JUMPDEST PUSH1 0x0 PUSH2 0x2EB8 DUP3 PUSH2 0x2EA0 JUMP JUMPDEST SWAP1 POP SWAP2 SWAP1 POP JUMP JUMPDEST PUSH2 0x2ED0 PUSH2 0x2ECB DUP3 PUSH2 0x2CE7 JUMP JUMPDEST PUSH2 0x2EAD JUMP JUMPDEST DUP3 MSTORE POP POP JUMP JUMPDEST PUSH1 0x0 PUSH2 0x2EE2 DUP3 DUP7 PUSH2 0x2E89 JUMP JUMPDEST PUSH1 0x14 DUP3 ADD SWAP2 POP PUSH2 0x2EF2 DUP3 DUP6 PUSH2 0x2EBF JUMP JUMPDEST PUSH1 0x3 DUP3 ADD SWAP2 POP PUSH2 0x2F02 DUP3 DUP5 PUSH2 0x2E89 JUMP JUMPDEST PUSH1 0x14 DUP3 ADD SWAP2 POP DUP2 SWAP1 POP SWAP5 SWAP4 POP POP POP POP JUMP JUMPDEST PUSH32 0x4E487B7100000000000000000000000000000000000000000000000000000000 PUSH1 0x0 MSTORE PUSH1 0x11 PUSH1 0x4 MSTORE PUSH1 0x24 PUSH1 0x0 REVERT JUMPDEST PUSH1 0x0 PUSH2 0x2F4D DUP3 PUSH2 0x2931 JUMP JUMPDEST SWAP2 POP PUSH2 0x2F58 DUP4 PUSH2 0x2931 JUMP JUMPDEST SWAP3 POP DUP3 DUP3 SUB SWAP1 POP DUP2 DUP2 GT ISZERO PUSH2 0x2F70 JUMPI PUSH2 0x2F6F PUSH2 0x2F13 JUMP JUMPDEST JUMPDEST SWAP3 SWAP2 POP POP JUMP JUMPDEST PUSH1 0x0 DUP3 DUP3 MSTORE PUSH1 0x20 DUP3 ADD SWAP1 POP SWAP3 SWAP2 POP POP JUMP JUMPDEST PUSH1 0x0 PUSH2 0x2F92 DUP3 PUSH2 0x2D75 JUMP JUMPDEST PUSH2 0x2F9C DUP2 DUP6 PUSH2 0x2F76 JUMP JUMPDEST SWAP4 POP PUSH2 0x2FAC DUP2 DUP6 PUSH1 0x20 DUP7 ADD PUSH2 0x2D91 JUMP JUMPDEST PUSH2 0x2FB5 DUP2 PUSH2 0x2788 JUMP JUMPDEST DUP5 ADD SWAP2 POP POP SWAP3 SWAP2 POP POP JUMP JUMPDEST PUSH2 0x2FC9 DUP2 PUSH2 0x28F3 JUMP JUMPDEST DUP3 MSTORE POP POP JUMP JUMPDEST PUSH2 0x2FD8 DUP2 PUSH2 0x2931 JUMP JUMPDEST DUP3 MSTORE POP POP JUMP JUMPDEST PUSH1 0x0 PUSH1 0xA0 DUP4 ADD PUSH1 0x0 DUP4 ADD MLOAD DUP5 DUP3 SUB PUSH1 0x0 DUP7 ADD MSTORE PUSH2 0x2FFB DUP3 DUP3 PUSH2 0x2F87 JUMP JUMPDEST SWAP2 POP POP PUSH1 0x20 DUP4 ADD MLOAD PUSH2 0x3010 PUSH1 0x20 DUP7 ADD DUP3 PUSH2 0x2FC0 JUMP JUMPDEST POP PUSH1 0x40 DUP4 ADD MLOAD PUSH2 0x3023 PUSH1 0x40 DUP7 ADD DUP3 PUSH2 0x2FCF JUMP JUMPDEST POP PUSH1 0x60 DUP4 ADD MLOAD PUSH2 0x3036 PUSH1 0x60 DUP7 ADD DUP3 PUSH2 0x2FCF JUMP JUMPDEST POP PUSH1 0x80 DUP4 ADD MLOAD PUSH2 0x3049 PUSH1 0x80 DUP7 ADD DUP3 PUSH2 0x2FCF JUMP JUMPDEST POP DUP1 SWAP2 POP POP SWAP3 SWAP2 POP POP JUMP JUMPDEST PUSH1 0x0 PUSH1 0x20 DUP3 ADD SWAP1 POP DUP2 DUP2 SUB PUSH1 0x0 DUP4 ADD MSTORE PUSH2 0x306E DUP2 DUP5 PUSH2 0x2FDE JUMP JUMPDEST SWAP1 POP SWAP3 SWAP2 POP POP JUMP JUMPDEST PUSH1 0x0 DUP3 DUP3 MSTORE PUSH1 0x20 DUP3 ADD SWAP1 POP SWAP3 SWAP2 POP POP JUMP JUMPDEST PUSH32 0x416D6F756E742063616E27742062652030000000000000000000000000000000 PUSH1 0x0 DUP3 ADD MSTORE POP JUMP JUMPDEST PUSH1 0x0 PUSH2 0x30BD PUSH1 0x11 DUP4 PUSH2 0x3076 JUMP JUMPDEST SWAP2 POP PUSH2 0x30C8 DUP3 PUSH2 0x3087 JUMP JUMPDEST PUSH1 0x20 DUP3 ADD SWAP1 POP SWAP2 SWAP1 POP JUMP JUMPDEST PUSH1 0x0 PUSH1 0x20 DUP3 ADD SWAP1 POP DUP2 DUP2 SUB PUSH1 0x0 DUP4 ADD MSTORE PUSH2 0x30EC DUP2 PUSH2 0x30B0 JUMP JUMPDEST SWAP1 POP SWAP2 SWAP1 POP JUMP JUMPDEST PUSH1 0x0 PUSH1 0x60 DUP3 ADD SWAP1 POP PUSH2 0x3108 PUSH1 0x0 DUP4 ADD DUP7 PUSH2 0x2C2E JUMP JUMPDEST PUSH2 0x3115 PUSH1 0x20 DUP4 ADD DUP6 PUSH2 0x2C2E JUMP JUMPDEST PUSH2 0x3122 PUSH1 0x40 DUP4 ADD DUP5 PUSH2 0x2BCE JUMP JUMPDEST SWAP5 SWAP4 POP POP POP POP JUMP JUMPDEST PUSH2 0x3133 DUP2 PUSH2 0x2BF8 JUMP JUMPDEST DUP2 EQ PUSH2 0x313E JUMPI PUSH1 0x0 DUP1 REVERT JUMPDEST POP JUMP JUMPDEST PUSH1 0x0 DUP2 MLOAD SWAP1 POP PUSH2 0x3150 DUP2 PUSH2 0x312A JUMP JUMPDEST SWAP3 SWAP2 POP POP JUMP JUMPDEST PUSH1 0x0 PUSH1 0x20 DUP3 DUP5 SUB SLT ISZERO PUSH2 0x316C JUMPI PUSH2 0x316B PUSH2 0x2779 JUMP JUMPDEST JUMPDEST PUSH1 0x0 PUSH2 0x317A DUP5 DUP3 DUP6 ADD PUSH2 0x3141 JUMP JUMPDEST SWAP2 POP POP SWAP3 SWAP2 POP POP JUMP JUMPDEST PUSH2 0x318C DUP2 PUSH2 0x28D3 JUMP JUMPDEST DUP2 EQ PUSH2 0x3197 JUMPI PUSH1 0x0 DUP1 REVERT JUMPDEST POP JUMP JUMPDEST PUSH1 0x0 DUP2 MLOAD SWAP1 POP PUSH2 0x31A9 DUP2 PUSH2 0x3183 JUMP JUMPDEST SWAP3 SWAP2 POP POP JUMP JUMPDEST PUSH1 0x0 DUP2 PUSH1 0x2 SIGNEXTEND SWAP1 POP SWAP2 SWAP1 POP JUMP JUMPDEST PUSH2 0x31C5 DUP2 PUSH2 0x31AF JUMP JUMPDEST DUP2 EQ PUSH2 0x31D0 JUMPI PUSH1 0x0 DUP1 REVERT JUMPDEST POP JUMP JUMPDEST PUSH1 0x0 DUP2 MLOAD SWAP1 POP PUSH2 0x31E2 DUP2 PUSH2 0x31BC JUMP JUMPDEST SWAP3 SWAP2 POP POP JUMP JUMPDEST PUSH1 0x0 PUSH2 0xFFFF DUP3 AND SWAP1 POP SWAP2 SWAP1 POP JUMP JUMPDEST PUSH2 0x31FF DUP2 PUSH2 0x31E8 JUMP JUMPDEST DUP2 EQ PUSH2 0x320A JUMPI PUSH1 0x0 DUP1 REVERT JUMPDEST POP JUMP JUMPDEST PUSH1 0x0 DUP2 MLOAD SWAP1 POP PUSH2 0x321C DUP2 PUSH2 0x31F6 JUMP JUMPDEST SWAP3 SWAP2 POP POP JUMP JUMPDEST PUSH1 0x0 PUSH1 0xFF DUP3 AND SWAP1 POP SWAP2 SWAP1 POP JUMP JUMPDEST PUSH2 0x3238 DUP2 PUSH2 0x3222 JUMP JUMPDEST DUP2 EQ PUSH2 0x3243 JUMPI PUSH1 0x0 DUP1 REVERT JUMPDEST POP JUMP JUMPDEST PUSH1 0x0 DUP2 MLOAD SWAP1 POP PUSH2 0x3255 DUP2 PUSH2 0x322F JUMP JUMPDEST SWAP3 SWAP2 POP POP JUMP JUMPDEST PUSH1 0x0 DUP1 PUSH1 0x0 DUP1 PUSH1 0x0 DUP1 PUSH1 0x0 PUSH1 0xE0 DUP9 DUP11 SUB SLT ISZERO PUSH2 0x327A JUMPI PUSH2 0x3279 PUSH2 0x2779 JUMP JUMPDEST JUMPDEST PUSH1 0x0 PUSH2 0x3288 DUP11 DUP3 DUP12 ADD PUSH2 0x319A JUMP JUMPDEST SWAP8 POP POP PUSH1 0x20 PUSH2 0x3299 DUP11 DUP3 DUP12 ADD PUSH2 0x31D3 JUMP JUMPDEST SWAP7 POP POP PUSH1 0x40 PUSH2 0x32AA DUP11 DUP3 DUP12 ADD PUSH2 0x320D JUMP JUMPDEST SWAP6 POP POP PUSH1 0x60 PUSH2 0x32BB DUP11 DUP3 DUP12 ADD PUSH2 0x320D JUMP JUMPDEST SWAP5 POP POP PUSH1 0x80 PUSH2 0x32CC DUP11 DUP3 DUP12 ADD PUSH2 0x320D JUMP JUMPDEST SWAP4 POP POP PUSH1 0xA0 PUSH2 0x32DD DUP11 DUP3 DUP12 ADD PUSH2 0x3246 JUMP JUMPDEST SWAP3 POP POP PUSH1 0xC0 PUSH2 0x32EE DUP11 DUP3 DUP12 ADD PUSH2 0x3141 JUMP JUMPDEST SWAP2 POP POP SWAP3 SWAP6 SWAP9 SWAP2 SWAP5 SWAP8 POP SWAP3 SWAP6 POP JUMP JUMPDEST PUSH1 0x0 PUSH4 0xFFFFFFFF DUP3 AND SWAP1 POP SWAP2 SWAP1 POP JUMP JUMPDEST PUSH2 0x3316 DUP2 PUSH2 0x32FD JUMP JUMPDEST DUP2 EQ PUSH2 0x3321 JUMPI PUSH1 0x0 DUP1 REVERT JUMPDEST POP JUMP JUMPDEST PUSH1 0x0 DUP2 MLOAD SWAP1 POP PUSH2 0x3333 DUP2 PUSH2 0x330D JUMP JUMPDEST SWAP3 SWAP2 POP POP JUMP JUMPDEST PUSH1 0x0 DUP1 PUSH1 0x0 DUP1 PUSH1 0x0 DUP1 PUSH1 0x0 PUSH1 0xE0 DUP9 DUP11 SUB SLT ISZERO PUSH2 0x3358 JUMPI PUSH2 0x3357 PUSH2 0x2779 JUMP JUMPDEST JUMPDEST PUSH1 0x0 PUSH2 0x3366 DUP11 DUP3 DUP12 ADD PUSH2 0x319A JUMP JUMPDEST SWAP8 POP POP PUSH1 0x20 PUSH2 0x3377 DUP11 DUP3 DUP12 ADD PUSH2 0x31D3 JUMP JUMPDEST SWAP7 POP POP PUSH1 0x40 PUSH2 0x3388 DUP11 DUP3 DUP12 ADD PUSH2 0x320D JUMP JUMPDEST SWAP6 POP POP PUSH1 0x60 PUSH2 0x3399 DUP11 DUP3 DUP12 ADD PUSH2 0x320D JUMP JUMPDEST SWAP5 POP POP PUSH1 0x80 PUSH2 0x33AA DUP11 DUP3 DUP12 ADD PUSH2 0x320D JUMP JUMPDEST SWAP4 POP POP PUSH1 0xA0 PUSH2 0x33BB DUP11 DUP3 DUP12 ADD PUSH2 0x3324 JUMP JUMPDEST SWAP3 POP POP PUSH1 0xC0 PUSH2 0x33CC DUP11 DUP3 DUP12 ADD PUSH2 0x3141 JUMP JUMPDEST SWAP2 POP POP SWAP3 SWAP6 SWAP9 SWAP2 SWAP5 SWAP8 POP SWAP3 SWAP6 POP JUMP JUMPDEST PUSH1 0x0 PUSH2 0x33E6 DUP3 PUSH2 0x2931 JUMP JUMPDEST SWAP2 POP PUSH2 0x33F1 DUP4 PUSH2 0x2931 JUMP JUMPDEST SWAP3 POP DUP3 DUP3 MUL PUSH2 0x33FF DUP2 PUSH2 0x2931 JUMP JUMPDEST SWAP2 POP DUP3 DUP3 DIV DUP5 EQ DUP4 ISZERO OR PUSH2 0x3416 JUMPI PUSH2 0x3415 PUSH2 0x2F13 JUMP JUMPDEST JUMPDEST POP SWAP3 SWAP2 POP POP JUMP JUMPDEST PUSH32 0x4E487B7100000000000000000000000000000000000000000000000000000000 PUSH1 0x0 MSTORE PUSH1 0x12 PUSH1 0x4 MSTORE PUSH1 0x24 PUSH1 0x0 REVERT JUMPDEST PUSH1 0x0 PUSH2 0x3457 DUP3 PUSH2 0x2931 JUMP JUMPDEST SWAP2 POP PUSH2 0x3462 DUP4 PUSH2 0x2931 JUMP JUMPDEST SWAP3 POP DUP3 PUSH2 0x3472 JUMPI PUSH2 0x3471 PUSH2 0x341D JUMP JUMPDEST JUMPDEST DUP3 DUP3 DIV SWAP1 POP SWAP3 SWAP2 POP POP JUMP JUMPDEST PUSH1 0x0 PUSH1 0x80 DUP4 ADD PUSH1 0x0 DUP4 ADD MLOAD DUP5 DUP3 SUB PUSH1 0x0 DUP7 ADD MSTORE PUSH2 0x349A DUP3 DUP3 PUSH2 0x2F87 JUMP JUMPDEST SWAP2 POP POP PUSH1 0x20 DUP4 ADD MLOAD PUSH2 0x34AF PUSH1 0x20 DUP7 ADD DUP3 PUSH2 0x2FC0 JUMP JUMPDEST POP PUSH1 0x40 DUP4 ADD MLOAD PUSH2 0x34C2 PUSH1 0x40 DUP7 ADD DUP3 PUSH2 0x2FCF JUMP JUMPDEST POP PUSH1 0x60 DUP4 ADD MLOAD PUSH2 0x34D5 PUSH1 0x60 DUP7 ADD DUP3 PUSH2 0x2FCF JUMP JUMPDEST POP DUP1 SWAP2 POP POP SWAP3 SWAP2 POP POP JUMP JUMPDEST PUSH1 0x0 PUSH1 0x20 DUP3 ADD SWAP1 POP DUP2 DUP2 SUB PUSH1 0x0 DUP4 ADD MSTORE PUSH2 0x34FA DUP2 DUP5 PUSH2 0x347D JUMP JUMPDEST SWAP1 POP SWAP3 SWAP2 POP POP JUMP JUMPDEST PUSH32 0x43616E2774206265206120302061646472657373000000000000000000000000 PUSH1 0x0 DUP3 ADD MSTORE POP JUMP JUMPDEST PUSH1 0x0 PUSH2 0x3538 PUSH1 0x14 DUP4 PUSH2 0x3076 JUMP JUMPDEST SWAP2 POP PUSH2 0x3543 DUP3 PUSH2 0x3502 JUMP JUMPDEST PUSH1 0x20 DUP3 ADD SWAP1 POP SWAP2 SWAP1 POP JUMP JUMPDEST PUSH1 0x0 PUSH1 0x20 DUP3 ADD SWAP1 POP DUP2 DUP2 SUB PUSH1 0x0 DUP4 ADD MSTORE PUSH2 0x3567 DUP2 PUSH2 0x352B JUMP JUMPDEST SWAP1 POP SWAP2 SWAP1 POP JUMP JUMPDEST PUSH32 0x43616E2774206265207468697320616464726573730000000000000000000000 PUSH1 0x0 DUP3 ADD MSTORE POP JUMP JUMPDEST PUSH1 0x0 PUSH2 0x35A4 PUSH1 0x15 DUP4 PUSH2 0x3076 JUMP JUMPDEST SWAP2 POP PUSH2 0x35AF DUP3 PUSH2 0x356E JUMP JUMPDEST PUSH1 0x20 DUP3 ADD SWAP1 POP SWAP2 SWAP1 POP JUMP JUMPDEST PUSH1 0x0 PUSH1 0x20 DUP3 ADD SWAP1 POP DUP2 DUP2 SUB PUSH1 0x0 DUP4 ADD MSTORE PUSH2 0x35D3 DUP2 PUSH2 0x3597 JUMP JUMPDEST SWAP1 POP SWAP2 SWAP1 POP JUMP JUMPDEST PUSH32 0x416D6F756E7420697320686967686572207468616E2062616C616E6365000000 PUSH1 0x0 DUP3 ADD MSTORE POP JUMP JUMPDEST PUSH1 0x0 PUSH2 0x3610 PUSH1 0x1D DUP4 PUSH2 0x3076 JUMP JUMPDEST SWAP2 POP PUSH2 0x361B DUP3 PUSH2 0x35DA JUMP JUMPDEST PUSH1 0x20 DUP3 ADD SWAP1 POP SWAP2 SWAP1 POP JUMP JUMPDEST PUSH1 0x0 PUSH1 0x20 DUP3 ADD SWAP1 POP DUP2 DUP2 SUB PUSH1 0x0 DUP4 ADD MSTORE PUSH2 0x363F DUP2 PUSH2 0x3603 JUMP JUMPDEST SWAP1 POP SWAP2 SWAP1 POP JUMP JUMPDEST PUSH1 0x0 PUSH1 0x40 DUP3 ADD SWAP1 POP PUSH2 0x365B PUSH1 0x0 DUP4 ADD DUP6 PUSH2 0x2C2E JUMP JUMPDEST PUSH2 0x3668 PUSH1 0x20 DUP4 ADD DUP5 PUSH2 0x2BCE JUMP JUMPDEST SWAP4 SWAP3 POP POP POP JUMP JUMPDEST PUSH32 0x4E6F74206C6F636B656400000000000000000000000000000000000000000000 PUSH1 0x0 DUP3 ADD MSTORE POP JUMP JUMPDEST PUSH1 0x0 PUSH2 0x36A5 PUSH1 0xA DUP4 PUSH2 0x3076 JUMP JUMPDEST SWAP2 POP PUSH2 0x36B0 DUP3 PUSH2 0x366F JUMP JUMPDEST PUSH1 0x20 DUP3 ADD SWAP1 POP SWAP2 SWAP1 POP JUMP JUMPDEST PUSH1 0x0 PUSH1 0x20 DUP3 ADD SWAP1 POP DUP2 DUP2 SUB PUSH1 0x0 DUP4 ADD MSTORE PUSH2 0x36D4 DUP2 PUSH2 0x3698 JUMP JUMPDEST SWAP1 POP SWAP2 SWAP1 POP JUMP JUMPDEST PUSH32 0x416C7265616479206C6F636B6564000000000000000000000000000000000000 PUSH1 0x0 DUP3 ADD MSTORE POP JUMP JUMPDEST PUSH1 0x0 PUSH2 0x3711 PUSH1 0xE DUP4 PUSH2 0x3076 JUMP JUMPDEST SWAP2 POP PUSH2 0x371C DUP3 PUSH2 0x36DB JUMP JUMPDEST PUSH1 0x20 DUP3 ADD SWAP1 POP SWAP2 SWAP1 POP JUMP JUMPDEST PUSH1 0x0 PUSH1 0x20 DUP3 ADD SWAP1 POP DUP2 DUP2 SUB PUSH1 0x0 DUP4 ADD MSTORE PUSH2 0x3740 DUP2 PUSH2 0x3704 JUMP JUMPDEST SWAP1 POP SWAP2 SWAP1 POP JUMP INVALID LOG2 PUSH5 0x6970667358 0x22 SLT KECCAK256 MOD 0xBC 0xDD PUSH2 0x70A7 0xD5 DUP15 0xE6 0xD8 DUP14 PUSH10 0xDD6E708D301B2074E744 PUSH24 0x8C30C032B19DC6817864736F6C6343000814003300000000 "},"methodIdentifiers":{"approveToken(address,address,uint256)":"da3e3397","depositToken(address,uint256)":"338b5dea","isLocked()":"a4e2d634","lock()":"f83d08ba","pancakeRouterV3()":"e47aaf6d","returnBlockTimestamp()":"f556d1d4","returnPathData(address,uint24,address)":"f1584673","returnTokenApproved(address,address)":"786fb10c","returnTokenBalance(address)":"a119b86e","setTradeExecutor(address)":"5767c659","swapUSDCforUSDTnoSlippage()":"0ebaf458","swapUSDCforUSDTwithSlippage()":"743aa1d0","swapUSDTforUSDCnoSlippage()":"7201c6be","swapUSDTforUSDCwithSlippage()":"3ee0b624","trade1((bytes,address,uint256,uint256,uint256),uint256)":"05ddad1f","trade2((bytes,address,uint256,uint256,uint256),uint256)":"272a6dd9","tradeExecutor()":"a7f07011","uniswapRouterV3()":"10f91b0b","unlock()":"a69df4b5","usdc()":"3e413bee","usdt()":"2f48ab7d","weth()":"3fc8cef3","withdrawToken(address,uint256)":"9e281a98"}}}}}