{
  "_format": "hh-sol-artifact-1",
  "contractName": "OptimusPrime",
  "sourceName": "contracts/OptimusPrime.sol",
  "abi": [
    {
      "inputs": [
        {
          "internalType": "address",
          "name": "_pancakeswapRouterV3",
          "type": "address"
        },
        {
          "internalType": "address",
          "name": "_uniswapRouterV3",
          "type": "address"
        }
      ],
      "stateMutability": "nonpayable",
      "type": "constructor"
    },
    {
      "inputs": [
        {
          "internalType": "uint256",
          "name": "finalBalance",
          "type": "uint256"
        }
      ],
      "name": "NoProfit",
      "type": "error"
    },
    {
      "inputs": [
        {
          "internalType": "address",
          "name": "sender",
          "type": "address"
        }
      ],
      "name": "NotTheOwner",
      "type": "error"
    },
    {
      "inputs": [
        {
          "internalType": "address",
          "name": "sender",
          "type": "address"
        }
      ],
      "name": "NotTheTradeExecutor",
      "type": "error"
    },
    {
      "inputs": [
        {
          "internalType": "address",
          "name": "token",
          "type": "address"
        }
      ],
      "name": "TokenNotAccepted",
      "type": "error"
    },
    {
      "anonymous": false,
      "inputs": [
        {
          "indexed": false,
          "internalType": "uint256",
          "name": "_finalBalance",
          "type": "uint256"
        }
      ],
      "name": "Profit",
      "type": "event"
    },
    {
      "inputs": [
        {
          "internalType": "address",
          "name": "tokenToApprove",
          "type": "address"
        },
        {
          "internalType": "address",
          "name": "spender",
          "type": "address"
        },
        {
          "internalType": "uint256",
          "name": "amount",
          "type": "uint256"
        }
      ],
      "name": "approveToken",
      "outputs": [],
      "stateMutability": "nonpayable",
      "type": "function"
    },
    {
      "inputs": [
        {
          "internalType": "address",
          "name": "token",
          "type": "address"
        },
        {
          "internalType": "uint256",
          "name": "amount",
          "type": "uint256"
        }
      ],
      "name": "depositToken",
      "outputs": [],
      "stateMutability": "nonpayable",
      "type": "function"
    },
    {
      "inputs": [],
      "name": "isLocked",
      "outputs": [
        {
          "internalType": "bool",
          "name": "",
          "type": "bool"
        }
      ],
      "stateMutability": "view",
      "type": "function"
    },
    {
      "inputs": [],
      "name": "lock",
      "outputs": [],
      "stateMutability": "nonpayable",
      "type": "function"
    },
    {
      "inputs": [],
      "name": "pancakeRouterV3",
      "outputs": [
        {
          "internalType": "contract IV3PancakeSwapRouter",
          "name": "",
          "type": "address"
        }
      ],
      "stateMutability": "view",
      "type": "function"
    },
    {
      "inputs": [],
      "name": "returnBlockTimestamp",
      "outputs": [
        {
          "internalType": "uint256",
          "name": "",
          "type": "uint256"
        }
      ],
      "stateMutability": "view",
      "type": "function"
    },
    {
      "inputs": [
        {
          "internalType": "address",
          "name": "tokenA",
          "type": "address"
        },
        {
          "internalType": "uint24",
          "name": "poolFee",
          "type": "uint24"
        },
        {
          "internalType": "address",
          "name": "tokenB",
          "type": "address"
        }
      ],
      "name": "returnPathData",
      "outputs": [
        {
          "internalType": "bytes",
          "name": "",
          "type": "bytes"
        }
      ],
      "stateMutability": "pure",
      "type": "function"
    },
    {
      "inputs": [
        {
          "internalType": "address",
          "name": "token",
          "type": "address"
        },
        {
          "internalType": "address",
          "name": "spender",
          "type": "address"
        }
      ],
      "name": "returnTokenApproved",
      "outputs": [
        {
          "internalType": "uint256",
          "name": "",
          "type": "uint256"
        }
      ],
      "stateMutability": "view",
      "type": "function"
    },
    {
      "inputs": [
        {
          "internalType": "address",
          "name": "token",
          "type": "address"
        }
      ],
      "name": "returnTokenBalance",
      "outputs": [
        {
          "internalType": "uint256",
          "name": "",
          "type": "uint256"
        }
      ],
      "stateMutability": "view",
      "type": "function"
    },
    {
      "inputs": [
        {
          "internalType": "address",
          "name": "_tradeExecutor",
          "type": "address"
        }
      ],
      "name": "setTradeExecutor",
      "outputs": [],
      "stateMutability": "nonpayable",
      "type": "function"
    },
    {
      "inputs": [],
      "name": "swapUSDCforUSDTnoSlippage",
      "outputs": [],
      "stateMutability": "nonpayable",
      "type": "function"
    },
    {
      "inputs": [],
      "name": "swapUSDCforUSDTwithSlippage",
      "outputs": [],
      "stateMutability": "nonpayable",
      "type": "function"
    },
    {
      "inputs": [],
      "name": "swapUSDTforUSDCnoSlippage",
      "outputs": [],
      "stateMutability": "nonpayable",
      "type": "function"
    },
    {
      "inputs": [],
      "name": "swapUSDTforUSDCwithSlippage",
      "outputs": [],
      "stateMutability": "nonpayable",
      "type": "function"
    },
    {
      "inputs": [
        {
          "components": [
            {
              "internalType": "bytes",
              "name": "path",
              "type": "bytes"
            },
            {
              "internalType": "address",
              "name": "recipient",
              "type": "address"
            },
            {
              "internalType": "uint256",
              "name": "deadline",
              "type": "uint256"
            },
            {
              "internalType": "uint256",
              "name": "amountIn",
              "type": "uint256"
            },
            {
              "internalType": "uint256",
              "name": "amountOutMinimum",
              "type": "uint256"
            }
          ],
          "internalType": "struct IV3PancakeSwapRouter.ExactInputParams",
          "name": "params",
          "type": "tuple"
        },
        {
          "internalType": "uint256",
          "name": "initialAmountIn",
          "type": "uint256"
        }
      ],
      "name": "trade1",
      "outputs": [],
      "stateMutability": "nonpayable",
      "type": "function"
    },
    {
      "inputs": [
        {
          "components": [
            {
              "internalType": "bytes",
              "name": "path",
              "type": "bytes"
            },
            {
              "internalType": "address",
              "name": "recipient",
              "type": "address"
            },
            {
              "internalType": "uint256",
              "name": "deadline",
              "type": "uint256"
            },
            {
              "internalType": "uint256",
              "name": "amountIn",
              "type": "uint256"
            },
            {
              "internalType": "uint256",
              "name": "amountOutMinimum",
              "type": "uint256"
            }
          ],
          "internalType": "struct IV3PancakeSwapRouter.ExactInputParams",
          "name": "params",
          "type": "tuple"
        },
        {
          "internalType": "uint256",
          "name": "initialAmountIn",
          "type": "uint256"
        }
      ],
      "name": "trade2",
      "outputs": [],
      "stateMutability": "nonpayable",
      "type": "function"
    },
    {
      "inputs": [],
      "name": "tradeExecutor",
      "outputs": [
        {
          "internalType": "address",
          "name": "",
          "type": "address"
        }
      ],
      "stateMutability": "view",
      "type": "function"
    },
    {
      "inputs": [],
      "name": "uniswapRouterV3",
      "outputs": [
        {
          "internalType": "contract IV3UniswapSwapRouter",
          "name": "",
          "type": "address"
        }
      ],
      "stateMutability": "view",
      "type": "function"
    },
    {
      "inputs": [],
      "name": "unlock",
      "outputs": [],
      "stateMutability": "nonpayable",
      "type": "function"
    },
    {
      "inputs": [],
      "name": "usdc",
      "outputs": [
        {
          "internalType": "contract IERC20",
          "name": "",
          "type": "address"
        }
      ],
      "stateMutability": "view",
      "type": "function"
    },
    {
      "inputs": [],
      "name": "usdt",
      "outputs": [
        {
          "internalType": "contract IERC20",
          "name": "",
          "type": "address"
        }
      ],
      "stateMutability": "view",
      "type": "function"
    },
    {
      "inputs": [],
      "name": "weth",
      "outputs": [
        {
          "internalType": "contract IERC20",
          "name": "",
          "type": "address"
        }
      ],
      "stateMutability": "view",
      "type": "function"
    },
    {
      "inputs": [
        {
          "internalType": "address",
          "name": "token",
          "type": "address"
        },
        {
          "internalType": "uint256",
          "name": "amount",
          "type": "uint256"
        }
      ],
      "name": "withdrawToken",
      "outputs": [],
      "stateMutability": "nonpayable",
      "type": "function"
    }
  ],
  "bytecode": "0x60e06040523480156200001157600080fd5b50604051620039b0380380620039b0833981810160405281019062000037919062000145565b8173ffffffffffffffffffffffffffffffffffffffff1660a08173ffffffffffffffffffffffffffffffffffffffff16815250508073ffffffffffffffffffffffffffffffffffffffff1660c08173ffffffffffffffffffffffffffffffffffffffff16815250503373ffffffffffffffffffffffffffffffffffffffff1660808173ffffffffffffffffffffffffffffffffffffffff168152505050506200018c565b600080fd5b600073ffffffffffffffffffffffffffffffffffffffff82169050919050565b60006200010d82620000e0565b9050919050565b6200011f8162000100565b81146200012b57600080fd5b50565b6000815190506200013f8162000114565b92915050565b600080604083850312156200015f576200015e620000db565b5b60006200016f858286016200012e565b925050602062000182858286016200012e565b9150509250929050565b60805160a05160c05161377d620002336000396000818161099f015281816114b80152611c9b0152600081816108fd015281816112d2015281816118da01528181611e87015281816124d30152818161263101526126d101526000818161074801528181610d6b01528181610fad01528181611575015281816117250152818161197c01528181611fb3015281816122180152818161233e015261252e015261377d6000f3fe608060405234801561001057600080fd5b506004361061014d5760003560e01c8063743aa1d0116100c3578063a7f070111161007c578063a7f0701114610306578063da3e339714610324578063e47aaf6d14610340578063f15846731461035e578063f556d1d41461038e578063f83d08ba146103ac5761014d565b8063743aa1d014610258578063786fb10c146102625780639e281a9814610292578063a119b86e146102ae578063a4e2d634146102de578063a69df4b5146102fc5761014d565b8063338b5dea11610115578063338b5dea146101d05780633e413bee146101ec5780633ee0b6241461020a5780633fc8cef3146102145780635767c659146102325780637201c6be1461024e5761014d565b806305ddad1f146101525780630ebaf4581461016e57806310f91b0b14610178578063272a6dd9146101965780632f48ab7d146101b2575b600080fd5b61016c60048036038101906101679190612a0f565b6103b6565b005b610176610746565b005b61018061099d565b60405161018d9190612aca565b60405180910390f35b6101b060048036038101906101ab9190612a0f565b6109c1565b005b6101ba610d51565b6040516101c79190612b06565b60405180910390f35b6101ea60048036038101906101e59190612b21565b610d69565b005b6101f4610f93565b6040516102019190612b06565b60405180910390f35b610212610fab565b005b61021c61155b565b6040516102299190612b06565b60405180910390f35b61024c60048036038101906102479190612b61565b611573565b005b610256611723565b005b61026061197a565b005b61027c60048036038101906102779190612b8e565b611f2a565b6040516102899190612bdd565b60405180910390f35b6102ac60048036038101906102a79190612b21565b611fb1565b005b6102c860048036038101906102c39190612b61565b612180565b6040516102d59190612bdd565b60405180910390f35b6102e6612203565b6040516102f39190612c13565b60405180910390f35b610304612216565b005b61030e612318565b60405161031b9190612c3d565b60405180910390f35b61033e60048036038101906103399190612c58565b61233c565b005b6103486124d1565b6040516103559190612ccc565b60405180910390f35b61037860048036038101906103739190612d22565b6124f5565b6040516103859190612df4565b60405180910390f35b610396612524565b6040516103a39190612bdd565b60405180910390f35b6103b461252c565b005b60008054906101000a900473ffffffffffffffffffffffffffffffffffffffff1673ffffffffffffffffffffffffffffffffffffffff163373ffffffffffffffffffffffffffffffffffffffff161461044657336040517f4104d7d700000000000000000000000000000000000000000000000000000000815260040161043d9190612c3d565b60405180910390fd5b600073fd086bc7cd5c481dcc9c85ebe478a1c0b69fcbb973ffffffffffffffffffffffffffffffffffffffff166370a08231306040518263ffffffff1660e01b81526004016104959190612c3d565b602060405180830381865afa1580156104b2573d6000803e3d6000fd5b505050506040513d601f19601f820116820180604052508101906104d69190612e2b565b90506104e18361262f565b60006064905060006040518060a001604052807382af49447d8a07e3bd95bd0d56f35241523fbab18473fd086bc7cd5c481dcc9c85ebe478a1c0b69fcbb960405160200161053193929190612ed6565b60405160208183030381529060405281526020013073ffffffffffffffffffffffffffffffffffffffff1681526020014281526020017382af49447d8a07e3bd95bd0d56f35241523fbab173ffffffffffffffffffffffffffffffffffffffff166370a08231306040518263ffffffff1660e01b81526004016105b49190612c3d565b602060405180830381865afa1580156105d1573d6000803e3d6000fd5b505050506040513d601f19601f820116820180604052508101906105f59190612e2b565b81526020016000815250905061060a816126cf565b600073fd086bc7cd5c481dcc9c85ebe478a1c0b69fcbb973ffffffffffffffffffffffffffffffffffffffff166370a08231306040518263ffffffff1660e01b81526004016106599190612c3d565b602060405180830381865afa158015610676573d6000803e3d6000fd5b505050506040513d601f19601f8201168201806040525081019061069a9190612e2b565b90508484826106a99190612f42565b11156106f6577f357d905f1831209797df4d55d79c5c5bf1d9f7311c976afd05e13d881eab9bc884826106dc9190612f42565b6040516106e99190612bdd565b60405180910390a161073e565b83816107029190612f42565b6040517fd4989a940000000000000000000000000000000000000000000000000000000081526004016107359190612bdd565b60405180910390fd5b505050505050565b7f000000000000000000000000000000000000000000000000000000000000000073ffffffffffffffffffffffffffffffffffffffff163373ffffffffffffffffffffffffffffffffffffffff16146107d657336040517ff9ebb4c70000000000000000000000000000000000000000000000000000000081526004016107cd9190612c3d565b60405180910390fd5b600060649050600073af88d065e77c8cc2239327c5edb3a432268e583173ffffffffffffffffffffffffffffffffffffffff166370a08231306040518263ffffffff1660e01b815260040161082b9190612c3d565b602060405180830381865afa158015610848573d6000803e3d6000fd5b505050506040513d601f19601f8201168201806040525081019061086c9190612e2b565b905060006040518060a0016040528073af88d065e77c8cc2239327c5edb3a432268e58318573fd086bc7cd5c481dcc9c85ebe478a1c0b69fcbb96040516020016108b893929190612ed6565b60405160208183030381529060405281526020013073ffffffffffffffffffffffffffffffffffffffff168152602001428152602001838152602001600081525090507f000000000000000000000000000000000000000000000000000000000000000073ffffffffffffffffffffffffffffffffffffffff1663c04b8d59826040518263ffffffff1660e01b81526004016109549190613054565b6020604051808303816000875af1158015610973573d6000803e3d6000fd5b505050506040513d601f19601f820116820180604052508101906109979190612e2b565b50505050565b7f000000000000000000000000000000000000000000000000000000000000000081565b60008054906101000a900473ffffffffffffffffffffffffffffffffffffffff1673ffffffffffffffffffffffffffffffffffffffff163373ffffffffffffffffffffffffffffffffffffffff1614610a5157336040517f4104d7d7000000000000000000000000000000000000000000000000000000008152600401610a489190612c3d565b60405180910390fd5b600073af88d065e77c8cc2239327c5edb3a432268e583173ffffffffffffffffffffffffffffffffffffffff166370a08231306040518263ffffffff1660e01b8152600401610aa09190612c3d565b602060405180830381865afa158015610abd573d6000803e3d6000fd5b505050506040513d601f19601f82011682018060405250810190610ae19190612e2b565b9050610aec8361262f565b60006064905060006040518060a001604052807382af49447d8a07e3bd95bd0d56f35241523fbab18473af88d065e77c8cc2239327c5edb3a432268e5831604051602001610b3c93929190612ed6565b60405160208183030381529060405281526020013073ffffffffffffffffffffffffffffffffffffffff1681526020014281526020017382af49447d8a07e3bd95bd0d56f35241523fbab173ffffffffffffffffffffffffffffffffffffffff166370a08231306040518263ffffffff1660e01b8152600401610bbf9190612c3d565b602060405180830381865afa158015610bdc573d6000803e3d6000fd5b505050506040513d601f19601f82011682018060405250810190610c009190612e2b565b815260200160008152509050610c15816126cf565b600073af88d065e77c8cc2239327c5edb3a432268e583173ffffffffffffffffffffffffffffffffffffffff166370a08231306040518263ffffffff1660e01b8152600401610c649190612c3d565b602060405180830381865afa158015610c81573d6000803e3d6000fd5b505050506040513d601f19601f82011682018060405250810190610ca59190612e2b565b9050848482610cb49190612f42565b1115610d01577f357d905f1831209797df4d55d79c5c5bf1d9f7311c976afd05e13d881eab9bc88482610ce79190612f42565b604051610cf49190612bdd565b60405180910390a1610d49565b8381610d0d9190612f42565b6040517fd4989a94000000000000000000000000000000000000000000000000000000008152600401610d409190612bdd565b60405180910390fd5b505050505050565b73fd086bc7cd5c481dcc9c85ebe478a1c0b69fcbb981565b7f000000000000000000000000000000000000000000000000000000000000000073ffffffffffffffffffffffffffffffffffffffff163373ffffffffffffffffffffffffffffffffffffffff1614610df957336040517ff9ebb4c7000000000000000000000000000000000000000000000000000000008152600401610df09190612c3d565b60405180910390fd5b73fd086bc7cd5c481dcc9c85ebe478a1c0b69fcbb973ffffffffffffffffffffffffffffffffffffffff168273ffffffffffffffffffffffffffffffffffffffff1614158015610e89575073af88d065e77c8cc2239327c5edb3a432268e583173ffffffffffffffffffffffffffffffffffffffff168273ffffffffffffffffffffffffffffffffffffffff1614155b15610ecb57816040517ff01157c3000000000000000000000000000000000000000000000000000000008152600401610ec29190612c3d565b60405180910390fd5b60008111610f0e576040517f08c379a0000000000000000000000000000000000000000000000000000000008152600401610f05906130d3565b60405180910390fd5b8173ffffffffffffffffffffffffffffffffffffffff166323b872dd3330846040518463ffffffff1660e01b8152600401610f4b939291906130f3565b6020604051808303816000875af1158015610f6a573d6000803e3d6000fd5b505050506040513d601f19601f82011682018060405250810190610f8e9190613156565b505050565b73af88d065e77c8cc2239327c5edb3a432268e583181565b7f000000000000000000000000000000000000000000000000000000000000000073ffffffffffffffffffffffffffffffffffffffff163373ffffffffffffffffffffffffffffffffffffffff161461103b57336040517ff9ebb4c70000000000000000000000000000000000000000000000000000000081526004016110329190612c3d565b60405180910390fd5b600073be3ad6a5669dc0b8b12febc03608860c31e2eef673ffffffffffffffffffffffffffffffffffffffff16633850c7bd6040518163ffffffff1660e01b815260040160e060405180830381865afa15801561109c573d6000803e3d6000fd5b505050506040513d601f19601f820116820180604052508101906110c0919061325b565b50505050505090506000737e928afb59f5de9d2f4d162f754c6eb40c88aa8e73ffffffffffffffffffffffffffffffffffffffff16633850c7bd6040518163ffffffff1660e01b815260040160e060405180830381865afa158015611129573d6000803e3d6000fd5b505050506040513d601f19601f8201168201806040525081019061114d9190613339565b50505050505090508073ffffffffffffffffffffffffffffffffffffffff168273ffffffffffffffffffffffffffffffffffffffff16111561137557600060649050600073fd086bc7cd5c481dcc9c85ebe478a1c0b69fcbb973ffffffffffffffffffffffffffffffffffffffff166370a08231306040518263ffffffff1660e01b81526004016111de9190612c3d565b602060405180830381865afa1580156111fb573d6000803e3d6000fd5b505050506040513d601f19601f8201168201806040525081019061121f9190612e2b565b905060006040518060a0016040528073fd086bc7cd5c481dcc9c85ebe478a1c0b69fcbb98573af88d065e77c8cc2239327c5edb3a432268e583160405160200161126b93929190612ed6565b60405160208183030381529060405281526020013073ffffffffffffffffffffffffffffffffffffffff16815260200142815260200183815260200160646001856112b691906133db565b6112c0919061344c565b846112cb9190612f42565b81525090507f000000000000000000000000000000000000000000000000000000000000000073ffffffffffffffffffffffffffffffffffffffff1663c04b8d59826040518263ffffffff1660e01b81526004016113299190613054565b6020604051808303816000875af1158015611348573d6000803e3d6000fd5b505050506040513d601f19601f8201168201806040525081019061136c9190612e2b565b50505050611557565b600060649050600073fd086bc7cd5c481dcc9c85ebe478a1c0b69fcbb973ffffffffffffffffffffffffffffffffffffffff166370a08231306040518263ffffffff1660e01b81526004016113ca9190612c3d565b602060405180830381865afa1580156113e7573d6000803e3d6000fd5b505050506040513d601f19601f8201168201806040525081019061140b9190612e2b565b90506000604051806080016040528073fd086bc7cd5c481dcc9c85ebe478a1c0b69fcbb98573af88d065e77c8cc2239327c5edb3a432268e583160405160200161145793929190612ed6565b60405160208183030381529060405281526020013073ffffffffffffffffffffffffffffffffffffffff168152602001838152602001606460018561149c91906133db565b6114a6919061344c565b846114b19190612f42565b81525090507f000000000000000000000000000000000000000000000000000000000000000073ffffffffffffffffffffffffffffffffffffffff1663b858183f826040518263ffffffff1660e01b815260040161150f91906134e0565b6020604051808303816000875af115801561152e573d6000803e3d6000fd5b505050506040513d601f19601f820116820180604052508101906115529190612e2b565b505050505b5050565b7382af49447d8a07e3bd95bd0d56f35241523fbab181565b7f000000000000000000000000000000000000000000000000000000000000000073ffffffffffffffffffffffffffffffffffffffff163373ffffffffffffffffffffffffffffffffffffffff161461160357336040517ff9ebb4c70000000000000000000000000000000000000000000000000000000081526004016115fa9190612c3d565b60405180910390fd5b600073ffffffffffffffffffffffffffffffffffffffff168173ffffffffffffffffffffffffffffffffffffffff1603611672576040517f08c379a00000000000000000000000000000000000000000000000000000000081526004016116699061354e565b60405180910390fd5b3073ffffffffffffffffffffffffffffffffffffffff168173ffffffffffffffffffffffffffffffffffffffff16036116e0576040517f08c379a00000000000000000000000000000000000000000000000000000000081526004016116d7906135ba565b60405180910390fd5b806000806101000a81548173ffffffffffffffffffffffffffffffffffffffff021916908373ffffffffffffffffffffffffffffffffffffffff16021790555050565b7f000000000000000000000000000000000000000000000000000000000000000073ffffffffffffffffffffffffffffffffffffffff163373ffffffffffffffffffffffffffffffffffffffff16146117b357336040517ff9ebb4c70000000000000000000000000000000000000000000000000000000081526004016117aa9190612c3d565b60405180910390fd5b600060649050600073fd086bc7cd5c481dcc9c85ebe478a1c0b69fcbb973ffffffffffffffffffffffffffffffffffffffff166370a08231306040518263ffffffff1660e01b81526004016118089190612c3d565b602060405180830381865afa158015611825573d6000803e3d6000fd5b505050506040513d601f19601f820116820180604052508101906118499190612e2b565b905060006040518060a0016040528073fd086bc7cd5c481dcc9c85ebe478a1c0b69fcbb98573af88d065e77c8cc2239327c5edb3a432268e583160405160200161189593929190612ed6565b60405160208183030381529060405281526020013073ffffffffffffffffffffffffffffffffffffffff168152602001428152602001838152602001600081525090507f000000000000000000000000000000000000000000000000000000000000000073ffffffffffffffffffffffffffffffffffffffff1663c04b8d59826040518263ffffffff1660e01b81526004016119319190613054565b6020604051808303816000875af1158015611950573d6000803e3d6000fd5b505050506040513d601f19601f820116820180604052508101906119749190612e2b565b50505050565b7f000000000000000000000000000000000000000000000000000000000000000073ffffffffffffffffffffffffffffffffffffffff163373ffffffffffffffffffffffffffffffffffffffff1614611a0a57336040517ff9ebb4c7000000000000000000000000000000000000000000000000000000008152600401611a019190612c3d565b60405180910390fd5b600073be3ad6a5669dc0b8b12febc03608860c31e2eef673ffffffffffffffffffffffffffffffffffffffff16633850c7bd6040518163ffffffff1660e01b815260040160e060405180830381865afa158015611a6b573d6000803e3d6000fd5b505050506040513d601f19601f82011682018060405250810190611a8f919061325b565b50505050505090506000737e928afb59f5de9d2f4d162f754c6eb40c88aa8e73ffffffffffffffffffffffffffffffffffffffff16633850c7bd6040518163ffffffff1660e01b815260040160e060405180830381865afa158015611af8573d6000803e3d6000fd5b505050506040513d601f19601f82011682018060405250810190611b1c9190613339565b50505050505090508073ffffffffffffffffffffffffffffffffffffffff168273ffffffffffffffffffffffffffffffffffffffff161115611d3e57600060649050600073af88d065e77c8cc2239327c5edb3a432268e583173ffffffffffffffffffffffffffffffffffffffff166370a08231306040518263ffffffff1660e01b8152600401611bad9190612c3d565b602060405180830381865afa158015611bca573d6000803e3d6000fd5b505050506040513d601f19601f82011682018060405250810190611bee9190612e2b565b90506000604051806080016040528073af88d065e77c8cc2239327c5edb3a432268e58318573fd086bc7cd5c481dcc9c85ebe478a1c0b69fcbb9604051602001611c3a93929190612ed6565b60405160208183030381529060405281526020013073ffffffffffffffffffffffffffffffffffffffff1681526020018381526020016064600185611c7f91906133db565b611c89919061344c565b84611c949190612f42565b81525090507f000000000000000000000000000000000000000000000000000000000000000073ffffffffffffffffffffffffffffffffffffffff1663b858183f826040518263ffffffff1660e01b8152600401611cf291906134e0565b6020604051808303816000875af1158015611d11573d6000803e3d6000fd5b505050506040513d601f19601f82011682018060405250810190611d359190612e2b565b50505050611f26565b600060649050600073af88d065e77c8cc2239327c5edb3a432268e583173ffffffffffffffffffffffffffffffffffffffff166370a08231306040518263ffffffff1660e01b8152600401611d939190612c3d565b602060405180830381865afa158015611db0573d6000803e3d6000fd5b505050506040513d601f19601f82011682018060405250810190611dd49190612e2b565b905060006040518060a0016040528073af88d065e77c8cc2239327c5edb3a432268e58318573fd086bc7cd5c481dcc9c85ebe478a1c0b69fcbb9604051602001611e2093929190612ed6565b60405160208183030381529060405281526020013073ffffffffffffffffffffffffffffffffffffffff1681526020014281526020018381526020016064600185611e6b91906133db565b611e75919061344c565b84611e809190612f42565b81525090507f000000000000000000000000000000000000000000000000000000000000000073ffffffffffffffffffffffffffffffffffffffff1663c04b8d59826040518263ffffffff1660e01b8152600401611ede9190613054565b6020604051808303816000875af1158015611efd573d6000803e3d6000fd5b505050506040513d601f19601f82011682018060405250810190611f219190612e2b565b505050505b5050565b6000600160008473ffffffffffffffffffffffffffffffffffffffff1673ffffffffffffffffffffffffffffffffffffffff16815260200190815260200160002060008373ffffffffffffffffffffffffffffffffffffffff1673ffffffffffffffffffffffffffffffffffffffff16815260200190815260200160002054905092915050565b7f000000000000000000000000000000000000000000000000000000000000000073ffffffffffffffffffffffffffffffffffffffff163373ffffffffffffffffffffffffffffffffffffffff161461204157336040517ff9ebb4c70000000000000000000000000000000000000000000000000000000081526004016120389190612c3d565b60405180910390fd5b8173ffffffffffffffffffffffffffffffffffffffff166370a08231306040518263ffffffff1660e01b815260040161207a9190612c3d565b602060405180830381865afa158015612097573d6000803e3d6000fd5b505050506040513d601f19601f820116820180604052508101906120bb9190612e2b565b8111156120fd576040517f08c379a00000000000000000000000000000000000000000000000000000000081526004016120f490613626565b60405180910390fd5b8173ffffffffffffffffffffffffffffffffffffffff1663a9059cbb33836040518363ffffffff1660e01b8152600401612138929190613646565b6020604051808303816000875af1158015612157573d6000803e3d6000fd5b505050506040513d601f19601f8201168201806040525081019061217b9190613156565b505050565b60008173ffffffffffffffffffffffffffffffffffffffff166370a08231306040518263ffffffff1660e01b81526004016121bb9190612c3d565b602060405180830381865afa1580156121d8573d6000803e3d6000fd5b505050506040513d601f19601f820116820180604052508101906121fc9190612e2b565b9050919050565b600060149054906101000a900460ff1681565b7f000000000000000000000000000000000000000000000000000000000000000073ffffffffffffffffffffffffffffffffffffffff163373ffffffffffffffffffffffffffffffffffffffff16146122a657336040517ff9ebb4c700000000000000000000000000000000000000000000000000000000815260040161229d9190612c3d565b60405180910390fd5b60011515600060149054906101000a900460ff161515146122fc576040517f08c379a00000000000000000000000000000000000000000000000000000000081526004016122f3906136bb565b60405180910390fd5b60008060146101000a81548160ff021916908315150217905550565b60008054906101000a900473ffffffffffffffffffffffffffffffffffffffff1681565b7f000000000000000000000000000000000000000000000000000000000000000073ffffffffffffffffffffffffffffffffffffffff163373ffffffffffffffffffffffffffffffffffffffff16146123cc57336040517ff9ebb4c70000000000000000000000000000000000000000000000000000000081526004016123c39190612c3d565b60405180910390fd5b80600160008573ffffffffffffffffffffffffffffffffffffffff1673ffffffffffffffffffffffffffffffffffffffff16815260200190815260200160002060008473ffffffffffffffffffffffffffffffffffffffff1673ffffffffffffffffffffffffffffffffffffffff168152602001908152602001600020819055508273ffffffffffffffffffffffffffffffffffffffff1663095ea7b383836040518363ffffffff1660e01b8152600401612488929190613646565b6020604051808303816000875af11580156124a7573d6000803e3d6000fd5b505050506040513d601f19601f820116820180604052508101906124cb9190613156565b50505050565b7f000000000000000000000000000000000000000000000000000000000000000081565b606083838360405160200161250c93929190612ed6565b60405160208183030381529060405290509392505050565b600042905090565b7f000000000000000000000000000000000000000000000000000000000000000073ffffffffffffffffffffffffffffffffffffffff163373ffffffffffffffffffffffffffffffffffffffff16146125bc57336040517ff9ebb4c70000000000000000000000000000000000000000000000000000000081526004016125b39190612c3d565b60405180910390fd5b60001515600060149054906101000a900460ff16151514612612576040517f08c379a000000000000000000000000000000000000000000000000000000000815260040161260990613727565b60405180910390fd5b6001600060146101000a81548160ff021916908315150217905550565b7f000000000000000000000000000000000000000000000000000000000000000073ffffffffffffffffffffffffffffffffffffffff1663c04b8d59826040518263ffffffff1660e01b81526004016126889190613054565b6020604051808303816000875af11580156126a7573d6000803e3d6000fd5b505050506040513d601f19601f820116820180604052508101906126cb9190612e2b565b5050565b7f000000000000000000000000000000000000000000000000000000000000000073ffffffffffffffffffffffffffffffffffffffff1663c04b8d59826040518263ffffffff1660e01b81526004016127289190613054565b6020604051808303816000875af1158015612747573d6000803e3d6000fd5b505050506040513d601f19601f8201168201806040525081019061276b9190612e2b565b5050565b6000604051905090565b600080fd5b600080fd5b600080fd5b6000601f19601f8301169050919050565b7f4e487b7100000000000000000000000000000000000000000000000000000000600052604160045260246000fd5b6127d182612788565b810181811067ffffffffffffffff821117156127f0576127ef612799565b5b80604052505050565b600061280361276f565b905061280f82826127c8565b919050565b600080fd5b600080fd5b600080fd5b600067ffffffffffffffff82111561283e5761283d612799565b5b61284782612788565b9050602081019050919050565b82818337600083830152505050565b600061287661287184612823565b6127f9565b9050828152602081018484840111156128925761289161281e565b5b61289d848285612854565b509392505050565b600082601f8301126128ba576128b9612819565b5b81356128ca848260208601612863565b91505092915050565b600073ffffffffffffffffffffffffffffffffffffffff82169050919050565b60006128fe826128d3565b9050919050565b61290e816128f3565b811461291957600080fd5b50565b60008135905061292b81612905565b92915050565b6000819050919050565b61294481612931565b811461294f57600080fd5b50565b6000813590506129618161293b565b92915050565b600060a0828403121561297d5761297c612783565b5b61298760a06127f9565b9050600082013567ffffffffffffffff8111156129a7576129a6612814565b5b6129b3848285016128a5565b60008301525060206129c78482850161291c565b60208301525060406129db84828501612952565b60408301525060606129ef84828501612952565b6060830152506080612a0384828501612952565b60808301525092915050565b60008060408385031215612a2657612a25612779565b5b600083013567ffffffffffffffff811115612a4457612a4361277e565b5b612a5085828601612967565b9250506020612a6185828601612952565b9150509250929050565b6000819050919050565b6000612a90612a8b612a86846128d3565b612a6b565b6128d3565b9050919050565b6000612aa282612a75565b9050919050565b6000612ab482612a97565b9050919050565b612ac481612aa9565b82525050565b6000602082019050612adf6000830184612abb565b92915050565b6000612af082612a97565b9050919050565b612b0081612ae5565b82525050565b6000602082019050612b1b6000830184612af7565b92915050565b60008060408385031215612b3857612b37612779565b5b6000612b468582860161291c565b9250506020612b5785828601612952565b9150509250929050565b600060208284031215612b7757612b76612779565b5b6000612b858482850161291c565b91505092915050565b60008060408385031215612ba557612ba4612779565b5b6000612bb38582860161291c565b9250506020612bc48582860161291c565b9150509250929050565b612bd781612931565b82525050565b6000602082019050612bf26000830184612bce565b92915050565b60008115159050919050565b612c0d81612bf8565b82525050565b6000602082019050612c286000830184612c04565b92915050565b612c37816128f3565b82525050565b6000602082019050612c526000830184612c2e565b92915050565b600080600060608486031215612c7157612c70612779565b5b6000612c7f8682870161291c565b9350506020612c908682870161291c565b9250506040612ca186828701612952565b9150509250925092565b6000612cb682612a97565b9050919050565b612cc681612cab565b82525050565b6000602082019050612ce16000830184612cbd565b92915050565b600062ffffff82169050919050565b612cff81612ce7565b8114612d0a57600080fd5b50565b600081359050612d1c81612cf6565b92915050565b600080600060608486031215612d3b57612d3a612779565b5b6000612d498682870161291c565b9350506020612d5a86828701612d0d565b9250506040612d6b8682870161291c565b9150509250925092565b600081519050919050565b600082825260208201905092915050565b60005b83811015612daf578082015181840152602081019050612d94565b60008484015250505050565b6000612dc682612d75565b612dd08185612d80565b9350612de0818560208601612d91565b612de981612788565b840191505092915050565b60006020820190508181036000830152612e0e8184612dbb565b905092915050565b600081519050612e258161293b565b92915050565b600060208284031215612e4157612e40612779565b5b6000612e4f84828501612e16565b91505092915050565b60008160601b9050919050565b6000612e7082612e58565b9050919050565b6000612e8282612e65565b9050919050565b612e9a612e95826128f3565b612e77565b82525050565b60008160e81b9050919050565b6000612eb882612ea0565b9050919050565b612ed0612ecb82612ce7565b612ead565b82525050565b6000612ee28286612e89565b601482019150612ef28285612ebf565b600382019150612f028284612e89565b601482019150819050949350505050565b7f4e487b7100000000000000000000000000000000000000000000000000000000600052601160045260246000fd5b6000612f4d82612931565b9150612f5883612931565b9250828203905081811115612f7057612f6f612f13565b5b92915050565b600082825260208201905092915050565b6000612f9282612d75565b612f9c8185612f76565b9350612fac818560208601612d91565b612fb581612788565b840191505092915050565b612fc9816128f3565b82525050565b612fd881612931565b82525050565b600060a0830160008301518482036000860152612ffb8282612f87565b91505060208301516130106020860182612fc0565b5060408301516130236040860182612fcf565b5060608301516130366060860182612fcf565b5060808301516130496080860182612fcf565b508091505092915050565b6000602082019050818103600083015261306e8184612fde565b905092915050565b600082825260208201905092915050565b7f416d6f756e742063616e27742062652030000000000000000000000000000000600082015250565b60006130bd601183613076565b91506130c882613087565b602082019050919050565b600060208201905081810360008301526130ec816130b0565b9050919050565b60006060820190506131086000830186612c2e565b6131156020830185612c2e565b6131226040830184612bce565b949350505050565b61313381612bf8565b811461313e57600080fd5b50565b6000815190506131508161312a565b92915050565b60006020828403121561316c5761316b612779565b5b600061317a84828501613141565b91505092915050565b61318c816128d3565b811461319757600080fd5b50565b6000815190506131a981613183565b92915050565b60008160020b9050919050565b6131c5816131af565b81146131d057600080fd5b50565b6000815190506131e2816131bc565b92915050565b600061ffff82169050919050565b6131ff816131e8565b811461320a57600080fd5b50565b60008151905061321c816131f6565b92915050565b600060ff82169050919050565b61323881613222565b811461324357600080fd5b50565b6000815190506132558161322f565b92915050565b600080600080600080600060e0888a03121561327a57613279612779565b5b60006132888a828b0161319a565b97505060206132998a828b016131d3565b96505060406132aa8a828b0161320d565b95505060606132bb8a828b0161320d565b94505060806132cc8a828b0161320d565b93505060a06132dd8a828b01613246565b92505060c06132ee8a828b01613141565b91505092959891949750929550565b600063ffffffff82169050919050565b613316816132fd565b811461332157600080fd5b50565b6000815190506133338161330d565b92915050565b600080600080600080600060e0888a03121561335857613357612779565b5b60006133668a828b0161319a565b97505060206133778a828b016131d3565b96505060406133888a828b0161320d565b95505060606133998a828b0161320d565b94505060806133aa8a828b0161320d565b93505060a06133bb8a828b01613324565b92505060c06133cc8a828b01613141565b91505092959891949750929550565b60006133e682612931565b91506133f183612931565b92508282026133ff81612931565b9150828204841483151761341657613415612f13565b5b5092915050565b7f4e487b7100000000000000000000000000000000000000000000000000000000600052601260045260246000fd5b600061345782612931565b915061346283612931565b9250826134725761347161341d565b5b828204905092915050565b6000608083016000830151848203600086015261349a8282612f87565b91505060208301516134af6020860182612fc0565b5060408301516134c26040860182612fcf565b5060608301516134d56060860182612fcf565b508091505092915050565b600060208201905081810360008301526134fa818461347d565b905092915050565b7f43616e2774206265206120302061646472657373000000000000000000000000600082015250565b6000613538601483613076565b915061354382613502565b602082019050919050565b600060208201905081810360008301526135678161352b565b9050919050565b7f43616e2774206265207468697320616464726573730000000000000000000000600082015250565b60006135a4601583613076565b91506135af8261356e565b602082019050919050565b600060208201905081810360008301526135d381613597565b9050919050565b7f416d6f756e7420697320686967686572207468616e2062616c616e6365000000600082015250565b6000613610601d83613076565b915061361b826135da565b602082019050919050565b6000602082019050818103600083015261363f81613603565b9050919050565b600060408201905061365b6000830185612c2e565b6136686020830184612bce565b9392505050565b7f4e6f74206c6f636b656400000000000000000000000000000000000000000000600082015250565b60006136a5600a83613076565b91506136b08261366f565b602082019050919050565b600060208201905081810360008301526136d481613698565b9050919050565b7f416c7265616479206c6f636b6564000000000000000000000000000000000000600082015250565b6000613711600e83613076565b915061371c826136db565b602082019050919050565b6000602082019050818103600083015261374081613704565b905091905056fea264697066735822122006bcdd6170a7d58ee6d88d69dd6e708d301b2074e744778c30c032b19dc6817864736f6c63430008140033",
  "linkReferences": {},
  "deployedLinkReferences": {}
}