{
  "_format": "hh-sol-artifact-1",
  "contractName": "OptimusPrime",
  "sourceName": "contracts/OptimusPrime.sol",
  "abi": [
    {
      "inputs": [
        {
          "internalType": "address",
          "name": "_uniswapRouter",
          "type": "address"
        },
        {
          "internalType": "address",
          "name": "_pancakeswapRouter",
          "type": "address"
        }
      ],
      "stateMutability": "nonpayable",
      "type": "constructor"
    },
    {
      "inputs": [
        {
          "internalType": "uint256",
          "name": "finalBalance",
          "type": "uint256"
        }
      ],
      "name": "NoProfit",
      "type": "error"
    },
    {
      "inputs": [
        {
          "internalType": "address",
          "name": "sender",
          "type": "address"
        }
      ],
      "name": "NotTheOwner",
      "type": "error"
    },
    {
      "inputs": [
        {
          "internalType": "address",
          "name": "sender",
          "type": "address"
        }
      ],
      "name": "NotTheTradeExecutor",
      "type": "error"
    },
    {
      "anonymous": false,
      "inputs": [
        {
          "indexed": false,
          "internalType": "uint256",
          "name": "_finalBalance",
          "type": "uint256"
        }
      ],
      "name": "Profit",
      "type": "event"
    },
    {
      "inputs": [
        {
          "internalType": "address",
          "name": "tokenToApprove",
          "type": "address"
        },
        {
          "internalType": "address",
          "name": "spender",
          "type": "address"
        },
        {
          "internalType": "uint256",
          "name": "amount",
          "type": "uint256"
        }
      ],
      "name": "approveToken",
      "outputs": [],
      "stateMutability": "nonpayable",
      "type": "function"
    },
    {
      "inputs": [
        {
          "components": [
            {
              "internalType": "bytes",
              "name": "path",
              "type": "bytes"
            },
            {
              "internalType": "address",
              "name": "recipient",
              "type": "address"
            },
            {
              "internalType": "uint256",
              "name": "amountIn",
              "type": "uint256"
            },
            {
              "internalType": "uint256",
              "name": "amountOutMinimum",
              "type": "uint256"
            }
          ],
          "internalType": "struct IV3PancakeSwapRouter.ExactInputParams",
          "name": "pancakeParams",
          "type": "tuple"
        },
        {
          "internalType": "address",
          "name": "tokenToBuy",
          "type": "address"
        },
        {
          "internalType": "uint24",
          "name": "uniswapPoolFee",
          "type": "uint24"
        },
        {
          "internalType": "uint256",
          "name": "estimatedGas",
          "type": "uint256"
        }
      ],
      "name": "buyWithUSDTFromPancakeV3AndSellToUniswapV3",
      "outputs": [],
      "stateMutability": "nonpayable",
      "type": "function"
    },
    {
      "inputs": [
        {
          "components": [
            {
              "internalType": "bytes",
              "name": "path",
              "type": "bytes"
            },
            {
              "internalType": "address",
              "name": "recipient",
              "type": "address"
            },
            {
              "internalType": "uint256",
              "name": "amountIn",
              "type": "uint256"
            },
            {
              "internalType": "uint256",
              "name": "amountOutMinimum",
              "type": "uint256"
            }
          ],
          "internalType": "struct IV3UniswapSwapRouter.ExactInputParams",
          "name": "uniswapParams",
          "type": "tuple"
        },
        {
          "internalType": "address",
          "name": "tokenToBuy",
          "type": "address"
        },
        {
          "internalType": "uint24",
          "name": "pancakePoolFee",
          "type": "uint24"
        },
        {
          "internalType": "uint256",
          "name": "estimatedGas",
          "type": "uint256"
        }
      ],
      "name": "buyWithUSDTFromUniswapV3AndSellToPancakeV3",
      "outputs": [],
      "stateMutability": "nonpayable",
      "type": "function"
    },
    {
      "inputs": [
        {
          "internalType": "uint256",
          "name": "amount",
          "type": "uint256"
        }
      ],
      "name": "depositUSDT",
      "outputs": [],
      "stateMutability": "nonpayable",
      "type": "function"
    },
    {
      "inputs": [],
      "name": "pancakeRouter",
      "outputs": [
        {
          "internalType": "contract IV3PancakeSwapRouter",
          "name": "",
          "type": "address"
        }
      ],
      "stateMutability": "view",
      "type": "function"
    },
    {
      "inputs": [],
      "name": "returnETHPrice",
      "outputs": [
        {
          "internalType": "int256",
          "name": "",
          "type": "int256"
        }
      ],
      "stateMutability": "view",
      "type": "function"
    },
    {
      "inputs": [],
      "name": "returnOwner",
      "outputs": [
        {
          "internalType": "address",
          "name": "",
          "type": "address"
        }
      ],
      "stateMutability": "view",
      "type": "function"
    },
    {
      "inputs": [
        {
          "internalType": "address",
          "name": "tokenA",
          "type": "address"
        },
        {
          "internalType": "uint24",
          "name": "poolFee",
          "type": "uint24"
        },
        {
          "internalType": "address",
          "name": "tokenB",
          "type": "address"
        }
      ],
      "name": "returnPathData",
      "outputs": [
        {
          "internalType": "bytes",
          "name": "",
          "type": "bytes"
        }
      ],
      "stateMutability": "pure",
      "type": "function"
    },
    {
      "inputs": [
        {
          "internalType": "address",
          "name": "token",
          "type": "address"
        },
        {
          "internalType": "address",
          "name": "spender",
          "type": "address"
        }
      ],
      "name": "returnTokenApproved",
      "outputs": [
        {
          "internalType": "uint256",
          "name": "",
          "type": "uint256"
        }
      ],
      "stateMutability": "view",
      "type": "function"
    },
    {
      "inputs": [],
      "name": "returnUSDTbalance",
      "outputs": [
        {
          "internalType": "uint256",
          "name": "",
          "type": "uint256"
        }
      ],
      "stateMutability": "view",
      "type": "function"
    },
    {
      "inputs": [
        {
          "internalType": "address",
          "name": "_tradeExecutor",
          "type": "address"
        }
      ],
      "name": "setTradeExecutor",
      "outputs": [],
      "stateMutability": "nonpayable",
      "type": "function"
    },
    {
      "inputs": [],
      "name": "tradeExecutor",
      "outputs": [
        {
          "internalType": "address",
          "name": "",
          "type": "address"
        }
      ],
      "stateMutability": "view",
      "type": "function"
    },
    {
      "inputs": [],
      "name": "uniswapRouter",
      "outputs": [
        {
          "internalType": "contract IV3UniswapSwapRouter",
          "name": "",
          "type": "address"
        }
      ],
      "stateMutability": "view",
      "type": "function"
    },
    {
      "inputs": [],
      "name": "usdt",
      "outputs": [
        {
          "internalType": "contract IERC20",
          "name": "",
          "type": "address"
        }
      ],
      "stateMutability": "view",
      "type": "function"
    },
    {
      "inputs": [
        {
          "internalType": "uint256",
          "name": "amount",
          "type": "uint256"
        }
      ],
      "name": "withdrawUSDT",
      "outputs": [],
      "stateMutability": "nonpayable",
      "type": "function"
    }
  ],
  "bytecode": "0x60e06040523480156200001157600080fd5b50604051620024fd380380620024fd833981810160405281019062000037919062000145565b8173ffffffffffffffffffffffffffffffffffffffff1660a08173ffffffffffffffffffffffffffffffffffffffff16815250508073ffffffffffffffffffffffffffffffffffffffff1660c08173ffffffffffffffffffffffffffffffffffffffff16815250503373ffffffffffffffffffffffffffffffffffffffff1660808173ffffffffffffffffffffffffffffffffffffffff168152505050506200018c565b600080fd5b600073ffffffffffffffffffffffffffffffffffffffff82169050919050565b60006200010d82620000e0565b9050919050565b6200011f8162000100565b81146200012b57600080fd5b50565b6000815190506200013f8162000114565b92915050565b600080604083850312156200015f576200015e620000db565b5b60006200016f858286016200012e565b925050602062000182858286016200012e565b9150509250929050565b60805160a05160c051612309620001f460003960008181610adc015281816112a401526113440152600081816106a30152818161120401526113e40152600081816102ee0152818161045e01528181610a9201528181610b000152610fd701526123096000f3fe608060405234801561001057600080fd5b50600436106100f55760003560e01c806394a927fe11610097578063daf2008011610066578063daf200801461024e578063e7c80f171461026a578063e8b018b414610286578063f1584673146102a4576100f5565b806394a927fe146101d8578063a7f07011146101f6578063c21ebd0714610214578063da3e339714610232576100f5565b806363033167116100d35780636303316714610150578063735de9f71461016e578063786fb10c1461018c578063826a4c8a146101bc576100f5565b80632f48ab7d146100fa5780633ea521ef146101185780635767c65914610134575b600080fd5b6101026102d4565b60405161010f9190611501565b60405180910390f35b610132600480360381019061012d9190611566565b6102ec565b005b61014e600480360381019061014991906115d1565b61045c565b005b61015861060c565b604051610165919061160d565b60405180910390f35b6101766106a1565b6040516101839190611649565b60405180910390f35b6101a660048036038101906101a19190611664565b6106c5565b6040516101b3919061160d565b60405180910390f35b6101d660048036038101906101d191906118c3565b61074c565b005b6101e0610a8e565b6040516101ed9190611955565b60405180910390f35b6101fe610ab6565b60405161020b9190611955565b60405180910390f35b61021c610ada565b6040516102299190611991565b60405180910390f35b61024c600480360381019061024791906119ac565b610afe565b005b61026860048036038101906102639190611a93565b610c93565b005b610284600480360381019061027f9190611566565b610fd5565b005b61028e611140565b60405161029b9190611b2f565b60405180910390f35b6102be60048036038101906102b99190611b4a565b6111d3565b6040516102cb9190611c1c565b60405180910390f35b73fd086bc7cd5c481dcc9c85ebe478a1c0b69fcbb981565b7f000000000000000000000000000000000000000000000000000000000000000073ffffffffffffffffffffffffffffffffffffffff163373ffffffffffffffffffffffffffffffffffffffff161461037c57336040517ff9ebb4c70000000000000000000000000000000000000000000000000000000081526004016103739190611955565b60405180910390fd5b61038461060c565b8111156103c6576040517f08c379a00000000000000000000000000000000000000000000000000000000081526004016103bd90611c9b565b60405180910390fd5b73fd086bc7cd5c481dcc9c85ebe478a1c0b69fcbb973ffffffffffffffffffffffffffffffffffffffff1663a9059cbb33836040518363ffffffff1660e01b8152600401610415929190611cbb565b6020604051808303816000875af1158015610434573d6000803e3d6000fd5b505050506040513d601f19601f820116820180604052508101906104589190611d1c565b5050565b7f000000000000000000000000000000000000000000000000000000000000000073ffffffffffffffffffffffffffffffffffffffff163373ffffffffffffffffffffffffffffffffffffffff16146104ec57336040517ff9ebb4c70000000000000000000000000000000000000000000000000000000081526004016104e39190611955565b60405180910390fd5b600073ffffffffffffffffffffffffffffffffffffffff168173ffffffffffffffffffffffffffffffffffffffff160361055b576040517f08c379a000000000000000000000000000000000000000000000000000000000815260040161055290611d95565b60405180910390fd5b3073ffffffffffffffffffffffffffffffffffffffff168173ffffffffffffffffffffffffffffffffffffffff16036105c9576040517f08c379a00000000000000000000000000000000000000000000000000000000081526004016105c090611e01565b60405180910390fd5b806000806101000a81548173ffffffffffffffffffffffffffffffffffffffff021916908373ffffffffffffffffffffffffffffffffffffffff16021790555050565b600073fd086bc7cd5c481dcc9c85ebe478a1c0b69fcbb973ffffffffffffffffffffffffffffffffffffffff166370a08231306040518263ffffffff1660e01b815260040161065b9190611955565b602060405180830381865afa158015610678573d6000803e3d6000fd5b505050506040513d601f19601f8201168201806040525081019061069c9190611e36565b905090565b7f000000000000000000000000000000000000000000000000000000000000000081565b6000600160008473ffffffffffffffffffffffffffffffffffffffff1673ffffffffffffffffffffffffffffffffffffffff16815260200190815260200160002060008373ffffffffffffffffffffffffffffffffffffffff1673ffffffffffffffffffffffffffffffffffffffff16815260200190815260200160002054905092915050565b60008054906101000a900473ffffffffffffffffffffffffffffffffffffffff1673ffffffffffffffffffffffffffffffffffffffff163373ffffffffffffffffffffffffffffffffffffffff16146107dc57336040517f4104d7d70000000000000000000000000000000000000000000000000000000081526004016107d39190611955565b60405180910390fd5b600073fd086bc7cd5c481dcc9c85ebe478a1c0b69fcbb973ffffffffffffffffffffffffffffffffffffffff166370a08231306040518263ffffffff1660e01b815260040161082b9190611955565b602060405180830381865afa158015610848573d6000803e3d6000fd5b505050506040513d601f19601f8201168201806040525081019061086c9190611e36565b905061087785611202565b60006040518060800160405280868673fd086bc7cd5c481dcc9c85ebe478a1c0b69fcbb96040516020016108ad93929190611ef8565b60405160208183030381529060405281526020013073ffffffffffffffffffffffffffffffffffffffff1681526020018673ffffffffffffffffffffffffffffffffffffffff166370a08231306040518263ffffffff1660e01b81526004016109169190611955565b602060405180830381865afa158015610933573d6000803e3d6000fd5b505050506040513d601f19601f820116820180604052508101906109579190611e36565b81526020016000815250905061096c816112a2565b600073fd086bc7cd5c481dcc9c85ebe478a1c0b69fcbb973ffffffffffffffffffffffffffffffffffffffff166370a08231306040518263ffffffff1660e01b81526004016109bb9190611955565b602060405180830381865afa1580156109d8573d6000803e3d6000fd5b505050506040513d601f19601f820116820180604052508101906109fc9190611e36565b90508383610a0a9190611f64565b811015610a4e57806040517fd4989a94000000000000000000000000000000000000000000000000000000008152600401610a45919061160d565b60405180910390fd5b7f357d905f1831209797df4d55d79c5c5bf1d9f7311c976afd05e13d881eab9bc881604051610a7d919061160d565b60405180910390a150505050505050565b60007f0000000000000000000000000000000000000000000000000000000000000000905090565b60008054906101000a900473ffffffffffffffffffffffffffffffffffffffff1681565b7f000000000000000000000000000000000000000000000000000000000000000081565b7f000000000000000000000000000000000000000000000000000000000000000073ffffffffffffffffffffffffffffffffffffffff163373ffffffffffffffffffffffffffffffffffffffff1614610b8e57336040517ff9ebb4c7000000000000000000000000000000000000000000000000000000008152600401610b859190611955565b60405180910390fd5b80600160008573ffffffffffffffffffffffffffffffffffffffff1673ffffffffffffffffffffffffffffffffffffffff16815260200190815260200160002060008473ffffffffffffffffffffffffffffffffffffffff1673ffffffffffffffffffffffffffffffffffffffff168152602001908152602001600020819055508273ffffffffffffffffffffffffffffffffffffffff1663095ea7b383836040518363ffffffff1660e01b8152600401610c4a929190611cbb565b6020604051808303816000875af1158015610c69573d6000803e3d6000fd5b505050506040513d601f19601f82011682018060405250810190610c8d9190611d1c565b50505050565b60008054906101000a900473ffffffffffffffffffffffffffffffffffffffff1673ffffffffffffffffffffffffffffffffffffffff163373ffffffffffffffffffffffffffffffffffffffff1614610d2357336040517f4104d7d7000000000000000000000000000000000000000000000000000000008152600401610d1a9190611955565b60405180910390fd5b600073fd086bc7cd5c481dcc9c85ebe478a1c0b69fcbb973ffffffffffffffffffffffffffffffffffffffff166370a08231306040518263ffffffff1660e01b8152600401610d729190611955565b602060405180830381865afa158015610d8f573d6000803e3d6000fd5b505050506040513d601f19601f82011682018060405250810190610db39190611e36565b9050610dbe85611342565b60006040518060800160405280868673fd086bc7cd5c481dcc9c85ebe478a1c0b69fcbb9604051602001610df493929190611ef8565b60405160208183030381529060405281526020013073ffffffffffffffffffffffffffffffffffffffff1681526020018673ffffffffffffffffffffffffffffffffffffffff166370a08231306040518263ffffffff1660e01b8152600401610e5d9190611955565b602060405180830381865afa158015610e7a573d6000803e3d6000fd5b505050506040513d601f19601f82011682018060405250810190610e9e9190611e36565b815260200160008152509050610eb3816113e2565b600073fd086bc7cd5c481dcc9c85ebe478a1c0b69fcbb973ffffffffffffffffffffffffffffffffffffffff166370a08231306040518263ffffffff1660e01b8152600401610f029190611955565b602060405180830381865afa158015610f1f573d6000803e3d6000fd5b505050506040513d601f19601f82011682018060405250810190610f439190611e36565b90508383610f519190611f64565b811015610f9557806040517fd4989a94000000000000000000000000000000000000000000000000000000008152600401610f8c919061160d565b60405180910390fd5b7f357d905f1831209797df4d55d79c5c5bf1d9f7311c976afd05e13d881eab9bc881604051610fc4919061160d565b60405180910390a150505050505050565b7f000000000000000000000000000000000000000000000000000000000000000073ffffffffffffffffffffffffffffffffffffffff163373ffffffffffffffffffffffffffffffffffffffff161461106557336040517ff9ebb4c700000000000000000000000000000000000000000000000000000000815260040161105c9190611955565b60405180910390fd5b600081116110a8576040517f08c379a000000000000000000000000000000000000000000000000000000000815260040161109f90611fe4565b60405180910390fd5b73fd086bc7cd5c481dcc9c85ebe478a1c0b69fcbb973ffffffffffffffffffffffffffffffffffffffff166323b872dd3330846040518463ffffffff1660e01b81526004016110f993929190612004565b6020604051808303816000875af1158015611118573d6000803e3d6000fd5b505050506040513d601f19601f8201168201806040525081019061113c9190611d1c565b5050565b60008073639fe6ab55c921f74e7fac1ee960c0b6293ba61273ffffffffffffffffffffffffffffffffffffffff1663feaf968c6040518163ffffffff1660e01b815260040160a060405180830381865afa1580156111a2573d6000803e3d6000fd5b505050506040513d601f19601f820116820180604052508101906111c691906120a9565b5050509150508091505090565b60608383836040516020016111ea93929190612124565b60405160208183030381529060405290509392505050565b7f000000000000000000000000000000000000000000000000000000000000000073ffffffffffffffffffffffffffffffffffffffff1663b858183f826040518263ffffffff1660e01b815260040161125b919061222c565b6020604051808303816000875af115801561127a573d6000803e3d6000fd5b505050506040513d601f19601f8201168201806040525081019061129e9190611e36565b5050565b7f000000000000000000000000000000000000000000000000000000000000000073ffffffffffffffffffffffffffffffffffffffff1663b858183f826040518263ffffffff1660e01b81526004016112fb91906122b1565b6020604051808303816000875af115801561131a573d6000803e3d6000fd5b505050506040513d601f19601f8201168201806040525081019061133e9190611e36565b5050565b7f000000000000000000000000000000000000000000000000000000000000000073ffffffffffffffffffffffffffffffffffffffff1663b858183f826040518263ffffffff1660e01b815260040161139b91906122b1565b6020604051808303816000875af11580156113ba573d6000803e3d6000fd5b505050506040513d601f19601f820116820180604052508101906113de9190611e36565b5050565b7f000000000000000000000000000000000000000000000000000000000000000073ffffffffffffffffffffffffffffffffffffffff1663b858183f826040518263ffffffff1660e01b815260040161143b919061222c565b6020604051808303816000875af115801561145a573d6000803e3d6000fd5b505050506040513d601f19601f8201168201806040525081019061147e9190611e36565b5050565b600073ffffffffffffffffffffffffffffffffffffffff82169050919050565b6000819050919050565b60006114c76114c26114bd84611482565b6114a2565b611482565b9050919050565b60006114d9826114ac565b9050919050565b60006114eb826114ce565b9050919050565b6114fb816114e0565b82525050565b600060208201905061151660008301846114f2565b92915050565b6000604051905090565b600080fd5b600080fd5b6000819050919050565b61154381611530565b811461154e57600080fd5b50565b6000813590506115608161153a565b92915050565b60006020828403121561157c5761157b611526565b5b600061158a84828501611551565b91505092915050565b600061159e82611482565b9050919050565b6115ae81611593565b81146115b957600080fd5b50565b6000813590506115cb816115a5565b92915050565b6000602082840312156115e7576115e6611526565b5b60006115f5848285016115bc565b91505092915050565b61160781611530565b82525050565b600060208201905061162260008301846115fe565b92915050565b6000611633826114ce565b9050919050565b61164381611628565b82525050565b600060208201905061165e600083018461163a565b92915050565b6000806040838503121561167b5761167a611526565b5b6000611689858286016115bc565b925050602061169a858286016115bc565b9150509250929050565b600080fd5b6000601f19601f8301169050919050565b7f4e487b7100000000000000000000000000000000000000000000000000000000600052604160045260246000fd5b6116f2826116a9565b810181811067ffffffffffffffff82111715611711576117106116ba565b5b80604052505050565b600061172461151c565b905061173082826116e9565b919050565b600080fd5b600080fd5b600080fd5b600067ffffffffffffffff82111561175f5761175e6116ba565b5b611768826116a9565b9050602081019050919050565b82818337600083830152505050565b600061179761179284611744565b61171a565b9050828152602081018484840111156117b3576117b261173f565b5b6117be848285611775565b509392505050565b600082601f8301126117db576117da61173a565b5b81356117eb848260208601611784565b91505092915050565b60006080828403121561180a576118096116a4565b5b611814608061171a565b9050600082013567ffffffffffffffff81111561183457611833611735565b5b611840848285016117c6565b6000830152506020611854848285016115bc565b602083015250604061186884828501611551565b604083015250606061187c84828501611551565b60608301525092915050565b600062ffffff82169050919050565b6118a081611888565b81146118ab57600080fd5b50565b6000813590506118bd81611897565b92915050565b600080600080608085870312156118dd576118dc611526565b5b600085013567ffffffffffffffff8111156118fb576118fa61152b565b5b611907878288016117f4565b9450506020611918878288016115bc565b9350506040611929878288016118ae565b925050606061193a87828801611551565b91505092959194509250565b61194f81611593565b82525050565b600060208201905061196a6000830184611946565b92915050565b600061197b826114ce565b9050919050565b61198b81611970565b82525050565b60006020820190506119a66000830184611982565b92915050565b6000806000606084860312156119c5576119c4611526565b5b60006119d3868287016115bc565b93505060206119e4868287016115bc565b92505060406119f586828701611551565b9150509250925092565b600060808284031215611a1557611a146116a4565b5b611a1f608061171a565b9050600082013567ffffffffffffffff811115611a3f57611a3e611735565b5b611a4b848285016117c6565b6000830152506020611a5f848285016115bc565b6020830152506040611a7384828501611551565b6040830152506060611a8784828501611551565b60608301525092915050565b60008060008060808587031215611aad57611aac611526565b5b600085013567ffffffffffffffff811115611acb57611aca61152b565b5b611ad7878288016119ff565b9450506020611ae8878288016115bc565b9350506040611af9878288016118ae565b9250506060611b0a87828801611551565b91505092959194509250565b6000819050919050565b611b2981611b16565b82525050565b6000602082019050611b446000830184611b20565b92915050565b600080600060608486031215611b6357611b62611526565b5b6000611b71868287016115bc565b9350506020611b82868287016118ae565b9250506040611b93868287016115bc565b9150509250925092565b600081519050919050565b600082825260208201905092915050565b60005b83811015611bd7578082015181840152602081019050611bbc565b60008484015250505050565b6000611bee82611b9d565b611bf88185611ba8565b9350611c08818560208601611bb9565b611c11816116a9565b840191505092915050565b60006020820190508181036000830152611c368184611be3565b905092915050565b600082825260208201905092915050565b7f416d6f756e7420697320686967686572207468616e2062616c616e6365000000600082015250565b6000611c85601d83611c3e565b9150611c9082611c4f565b602082019050919050565b60006020820190508181036000830152611cb481611c78565b9050919050565b6000604082019050611cd06000830185611946565b611cdd60208301846115fe565b9392505050565b60008115159050919050565b611cf981611ce4565b8114611d0457600080fd5b50565b600081519050611d1681611cf0565b92915050565b600060208284031215611d3257611d31611526565b5b6000611d4084828501611d07565b91505092915050565b7f43616e2774206265206120302061646472657373000000000000000000000000600082015250565b6000611d7f601483611c3e565b9150611d8a82611d49565b602082019050919050565b60006020820190508181036000830152611dae81611d72565b9050919050565b7f43616e2774206265207468697320616464726573730000000000000000000000600082015250565b6000611deb601583611c3e565b9150611df682611db5565b602082019050919050565b60006020820190508181036000830152611e1a81611dde565b9050919050565b600081519050611e308161153a565b92915050565b600060208284031215611e4c57611e4b611526565b5b6000611e5a84828501611e21565b91505092915050565b60008160601b9050919050565b6000611e7b82611e63565b9050919050565b6000611e8d82611e70565b9050919050565b611ea5611ea082611593565b611e82565b82525050565b60008160e81b9050919050565b6000611ec382611eab565b9050919050565b611edb611ed682611888565b611eb8565b82525050565b611ef2611eed826114e0565b611e82565b82525050565b6000611f048286611e94565b601482019150611f148285611eca565b600382019150611f248284611ee1565b601482019150819050949350505050565b7f4e487b7100000000000000000000000000000000000000000000000000000000600052601160045260246000fd5b6000611f6f82611530565b9150611f7a83611530565b9250828201905080821115611f9257611f91611f35565b5b92915050565b7f416d6f756e742063616e27742062652030000000000000000000000000000000600082015250565b6000611fce601183611c3e565b9150611fd982611f98565b602082019050919050565b60006020820190508181036000830152611ffd81611fc1565b9050919050565b60006060820190506120196000830186611946565b6120266020830185611946565b61203360408301846115fe565b949350505050565b600069ffffffffffffffffffff82169050919050565b61205a8161203b565b811461206557600080fd5b50565b60008151905061207781612051565b92915050565b61208681611b16565b811461209157600080fd5b50565b6000815190506120a38161207d565b92915050565b600080600080600060a086880312156120c5576120c4611526565b5b60006120d388828901612068565b95505060206120e488828901612094565b94505060406120f588828901611e21565b935050606061210688828901611e21565b925050608061211788828901612068565b9150509295509295909350565b60006121308286611e94565b6014820191506121408285611eca565b6003820191506121508284611e94565b601482019150819050949350505050565b600082825260208201905092915050565b600061217d82611b9d565b6121878185612161565b9350612197818560208601611bb9565b6121a0816116a9565b840191505092915050565b6121b481611593565b82525050565b6121c381611530565b82525050565b600060808301600083015184820360008601526121e68282612172565b91505060208301516121fb60208601826121ab565b50604083015161220e60408601826121ba565b50606083015161222160608601826121ba565b508091505092915050565b6000602082019050818103600083015261224681846121c9565b905092915050565b6000608083016000830151848203600086015261226b8282612172565b915050602083015161228060208601826121ab565b50604083015161229360408601826121ba565b5060608301516122a660608601826121ba565b508091505092915050565b600060208201905081810360008301526122cb818461224e565b90509291505056fea26469706673582212203bafa67b88bf89c9efd9536abfdb3e3c1850ee8958aac3c04ca64d05c2ab87db64736f6c63430008140033",
  "linkReferences": {},
  "deployedLinkReferences": {}
}