{
  "_format": "hh-sol-artifact-1",
  "contractName": "OptimusPrime",
  "sourceName": "contracts/OptimusPrime.sol",
  "abi": [
    {
      "inputs": [
        {
          "internalType": "address",
          "name": "_pancakeswapRouterV3",
          "type": "address"
        }
      ],
      "stateMutability": "nonpayable",
      "type": "constructor"
    },
    {
      "inputs": [
        {
          "internalType": "uint256",
          "name": "finalBalance",
          "type": "uint256"
        }
      ],
      "name": "NoProfit",
      "type": "error"
    },
    {
      "inputs": [
        {
          "internalType": "address",
          "name": "sender",
          "type": "address"
        }
      ],
      "name": "NotTheOwner",
      "type": "error"
    },
    {
      "inputs": [
        {
          "internalType": "address",
          "name": "sender",
          "type": "address"
        }
      ],
      "name": "NotTheTradeExecutor",
      "type": "error"
    },
    {
      "inputs": [
        {
          "internalType": "address",
          "name": "token",
          "type": "address"
        }
      ],
      "name": "TokenNotAccepted",
      "type": "error"
    },
    {
      "anonymous": false,
      "inputs": [
        {
          "indexed": false,
          "internalType": "uint256",
          "name": "_finalBalance",
          "type": "uint256"
        }
      ],
      "name": "Profit",
      "type": "event"
    },
    {
      "inputs": [
        {
          "internalType": "address",
          "name": "tokenToApprove",
          "type": "address"
        },
        {
          "internalType": "address",
          "name": "spender",
          "type": "address"
        },
        {
          "internalType": "uint256",
          "name": "amount",
          "type": "uint256"
        }
      ],
      "name": "approveToken",
      "outputs": [],
      "stateMutability": "nonpayable",
      "type": "function"
    },
    {
      "inputs": [
        {
          "internalType": "address",
          "name": "token",
          "type": "address"
        },
        {
          "internalType": "uint256",
          "name": "amount",
          "type": "uint256"
        }
      ],
      "name": "depositToken",
      "outputs": [],
      "stateMutability": "nonpayable",
      "type": "function"
    },
    {
      "inputs": [],
      "name": "isLocked",
      "outputs": [
        {
          "internalType": "bool",
          "name": "",
          "type": "bool"
        }
      ],
      "stateMutability": "view",
      "type": "function"
    },
    {
      "inputs": [],
      "name": "lock",
      "outputs": [],
      "stateMutability": "nonpayable",
      "type": "function"
    },
    {
      "inputs": [],
      "name": "pancakeRouterV3",
      "outputs": [
        {
          "internalType": "contract IV3PancakeSwapRouter",
          "name": "",
          "type": "address"
        }
      ],
      "stateMutability": "view",
      "type": "function"
    },
    {
      "inputs": [],
      "name": "returnBlockTimestamp",
      "outputs": [
        {
          "internalType": "uint256",
          "name": "",
          "type": "uint256"
        }
      ],
      "stateMutability": "view",
      "type": "function"
    },
    {
      "inputs": [
        {
          "internalType": "address",
          "name": "tokenA",
          "type": "address"
        },
        {
          "internalType": "uint24",
          "name": "poolFee",
          "type": "uint24"
        },
        {
          "internalType": "address",
          "name": "tokenB",
          "type": "address"
        }
      ],
      "name": "returnPathData",
      "outputs": [
        {
          "internalType": "bytes",
          "name": "",
          "type": "bytes"
        }
      ],
      "stateMutability": "pure",
      "type": "function"
    },
    {
      "inputs": [
        {
          "internalType": "address",
          "name": "token",
          "type": "address"
        }
      ],
      "name": "returnTokenBalance",
      "outputs": [
        {
          "internalType": "uint256",
          "name": "",
          "type": "uint256"
        }
      ],
      "stateMutability": "view",
      "type": "function"
    },
    {
      "inputs": [
        {
          "internalType": "address",
          "name": "_tradeExecutor",
          "type": "address"
        }
      ],
      "name": "setTradeExecutor",
      "outputs": [],
      "stateMutability": "nonpayable",
      "type": "function"
    },
    {
      "inputs": [],
      "name": "swapUSDCforUSDTnoSlippage",
      "outputs": [],
      "stateMutability": "nonpayable",
      "type": "function"
    },
    {
      "inputs": [],
      "name": "swapUSDTforUSDCnoSlippage",
      "outputs": [],
      "stateMutability": "nonpayable",
      "type": "function"
    },
    {
      "inputs": [
        {
          "components": [
            {
              "internalType": "bytes",
              "name": "path",
              "type": "bytes"
            },
            {
              "internalType": "address",
              "name": "recipient",
              "type": "address"
            },
            {
              "internalType": "uint256",
              "name": "deadline",
              "type": "uint256"
            },
            {
              "internalType": "uint256",
              "name": "amountIn",
              "type": "uint256"
            },
            {
              "internalType": "uint256",
              "name": "amountOutMinimum",
              "type": "uint256"
            }
          ],
          "internalType": "struct IV3PancakeSwapRouter.ExactInputParams",
          "name": "params",
          "type": "tuple"
        },
        {
          "internalType": "uint256",
          "name": "initialAmountIn",
          "type": "uint256"
        }
      ],
      "name": "trade1",
      "outputs": [],
      "stateMutability": "nonpayable",
      "type": "function"
    },
    {
      "inputs": [
        {
          "components": [
            {
              "internalType": "bytes",
              "name": "path",
              "type": "bytes"
            },
            {
              "internalType": "address",
              "name": "recipient",
              "type": "address"
            },
            {
              "internalType": "uint256",
              "name": "deadline",
              "type": "uint256"
            },
            {
              "internalType": "uint256",
              "name": "amountIn",
              "type": "uint256"
            },
            {
              "internalType": "uint256",
              "name": "amountOutMinimum",
              "type": "uint256"
            }
          ],
          "internalType": "struct IV3PancakeSwapRouter.ExactInputParams",
          "name": "params",
          "type": "tuple"
        },
        {
          "internalType": "uint256",
          "name": "initialAmountIn",
          "type": "uint256"
        }
      ],
      "name": "trade2",
      "outputs": [],
      "stateMutability": "nonpayable",
      "type": "function"
    },
    {
      "inputs": [],
      "name": "tradeExecutor",
      "outputs": [
        {
          "internalType": "address",
          "name": "",
          "type": "address"
        }
      ],
      "stateMutability": "view",
      "type": "function"
    },
    {
      "inputs": [],
      "name": "unlock",
      "outputs": [],
      "stateMutability": "nonpayable",
      "type": "function"
    },
    {
      "inputs": [],
      "name": "usdc",
      "outputs": [
        {
          "internalType": "contract IERC20",
          "name": "",
          "type": "address"
        }
      ],
      "stateMutability": "view",
      "type": "function"
    },
    {
      "inputs": [],
      "name": "usdt",
      "outputs": [
        {
          "internalType": "contract IERC20",
          "name": "",
          "type": "address"
        }
      ],
      "stateMutability": "view",
      "type": "function"
    },
    {
      "inputs": [],
      "name": "weth",
      "outputs": [
        {
          "internalType": "contract IERC20",
          "name": "",
          "type": "address"
        }
      ],
      "stateMutability": "view",
      "type": "function"
    },
    {
      "inputs": [
        {
          "internalType": "address",
          "name": "token",
          "type": "address"
        },
        {
          "internalType": "uint256",
          "name": "amount",
          "type": "uint256"
        }
      ],
      "name": "withdrawToken",
      "outputs": [],
      "stateMutability": "nonpayable",
      "type": "function"
    }
  ],
  "bytecode": "0x60c06040523480156200001157600080fd5b50604051620025af380380620025af833981810160405281019062000037919062000110565b8073ffffffffffffffffffffffffffffffffffffffff1660a08173ffffffffffffffffffffffffffffffffffffffff16815250503373ffffffffffffffffffffffffffffffffffffffff1660808173ffffffffffffffffffffffffffffffffffffffff16815250505062000142565b600080fd5b600073ffffffffffffffffffffffffffffffffffffffff82169050919050565b6000620000d882620000ab565b9050919050565b620000ea81620000cb565b8114620000f657600080fd5b50565b6000815190506200010a81620000df565b92915050565b600060208284031215620001295762000128620000a6565b5b60006200013984828501620000f9565b91505092915050565b60805160a0516123fa620001b56000396000818161044c015281816107d80152818161099c0152818161114a015261168b01526000818161062301528181610b8b01528181610de501528181610f95015281816111ec015281816114510152818161157701526116e601526123fa6000f3fe608060405234801561001057600080fd5b50600436106101215760003560e01c80639e281a98116100ad578063da3e339711610071578063da3e339714610296578063e47aaf6d146102b2578063f1584673146102d0578063f556d1d414610300578063f83d08ba1461031e57610121565b80639e281a9814610204578063a119b86e14610220578063a4e2d63414610250578063a69df4b51461026e578063a7f070111461027857610121565b8063338b5dea116100f4578063338b5dea146101865780633e413bee146101a25780633fc8cef3146101c05780635767c659146101de5780637201c6be146101fa57610121565b806305ddad1f146101265780630ebaf45814610142578063272a6dd91461014c5780632f48ab7d14610168575b600080fd5b610140600480360381019061013b9190611a87565b610328565b005b61014a610621565b005b61016660048036038101906101619190611a87565b610878565b005b610170610b71565b60405161017d9190611b42565b60405180910390f35b6101a0600480360381019061019b9190611b5d565b610b89565b005b6101aa610db3565b6040516101b79190611b42565b60405180910390f35b6101c8610dcb565b6040516101d59190611b42565b60405180910390f35b6101f860048036038101906101f39190611b9d565b610de3565b005b610202610f93565b005b61021e60048036038101906102199190611b5d565b6111ea565b005b61023a60048036038101906102359190611b9d565b6113b9565b6040516102479190611bd9565b60405180910390f35b61025861143c565b6040516102659190611c0f565b60405180910390f35b61027661144f565b005b610280611551565b60405161028d9190611c39565b60405180910390f35b6102b060048036038101906102ab9190611c54565b611575565b005b6102ba611689565b6040516102c79190611cc8565b60405180910390f35b6102ea60048036038101906102e59190611d1e565b6116ad565b6040516102f79190611df0565b60405180910390f35b6103086116dc565b6040516103159190611bd9565b60405180910390f35b6103266116e4565b005b60008054906101000a900473ffffffffffffffffffffffffffffffffffffffff1673ffffffffffffffffffffffffffffffffffffffff163373ffffffffffffffffffffffffffffffffffffffff16146103b857336040517f4104d7d70000000000000000000000000000000000000000000000000000000081526004016103af9190611c39565b60405180910390fd5b600073fd086bc7cd5c481dcc9c85ebe478a1c0b69fcbb973ffffffffffffffffffffffffffffffffffffffff166370a08231306040518263ffffffff1660e01b81526004016104079190611c39565b602060405180830381865afa158015610424573d6000803e3d6000fd5b505050506040513d601f19601f820116820180604052508101906104489190611e27565b90507f000000000000000000000000000000000000000000000000000000000000000073ffffffffffffffffffffffffffffffffffffffff1663c04b8d59846040518263ffffffff1660e01b81526004016104a39190611f32565b6020604051808303816000875af11580156104c2573d6000803e3d6000fd5b505050506040513d601f19601f820116820180604052508101906104e69190611e27565b50600073fd086bc7cd5c481dcc9c85ebe478a1c0b69fcbb973ffffffffffffffffffffffffffffffffffffffff166370a08231306040518263ffffffff1660e01b81526004016105369190611c39565b602060405180830381865afa158015610553573d6000803e3d6000fd5b505050506040513d601f19601f820116820180604052508101906105779190611e27565b90508282826105869190611f83565b11156105d3577f357d905f1831209797df4d55d79c5c5bf1d9f7311c976afd05e13d881eab9bc882826105b99190611f83565b6040516105c69190611bd9565b60405180910390a161061b565b81816105df9190611f83565b6040517fd4989a940000000000000000000000000000000000000000000000000000000081526004016106129190611bd9565b60405180910390fd5b50505050565b7f000000000000000000000000000000000000000000000000000000000000000073ffffffffffffffffffffffffffffffffffffffff163373ffffffffffffffffffffffffffffffffffffffff16146106b157336040517ff9ebb4c70000000000000000000000000000000000000000000000000000000081526004016106a89190611c39565b60405180910390fd5b600060649050600073af88d065e77c8cc2239327c5edb3a432268e583173ffffffffffffffffffffffffffffffffffffffff166370a08231306040518263ffffffff1660e01b81526004016107069190611c39565b602060405180830381865afa158015610723573d6000803e3d6000fd5b505050506040513d601f19601f820116820180604052508101906107479190611e27565b905060006040518060a0016040528073af88d065e77c8cc2239327c5edb3a432268e58318573fd086bc7cd5c481dcc9c85ebe478a1c0b69fcbb960405160200161079393929190612035565b60405160208183030381529060405281526020013073ffffffffffffffffffffffffffffffffffffffff168152602001428152602001838152602001600081525090507f000000000000000000000000000000000000000000000000000000000000000073ffffffffffffffffffffffffffffffffffffffff1663c04b8d59826040518263ffffffff1660e01b815260040161082f9190611f32565b6020604051808303816000875af115801561084e573d6000803e3d6000fd5b505050506040513d601f19601f820116820180604052508101906108729190611e27565b50505050565b60008054906101000a900473ffffffffffffffffffffffffffffffffffffffff1673ffffffffffffffffffffffffffffffffffffffff163373ffffffffffffffffffffffffffffffffffffffff161461090857336040517f4104d7d70000000000000000000000000000000000000000000000000000000081526004016108ff9190611c39565b60405180910390fd5b600073af88d065e77c8cc2239327c5edb3a432268e583173ffffffffffffffffffffffffffffffffffffffff166370a08231306040518263ffffffff1660e01b81526004016109579190611c39565b602060405180830381865afa158015610974573d6000803e3d6000fd5b505050506040513d601f19601f820116820180604052508101906109989190611e27565b90507f000000000000000000000000000000000000000000000000000000000000000073ffffffffffffffffffffffffffffffffffffffff1663c04b8d59846040518263ffffffff1660e01b81526004016109f39190611f32565b6020604051808303816000875af1158015610a12573d6000803e3d6000fd5b505050506040513d601f19601f82011682018060405250810190610a369190611e27565b50600073af88d065e77c8cc2239327c5edb3a432268e583173ffffffffffffffffffffffffffffffffffffffff166370a08231306040518263ffffffff1660e01b8152600401610a869190611c39565b602060405180830381865afa158015610aa3573d6000803e3d6000fd5b505050506040513d601f19601f82011682018060405250810190610ac79190611e27565b9050828282610ad69190611f83565b1115610b23577f357d905f1831209797df4d55d79c5c5bf1d9f7311c976afd05e13d881eab9bc88282610b099190611f83565b604051610b169190611bd9565b60405180910390a1610b6b565b8181610b2f9190611f83565b6040517fd4989a94000000000000000000000000000000000000000000000000000000008152600401610b629190611bd9565b60405180910390fd5b50505050565b73fd086bc7cd5c481dcc9c85ebe478a1c0b69fcbb981565b7f000000000000000000000000000000000000000000000000000000000000000073ffffffffffffffffffffffffffffffffffffffff163373ffffffffffffffffffffffffffffffffffffffff1614610c1957336040517ff9ebb4c7000000000000000000000000000000000000000000000000000000008152600401610c109190611c39565b60405180910390fd5b73fd086bc7cd5c481dcc9c85ebe478a1c0b69fcbb973ffffffffffffffffffffffffffffffffffffffff168273ffffffffffffffffffffffffffffffffffffffff1614158015610ca9575073af88d065e77c8cc2239327c5edb3a432268e583173ffffffffffffffffffffffffffffffffffffffff168273ffffffffffffffffffffffffffffffffffffffff1614155b15610ceb57816040517ff01157c3000000000000000000000000000000000000000000000000000000008152600401610ce29190611c39565b60405180910390fd5b60008111610d2e576040517f08c379a0000000000000000000000000000000000000000000000000000000008152600401610d25906120cf565b60405180910390fd5b8173ffffffffffffffffffffffffffffffffffffffff166323b872dd3330846040518463ffffffff1660e01b8152600401610d6b939291906120ef565b6020604051808303816000875af1158015610d8a573d6000803e3d6000fd5b505050506040513d601f19601f82011682018060405250810190610dae9190612152565b505050565b73af88d065e77c8cc2239327c5edb3a432268e583181565b7382af49447d8a07e3bd95bd0d56f35241523fbab181565b7f000000000000000000000000000000000000000000000000000000000000000073ffffffffffffffffffffffffffffffffffffffff163373ffffffffffffffffffffffffffffffffffffffff1614610e7357336040517ff9ebb4c7000000000000000000000000000000000000000000000000000000008152600401610e6a9190611c39565b60405180910390fd5b600073ffffffffffffffffffffffffffffffffffffffff168173ffffffffffffffffffffffffffffffffffffffff1603610ee2576040517f08c379a0000000000000000000000000000000000000000000000000000000008152600401610ed9906121cb565b60405180910390fd5b3073ffffffffffffffffffffffffffffffffffffffff168173ffffffffffffffffffffffffffffffffffffffff1603610f50576040517f08c379a0000000000000000000000000000000000000000000000000000000008152600401610f4790612237565b60405180910390fd5b806000806101000a81548173ffffffffffffffffffffffffffffffffffffffff021916908373ffffffffffffffffffffffffffffffffffffffff16021790555050565b7f000000000000000000000000000000000000000000000000000000000000000073ffffffffffffffffffffffffffffffffffffffff163373ffffffffffffffffffffffffffffffffffffffff161461102357336040517ff9ebb4c700000000000000000000000000000000000000000000000000000000815260040161101a9190611c39565b60405180910390fd5b600060649050600073fd086bc7cd5c481dcc9c85ebe478a1c0b69fcbb973ffffffffffffffffffffffffffffffffffffffff166370a08231306040518263ffffffff1660e01b81526004016110789190611c39565b602060405180830381865afa158015611095573d6000803e3d6000fd5b505050506040513d601f19601f820116820180604052508101906110b99190611e27565b905060006040518060a0016040528073fd086bc7cd5c481dcc9c85ebe478a1c0b69fcbb98573af88d065e77c8cc2239327c5edb3a432268e583160405160200161110593929190612035565b60405160208183030381529060405281526020013073ffffffffffffffffffffffffffffffffffffffff168152602001428152602001838152602001600081525090507f000000000000000000000000000000000000000000000000000000000000000073ffffffffffffffffffffffffffffffffffffffff1663c04b8d59826040518263ffffffff1660e01b81526004016111a19190611f32565b6020604051808303816000875af11580156111c0573d6000803e3d6000fd5b505050506040513d601f19601f820116820180604052508101906111e49190611e27565b50505050565b7f000000000000000000000000000000000000000000000000000000000000000073ffffffffffffffffffffffffffffffffffffffff163373ffffffffffffffffffffffffffffffffffffffff161461127a57336040517ff9ebb4c70000000000000000000000000000000000000000000000000000000081526004016112719190611c39565b60405180910390fd5b8173ffffffffffffffffffffffffffffffffffffffff166370a08231306040518263ffffffff1660e01b81526004016112b39190611c39565b602060405180830381865afa1580156112d0573d6000803e3d6000fd5b505050506040513d601f19601f820116820180604052508101906112f49190611e27565b811115611336576040517f08c379a000000000000000000000000000000000000000000000000000000000815260040161132d906122a3565b60405180910390fd5b8173ffffffffffffffffffffffffffffffffffffffff1663a9059cbb33836040518363ffffffff1660e01b81526004016113719291906122c3565b6020604051808303816000875af1158015611390573d6000803e3d6000fd5b505050506040513d601f19601f820116820180604052508101906113b49190612152565b505050565b60008173ffffffffffffffffffffffffffffffffffffffff166370a08231306040518263ffffffff1660e01b81526004016113f49190611c39565b602060405180830381865afa158015611411573d6000803e3d6000fd5b505050506040513d601f19601f820116820180604052508101906114359190611e27565b9050919050565b600060149054906101000a900460ff1681565b7f000000000000000000000000000000000000000000000000000000000000000073ffffffffffffffffffffffffffffffffffffffff163373ffffffffffffffffffffffffffffffffffffffff16146114df57336040517ff9ebb4c70000000000000000000000000000000000000000000000000000000081526004016114d69190611c39565b60405180910390fd5b60011515600060149054906101000a900460ff16151514611535576040517f08c379a000000000000000000000000000000000000000000000000000000000815260040161152c90612338565b60405180910390fd5b60008060146101000a81548160ff021916908315150217905550565b60008054906101000a900473ffffffffffffffffffffffffffffffffffffffff1681565b7f000000000000000000000000000000000000000000000000000000000000000073ffffffffffffffffffffffffffffffffffffffff163373ffffffffffffffffffffffffffffffffffffffff161461160557336040517ff9ebb4c70000000000000000000000000000000000000000000000000000000081526004016115fc9190611c39565b60405180910390fd5b8273ffffffffffffffffffffffffffffffffffffffff1663095ea7b383836040518363ffffffff1660e01b81526004016116409291906122c3565b6020604051808303816000875af115801561165f573d6000803e3d6000fd5b505050506040513d601f19601f820116820180604052508101906116839190612152565b50505050565b7f000000000000000000000000000000000000000000000000000000000000000081565b60608383836040516020016116c493929190612035565b60405160208183030381529060405290509392505050565b600042905090565b7f000000000000000000000000000000000000000000000000000000000000000073ffffffffffffffffffffffffffffffffffffffff163373ffffffffffffffffffffffffffffffffffffffff161461177457336040517ff9ebb4c700000000000000000000000000000000000000000000000000000000815260040161176b9190611c39565b60405180910390fd5b60001515600060149054906101000a900460ff161515146117ca576040517f08c379a00000000000000000000000000000000000000000000000000000000081526004016117c1906123a4565b60405180910390fd5b6001600060146101000a81548160ff021916908315150217905550565b6000604051905090565b600080fd5b600080fd5b600080fd5b6000601f19601f8301169050919050565b7f4e487b7100000000000000000000000000000000000000000000000000000000600052604160045260246000fd5b61184982611800565b810181811067ffffffffffffffff8211171561186857611867611811565b5b80604052505050565b600061187b6117e7565b90506118878282611840565b919050565b600080fd5b600080fd5b600080fd5b600067ffffffffffffffff8211156118b6576118b5611811565b5b6118bf82611800565b9050602081019050919050565b82818337600083830152505050565b60006118ee6118e98461189b565b611871565b90508281526020810184848401111561190a57611909611896565b5b6119158482856118cc565b509392505050565b600082601f83011261193257611931611891565b5b81356119428482602086016118db565b91505092915050565b600073ffffffffffffffffffffffffffffffffffffffff82169050919050565b60006119768261194b565b9050919050565b6119868161196b565b811461199157600080fd5b50565b6000813590506119a38161197d565b92915050565b6000819050919050565b6119bc816119a9565b81146119c757600080fd5b50565b6000813590506119d9816119b3565b92915050565b600060a082840312156119f5576119f46117fb565b5b6119ff60a0611871565b9050600082013567ffffffffffffffff811115611a1f57611a1e61188c565b5b611a2b8482850161191d565b6000830152506020611a3f84828501611994565b6020830152506040611a53848285016119ca565b6040830152506060611a67848285016119ca565b6060830152506080611a7b848285016119ca565b60808301525092915050565b60008060408385031215611a9e57611a9d6117f1565b5b600083013567ffffffffffffffff811115611abc57611abb6117f6565b5b611ac8858286016119df565b9250506020611ad9858286016119ca565b9150509250929050565b6000819050919050565b6000611b08611b03611afe8461194b565b611ae3565b61194b565b9050919050565b6000611b1a82611aed565b9050919050565b6000611b2c82611b0f565b9050919050565b611b3c81611b21565b82525050565b6000602082019050611b576000830184611b33565b92915050565b60008060408385031215611b7457611b736117f1565b5b6000611b8285828601611994565b9250506020611b93858286016119ca565b9150509250929050565b600060208284031215611bb357611bb26117f1565b5b6000611bc184828501611994565b91505092915050565b611bd3816119a9565b82525050565b6000602082019050611bee6000830184611bca565b92915050565b60008115159050919050565b611c0981611bf4565b82525050565b6000602082019050611c246000830184611c00565b92915050565b611c338161196b565b82525050565b6000602082019050611c4e6000830184611c2a565b92915050565b600080600060608486031215611c6d57611c6c6117f1565b5b6000611c7b86828701611994565b9350506020611c8c86828701611994565b9250506040611c9d868287016119ca565b9150509250925092565b6000611cb282611b0f565b9050919050565b611cc281611ca7565b82525050565b6000602082019050611cdd6000830184611cb9565b92915050565b600062ffffff82169050919050565b611cfb81611ce3565b8114611d0657600080fd5b50565b600081359050611d1881611cf2565b92915050565b600080600060608486031215611d3757611d366117f1565b5b6000611d4586828701611994565b9350506020611d5686828701611d09565b9250506040611d6786828701611994565b9150509250925092565b600081519050919050565b600082825260208201905092915050565b60005b83811015611dab578082015181840152602081019050611d90565b60008484015250505050565b6000611dc282611d71565b611dcc8185611d7c565b9350611ddc818560208601611d8d565b611de581611800565b840191505092915050565b60006020820190508181036000830152611e0a8184611db7565b905092915050565b600081519050611e21816119b3565b92915050565b600060208284031215611e3d57611e3c6117f1565b5b6000611e4b84828501611e12565b91505092915050565b600082825260208201905092915050565b6000611e7082611d71565b611e7a8185611e54565b9350611e8a818560208601611d8d565b611e9381611800565b840191505092915050565b611ea78161196b565b82525050565b611eb6816119a9565b82525050565b600060a0830160008301518482036000860152611ed98282611e65565b9150506020830151611eee6020860182611e9e565b506040830151611f016040860182611ead565b506060830151611f146060860182611ead565b506080830151611f276080860182611ead565b508091505092915050565b60006020820190508181036000830152611f4c8184611ebc565b905092915050565b7f4e487b7100000000000000000000000000000000000000000000000000000000600052601160045260246000fd5b6000611f8e826119a9565b9150611f99836119a9565b9250828203905081811115611fb157611fb0611f54565b5b92915050565b60008160601b9050919050565b6000611fcf82611fb7565b9050919050565b6000611fe182611fc4565b9050919050565b611ff9611ff48261196b565b611fd6565b82525050565b60008160e81b9050919050565b600061201782611fff565b9050919050565b61202f61202a82611ce3565b61200c565b82525050565b60006120418286611fe8565b601482019150612051828561201e565b6003820191506120618284611fe8565b601482019150819050949350505050565b600082825260208201905092915050565b7f416d6f756e742063616e27742062652030000000000000000000000000000000600082015250565b60006120b9601183612072565b91506120c482612083565b602082019050919050565b600060208201905081810360008301526120e8816120ac565b9050919050565b60006060820190506121046000830186611c2a565b6121116020830185611c2a565b61211e6040830184611bca565b949350505050565b61212f81611bf4565b811461213a57600080fd5b50565b60008151905061214c81612126565b92915050565b600060208284031215612168576121676117f1565b5b60006121768482850161213d565b91505092915050565b7f43616e2774206265206120302061646472657373000000000000000000000000600082015250565b60006121b5601483612072565b91506121c08261217f565b602082019050919050565b600060208201905081810360008301526121e4816121a8565b9050919050565b7f43616e2774206265207468697320616464726573730000000000000000000000600082015250565b6000612221601583612072565b915061222c826121eb565b602082019050919050565b6000602082019050818103600083015261225081612214565b9050919050565b7f416d6f756e7420697320686967686572207468616e2062616c616e6365000000600082015250565b600061228d601d83612072565b915061229882612257565b602082019050919050565b600060208201905081810360008301526122bc81612280565b9050919050565b60006040820190506122d86000830185611c2a565b6122e56020830184611bca565b9392505050565b7f4e6f74206c6f636b656400000000000000000000000000000000000000000000600082015250565b6000612322600a83612072565b915061232d826122ec565b602082019050919050565b6000602082019050818103600083015261235181612315565b9050919050565b7f416c7265616479206c6f636b6564000000000000000000000000000000000000600082015250565b600061238e600e83612072565b915061239982612358565b602082019050919050565b600060208201905081810360008301526123bd81612381565b905091905056fea264697066735822122083bac52bf2bcf3769e2038f9701702190eaf55d5bdf1e0fe30cc55293cd391fb64736f6c63430008140033",
  "linkReferences": {},
  "deployedLinkReferences": {}
}