{
  "_format": "hh-sol-artifact-1",
  "contractName": "FlashOptimusPrime",
  "sourceName": "contracts/FlashOptimusPrime.sol",
  "abi": [
    {
      "inputs": [
        {
          "internalType": "address",
          "name": "_pancakeV3Router",
          "type": "address"
        },
        {
          "internalType": "address",
          "name": "_uniswapV3Router",
          "type": "address"
        }
      ],
      "stateMutability": "nonpayable",
      "type": "constructor"
    },
    {
      "inputs": [
        {
          "internalType": "uint256",
          "name": "finalBalance",
          "type": "uint256"
        }
      ],
      "name": "NoProfit",
      "type": "error"
    },
    {
      "inputs": [
        {
          "internalType": "address",
          "name": "sender",
          "type": "address"
        }
      ],
      "name": "NotTheOwner",
      "type": "error"
    },
    {
      "inputs": [],
      "name": "amountBorrowed",
      "outputs": [
        {
          "internalType": "uint256",
          "name": "",
          "type": "uint256"
        }
      ],
      "stateMutability": "view",
      "type": "function"
    },
    {
      "inputs": [
        {
          "internalType": "address",
          "name": "token",
          "type": "address"
        },
        {
          "internalType": "address",
          "name": "spender",
          "type": "address"
        },
        {
          "internalType": "uint256",
          "name": "value",
          "type": "uint256"
        }
      ],
      "name": "approveToken",
      "outputs": [],
      "stateMutability": "nonpayable",
      "type": "function"
    },
    {
      "inputs": [],
      "name": "borrowedByPool",
      "outputs": [
        {
          "internalType": "address",
          "name": "",
          "type": "address"
        }
      ],
      "stateMutability": "view",
      "type": "function"
    },
    {
      "inputs": [],
      "name": "codePath",
      "outputs": [
        {
          "internalType": "uint256",
          "name": "",
          "type": "uint256"
        }
      ],
      "stateMutability": "view",
      "type": "function"
    },
    {
      "inputs": [
        {
          "internalType": "uint256",
          "name": "_codePath",
          "type": "uint256"
        },
        {
          "internalType": "bool",
          "name": "_isUniswpapPool",
          "type": "bool"
        },
        {
          "internalType": "address",
          "name": "_poolBorrowed",
          "type": "address"
        },
        {
          "internalType": "address",
          "name": "_tokenBorrowed",
          "type": "address"
        },
        {
          "internalType": "uint256",
          "name": "_token0AmounBorrowed",
          "type": "uint256"
        },
        {
          "internalType": "uint256",
          "name": "_token1AmountBorrowed",
          "type": "uint256"
        },
        {
          "internalType": "uint256",
          "name": "_feePoolBorrowed",
          "type": "uint256"
        },
        {
          "internalType": "address[]",
          "name": "_path",
          "type": "address[]"
        },
        {
          "internalType": "uint24[]",
          "name": "_poolFees",
          "type": "uint24[]"
        }
      ],
      "name": "initFlash",
      "outputs": [],
      "stateMutability": "nonpayable",
      "type": "function"
    },
    {
      "inputs": [],
      "name": "owner",
      "outputs": [
        {
          "internalType": "address",
          "name": "",
          "type": "address"
        }
      ],
      "stateMutability": "view",
      "type": "function"
    },
    {
      "inputs": [],
      "name": "pancakeV3Router",
      "outputs": [
        {
          "internalType": "address",
          "name": "",
          "type": "address"
        }
      ],
      "stateMutability": "view",
      "type": "function"
    },
    {
      "inputs": [
        {
          "internalType": "uint256",
          "name": "",
          "type": "uint256"
        }
      ],
      "name": "path",
      "outputs": [
        {
          "internalType": "address",
          "name": "",
          "type": "address"
        }
      ],
      "stateMutability": "view",
      "type": "function"
    },
    {
      "inputs": [],
      "name": "poolFeeTokenBorrowed",
      "outputs": [
        {
          "internalType": "uint256",
          "name": "",
          "type": "uint256"
        }
      ],
      "stateMutability": "view",
      "type": "function"
    },
    {
      "inputs": [
        {
          "internalType": "uint256",
          "name": "",
          "type": "uint256"
        }
      ],
      "name": "poolFees",
      "outputs": [
        {
          "internalType": "uint24",
          "name": "",
          "type": "uint24"
        }
      ],
      "stateMutability": "view",
      "type": "function"
    },
    {
      "inputs": [],
      "name": "tokenBorrowed",
      "outputs": [
        {
          "internalType": "address",
          "name": "",
          "type": "address"
        }
      ],
      "stateMutability": "view",
      "type": "function"
    },
    {
      "inputs": [],
      "name": "tradeTriangularPancakeV3",
      "outputs": [],
      "stateMutability": "nonpayable",
      "type": "function"
    },
    {
      "inputs": [],
      "name": "tradeTriangularUniswapV3",
      "outputs": [],
      "stateMutability": "nonpayable",
      "type": "function"
    },
    {
      "inputs": [
        {
          "internalType": "uint256",
          "name": "fee0",
          "type": "uint256"
        },
        {
          "internalType": "uint256",
          "name": "fee1",
          "type": "uint256"
        },
        {
          "internalType": "bytes",
          "name": "data",
          "type": "bytes"
        }
      ],
      "name": "uniswapV3FlashCallback",
      "outputs": [],
      "stateMutability": "nonpayable",
      "type": "function"
    },
    {
      "inputs": [],
      "name": "uniswapV3Router",
      "outputs": [
        {
          "internalType": "address",
          "name": "",
          "type": "address"
        }
      ],
      "stateMutability": "view",
      "type": "function"
    }
  ],
  "bytecode": "0x60e06040523480156200001157600080fd5b5060405162001a4138038062001a41833981810160405281019062000037919062000145565b8173ffffffffffffffffffffffffffffffffffffffff1660808173ffffffffffffffffffffffffffffffffffffffff16815250508073ffffffffffffffffffffffffffffffffffffffff1660a08173ffffffffffffffffffffffffffffffffffffffff16815250503373ffffffffffffffffffffffffffffffffffffffff1660c08173ffffffffffffffffffffffffffffffffffffffff168152505050506200018c565b600080fd5b600073ffffffffffffffffffffffffffffffffffffffff82169050919050565b60006200010d82620000e0565b9050919050565b6200011f8162000100565b81146200012b57600080fd5b50565b6000815190506200013f8162000114565b92915050565b600080604083850312156200015f576200015e620000db565b5b60006200016f858286016200012e565b925050602062000182858286016200012e565b9150509250929050565b60805160a05160c051611870620001d16000396000818161058d015281816107ed01526108ce0152600081816102f301526104ed015260006108a801526118706000f3fe608060405234801561001057600080fd5b50600436106100f55760003560e01c8063ae54f32411610097578063c27745dd11610066578063c27745dd14610252578063cb818ac314610270578063da3e33971461027a578063e9cbafb014610296576100f5565b8063ae54f324146101c8578063af6d1fe4146101e6578063b717e99714610216578063b728f52d14610234576100f5565b80635f32fede116100d35780635f32fede146101665780636594ffce146101705780638da5cb5b1461018c57806398b1d1eb146101aa576100f5565b806311236758146100fa57806318f1af361461012a5780632c76d7a614610148575b600080fd5b610114600480360381019061010f9190610da6565b6102b2565b6040516101219190610df1565b60405180910390f35b6101326102eb565b60405161013f9190610e1b565b60405180910390f35b6101506102f1565b60405161015d9190610e77565b60405180910390f35b61016e610315565b005b61018a6004803603810190610185919061113e565b61058b565b005b6101946107eb565b6040516101a19190610e77565b60405180910390f35b6101b261080f565b6040516101bf9190610e1b565b60405180910390f35b6101d0610815565b6040516101dd9190610e77565b60405180910390f35b61020060048036038101906101fb9190610da6565b61083b565b60405161020d9190610e77565b60405180910390f35b61021e61087a565b60405161022b9190610e1b565b60405180910390f35b61023c610880565b6040516102499190610e77565b60405180910390f35b61025a6108a6565b6040516102679190610e77565b60405180910390f35b6102786108ca565b005b610294600480360381019061028f9190611240565b6108cc565b005b6102b060048036038101906102ab9190611348565b6109e0565b005b600681815481106102c257600080fd5b90600052602060002090600a9182820401919006600302915054906101000a900462ffffff1681565b60005481565b7f000000000000000000000000000000000000000000000000000000000000000081565b60006040518060800160405280600160009054906101000a900473ffffffffffffffffffffffffffffffffffffffff16600660008154811061035a576103596113b7565b5b90600052602060002090600a91828204019190066003029054906101000a900462ffffff166005600081548110610394576103936113b7565b5b9060005260206000200160009054906101000a900473ffffffffffffffffffffffffffffffffffffffff1660066001815481106103d4576103d36113b7565b5b90600052602060002090600a91828204019190066003029054906101000a900462ffffff16600560018154811061040e5761040d6113b7565b5b9060005260206000200160009054906101000a900473ffffffffffffffffffffffffffffffffffffffff16600660028154811061044e5761044d6113b7565b5b90600052602060002090600a91828204019190066003029054906101000a900462ffffff16600160009054906101000a900473ffffffffffffffffffffffffffffffffffffffff166040516020016104ac9796959493929190611464565b60405160208183030381529060405281526020013073ffffffffffffffffffffffffffffffffffffffff1681526020016004548152602001600081525090507f000000000000000000000000000000000000000000000000000000000000000073ffffffffffffffffffffffffffffffffffffffff1663b858183f826040518263ffffffff1660e01b815260040161054491906115e5565b6020604051808303816000875af1158015610563573d6000803e3d6000fd5b505050506040513d601f19601f82011682018060405250810190610587919061161c565b5050565b7f000000000000000000000000000000000000000000000000000000000000000073ffffffffffffffffffffffffffffffffffffffff163373ffffffffffffffffffffffffffffffffffffffff161461061b57336040517ff9ebb4c70000000000000000000000000000000000000000000000000000000081526004016106129190610e77565b60405180910390fd5b8860008190555085600160006101000a81548173ffffffffffffffffffffffffffffffffffffffff021916908373ffffffffffffffffffffffffffffffffffffffff16021790555086600260006101000a81548173ffffffffffffffffffffffffffffffffffffffff021916908373ffffffffffffffffffffffffffffffffffffffff1602179055508260038190555081600590805190602001906106c1929190610c08565b5080600690805190602001906106d8929190610c92565b5060008511156106ee57846004819055506106f6565b836004819055505b8715610770578673ffffffffffffffffffffffffffffffffffffffff1663490e6cbc3087876040518463ffffffff1660e01b815260040161073993929190611680565b600060405180830381600087803b15801561075357600080fd5b505af1158015610767573d6000803e3d6000fd5b505050506107e0565b8673ffffffffffffffffffffffffffffffffffffffff1663490e6cbc3087876040518463ffffffff1660e01b81526004016107ad93929190611680565b600060405180830381600087803b1580156107c757600080fd5b505af11580156107db573d6000803e3d6000fd5b505050505b505050505050505050565b7f000000000000000000000000000000000000000000000000000000000000000081565b60035481565b600260009054906101000a900473ffffffffffffffffffffffffffffffffffffffff1681565b6005818154811061084b57600080fd5b906000526020600020016000915054906101000a900473ffffffffffffffffffffffffffffffffffffffff1681565b60045481565b600160009054906101000a900473ffffffffffffffffffffffffffffffffffffffff1681565b7f000000000000000000000000000000000000000000000000000000000000000081565b565b7f000000000000000000000000000000000000000000000000000000000000000073ffffffffffffffffffffffffffffffffffffffff163373ffffffffffffffffffffffffffffffffffffffff161461095c57336040517ff9ebb4c70000000000000000000000000000000000000000000000000000000081526004016109539190610e77565b60405180910390fd5b8273ffffffffffffffffffffffffffffffffffffffff1663095ea7b383836040518363ffffffff1660e01b81526004016109979291906116ca565b6020604051808303816000875af11580156109b6573d6000803e3d6000fd5b505050506040513d601f19601f820116820180604052508101906109da9190611708565b50505050565b6001600054036109f3576109f2610315565b5b600260005403610a0657610a056108ca565b5b6000600160009054906101000a900473ffffffffffffffffffffffffffffffffffffffff1673ffffffffffffffffffffffffffffffffffffffff166370a08231306040518263ffffffff1660e01b8152600401610a639190610e77565b602060405180830381865afa158015610a80573d6000803e3d6000fd5b505050506040513d601f19601f82011682018060405250810190610aa4919061161c565b9050620f4240600354600454610aba9190611764565b610ac491906117d5565b600454610ad19190611806565b811015610b1557806040517fd4989a94000000000000000000000000000000000000000000000000000000008152600401610b0c9190610e1b565b60405180910390fd5b600160009054906101000a900473ffffffffffffffffffffffffffffffffffffffff1673ffffffffffffffffffffffffffffffffffffffff1663a9059cbb600260009054906101000a900473ffffffffffffffffffffffffffffffffffffffff16620f4240600354600454610b8a9190611764565b610b9491906117d5565b600454610ba19190611806565b6040518363ffffffff1660e01b8152600401610bbe9291906116ca565b6020604051808303816000875af1158015610bdd573d6000803e3d6000fd5b505050506040513d601f19601f82011682018060405250810190610c019190611708565b5050505050565b828054828255906000526020600020908101928215610c81579160200282015b82811115610c805782518260006101000a81548173ffffffffffffffffffffffffffffffffffffffff021916908373ffffffffffffffffffffffffffffffffffffffff16021790555091602001919060010190610c28565b5b509050610c8e9190610d3f565b5090565b82805482825590600052602060002090600901600a90048101928215610d2e5791602002820160005b83821115610cfd57835183826101000a81548162ffffff021916908362ffffff1602179055509260200192600301602081600201049283019260010302610cbb565b8015610d2c5782816101000a81549062ffffff0219169055600301602081600201049283019260010302610cfd565b505b509050610d3b9190610d3f565b5090565b5b80821115610d58576000816000905550600101610d40565b5090565b6000604051905090565b600080fd5b600080fd5b6000819050919050565b610d8381610d70565b8114610d8e57600080fd5b50565b600081359050610da081610d7a565b92915050565b600060208284031215610dbc57610dbb610d66565b5b6000610dca84828501610d91565b91505092915050565b600062ffffff82169050919050565b610deb81610dd3565b82525050565b6000602082019050610e066000830184610de2565b92915050565b610e1581610d70565b82525050565b6000602082019050610e306000830184610e0c565b92915050565b600073ffffffffffffffffffffffffffffffffffffffff82169050919050565b6000610e6182610e36565b9050919050565b610e7181610e56565b82525050565b6000602082019050610e8c6000830184610e68565b92915050565b60008115159050919050565b610ea781610e92565b8114610eb257600080fd5b50565b600081359050610ec481610e9e565b92915050565b610ed381610e56565b8114610ede57600080fd5b50565b600081359050610ef081610eca565b92915050565b600080fd5b6000601f19601f8301169050919050565b7f4e487b7100000000000000000000000000000000000000000000000000000000600052604160045260246000fd5b610f4482610efb565b810181811067ffffffffffffffff82111715610f6357610f62610f0c565b5b80604052505050565b6000610f76610d5c565b9050610f828282610f3b565b919050565b600067ffffffffffffffff821115610fa257610fa1610f0c565b5b602082029050602081019050919050565b600080fd5b6000610fcb610fc684610f87565b610f6c565b90508083825260208201905060208402830185811115610fee57610fed610fb3565b5b835b8181101561101757806110038882610ee1565b845260208401935050602081019050610ff0565b5050509392505050565b600082601f83011261103657611035610ef6565b5b8135611046848260208601610fb8565b91505092915050565b600067ffffffffffffffff82111561106a57611069610f0c565b5b602082029050602081019050919050565b61108481610dd3565b811461108f57600080fd5b50565b6000813590506110a18161107b565b92915050565b60006110ba6110b58461104f565b610f6c565b905080838252602082019050602084028301858111156110dd576110dc610fb3565b5b835b8181101561110657806110f28882611092565b8452602084019350506020810190506110df565b5050509392505050565b600082601f83011261112557611124610ef6565b5b81356111358482602086016110a7565b91505092915050565b60008060008060008060008060006101208a8c03121561116157611160610d66565b5b600061116f8c828d01610d91565b99505060206111808c828d01610eb5565b98505060406111918c828d01610ee1565b97505060606111a28c828d01610ee1565b96505060806111b38c828d01610d91565b95505060a06111c48c828d01610d91565b94505060c06111d58c828d01610d91565b93505060e08a013567ffffffffffffffff8111156111f6576111f5610d6b565b5b6112028c828d01611021565b9250506101008a013567ffffffffffffffff81111561122457611223610d6b565b5b6112308c828d01611110565b9150509295985092959850929598565b60008060006060848603121561125957611258610d66565b5b600061126786828701610ee1565b935050602061127886828701610ee1565b925050604061128986828701610d91565b9150509250925092565b600080fd5b600067ffffffffffffffff8211156112b3576112b2610f0c565b5b6112bc82610efb565b9050602081019050919050565b82818337600083830152505050565b60006112eb6112e684611298565b610f6c565b90508281526020810184848401111561130757611306611293565b5b6113128482856112c9565b509392505050565b600082601f83011261132f5761132e610ef6565b5b813561133f8482602086016112d8565b91505092915050565b60008060006060848603121561136157611360610d66565b5b600061136f86828701610d91565b935050602061138086828701610d91565b925050604084013567ffffffffffffffff8111156113a1576113a0610d6b565b5b6113ad8682870161131a565b9150509250925092565b7f4e487b7100000000000000000000000000000000000000000000000000000000600052603260045260246000fd5b60008160601b9050919050565b60006113fe826113e6565b9050919050565b6000611410826113f3565b9050919050565b61142861142382610e56565b611405565b82525050565b60008160e81b9050919050565b60006114468261142e565b9050919050565b61145e61145982610dd3565b61143b565b82525050565b6000611470828a611417565b601482019150611480828961144d565b6003820191506114908288611417565b6014820191506114a0828761144d565b6003820191506114b08286611417565b6014820191506114c0828561144d565b6003820191506114d08284611417565b60148201915081905098975050505050505050565b600081519050919050565b600082825260208201905092915050565b60005b8381101561151f578082015181840152602081019050611504565b60008484015250505050565b6000611536826114e5565b61154081856114f0565b9350611550818560208601611501565b61155981610efb565b840191505092915050565b61156d81610e56565b82525050565b61157c81610d70565b82525050565b6000608083016000830151848203600086015261159f828261152b565b91505060208301516115b46020860182611564565b5060408301516115c76040860182611573565b5060608301516115da6060860182611573565b508091505092915050565b600060208201905081810360008301526115ff8184611582565b905092915050565b60008151905061161681610d7a565b92915050565b60006020828403121561163257611631610d66565b5b600061164084828501611607565b91505092915050565b600082825260208201905092915050565b50565b600061166a600083611649565b91506116758261165a565b600082019050919050565b60006080820190506116956000830186610e68565b6116a26020830185610e0c565b6116af6040830184610e0c565b81810360608301526116c08161165d565b9050949350505050565b60006040820190506116df6000830185610e68565b6116ec6020830184610e0c565b9392505050565b60008151905061170281610e9e565b92915050565b60006020828403121561171e5761171d610d66565b5b600061172c848285016116f3565b91505092915050565b7f4e487b7100000000000000000000000000000000000000000000000000000000600052601160045260246000fd5b600061176f82610d70565b915061177a83610d70565b925082820261178881610d70565b9150828204841483151761179f5761179e611735565b5b5092915050565b7f4e487b7100000000000000000000000000000000000000000000000000000000600052601260045260246000fd5b60006117e082610d70565b91506117eb83610d70565b9250826117fb576117fa6117a6565b5b828204905092915050565b600061181182610d70565b915061181c83610d70565b925082820190508082111561183457611833611735565b5b9291505056fea2646970667358221220ecf390bf65bc3df0d0e24b3025f49984f420260662c574fc4c8c68e4d40ce2d864736f6c63430008140033",
  "linkReferences": {},
  "deployedLinkReferences": {}
}